:100000000C9447030C9418070C9464030C94F806A2
:100010000C9464030C9464030C9464030C946403C4
:100020000C9464030C9464030C9464030C946403B4
:100030000C9464030C9464030C9464030C946403A4
:100040000C9408070C9464030C9464030C946403EC
:100050000C9464030C9464030C9464030C94640384
:100060000C9464030C9464030C9464030C94640374
:100070000C9464030C9464030C9464036C0B550B94
:10008000120B100B230B350B450B680B680B680B21
:10009000680B680B680B680B680B660B680B680BCA
:1000A000680B680B680B680B680B680B680B680BB8
:1000B000680B680B680B680B680B680B6C0B550BB7
:1000C000120B100B230B350B450B680B680B680BE1
:1000D000680B680B680B680B680B660BDC0BE40B9A
:1000E000EC0BF40BFC0B040CE40B2010CD0FA9104F
:1000F0000E100E10A910B6109610A9108510A91098
:100100000E108510A910A91050106F108C156E15C7
:1001100074159815DD1577157A157D1580158315DD
:100120008615A015A315A715AA15CB15D415F71577
:10013000AD15B0157115CE15D115B315B6158915B8
:1001400089158F1592159515CE15F715F7156915A3
:10015000B915BC15BF15C515C815E015E015E01596
:10016000E015E015D715DA15DD1547164A167C1689
:100170007F168216851690169316961699169C165B
:100180009F16A216A516A816AB16AE16B116B41673
:10019000B716000000000000000000000000000092
:1001A00000000000000000000000607E607E000093
:1001B000000000000000000000000000000000003F
:1001C00000000000000009090909607E607E00004F
:1001D000000000000000000000000000000000001F
:1001E00000000000000071515171312131210000E7
:1001F000000000000000000000007A5A5A7A735391
:100200005373614141617757577732403240000064
:10021000000000000000634343637858587864444A
:100220004464654545653424342433233323000076
:1002300000000000000020202020765656766646FA
:100240004666745454747252527235253525000036
:100250000000000000006E4E4E6E6242426268482E
:1002600048686747476779595979365E365E0000B6
:100270000000000000002C3C2C3C6D4D4D6D6A4A86
:100280004A6A7555557537263726382A382A0000A8
:100290000000000000002C3C2C3C6B4B4B6B694970
:1002A00049696F4F4F6F30293029392839280000AC
:1002B0000000000000002E3E2E3E2F3F2F3F6C4CD2
:1002C0004C6C3B3A3B3A705050702D5F2D5F0000F4
:1002D000000000000000000000002722272200008C
:1002E00000005B7B5B7B3D2B3D2B00000000000092
:1002F000000000000000000000000D0D0D0D5D7DF0
:100300005D7D000000005C7C5C7C00000000000063
:100310000000000000003C3C3C3C000000000000ED
:1003200000000000000000000000080808080000AD
:100330000000000000003131313100000000343491
:100340003434373737370000000000000000000069
:100350000000303030302E2E2E2E323232323535F3
:10036000353536363636383838381B1B1B1B0000FF
:100370000000000000002B2B2B2B333333332D2DAB
:100380002D2D2A2A2A2A3939393900000000000087
:1003900000004B6579626F61726420636F6E6E65F9
:1003A00063746564207375636365737366756C6CE1
:1003B00079004B6579626F6172642073656C662D9C
:1003C00074657374206661696C656400484947C848
:1003D00048C94C4FD74CCF00535445D00054CF00A0
:1003E0003EBD3CBEBEBD3CBDBC21BD00504545CB65
:1003F0004142D3524EC450494E44524541C45049E3
:100400004E41524541C4004C4953D44E45D75255F4
:10041000CE4E4558D44C45D449C6474F54CF4D5085
:100420004C41D94D53544FD054454D50CF4D555359
:1004300049C3474F5355C25245545552CE52414E6F
:10044000444F4D495AC5524E44534545C45253D466
:10045000434CD35245CD464FD2494E5055D44245D8
:1004600045D05052494ED44C4F434154C5504F4B48
:10047000C5505345D453544FD0454EC44D45CD502F
:1004800045CE50415045D2BFA3A744454C41D94524
:100490004C4953D445464F524D41D44543484149B8
:1004A000CE45534156C5454C4F41C446494C45D3B2
:1004B00043464F524D41D44343484149CE435341B3
:1004C00056C5434C4F41C450494E4449D250494E01
:1004D0004457524954C5004578706563746564207B
:1004E000636F6C6F72205B302E2E3132375D004FA0
:1004F0007574206F662072616E676500457870655F
:10050000637465642062797465205B302E2E323509
:10051000355D00496E76616C69642076617269614F
:10052000626C65206E616D6500496E76616C696410
:1005300020636F6F7264696E6174657300556E6BD2
:100540006E6F776E20636F6D6D616E6400556E6BBC
:100550006E6F776E2066756E6374696F6E0050699A
:100560006E20492F4F206572726F7200496E76615E
:100570006C69642070696E205B302E2E375D0044FC
:1005800069766973696F6E206279207A65726F008F
:100590004F70657261746F72206578706563746501
:1005A0006400496E76616C6964206C696E65206ECA
:1005B000756D626572004A756D7020706F696E743A
:1005C000206E6F7420666F756E640056617269618B
:1005D000626C652065787065637465640070617233
:1005E000656E746865736973206D697373696E678E
:1005F00000556E6578706563746564206368617228
:10060000616374657200537461636B206F76657209
:10061000666C6F770053796E746178206572726FC3
:1006200072004E6F742079657420696D706C656D11
:10063000656E74656400526967687420004C656675
:100640007420004F4B00427265616B21002062797B
:1006500074657320617661696C61626C650020620B
:100660007974657320524F4D002062797465732050
:1006700052414D0057656C636F6D6520746F206E3D
:10068000737442415349432076302E3200001124C6
:100690001FBECFEFD0E1DEBFCDBF11E0A0E0B1E0E3
:1006A000E0E0F6E302C005900D92A633B107D9F75A
:1006B0002DE0A6E3B1E001C01D92A63CB207E1F730
:1006C0000E94C2160C94FE1A0C9400000E94C30BE8
:1006D00090939E0D80939D0D8091BE0D811107C05A
:1006E000E0919F0DF091A00D80818A3021F084E08F
:1006F0008093BE0D08950E94C70E9093B20D809313
:10070000B10D81E008950E94C30B2091BE0D21110F
:1007100007C0E0919F0DF091A00D20812A3021F4B7
:1007200084E08093BE0D0895892B11F086E0089532
:1007300082E00895BF92CF92DF92EF92FF920F93E3
:100740001F93CF93DF930E94E10EE0919F0DF091F4
:10075000A00DD0808FEB8D0D8A3110F087E00FC097
:100760003196F093A00DE0939F0D0E94E10EE09171
:100770009F0DF091A00D80818D3329F08AE0809348
:10078000BE0D84E079C03196F093A00DE0939F0DEB
:100790000E94E10E1092BE0D0E94C30B7C0180915D
:1007A000BE0D8111EECF8DED93E00E94830A811181
:1007B00024C00E94C30B8C018091BE0D8111E1CF3A
:1007C00088ED93E00E94830A811109C00E94C30B47
:1007D0002091BE0D2111D5CFB82EC92E03C0BB2448
:1007E000B394C12C0E94E10EC0919F0DD091A00D39
:1007F00028812A3021F02A3311F082E0C0CF809185
:10080000BE0D811136C02A30A1F5E091A50DF09101
:10081000A60D9F01265F3F4F4091AD0D5091AE0D4B
:100820002417350710F483E0AACF3A97F093A60D6A
:10083000E093A50D2D2D30E021543048220F331FB9
:10084000A091BA0DB091BB0DA20FB31FED92FC9217
:1008500086E48083D18213830283B482C582D187E8
:10086000C0878091B10D9091B20D9783868383E00C
:1008700003C084E08093BE0DDF91CF911F910F9153
:10088000FF90EF90DF90CF90BF9008951092BE0D33
:100890000E94C30B90939E0D80939D0D8091BE0D81
:1008A000811132C0A0919F0DB091A00D8C918A3022
:1008B00059F5E091A50DF091A60DCF010696209176
:1008C000AD0D3091AE0D8217930728F483E080932D
:1008D000BE0D84E008953697F093A60DE093A50D24
:1008E00087E490E091838083B583A4838091B10DE8
:1008F0009091B20D938382830E94C70E9093B20DA4
:100900008093B10D81E0089584E08093BE0D089539
:100910000E94E10EE0919F0DF091A00D8081815425
:100920008A3110F087E011C03196F093A00DE0936A
:100930009F0D0E94E10EE0919F0DF091A00D80812E
:100940008A3339F08A3029F082E08093BE0D84E04A
:10095000089580E008952091A50D3091A60DA091F5
:100960009F0DB091A00DF90111979DE0EC39F907A9
:1009700008F057C090819634D1F0973409F054C0F4
:100980008C3099F4828193819093B20D8093B10D54
:10099000848195819093A00D80939F0D2A5F3F4F96
:1009A0003093A60D2093A50D38C03696DECF833048
:1009B000B1F59C914181941332C0892F90E081540C
:1009C0009048880F991FA091BA0DB091BB0DA80F48
:1009D000B91F8D919C91119724813581820F931FAE
:1009E0008D939C9324813581232B91F02281338137
:1009F0002817390768F0808591859093A00D809322
:100A00009F0D868197819093B20D8093B10D05C0A3
:100A10003A96F093A60DE093A50D83E008953A96DB
:100A2000A4CF88E08093BE0D84E00895CF93DF9338
:100A3000C2ECDDE06881798188EC90E00E94BE170D
:100A40000E9401086881798184E796E00E942C0E5B
:100A50008091B80D9091B90D9093B40D8093B30D22
:100A600085E0DF91CF9108956091C20D7091C30D23
:100A700089EC90E00E94BE170E94010883E008956F
:100A80000E94C30B2091BE0D21110BC0803891052F
:100A900020F084E18093BE0D04C00E94B60882E07D
:100AA000089584E008950E94C30B2091BE0D21118A
:100AB0000BC08038910520F084E18093BE0D04C006
:100AC0000E94CB0882E0089584E00895CF93DF93DD
:100AD0000E94C30BEC018091BE0D81111DC0C83175
:100AE000D105B8F4E0919F0DF091A00D80818C327A
:100AF00011F082E00FC03196F093A00DE0939F0DAE
:100B00000E94C30B2091BE0D211106C080329105B9
:100B100028F080E18093BE0D84E005C0682F8C2F03
:100B20000E94E00882E0DF91CF910895E0919F0D4F
:100B3000F091A00D80818A3381F48091C20D909153
:100B4000C30D0E941D0E80919F0D9091A00D0196E6
:100B50009093A00D80939F0D48C08A3009F44BC03C
:100B60000E94E10E0E94E60D81111BC0E0919F0DD5
:100B7000F091A00D8081823211F0873221F484E05F
:100B80008093BE0D08951092BE0D0E94C30B20915C
:100B9000BE0D211132C06091C20D7091C30D0E9433
:100BA0004B0EE0919F0DF091A00D80818C3231F4BD
:100BB0003196F093A00DE0939F0DD2CF8B3359F473
:100BC00081818A3011F08A3391F43196F093A00D2F
:100BD000E0939F0D0AC08A3011F08A3341F480916E
:100BE000C20D9091C30D0E941D0E83E0089582E016
:100BF0008093BE0D02C082E0089584E008950F93B3
:100C00001F93CF93DF930E94C30BEC018091BE0D25
:100C1000811136C0CF3FD10509F0B0F4E0919F0DAE
:100C2000F091A00D80818C32C1F43196F093A00D2B
:100C3000E0939F0D0E94C30B8C018091BE0D81112A
:100C40001FC0003F110510F080E118C0E0919F0D1A
:100C5000F091A00D80818C3211F082E00FC03196AE
:100C6000F093A00DE0939F0D0E94C30B2091BE0D49
:100C7000211106C08038910528F084E18093BE0DD3
:100C800084E006C0482F602F8C2F0E94FE0882E06F
:100C9000DF91CF911F910F910895CF93C82F8A3084
:100CA00019F48DE00E944D068091C00085FFFCCFB5
:100CB000C093C60080E090E0CF9108958091C0007D
:100CC00087FFFCCF8091C60090E0089590914A0183
:100CD000903198F420913701E22FF0E0E65CFE4F6E
:100CE000808381E0820F809337019F5F90934A0158
:100CF000803129F41092370108950C947E0F0895E5
:100D000020914A01211105C08FE090E00E946A0FF6
:100D1000F7CF90913601E92FF0E0E65CFE4F80813D
:100D20009F5F90933601215020934A01903111F436
:100D30001092360190E00895682F8091AF0D909148
:100D4000B00D9C012F5F3F4F3093B00D2093AF0D3E
:100D50000E94DE1980E090E008958091AF0D90919F
:100D6000B00D9C012F5F3F4F3093B00D2093AF0D1E
:100D70000E94D61990E0089588B94E99FECF5F9AE7
:100D80004E9BFECF5F986EE071E0883079F488E08A
:100D900090E00E94BE176EE071E080E290E00E9459
:100DA000BE176EE071E088E090E003C0992787FDF0
:100DB00090950E94BE1780E090E0089522982A9AAC
:100DC000EA9A539852985B9A5A9A82E084BD15BC6D
:100DD00094E697BD80936E001092B70D9BE09093C0
:100DE0004B018093690010924C01E89A7894089521
:100DF0001F920F920FB60F9211248F9381E0809370
:100E0000B70DEA988F910F900FBE0F901F90189515
:100E10001F920F920FB60F9211248F938BE0809345
:100E20004B0115BC8F910F900FBE0F901F9018951E
:100E30001F920F920FB60F9211242F933F934F934F
:100E40005F936F937F938F939F93AF93BF93EF9332
:100E5000FF9399B120914C0180914B0121111AC04F
:100E60008B3011F485E085BD80914B018350883033
:100E700050F48091390186958093390193FF03C026
:100E800080688093390183E08093690081E08093DA
:100E90004C01A6C0815080934B0181119CC0E09110
:100EA00039018091380180FD86C0E73759F158F447
:100EB000E43169F118F4E23161F12DC0E83501F156
:100EC000E93539F128C0E03EB1F020F4EA3A09F4FE
:100ED0007FC021C0E03F89F0EC3FE9F46091C20D92
:100EE0007091C30D82EB93E00E942C0E0E947E0F46
:100EF0000E947E0F6DC0826069C08D7F816066C078
:100F000090E201C098E098279093380161C0846016
:100F10005DC080615BC082FF1AC0E13221F481E0D4
:100F20008093B70D55C0E43329F48B7F809338014B
:100F300087E03EC0EB3411F48CE03AC0EC3111F4A0
:100F400081E036C0E43209F043C082E031C081FF65
:100F500021C0EA3511F48DE017C0E53711F484E0C3
:100F600013C0E23711F485E00FC0EB3611F480E1D5
:100F70000BC0E43711F481E107C0EC3611F481E0D5
:100F800003C0E93619F482E00E94660680913801B8
:100F90008D7F1CC084FB992790F985FD9E5F84E0BE
:100FA000E89FF0011124E90FF11DEE56FE4F8491E8
:100FB0000E9466060DC0E43131F0E93531F0E231CE
:100FC00021F08E7F03C08A7F01C08E7E809338011E
:100FD0008BE080934B0182E08093690010924C017A
:100FE000FF91EF91BF91AF919F918F917F916F9101
:100FF0005F914F913F912F910F900FBE0F901F90D7
:1010000018956EE071E08BE190E00E94BE176EE0F3
:1010100071E08BE590E00E94BE176EE071E080E326
:1010200090E00E94BE176EE071E08DE690E00E94B5
:10103000BE176EE071E08BE190E00E94BE176EE09B
:1010400071E08BE590E00E94BE176EE071E088E4ED
:1010500090E00E94BE176EE071E08BE190E00E948C
:10106000BE176EE071E08BE590E00E94BE176EE067
:1010700071E08AE490E00C94BE17CF938CE191E08C
:101080009093C10D8093C00D9093C30D8093C20DBA
:1010900010927C0087E880937A0080917A008064C7
:1010A00080937A0080917A0086FDFCCF11B8CFEF53
:1010B000C2B9209A289A0E94DE06C7B95698579A54
:1010C0005498559A1092C50085E18093C40086E03B
:1010D0008093C20088E18093C100CF910C940108F5
:1010E000FF920F931F93CF93DF93C82FF62E6EE0DE
:1010F00071E08BE190E00E94BE176EE071E08BE53D
:1011000090E00E94BE171F92CF930EE211E01F9352
:101110000F93CEE0D1E0DF93CF930E94AC17BE01D6
:101120008BE390E00E94BE171F92FF921F930F93D4
:10113000DF93CF930E94AC178DB79EB70C960FB676
:10114000F8949EBF0FBE8DBFBE0188E490E0DF9192
:10115000CF911F910F91FF900C94BE1788B94C99B5
:10116000FECF5D9A4C9BFECF5D9808951F93CF9361
:10117000DF93182FC2ECDDE0688179818EEC90E07E
:101180000E94BE1768817981812F90E0DF91CF9115
:101190001F910C94BE171F93CF93DF93182FC2ECAF
:1011A000DDE0688179818FEC90E00E94BE17688154
:1011B0007981812F90E0DF91CF911F910C94BE1720
:1011C0000F931F93CF93DF93082F162FC2ECDDE010
:1011D000688179818DEC90E00E94BE1768817981E9
:1011E000802F90E00E94BE1768817981812F90E066
:1011F000DF91CF911F910F910C94BE17EF92FF9248
:101200000F931F93CF93DF931F92CDB7DEB7082FB5
:10121000162F82ECE82E8DE0F82EF70160817181A7
:101220008AEC90E049830E94BE17F70160817181CA
:10123000802F90E00E94BE17F70160817181812F9D
:1012400090E00E94BE17F701608171814981842F6F
:1012500090E00F90DF91CF911F910F91FF90EF9051
:101260000C94BE178FEC0E94AE0883E008958EECBC
:101270000E94AE0883E008950E94E10E0E94C30B15
:101280002091BE0D211122C08837910599F038F4C4
:10129000CC97F1F48CEC0E94AE0880E014C0863943
:1012A000910569F0843B910599F48CEC0E94AE089D
:1012B00088E109C08CEC0E94AE0888E004C08CEC88
:1012C0000E94AE0880E10E94AE0802C084E008954A
:1012D00083E00895CF93DF930E94E10E1092BE0D3C
:1012E000E0919F0DF091A00DC081C23231F0C73264
:1012F00021F082E08093BE0D26C03196F093A00DC0
:10130000E0939F0DD4E009C080919F0D9091A00DB6
:1013100001969093A00D80939F0DE0919F0DF09109
:10132000A00D80818C1709F449C0893571F489ECCE
:101330000E94AE080E94C30A8091BE0D882321F34B
:1013400088EC0E94AE0884E03FC08A3580F4853482
:1013500031F130F4833409F1F0F4813441F32BC0DE
:101360008E34C9F08835C9F08D3429F518C085361A
:10137000B1F030F4833689F070F48136C1F21BC0CD
:101380008E3649F018F48D3651F015C0883729F0A3
:10139000893769F210C08AECCBCF8BECC9CF8DECCA
:1013A0000E94AE080E94C30A8091BE0D8111C4CF75
:1013B0000E94D90AC1CFD093BE0DBECF3196F09313
:1013C000A00DE0939F0D83E0DF91CF910895CF931F
:1013D000DF931092B00D1092AF0DC0E0D8E080E026
:1013E00091E00E946E178823D9F06091C20D709130
:1013F000C30D20EE280F2F3538F08A3029F08D30BC
:1014000019F08FE390E001C090E00E94BE17219791
:10141000209729F78091C20D9091C30D0E941D0E57
:1014200082E0DF91CF910895CF93DF931092B00DBA
:101430001092AF0DC0E0D0E060E071E080E090E09D
:101440000E94BE17CE018F7799278034910541F411
:101450006091C20D7091C30D8EE290E00E94BE17A4
:101460002196CF3F87E0D80739F78091C20D909140
:10147000C30D0E941D0E82E0DF91CF91089510925E
:10148000B00D1092AF0D80E091E00E946E17805376
:101490008A3090F41092B00D1092AF0D8091B80D7B
:1014A0009091B90D9093B40D8093B30D80914D013F
:1014B000886080934D0103C089E08093BE0D84E075
:1014C00008951092B00D1092AF0D0E94C70E909328
:1014D000B60D8093B50D2091B50D3091B60D80916C
:1014E000B30D9091B40D2817390729F080E091E0F1
:1014F0000E94920EF0CF60E071E080E090E00E94E8
:10150000BE1782E008951F93CF93DF93EC0120E094
:1015100030E010E0FE018491882381F140919F0D1D
:101520005091A00DFA01E20FF31F8081FE0194910A
:10153000891304C02F5F3F4F2196ECCFFE016491C9
:10154000E82FF0E0E058FF4F70E0E617F70759F496
:101550002F5F3F4F240F351F3093A00D20939F0D19
:101560000E94E10E0BC0FE018491219687FFFBCF04
:101570001F5F0E94E10E20E030E0CCCF812FDF9191
:10158000CF911F910895E0919F0DF091A00DCF0193
:1015900001969093A00D80939F0D81819FEC980FF1
:1015A000943018F480530C94AE0884E08093BE0D00
:1015B00008951F93CF93DF93C4E0DCE040919F0D2B
:1015C0005091A00DCA0101969093A00D80939F0D9C
:1015D000FA0161818EEC860F8630A8F460539A017F
:1015E0002E5F3F4F3093A00D20939F0D828190E09E
:1015F000815491098033910508F06AC0825C9F4F45
:10160000FC010C94F616623211F0673229F4509303
:10161000A00D40939F0DB3C084E08093BE0DAFC07A
:1016200093E065C0CA0103969093A00D80939F0D2F
:10163000FA018381833209F451C03093A00D2093C5
:101640009F0D91E054C0CA0103969093A00D809322
:101650009F0DFA0183818F7D823409F441C030935C
:10166000A00D20939F0D95E042C0CA010396909370
:10167000A00D80939F0DFA018381833299F13093FD
:10168000A00D20939F0D96E032C0CA01039690935F
:10169000A00D80939F0DFA018381833229F130934D
:1016A000A00D20939F0D98E022C0CA01039690934D
:1016B000A00D80939F0DFA0183818F7D8234B1F05C
:1016C0003093A00D20939F0D9CE011C09DE00FC0B2
:1016D000C093BE0D90E00BC09AE009C092E007C035
:1016E00094E005C097E003C099E001C09BE0E09161
:1016F0009F0DF091A00D9F012F5F3F4F3093A00DE4
:1017000020939F0D81814FEC480F483010F4805397
:1017100003C0C093BE0D80E0AF014E5F5F4F50939A
:10172000A00D40939F0D42814D3271F04D3321F059
:101730004B3221F421E009C023E007C03093A00D13
:1017400020939F0D20E001C022E0382F392B322B4F
:10175000B1F09D3041F06250192F6D9F100D112492
:101760001150110F01C010E98150F0E42F9F800D3E
:1017700011240E94AE08812F0E94AE081FCFDF9176
:10178000CF911F910895CF93DF930E94800DEC01BC
:101790008091BE0D811143C080EE93E00E94830AC8
:1017A0008730E9F1482F50E047305105D0F5FA0174
:1017B000E259FF4F0C94F6160E94800D31E020E0B4
:1017C000C817D9074CF527C00E94800D31E020E0F2
:1017D000C817D90709F51FC00E94800D31E020E02D
:1017E0008C179D07CCF017C00E94800D31E020E0DF
:1017F000C817D90781F410C00E94800D31E020E0A5
:101800008C179D074CF407C00E94800D31E020E04A
:10181000C817D9070CF030E0832F922F04C0CE01F7
:1018200002C080E090E0DF91CF910895EF92FF92A7
:101830000F931F93CF93DF931F92CDB7DEB701E0D5
:1018400010E00E94E10EE0919F0DF091A00D8081CB
:101850008D3249F43196F093A00DE0939F0D1195D0
:1018600001951109EECF803331F43196F093A00D3C
:10187000E0939F0DFAC09FEC980F9930E0F480E060
:1018800090E03AE0A0919F0DB091A00DAC01349F83
:10189000C001359F900D1124FD012191820F911DF2
:1018A000C097F093A00DE0939F0D11962C912053BB
:1018B0002A3040F3DCC09FEB980F9A3108F0B5C096
:1018C000918191549A31B0F090E081549048880F02
:1018D000991FA091BA0DB091BB0DA80FB91F3C91F3
:1018E00011962C913196F093A00DE0939F0D832FCC
:1018F000922FBDC08CEE93E00E94830A282F853082
:1019000011F48EE0B0C0E0919F0DF091A00D8081A8
:10191000883211F085E0A7C03196F093A00DE093D6
:101920009F0D29830E94C30B7C01E0919F0DF091D4
:10193000A00D80812981893209F094C03196F093FD
:10194000A00DE0939F0D2230F9F028F4222341F0FE
:10195000213099F06AC02330E9F02430D1F165C01C
:1019600050E5E5165CE0F50614F083E17CC0F70174
:10197000E25BFE4F808190E07AC0C701F7FE77C03E
:1019800091958195910973C00E945E17B7010E94DD
:10199000E2166DC088E0E816F10410F08CE063C038
:1019A00081E090E002C0880F991FEA94E2F721B12C
:1019B00030E028233923232B29F520B130E02823D8
:1019C000392351E040E0232B09F450E0852F942F78
:1019D0004EC0A8E0EA16F10408F7E0927C0021E08E
:1019E00030E002C0220F331FEA94E2F742B192B115
:1019F000822F8095892382B981B190E0822393233D
:101A0000892B11F08DE02FC080917A008064809343
:101A10007A0080917A0086FDFCCF42B980917800EF
:101A2000909179009695879522C0E0919F0DF09155
:101A3000A00D80818832B1F43196F093A00DE0932F
:101A40009F0D0E94C30B9C01E0919F0DF091A00D92
:101A50008081893239F43196F093A00DE0939F0D87
:101A6000C90105C086E08093BE0D80E090E0FC01D6
:101A70000E9FC0010F9F900D1E9F900D11240F907F
:101A8000DF91CF911F910F91FF90EF9008951F93D9
:101A9000CF93DF930E94160CEC010E94E10E1BE035
:101AA000E0919F0DF091A00D80818A3281F43196F2
:101AB000F093A00DE0939F0D0E94160C9E01289FAD
:101AC000E001299FD00D389FD00D1124E9CF8F322E
:101AD00091F43196F093A00DE0939F0D0E94160CA7
:101AE000BC01009729F0CE010E94E216EB01D8CF8D
:101AF0001093BE0DD5CFCE01DF91CF911F910895E8
:101B0000CF93DF93E0919F0DF091A00D80818D32F6
:101B100031F08B3221F00E94470DEC0102C0C0E091
:101B2000D0E0E0919F0DF091A00D80818D3251F4B5
:101B30003196F093A00DE0939F0D0E94470DC81BB6
:101B4000D90BEFCF8B3251F43196F093A00DE09387
:101B50009F0D0E94470DC80FD91FE3CFCE01DF9123
:101B6000CF910895FF920F931F93CF93DF93EC01D2
:101B70008B01F12CFE01EF0DF11D8081882341F0D6
:101B8000B801992787FD90950E94BE17F394F2CF74
:101B9000DF91CF911F910F91FF9008950F931F93A5
:101BA000CF93DF93EC018B01CE01FE012491222320
:101BB00041F02196FC018491B80190E00E94BE178B
:101BC000F3CFDF91CF911F910F910895CF93E091C3
:101BD0009F0DF091A00DC081C23221F0C73211F0EB
:101BE00080E029C03196F093A00DE0939F0D819184
:101BF0008C1719F08A30D9F7F3CFE0919F0DF0914F
:101C0000A00D80818C1789F06091C20D7091C30D79
:101C100090E00E94BE1780919F0D9091A00D0196BB
:101C20009093A00D80939F0DE8CF3196F093A00D77
:101C3000E0939F0D81E0CF910895CF93DF93EC0166
:101C4000BC018AE090E00E94BE17BE018DE090E0EA
:101C5000DF91CF910C94BE17CF93DF93EB010E94DD
:101C6000CE0DCE01DF91CF910C941D0EE091A50D0C
:101C7000F091A60D3197F093A60DE093A50D80830A
:101C80000895E091A50DF091A60D8191F093A60D18
:101C9000E093A50D0895AF92BF92CF92DF92EF929D
:101CA000FF920F931F93CF93DF9300D0CDB7DEB792
:101CB0005C017B0197FF07C0B194A194B1088DE24C
:101CC00090E00E94BE1700E010E08AE0C82ED12C00
:101CD000C501B6010E94E216805D69837A830E9485
:101CE000360E6981A62E7A81B72E0F5F1F4FA11481
:101CF000B10471F70E94410EB70190E00E94BE1737
:101D00000150110901151105A9F70F900F90DF91EE
:101D1000CF911F910F91FF90EF90DF90CF90BF90E8
:101D2000AF900895CF93DF93EC01E091B50DF09162
:101D3000B60D808191813396F093B60DE093B50D89
:101D4000BE010E944B0EBE0180E290E00E94BE17D1
:101D5000E091B50DF091B60D80818A3071F0BE0131
:101D600090E00E94BE178091B50D9091B60D01963E
:101D70009093B60D8093B50DEBCF3196F093B60DE1
:101D8000E093B50DCE01DF91CF910C941D0E8091A3
:101D9000B80D9091B90D2091B30D3091B40D4091D3
:101DA0009D0D50919E0D8217930751F0FC016081AB
:101DB00071816417750720F46281860F911DF3CF3E
:101DC0000895E0919F0DF091A00D8081803231F453
:101DD0003196F093A00DE0939F0DF3CF8930C1F3BE
:101DE0000895E091B30DF091B40D329690E08081AA
:101DF0008A30B1F0891769F0823269F0873269F070
:101E000091110CC02FE9280F2A3140F480528083B1
:101E100005C090E003C092E201C097E23196E7CF9F
:101E2000089590ED980F9A3090F0982F9F7D9154DF
:101E30009A3168F08F3559F08B3249F08E3239F093
:101E400021E090E08E3709F020E0822F089581E0B4
:101E500090E008950F931F93CF93DF931092BE0DE0
:101E6000C0919F0DD091A00D1881812F0E94110F5C
:101E7000892B31F42196D093A00DC0939F0DF0CF04
:101E80001123F9F0CE0101969093A00D80939F0D40
:101E900000919F0D1091A00DF80180810E94110FFB
:101EA000892B39F00F5F1F4F1093A00D00939F0DEA
:101EB000EFCF0C171D0711F0F801108288818111F6
:101EC00003C081E08093BE0DCE01DF91CF911F91C1
:101ED0000F910895009741F0E7E8F3E13197F1F7AA
:101EE00000C000000197F6CF0895009731F026E07A
:101EF0002A95F1F700C00197F8CF0895CF93E8989D
:101F0000C4E628988EEE92E00E94750F289A84EF1E
:101F100091E00E94750FC150A1F7E89ACF91089502
:101F2000EF92FF921F93CF93DF93C091B30DD091A7
:101F3000B40D2296D093A00DC0939F0D80914D01BA
:101F400083FD10C010EE6AC0E0919F0DF091A00DCE
:101F5000808380919F0D9091A00D01969093A00D8C
:101F600080939F0D80E091E00E946E179C013327C3
:101F70002A30310559F02D30310541F0232B21F75E
:101F800080914D01877F80934D010DC1E0919F0DA0
:101F9000F091A00D8AE0808306C180919F0D909101
:101FA000A00D8C179D07D0F56091C20D7091C30DE7
:101FB00082E090E00E94BE174091B30D5091B40DA5
:101FC000CE01841B950B9EEFF92EF80EEF2CE294B8
:101FD000E69427E0E22220919F0D3091A00D241B72
:101FE000350B22502295269527706091C20D709175
:101FF000C30D8E2D821B90E001960E94BE1760914A
:10200000C20D7091C30D8F2DE19E800D112490E0C3
:102010000E94BE17D093A00DC0939F0D8091C00D5C
:102020009091C10D0E946E177C019927FC01319798
:10203000E131F10508F08DC0EB58FF4F0C94F61616
:102040008091B30D9091B40D029620919F0D309127
:10205000A00D8217930710F76091C20D7091C30D08
:1020600081E090E00E94BE176091C20D7091C30D97
:1020700080919F0D9091A00D2091B30D3091B40DE2
:10208000821B930B825082958695877090E0019613
:102090000E94BE178091B30D9091B40D02961AC0A4
:1020A0008091B30D9091B40D029620919F0D3091C7
:1020B000A00D8217930708F059C06091C20D70916E
:1020C000C30D80E190E00E94BE1780919F0D90911A
:1020D000A00D01979093A00D80939F0D9FCF8091AD
:1020E0009F0D9091A00D8C179D0708F03FC00196A1
:1020F0009093A00D80939F0D6091C20D7091C30DC0
:1021000081E190E00E94BE1789CFD093A00DC093CB
:102110009F0D8AE088838091C20D9091C30DDF915D
:10212000CF911F91FF90EF900C941D0E8091B30DF5
:102130009091B40D029620919F0D3091A00D8217C1
:102140009307A0F46091C20D7091C30D88E090E0F8
:10215000BACF2091BA0D3091BB0D22503109409178
:102160009F0D5091A00D4217530719F40E947E0F46
:1021700055CF6091C20D7091C30D0E94BE17E091C2
:102180009F0DF091A00DE08280919F0D9091A00D88
:1021900001969093A00D80939F0DC817D90708F062
:1021A0003DCFEC013BCFDF91CF911F91FF90EF909E
:1021B00008958091B70D811104C08091C6008330CD
:1021C00021F41092B70D81E0089580E00895FC019C
:1021D00020812D3219F4019641E001C040E0FC015C
:1021E00080E090E05AE0219130ED320F3A3060F417
:1021F000BC01569FC001579F900D112430E0205321
:102200003109820F931FEFCF442319F091958195E7
:1022100091090895AF92BF92CF92DF92EF92FF9211
:102220000F931F93CF93DF930E94E10EE0919F0DD8
:10223000F091A00DF0808FEB8F0D8A3110F087E0C8
:1022400015C0D090BA0DE090BB0D3196F093A00D63
:10225000E0939F0D0E94E10EE0919F0DF091A00D83
:1022600080818A3039F08A3329F082E08093BE0D74
:1022700084E07CC01092A70DEA9AA12CC7EADDE0A9
:102280008AE0B82E8091C00D9091C10D0E946E170A
:102290008C01C82E8091B70D813009F466C0C80149
:1022A00099278A309105E1F024F488309105D1F026
:1022B0002CC08D309105A1F08D32910531F5A11022
:1022C0003AC06091C20D7091C30D8DE290E00E9402
:1022D000BE17FE0101931982EF01AA24A3942BC01B
:1022E000B88229C02DE0C73AD20709F018F40E943D
:1022F0007E0F21C06091C20D7091C30D88E090E007
:102300000E94BE172197AA9416C020ED200F2A30F4
:1023100090F425E02A1560F06091C20D7091C30D14
:102320000E94BE17FE010193A3941982EF0106C01B
:102330000E947E0F03C08AE0C81619F02DE0C21279
:10234000A1CF8091C20D9091C30D0E941D0E87EA0E
:102350009DE00E94E710ED2DFE2DEF0DF11DEF0D1C
:10236000F11DE258F1099183808383E0DF91CF91E1
:102370001F910F91FF90EF90DF90CF90BF90AF90A3
:1023800008951F93CF93DF93E0919F0DF091A00DDF
:10239000C0818FEB8C0F8A31F0F51091BA0DD0917E
:1023A000BB0DCF0101969093A00D80939F0D81816D
:1023B00081548A3148F48FEF8093BE0D3296F093AA
:1023C000A00DE0939F0D37C00E94E10EE0919F0D9C
:1023D000F091A00D80818D3311F08FE01DC08091B0
:1023E000BE0D8F3F11F481E117C03196F093A00D1F
:1023F000E0939F0D0E94E10E0E94C30B2091BE0D41
:10240000211119C0E0919F0DF091A00D20812A307B
:1024100031F02A3321F082E08093BE0D0CC0E12F11
:10242000FD2FEC0FF11DEC0FF11DE258F109918326
:10243000808383E001C084E0DF91CF911F910895F4
:10244000CF93DF930E94C30BEC018091BE0D8111ED
:102450002EC0C0358CE0D80714F083E126C00E945E
:10246000E10EE0919F0DF091A00D80818C32E1F49E
:102470003196F093A00DE0939F0D0E94E10E0E9413
:10248000C30B2091BE0D211112C08F3F910519F091
:1024900010F082E10AC0E0919F0DF091A00D208123
:1024A0002A3039F02A3329F082E08093BE0D84E08F
:1024B00004C0C25BDE4F888383E0DF91CF91089533
:1024C0000E94891390939E0D80939D0DE0919F0D26
:1024D000F091A00D80818A3021F084E08093BE0DC0
:1024E00018C00E94C70E9093B60D8093B50D209131
:1024F000B50D3091B60D8091B30D9091B40D2817A4
:10250000390739F08091C20D9091C30D0E94920E4F
:10251000EECF84E00895CF93DF93C2ECDDE06881D5
:1025200079818091BA0D9091BB0D2091B30D3091BE
:10253000B40D821B930B0E944B0E6881798189E652
:1025400096E00E942C0E6881798180E098E00E94DC
:102550004B0E688179818EE596E00E942C0E83E017
:10256000DF91CF9108958091B20090E00E946317AF
:1025700083E008951092BE0D0E94C30B2091BE0D02
:10258000211104C00E94631783E0089584E0089538
:10259000CF93DF93EA9AC2ECDDE06881798180ED28
:1025A00090E00E94BE176881798182ED90E00E94E0
:1025B000BE178091B80D9091B90D9093B20D809394
:1025C000B10D81E0DF91CF910895E0919F0DF091E1
:1025D000A00D80818A3029F082E08093BE0D84E0D6
:1025E00008958091B30D9091B40D9093B20D8093A6
:1025F000B10D81E00895E0919F0DF091A00D8081D3
:102600008A3029F082E08093BE0D84E008958091A5
:10261000B80D9091B90D9093B40D8093B30D85E0F2
:102620000895CF93DF930E94C30BEC018091BE0D00
:1026300081112FC0C830D10510F08CE028C0E09186
:102640009F0DF091A00D80818C3201F53196F093B1
:10265000A00DE0939F0D0E94C30B2091BE0D211190
:1026600018C021E030E00C2E01C0220F0A94EAF7D6
:10267000009731F0019751F481B1822B81B904C0E8
:1026800081B12095282321B982E004C082E08093A3
:10269000BE0D84E0DF91CF910895CF93DF930E9428
:1026A000C30BEC018091BE0D81112FC0C830D10544
:1026B00010F08CE028C0E0919F0DF091A00D80817A
:1026C0008C3201F53196F093A00DE0939F0D0E949E
:1026D000C30B2091BE0D211118C021E030E00C2E5B
:1026E00001C0220F0A94EAF7009731F0019751F4E4
:1026F00082B1822B82B904C082B12095282322B9ED
:1027000082E004C082E08093BE0D84E0DF91CF912F
:1027100008950E94E10E80E090E05AE0E0919F0D64
:10272000F091A00D408120ED240F2A30A0F48939CA
:1027300029E1920788F4589F9001599F300D112488
:10274000842F90E0C097820F931F3196F093A00DD5
:10275000E0939F0DE3CF08958FEF9FEF0895CF9300
:10276000DF938EE491E09093B90D8093B80D909330
:10277000B40D8093B30D8DE99DE09093A60D8093E9
:10278000A50D8BE69DE09093AE0D8093AD0D85E396
:102790009DE09093BB0D8093BA0DC2ECDDE06881A3
:1027A000798187EE9BE00E944B0E6881798189E6F2
:1027B00096E00E942C0E6881798180E098E00E946A
:1027C0004B0E688179818EE596E00E942C0E8881FF
:1027D0009981DF91CF910C941D0EC4E00DE91DE0AD
:1027E000D9E080E1E82E91E3892E91E0992E2EE543
:1027F000D22EC43009F56091C20D7091C30D81EDE8
:1028000090E00E94BE176091C20D7091C30D83EDE0
:1028100090E00E94BE171092B20D1092B10D10936D
:10282000A60D0093A50D6091C20D7091C30D83E4B8
:1028300096E00E942C0EC0E01092BE0D80914D01DA
:10284000982F937089F08C7F80934D018091B80D03
:102850009091B90D9093B20D8093B10D0396909322
:10286000A00D80939F0D14C10E94900F0E94F10E45
:102870008091B30D9091B40D02969093A00D80932A
:102880009F0DE0919F0DF091A00D80818A3031F075
:102890003196F093A00DE0939F0DF3CFE091BA0D28
:1028A000F091BB0D3197A0919F0DB091A00D8C912F
:1028B000808320919F0D3091A00D8091B30D909158
:1028C000B40D02962817390739F021503109309399
:1028D000A00D20939F0DE6CFF093A00DE0939F0DE8
:1028E0000E94891390939E0D80939D0D0E94E10E8E
:1028F00020919D0D30919E0D2115310509F4B8C030
:102900002F3F6FEF360719F4D093BE0DC1C0109260
:10291000BF0D80919F0D9091A00D4091BF0DFC01C6
:10292000E40FF11D50815A3021F04F5F4093BF0DED
:10293000F4CF4C5F4093BF0DFC013397F093A00D93
:10294000E0939F0D31832083329640830E94C70E0F
:102950009093BD0D8093BC0D2091B30D3091B40DBB
:1029600082179307F9F0FC016081718140919D0D00
:1029700050919E0D64177507A9F44281E40FF11D73
:102980002E1B3F0BAF01420F531FDC01E417F5076D
:1029900019F061916D93FACF820F931F9093B40D4C
:1029A0008093B30DE0919F0DF091A00D83818A304B
:1029B00009F442CF2091BF0D222309F43DCF40916D
:1029C000B30D5091B40D80919F0D9091A00D30E00A
:1029D000841B950B2817390708F4C901FA01E80F81
:1029E000F91FF093A40DE093A30D2091BC0D30913D
:1029F000BD0DBA01621B730B9B01DA012115310574
:102A000029F04E91429321503109F8CF2817390708
:102A100031F1E091BC0DF091BD0DA0919F0DB091F1
:102A2000A00D4C91408340919F0D5091A00D4F5FA0
:102A30005F4F5093A00D40939F0D4091BC0D50915E
:102A4000BD0D4F5F5F4F5093BD0D4093BC0D409146
:102A5000BF0D41504093BF0D2F5F3F4FD7CF8091A7
:102A6000A30D9091A40D9093B40D8093B30DA2CFBC
:102A70001092B70DE091B30DF091B40DCF01029615
:102A80009093A00D80939F0D82818A3009F4D4CE5B
:102A90008091BE0D8111DFC00E94D910882349F0BA
:102AA0006091C20D7091C30D86E496E00E942C0ED9
:102AB000CFC01092BE0D87E094E00E94830A90E0A0
:102AC0008F32910508F07CC0FC01EA57FF4F0C944F
:102AD000F6160E94C30B0E946A0F89C00E94FB1267
:102AE00072C00E947E0F83C00E94C8126CC00E94F8
:102AF000830369C00E94660366C00E94320963C0F6
:102B00000E94370960C00E943C095DC00E946A09AA
:102B10005AC00E94E51257C00E94601254C00E9421
:102B20008B1251C00E9440054EC00E9453054BC0FD
:102B30000E9488049091BE0D911145C083E004C0AD
:102B40000E94460440C08CE00E94AB043CC00E943E
:102B5000B31239C00E94BA1236C00E949A0333C021
:102B60000E940A1130C00E9420122DC00E94FF0551
:102B70002AC00E94E70927C00E94140A24C080913D
:102B80004D01826080934D0103C00E94610A1BC009
:102B90000E943F0A18C00E94160515C00E949605A3
:102BA00012C00E9466050FC00E9434050CC00E942E
:102BB000111309C00E944D1306C00E94C11103C029
:102BC000E092BE0D45C0843009F442C0853009F45E
:102BD00041C0863009F460CF833039F50E94E10EA0
:102BE000E0919F0DF091A00D80818A3371F0E0910A
:102BF000B10DF091B20D309759F18281E80FF11DBE
:102C0000F093B20DE093B10D12C0E0919F0DF091E1
:102C1000A00D80818A3331F43196F093A00DE093BA
:102C20009F0DF3CF0E94E10E37CF823001F38091E8
:102C3000B10D9091B20D2091B30D3091B40D82176A
:102C4000930731F003969093A00D80939F0D24CFAE
:102C5000C4E001C0C5E08091BE0D882309F4C9CD50
:102C600083E00E94B60880E00E94CB088091BE0DF0
:102C700090E0FC013197E431F10508F07CC0EB54A1
:102C8000FF4F6091C20D7091C30D0C94F61682E255
:102C900096E06FC085E196E00E94CE0D8091B10D67
:102CA0009091B20D892B09F19F928F920E94F0179B
:102CB000E0919F0DF091A00DB0800F900F907AE001
:102CC000B712D0828091B10D9091B20D9093B60D54
:102CD0008093B50D8091C20D9091C30D0E94920E0C
:102CE000E0919F0DF091A00DB0828091C20D909166
:102CF000C30D0E941D0E3FC086E096E03AC081EFF2
:102D000095E037C08DE396E002C086E396E00E942E
:102D10002C0E6091C20D7091C30D8DED95E029C010
:102D20008BEC95E026C086EB95E023C082EA95E027
:102D300020C080E995E01DC08FE795E01AC08CE6C1
:102D400095E017C08EE595E014C08DE495E011C0C4
:102D50008DE395E00EC089E295E00BC083E195E03C
:102D600008C08CEF94E005C08FEE94E002C087EDC0
:102D700094E00E942C0E8CE40E94B60880E00E9431
:102D8000CB0837CD0E943D088CE40E94B60880E055
:102D90000E94CB086091C20D7091C30D84E796E04C
:102DA0000E942C0E0E947E0F1092B00087E080934C
:102DB000B100109270000E94AF130E94ED1380E0EA
:102DC00090E0089597FB072E16F4009407D077FD46
:102DD00009D00E94FC1607FC05D03EF49095819521
:102DE0009F4F0895709561957F4F0895EE0FFF1FD7
:102DF0000590F491E02D0994AA1BBB1B51E107C07B
:102E0000AA1FBB1FA617B70710F0A61BB70B881F7A
:102E1000991F5A95A9F780959095BC01CD01089509
:102E20008F929F92AF92BF92CF92DF92EF92FF92DA
:102E3000CF93DF93EC01688179818A819B81611551
:102E400071058105910521F464E279ED8BE597E048
:102E50002DE133EF41E050E00E94641A49015A012C
:102E60009B01AC01A7EAB1E40E94831A6B017C01CB
:102E7000ACEEB4EFA50194010E94911AC60ED71EC4
:102E8000E81EF91EF7FE06C081E0C81AD108E10865
:102E900080E8F80AC882D982EA82FB82C6019F775D
:102EA000DF91CF91FF90EF90DF90CF90BF90AF90E8
:102EB0009F908F9008950E94101708958AE291E0E4
:102EC0000E9410170895A0E0B0E080932A0190932B
:102ED0002B01A0932C01B0932D010895CF93DF9384
:102EE000EC012B8120FF33C026FF0AC02F7B2B83F0
:102EF0008E819F8101969F838E838A8190E029C075
:102F000022FF0FC0E881F9818081992787FD909584
:102F1000009719F420622B831AC03196F983E88355
:102F20000EC0EA85FB85099597FF09C02B810196A4
:102F300011F480E101C080E2822B8B8308C02E81D6
:102F40003F812F5F3F4F3F832E83992702C08FEF32
:102F50009FEFDF91CF910895A0E0B0E0E2EBF7E1C1
:102F60000C94A61AAE01475F5F4F6F8178858D8103
:102F70009E810E940418E2E00C94C21A0F931F93E2
:102F8000CF93DF93182F092FEB018B8181FD03C0B5
:102F90008FEF9FEF20C082FF10C04E815F812C8198
:102FA0003D81421753077CF4E881F9819F012F5F2F
:102FB0003F4F39832883108306C0E885F985812F28
:102FC0000995892B29F72E813F812F5F3F4F3F8342
:102FD0002E83812F902FDF91CF911F910F91089514
:102FE000A0E0B0E0E6EFF7E10C94A61AFE013596FA
:102FF00061917191AF018091C20D9091C30D0E94BA
:103000000418E2E00C94C21AACE0B0E0EAE0F8E1A7
:103010000C94961A7C016B018A01FC0117821682BE
:10302000838181FFBDC1CE0101964C01F7019381DF
:10303000F60193FD859193FF81916F01882309F437
:10304000ABC1853239F493FD859193FF81916F0176
:10305000853229F4B70190E00E94BE17E7CF512CCA
:10306000312C20E02032A0F48B3269F030F4803231
:1030700059F0833269F420612CC08D3239F08033ED
:1030800039F4216026C02260246023C0286021C05A
:1030900027FD27C030ED380F3A3078F426FF06C000
:1030A000FAE05F9E300D1124532E13C08AE0389E43
:1030B000300D1124332E20620CC08E3221F426FDF7
:1030C0006BC1206406C08C3611F4206802C08836BB
:1030D00041F4F60193FD859193FF81916F01811178
:1030E000C1CF982F9F7D9554933028F40C5F1F4FCC
:1030F000FFE3F9830DC0833631F0833771F08335F8
:1031000009F05BC022C0F801808189830E5F1F4FE8
:1031100044244394512C540115C03801F2E06F0E41
:10312000711CF801A080B18026FF03C0652D70E0FE
:1031300002C06FEF7FEFC5012C870E94FB192C01A5
:1031400083012C852F77222E17C03801F2E06F0EF5
:10315000711CF801A080B18026FF03C0652D70E0CE
:1031600002C06FEF7FEFC5012C870E94F0192C0180
:103170002C852068222E830123FC1BC0832D90E028
:1031800048165906B0F4B70180E290E00E94BE17DD
:103190003A94F4CFF50127FC859127FE81915F01D8
:1031A000B70190E00E94BE1731103A94F1E04F1A37
:1031B00051084114510471F7E5C0843611F0893685
:1031C00039F5F80127FF07C0608171818281938101
:1031D0000C5F1F4F08C060817181882777FD809543
:1031E000982F0E5F1F4F2F76B22E97FF09C0909534
:1031F0008095709561957F4F8F4F9F4F2068B22EBD
:103200002AE030E0A4010E94061AA82EA81844C0A3
:10321000853729F42F7EB22E2AE030E025C0F22F28
:10322000F97FBF2E8F36C1F018F4883579F0B4C01D
:10323000803719F0883721F0AFC02F2F2061B22ED0
:10324000B4FE0DC08B2D8460B82E09C024FF0AC0C7
:103250009F2F9660B92E06C028E030E005C020E11F
:1032600030E002C020E132E0F801B7FE07C0608123
:103270007181828193810C5F1F4F06C060817181D3
:1032800080E090E00E5F1F4FA4010E94061AA82E56
:10329000A818FB2DFF77BF2EB6FE0BC02B2D2E7F5F
:1032A000A51450F4B4FE0AC0B2FC08C02B2D2E7E2B
:1032B00005C07A2C2B2D03C07A2C01C0752C24FF5D
:1032C0000DC0FE01EA0DF11D8081803311F4297ECD
:1032D00009C022FF06C07394739404C0822F8678BD
:1032E00009F0739423FD13C020FF06C05A2C7314F9
:1032F00018F4530C5718732C731468F4B70180E258
:1033000090E02C870E94BE1773942C85F5CF731420
:1033100010F4371801C0312C24FF12C0B70180E32C
:1033200090E02C870E94BE172C8522FF17C021FF3A
:1033300003C088E590E002C088E790E0B7010CC0C8
:10334000822F867859F021FD02C080E201C08BE215
:1033500027FD8DE2B70190E00E94BE17A51438F456
:10336000B70180E390E00E94BE175A94F7CFAA9469
:10337000F401EA0DF11D8081B70190E00E94BE17B3
:10338000A110F5CF332009F451CEB70180E290E0CF
:103390000E94BE173A94F6CFF7018681978102C04A
:1033A0008FEF9FEF2C96E2E10C94B21AF999FECFC1
:1033B00092BD81BDF89A992780B50895262FF99975
:1033C000FECF92BD81BDF89A019700B4021639F084
:1033D0001FBA20BD0FB6F894FA9AF99A0FBE089555
:1033E000FC010590615070400110D8F780959095D0
:1033F0008E0F9F1F0895FC016150704001900110D5
:10340000D8F7809590958E0F9F1F0895FA01AA27EF
:10341000283051F1203181F1E8946F936E7F6E5F17
:103420007F4F8F4F9F4FAF4FB1E03ED0B4E03CD0C5
:10343000670F781F891F9A1FA11D680F791F8A1FA8
:10344000911DA11D6A0F711D811D911DA11D20D00F
:1034500009F468943F912AE0269F11243019305DC9
:103460003193DEF6CF010895462F4770405D4193BA
:10347000B3E00FD0C9F7F6CF462F4F70405D4A3307
:1034800018F0495D31FD4052419302D0A9F7EACFCF
:10349000B4E0A6959795879577956795BA95C9F7FE
:1034A00000976105710508959B01AC010A2E0694F1
:1034B0005795479537952795BA95C9F7620F731FAA
:1034C000841F951FA01D0895052E97FB1EF40094E0
:1034D0000E947B1A57FD07D00E94CD1A07FC03D02B
:1034E0004EF40C947B1A50954095309521953F4FA2
:1034F0004F4F5F4F089590958095709561957F4FE0
:103500008F4F9F4F08950E94EF1AA59F900DB49F73
:10351000900DA49F800D911D11240895B7FF0C9468
:10352000831A0E94831A821B930B08952F923F9255
:103530004F925F926F927F928F929F92AF92BF92C3
:10354000CF92DF92EF92FF920F931F93CF93DF936F
:10355000CDB7DEB7CA1BDB0B0FB6F894DEBF0FBECC
:10356000CDBF09942A88398848885F846E847D8419
:103570008C849B84AA84B984C884DF80EE80FD801B
:103580000C811B81AA81B981CE0FD11D0FB6F89491
:10359000DEBF0FBECDBFED010895A1E21A2EAA1B1A
:1035A000BB1BFD010DC0AA1FBB1FEE1FFF1FA217F3
:1035B000B307E407F50720F0A21BB30BE40BF50BF0
:1035C000661F771F881F991F1A9469F76095709579
:1035D000809590959B01AC01BD01CF010895A29FFC
:1035E000B001B39FC001A39F700D811D1124911DD7
:1035F000B29F700D811D1124911D0895F894FFCF85
:1036000000000003000000009C06AD060000000062
:103610000003000000004D065E06000000000003ED
:1036200000000000BC0680060000010000002564C8
:0636300000202D2D2000FA
:0400000500800DBCAE
:00000001FF
