:100000000C9447030C94E70A0C9464030C94BF030C
:100010000C9464030C9464030C9464030C946403C4
:100020000C9464030C9464030C9464030C946403B4
:100030000C9464030C9464030C9464030C946403A4
:100040000C94CF030C9464030C9464030C94640329
:100050000C9464030C9464030C9464030C94640384
:100060000C9464030C9464030C9464030C94640374
:100070000C9464030C9464030C9464034E053605DD
:10008000F7044C05070518052705480548054805E8
:1000900048054805480548054805460548054805FA
:1000A00048054805480548054805480548054805E8
:1000B0004805480548054805480548054E053605E4
:1000C000F7044C05070518052705480548054805A8
:1000D00048054805480548054805460514081C0814
:1000E00024082C0834083C081C089B0BCB0B660C1E
:1000F000890B890B660C870B470C660C340C660C5D
:10010000890B340C660C660C7A0B1A0CFD14DD0E90
:10011000670E12116612800F920F62146414661437
:100120009214D9102E114F1553159F13BA13990E0F
:100130004510A1117D0F0B14E113B712F012A50F9A
:10014000A50F2615C513D4130B14990E990ED80EAE
:10015000B20FD90F001024100510990E990E990EA8
:10016000990E990E37136C136612FF0E020F370F9C
:100170003A0F3D0F400F4B0F4E0F510F540F570FBB
:100180005A0F5D0F600F630F660F690F6C0F6F0FD3
:10019000720F484947C848C94C4FD74CCF005354F9
:1001A00045D00054CF003EBD3CBEBEBD3CBDBC21D1
:1001B000BD00504545CB4142D3524EC450494E44F8
:1001C000524541C450494E41524541C4004C4953E7
:1001D000D44E45D75255CE4E4558D44C45D449C639
:1001E000474F54CF4D504C41D94D53544FD05445A7
:1001F0004D50CF4D555349C3474F5355C2524554A7
:100200005552CE52414E444F4D495AC5524E445319
:100210004545C45253D4434CD35245CD464FD249A1
:100220004E5055D4424545D05052494ED44C4F4380
:100230004154C5504F4BC5505345D453544FD045EE
:100240004EC44D45CD5045CE50415045D2BFA3A7D9
:1002500044454C41D9454C4953D445464F524D41F4
:10026000D44543484149CE45534156C5454C4F417D
:10027000C446494C45D343464F524D41D44343486D
:100280004149CE43534156C5434C4F41C450494E5A
:100290004449D250494E4457524954C5004578709C
:1002A000656374656420636F6C6F72205B302E2E03
:1002B0003132375D004F7574206F662072616E6752
:1002C00065004578706563746564206279746520A3
:1002D0005B302E2E3235355D00496E76616C696477
:1002E000207661726961626C65206E616D6500499E
:1002F0006E76616C696420636F6F7264696E61749D
:10030000657300556E6B6E6F776E20636F6D6D61F8
:100310006E6400556E6B6E6F776E2066756E6374DB
:10032000696F6E0050696E20492F4F206572726FA1
:100330007200496E76616C69642070696E205B3072
:100340002E2E375D004469766973696F6E2062797D
:10035000207A65726F004F70657261746F722065EC
:100360007870656374656400496E76616C696420B9
:100370006C696E65206E756D626572004A756D7090
:1003800020706F696E74206E6F7420666F756E6476
:10039000005661726961626C65206578706563748E
:1003A000656400706172656E746865736973206D51
:1003B000697373696E6700556E65787065637465FF
:1003C0006420636861726163746572005374616371
:1003D0006B206F766572666C6F770053796E74610F
:1003E00078206572726F72004E6F74207965742088
:1003F000696D706C656D656E7465640052696768DF
:100400007420004C65667420004F4B004272656199
:100410006B210020627974657320617661696C617B
:10042000626C650020627974657320524F4D002024
:1004300062797465732052414D0057656C636F6D2E
:100440006520746F206E73744241534943207630A7
:100450002E3200000000000000000000000000003C
:100460000000000000000000000000607E607E00D0
:10047000000000000000000000000000000000007C
:100480000000000000000009090909607E607E008C
:10049000000000000000000000000000000000005C
:1004A0000000000000000071515171312131210024
:1004B00000000000000000000000007A5A5A7A7321
:1004C000535373614141617757577732403240004F
:1004D00000000000000000634343637858587864CC
:1004E0004444646545456534243424332333230070
:1004F000000000000000002020202076565676667E
:10050000464666745454747252527235253525002D
:10051000000000000000006E4E4E6E6242426268B3
:100520004848686747476779595979365E365E00AB
:10053000000000000000002C3C2C3C6D4D4D6D6A0D
:100540004A4A6A7555557537263726382A382A009B
:10055000000000000000002C3C2C3C6B4B4B6B69F6
:100560004949696F4F4F6F302930293928392800A0
:10057000000000000000002E3E2E3E2F3F2F3F6C5B
:100580004C4C6C3B3A3B3A705050702D5F2D5F00E5
:1005900000000000000000000000002722272200C9
:1005A0000000005B7B5B7B3D2B3D2B0000000000CF
:1005B00000000000000000000000000D0D0D0D5DAA
:1005C0007D5D7D000000005C7C5C7C000000000024
:1005D000000000000000003C3C3C3C00000000002B
:1005E00000000000000000000000000808080800EB
:1005F0000000000000000031313131000000003403
:100600003434343737373700000000000000000072
:10061000000000303030302E2E2E2E323232323565
:1006200035353536363636383838381B1B1B1B0007
:10063000000000000000002B2B2B2B333333332D15
:100640002D2D2D2A2A2A2A39393939000000000097
:100650000000004B6579626F61726420636F6E6E9B
:100660006563746564207375636365737366756C25
:100670006C79004B6579626F6172642073656C669A
:100680002D74657374206661696C656400001124C3
:100690001FBECFEFD0E1DEBFCDBF11E0A0E0B1E0E3
:1006A000E8EBF3E302C005900D92A633B107D9F74A
:1006B0002DE0A6E3B1E001C01D92A83CB207E1F72E
:1006C0000E945C150C94DA190C940000CF93C82F8B
:1006D0008A3019F48DE00E9466038091C00085FF86
:1006E000FCCFC093C600CF9108958091C00087FFD2
:1006F000FCCF8091C60090E00895682F80919B0DFB
:1007000090919C0D9C012F5F3F4F30939C0D209347
:100710009B0D0E94BA1880E090E0089580919B0D97
:1007200090919C0D9C012F5F3F4F30939C0D209327
:100730009B0D0E94B21890E0089588B94E99FECFA3
:100740005F9A4E9BFECF5F986EE071E0883079F43F
:1007500088E090E00E949A166EE071E080E290E0FE
:100760000E949A166EE071E088E090E003C099273D
:1007700087FD90950E949A1680E090E008951F9260
:100780000F920FB60F9211248F9381E08093A50DE5
:10079000EA988F910F900FBE0F901F9018951F929F
:1007A0000F920FB60F9211248F938BE080938D0DD3
:1007B00015BC8F910F900FBE0F901F9018956EE093
:1007C00071E08BE190E00E949A166EE071E08BE59B
:1007D00090E00E949A166EE071E080E390E00E9443
:1007E0009A166EE071E08DE690E00E949A166EE037
:1007F00071E08BE190E00E949A166EE071E08BE56B
:1008000090E00E949A166EE071E088E490E00E9409
:100810009A166EE071E08BE190E00E949A166EE00D
:1008200071E08BE590E00E949A166EE071E08AE438
:1008300090E00C949A16FF920F931F93CF93DF933F
:10084000C82FF62E6EE071E08BE190E00E949A16C0
:100850006EE071E08BE590E00E949A161F92CF93B4
:100860000EE211E01F930F93CEE0D1E0DF93CF9320
:100870000E948816BE018BE390E00E949A161F9298
:10088000FF921F930F93DF93CF930E9488168DB72B
:100890009EB70C960FB6F8949EBF0FBE8DBFBE01DB
:1008A00088E490E0DF91CF911F910F91FF900C941D
:1008B0009A1688B94C99FECF5D9A4C9BFECF5D98F5
:1008C00008951F93CF93DF93182FC4ECDDE0688168
:1008D00079818EEC90E00E949A1668817981812F4F
:1008E00090E0DF91CF911F910C949A161F93CF93B4
:1008F000DF93182FC4ECDDE0688179818FEC90E004
:100900000E949A1668817981812F90E0DF91CF91C2
:100910001F910C949A160F931F93CF93DF93082F78
:10092000162FC4ECDDE0688179818DEC90E00E94A7
:100930009A1668817981802F90E00E949A166881CA
:100940007981812F90E0DF91CF911F910F910C94CD
:100950009A16EF92FF920F931F93CF93DF931F92FC
:10096000CDB7DEB7082F162F84ECE82E8DE0F82ED9
:10097000F701608171818AEC90E049830E949A16A8
:10098000F70160817181802F90E00E949A16F70133
:1009900060817181812F90E00E949A16F701608139
:1009A00071814981842F90E00F90DF91CF911F9149
:1009B0000F91FF90EF900C949A16CF93DF93C09114
:1009C0008E0DD0918F0D9E012F5F3F4F30938F0D75
:1009D00020938E0D898190E0815491098033910597
:1009E00008F056C0825C9F4FFC010C94E615CE01C6
:1009F000029690938F0D80938E0D8A81833209F435
:100A00004FC030938F0D20938E0D81E052C0CE01E8
:100A1000029690938F0D80938E0D8A818F7D823404
:100A200009F440C030938F0D20938E0D85E041C0B6
:100A3000CE01029690938F0D80938E0D8A81833222
:100A400099F130938F0D20938E0D86E032C0CE0148
:100A5000029690938F0D80938E0D8A81833231F1AF
:100A600030938F0D20938E0D88E023C0CE01029627
:100A700090938F0D80938E0D8A818F7D8234C1F08B
:100A800030938F0D20938E0D8CE013C08DE011C03C
:100A900084E08093BF0D0DC083E00BC08AE009C0E5
:100AA00082E007C084E005C087E003C089E001C0A0
:100AB0008BE0DF91CF910895E0918E0DF0918F0D35
:100AC000CF01019690938F0D80938E0D81819EECC6
:100AD000980F963010F480530895823211F08732C7
:100AE00029F4F0938F0DE0938E0D03C084E0809382
:100AF000BF0D80E00895E0918E0DF0918F0DCF0134
:100B0000019690938F0D80938E0D81819FEC980FAD
:100B1000983010F48053089584E08093BF0D80E0F6
:100B20000895E0918E0DF0918F0DCF010196909375
:100B30008F0D80938E0D81818D3271F08D3321F078
:100B40008B3221F481E0089583E00895F0938F0DB6
:100B5000E0938E0D80E0089582E00895E0918E0D7F
:100B6000F0918F0DCF01019690938F0D80938E0D94
:100B700081819FEC980F943018F480530C945904A1
:100B800084E08093BF0D08950F931F93CF93DF935D
:100B90000CE00E945C05182F882311F10E94DD04EF
:100BA000C82F0E947B05D82F0E9491059D2F9C2B5A
:100BB000982BB1F0CD3039F01250109FC00D112498
:100BC000C150CC0F01C0C0E9D15090E4899FD00D35
:100BD00011248D2F0E9459048C2F0E945904D9CFC3
:100BE000DF91CF911F910F9108950F931F93CF9392
:100BF000DF93EC018B01CE01FE012491222341F011
:100C00002196FC018491B80190E00E949A16F3CFDE
:100C1000DF91CF911F910F910895CF93E0918E0DA9
:100C2000F0918F0DC081C23221F0C73211F080E007
:100C300029C03196F0938F0DE0938E0D81918C1722
:100C400019F08A30D9F7F3CFE0918E0DF0918F0D26
:100C500080818C1789F06091C40D7091C50D90E072
:100C60000E949A1680918E0D90918F0D019690930F
:100C70008F0D80938E0DE8CF3196F0938F0DE0931A
:100C80008E0D81E0CF910895CF93DF93EC01BC01ED
:100C90008AE090E00E949A16BE018DE090E0DF911C
:100CA000CF910C949A16CF93DF93EB010E94F50538
:100CB000CE01DF91CF910C944406E091A60DF09106
:100CC000A70D3197F093A70DE093A60D80830895AB
:100CD000E091A60DF091A70D8191F093A70DE093FF
:100CE000A60D0895AF92BF92CF92DF92EF92FF923E
:100CF0000F931F93CF93DF9300D0CDB7DEB75C0186
:100D00007B0197FF07C0B194A194B1088DE290E0F8
:100D10000E949A1600E010E09AE0C92ED12CC5017D
:100D2000B6010E94D215805D69837A830E945D06B8
:100D30006981A62E7A81B72E0F5F1F4FA114B104CF
:100D400071F70E946806B70190E00E949A16015060
:100D5000110901151105A9F70F900F90DF91CF919F
:100D60001F910F91FF90EF90DF90CF90BF90AF90C9
:100D70000895CF93DF93EC01E091A30DF091A40DC2
:100D8000808191813396F093A40DE093A30DBE0171
:100D90000E947206BE0180E290E00E949A16E091E5
:100DA000A30DF091A40D80818A3071F0BE0190E016
:100DB0000E949A168091A30D9091A40D0196909394
:100DC000A40D8093A30DEBCF3196F093A40DE09387
:100DD000A30DCE01DF91CF910C944406CF92DF9208
:100DE000EF92FF920F931F93CF93DF9300D0CDB775
:100DF000DEB78B01C12CD12C2AE0E22EF12CB701F9
:100E00000E94BE15805D69837A830E945D066981B8
:100E1000862F7A81972F2FEFC21AD20A009779F77F
:100E20000E946806B80190E00E949A1681E0C81AF4
:100E3000D108C114D104A1F70F900F90DF91CF9189
:100E40001F910F91FF90EF90DF90CF9008958091C8
:100E5000AB0D9091AC0D2091A00D3091A10D409162
:100E60008B0D50918C0D8217930751F0FC0160811E
:100E700071816417750720F46281860F911DF3CF8D
:100E80000895E0918E0DF0918F0D8081803231F4C4
:100E90003196F0938F0DE0938E0DF3CF8930C1F32F
:100EA0000895CF93DF93EC0110929F0D80E090E0C6
:100EB000FE012491222381F120918E0D30918F0D1E
:100EC000F901E80FF91F6081FE014491641303C02A
:100ED00001962196EDCFFE01449170E060587F4F5E
:100EE00050E06417750759F40196820F931F909391
:100EF0008F0D80938E0DDF91CF910C944107FE01F1
:100F00008491219687FFFBCF80919F0D8F5F809307
:100F10009F0D0E944107CACFDF91CF9108951F9383
:100F2000CF93DF930E944E08EC010E9441071BE023
:100F3000E0918E0DF0918F0D80818A3281F431968F
:100F4000F0938F0DE0938E0D0E944E089E01289F16
:100F5000E001299FD00D389FD00D1124E9CF8F32A9
:100F600091F43196F0938F0DE0938E0D0E944E0810
:100F7000BC01009729F0CE010E94D215EB01D8CF19
:100F80001093BF0DD5CFCE01DF91CF911F91089562
:100F9000CF93DF93E0918E0DF0918F0D80818D3294
:100FA00031F08B3221F00E948F07EC0102C0C0E0CB
:100FB000D0E0E0918E0DF0918F0D80818D3251F453
:100FC0003196F0938F0DE0938E0D0E948F07C81B12
:100FD000D90BEFCF8B3251F43196F0938F0DE09314
:100FE0008E0D0E948F07C80FD91FE3CFCE01DF916E
:100FF000CF910895CF93DF930E94C807EC018091B1
:10100000BF0D811144C086EA91E00E9451074091D2
:101010009F0D4730E1F150E047305105D0F5FA011E
:10102000E259FF4F0C94E6150E94C80731E020E01A
:10103000C817D9074CF527C00E94C80731E020E047
:10104000C817D90709F51FC00E94C80731E020E082
:101050008C179D07CCF017C00E94C80731E020E034
:10106000C817D90781F410C00E94C80731E020E0FA
:101070008C179D074CF407C00E94C80731E020E0A0
:10108000C817D9070CF030E0832F922F04C0CE018F
:1010900002C080E090E0DF91CF9108950F931F93FD
:1010A000CF93DF9300D0CDB7DEB701E010E00E9410
:1010B0004107E0918E0DF0918F0D80818D3249F4C2
:1010C0003196F0938F0DE0938E0D119501951109D6
:1010D000EECF803331F43196F0938F0DE0938E0D87
:1010E000F2C09FEC980F9930E8F460E070E09AE06D
:1010F000A0918E0DB0918F0D9B01929FB001939F97
:10110000700D1124FD018191680F711D60537109EB
:10111000F0938F0DE0938E0D11968C9180538A3051
:1011200038F3DCC09FEB980F9A3108F0B4C091817E
:1011300091549A31A0F090E081549048880F991F03
:10114000A091AD0DB091AE0DA80FB91F9C91119655
:101150008C913196F0938F0DE0938E0D6EC082EBE3
:1011600091E00E94510720919F0D253011F48EE0EF
:10117000A8C0E0918E0DF0918F0D8081883211F022
:1011800085E09FC03196F0938F0DE0938E0D2983FB
:101190000E94FA07BC01E0918E0DF0918F0D8081C5
:1011A0002981893209F08CC03196F0938F0DE0933C
:1011B0008E0D2230E9F028F4222341F0213091F005
:1011C0006AC02330F9F02430D9F165C060353CE0C5
:1011D000730714F083E175C0655C7E4FDB016C9191
:1011E00070E07CC077FF7AC071956195710976C017
:1011F00069837A830E943A1669817A810E94D215A6
:10120000BC016CC06830710510F08CE05AC081E000
:1012100090E002C0880F991F6A95E2F721B130E093
:1012200028233923232B21F520B130E0282339232B
:1012300091E080E0232B09F490E0692F782F4EC0D5
:101240006830710510F760937C0081E090E002C087
:10125000880F991F6A95E2F742B132B1282F209585
:10126000232322B921B130E028233923232B11F085
:101270008DE027C080917A00806480937A0080910D
:101280007A0086FDFCCF42B96091780070917900B8
:101290007695679523C0E0918E0DF0918F0D80813A
:1012A0008832D9F43196F0938F0DE0938E0D0E9421
:1012B000FA07E0918E0DF0918F0D2081293231F0E7
:1012C00086E08093BF0D60E070E008C03196F09337
:1012D0008F0DE0938E0DBC0101C007C0069FC001B9
:1012E000079F900D169F900D11240F900F90DF9186
:1012F000CF911F910F910895E091A00DF091A10D54
:10130000329690E080818A30B1F0891769F082329C
:1013100069F0873269F091110CC02FE9280F2A314A
:1013200040F48052808305C090E003C092E201C087
:1013300097E23196E7CF089590ED980F9A3090F0AC
:10134000982F9F7D91549A3168F08F3559F08B32E8
:1013500049F08E3239F021E090E08E3709F020E03C
:10136000822F089581E090E008950F931F93CF930B
:10137000DF931092BF0DC0918E0DD0918F0D18810B
:10138000812F0E949C09892B31F42196D0938F0DD7
:10139000C0938E0DF0CF1123F9F0CE0101969093FA
:1013A0008F0D80938E0D00918E0D10918F0DF80191
:1013B00080810E949C09892B39F00F5F1F4F109389
:1013C0008F0D00938E0DEFCF0C171D0711F0F80154
:1013D00010828881811103C081E08093BF0DCE010E
:1013E000DF91CF911F910F910895009741F0E7E8A9
:1013F000F3E13197F1F700C000000197F6CF0895AF
:1014000020918A0D211105C08FE090E00E94F5091E
:10141000F7CF9091980DE92FF0E0E155F24F8081E0
:101420009F5F9093980D215020938A0D903111F475
:101430001092980D90E00895009731F026E02A95DB
:10144000F1F700C00197F8CF0895CF93E898C4E66C
:1014500028988EEE92E00E941C0A289A84EF91E070
:101460000E941C0AC150A1F7E89ACF91089590916B
:101470008A0D903198F42091A20DE22FF0E0E15511
:10148000F24F808381E0820F8093A20D9F5F909343
:101490008A0D803129F41092A20D08950C94250A2A
:1014A00008959091360190FD84C0873751F158F42A
:1014B000843151F118F4823149F12AC08835F9F0AC
:1014C000893521F125C0803EA9F020F48A3A09F43B
:1014D0007DC01EC0803F81F08C3FD1F46091C40D6F
:1014E0007091C50D83E796E00E9453060E94250A7D
:1014F0000C94250A926068C09D7F916065C080E26F
:1015000001C088E0892742C094605EC090615CC0E1
:1015100092FF1AC0813221F481E08093A50D0895D5
:10152000843329F49B7F9093360187E040C08B344D
:1015300011F48CE03CC08C3111F481E038C084326D
:1015400009F044C082E033C091FF23C08A3511F412
:101550008DE017C0853711F484E013C0823711F491
:1015600085E00FC08B3611F480E10BC0843711F495
:1015700081E107C08C3611F481E003C0893619F48B
:1015800082E00E94370A809136018D7F8093360178
:10159000089594FB222720F995FD2E5F94E0899F02
:1015A000F0011124E20FF11DED5AFB4F84910C94D0
:1015B000370A843131F0893531F0823121F09E7F54
:1015C00003C09A7F01C09E7E9093360108951F92BA
:1015D0000F920FB60F9211242F933F934F935F9367
:1015E0006F937F938F939F93AF93BF93EF93FF93EB
:1015F00099B12091A80D80918D0D21111AC08B30C9
:1016000011F485E085BD80918D0D8350883050F4B4
:101610008091370186958093370193FF03C08068DE
:101620008093370183E08093690081E08093A80D67
:1016300011C0815080938D0D811107C080913701B9
:101640000E94510A8BE080938D0D82E080936900A7
:101650001092A80DFF91EF91BF91AF919F918F9143
:101660007F916F915F914F913F912F910F900FBE9E
:101670000F901F9018950F931F93CF938091A00DFB
:101680009091A10D029690938F0D80938E0D909363
:101690003A01809339018091380183FD10C0C0EE7A
:1016A00038C0E0918E0DF0918F0D808380918E0D6A
:1016B00090918F0D019690938F0D80938E0D80E009
:1016C00091E00E944A169C0133272A30310559F0D7
:1016D0002D30310541F0232B21F780913801877F90
:1016E0008093380122C1E0918E0DF0918F0D8AE038
:1016F00080831BC18091A00D9091A10D0296209135
:101700008E0D30918F0D8217930708F48CC00E94C4
:10171000250A8091C20D9091C30D0E944A168C013A
:101720009927FC013197E131F10508F0CFC0EB5862
:10173000FF4F0C94E6158091A00D9091A10D02969B
:1017400020918E0D30918F0D8217930710F76091C5
:10175000C40D7091C50D81E090E00E949A166091D1
:10176000C40D7091C50D80918E0D90918F0D2091BB
:10177000A00D3091A10D821B930B8250829586950E
:10178000877090E001960E949A168091A00D90912A
:10179000A10D029696C020918E0D30918F0D8091F3
:1017A000390190913A012817390708F0B2CF6091BA
:1017B000C40D7091C50D82E090E00E949A16409190
:1017C000A00D5091A10D8091390190913A01841B97
:1017D000950B1EEF180F012F0295069507702091AB
:1017E0008E0D30918F0D241B350B2250229526959E
:1017F00027706091C40D7091C50D802F821B90E001
:1018000001960E949A166091C40D7091C50D812FAA
:101810000C9F800D112490E00E949A16809139014E
:1018200090913A014EC06091C40D7091C50D80E158
:1018300090E040C080918E0D90918F0D20913901E4
:1018400030913A018217930708F061CF0196909387
:101850008F0D80938E0D6091C40D7091C50D81E147
:1018600090E00E949A1655CFE0913901F0913A012B
:10187000F0938F0DE0938E0D8AE080838091C40DEC
:101880009091C50DCF911F910F910C9444068091BA
:10189000A00D9091A10D029620918E0D30918F0D8B
:1018A0008217930708F033CF6091C40D7091C50D76
:1018B00088E090E00E949A1680918E0D90918F0D95
:1018C000019790938F0D80938E0D23CF2091AD0DB6
:1018D0003091AE0D2250310940918E0D50918F0DF7
:1018E0004217530709F413CF6091C40D7091C50DD1
:1018F0000E949A16E0918E0DF0918F0D00838091D9
:101900008E0D90918F0D019690938F0D80938E0D7B
:101910002091390130913A012817390708F0F9CEA2
:1019200090933A0180933901F4CECF911F910F919A
:1019300008950E94410780E090E05AE0E0918E0D0A
:10194000F0918F0D408120ED240F2A30A0F48939C9
:1019500029E1920788F4589F9001599F300D112476
:10196000842F90E0C097820F931F3196F0938F0DD4
:10197000E0938E0DE3CF08958FEF9FEF0895809150
:10198000A50D811104C08091C600833021F410920E
:10199000A50D81E0089580E00895FC0120812D329D
:1019A00019F4019641E001C040E0FC0180E090E0C4
:1019B0005AE0219130ED320F3A3060F4BC01569F6D
:1019C000C001579F900D112430E020533109820F40
:1019D000931FEFCF442319F09195819591090895B4
:1019E000CF93DF931F92CDB7DEB78BE391E0909357
:1019F000AC0D8093AB0D9093A10D8093A00D8AE860
:101A00009DE09093A70D8093A60D88E59DE09093AF
:101A10009A0D8093990D82E29DE09093AE0D809394
:101A2000AD0D6091C40D7091C50D87EE9BE00E94D5
:101A300072066091C40D7091C50D8FE294E00E9412
:101A400053066091C40D7091C50D80E098E00E942E
:101A500072066091C40D7091C50D84E294E00E94FD
:101A600053068091C40D9091C50D0E944406B4E0C8
:101A70009B2E22242394312C04E0602E77247A9428
:101A800080E9C82E8DE0D82E6091C40D7091C50DEF
:101A900083ED90E00E949A166091C40D7091C50D7F
:101AA00081ED90E00E949A1610929E0D10929D0D6D
:101AB0008AE89DE09093A70D8093A60D6091C40DD8
:101AC0007091C50D89E094E00E945306AAE05A2E59
:101AD00080913801982F937021F08C7F809338018A
:101AE00007C18EE30E943B0B0E947C098091A00DF0
:101AF0009091A10D029690938F0D80938E0DE091A1
:101B00008E0DF0918F0D80818A3031F03196F093F7
:101B10008F0DE0938E0DF3CFE091AD0DF091AE0DF2
:101B20003197A0918E0DB0918F0D8C918083209173
:101B30008E0D30918F0D8091A00D9091A10D029688
:101B40002817390739F02150310930938F0D209330
:101B50008E0DE6CFF0938F0DE0938E0D0E94990CC1
:101B600090938C0D80938B0D0E94410720918B0DDB
:101B700030918C0D2115310509F498C02F3F8FEF5E
:101B8000380709F45FC280918E0D90918F0D10E09F
:101B9000FC01E10FF11D40814A3011F01F5FF8CFC9
:101BA0001C5FFC013397F0938F0DE0938E0D318312
:101BB0002083329610830E942707FC018091A00D9C
:101BC0009091A10DE817F90721F1408151812091F1
:101BD0008B0D30918C0D42175307D9F42281DF0110
:101BE000A20FB11D8A1B9B0B7D01AD01480F591F30
:101BF0009F01E416F50639F0D7016D917D01D901F9
:101C00006D939D01F6CF8E0F9F1F9093A10D809332
:101C1000A00DA0918E0DB0918F0D13968C918A30EE
:101C200009F456CF112309F453CFA091A00DB09120
:101C3000A10D20918E0D30918F0D2A1B3B0B812F12
:101C400090E02817390708F4C901AD01480F591F62
:101C50009D012E1B3F0B7D01BA012115310549F075
:101C6000D7010E917D01DB010E93BD012150310999
:101C7000F4CFBF01680F791FE617F70789F0A0912D
:101C80008E0DB0918F0D2C91219320918E0D30915E
:101C90008F0D2F5F3F4F30938F0D20938E0DECCF24
:101CA000181B5093A10D4093A00DBCCF1092A50D11
:101CB000E091A00DF091A10DCF01029690938F0DB0
:101CC00080938E0D82818A3009F052C001CFEA9A4A
:101CD0006091C40D7091C50D82ED90E00E949A163E
:101CE0006091C40D7091C50D80ED90E00E949A1630
:101CF0008091AB0D9091AC0D90C28B3309F0D6C59D
:101D000081818A3009F0CEC53196F0938F0DE09332
:101D10008E0DE0918E0DF0918F0D80818A33A1F3AD
:101D20000E944107E0918E0DF0918F0D80818A30E5
:101D300009F5E0919D0DF0919E0D309709F4A4CE28
:101D40008281E80FF11DF0939E0DE0939D0D80912F
:101D50009D0D90919E0D2091A00D3091A10D8217A7
:101D6000930709F491CE039690938F0D80938E0D77
:101D7000F6E44F2E0E94BF0C882349F06091C40DF9
:101D80007091C50D8CE094E00E9453067DCE8DECE1
:101D900091E00E9451071092BF0D80919F0D90E03D
:101DA0008F32910530F6FC01EA57FF4F0C94E6158F
:101DB0000E94FA070E94F509BCCFE0918E0DF091C8
:101DC0008F0D80818A3009F4CCC482E08093BF0DEE
:101DD00083E00E94610480E00E9476048091BF0D40
:101DE00090E0FC013197E431F10508F07FC0EB543D
:101DF000FF4F6091C40D7091C50D0C94E61588EEEF
:101E000093E072C08BED93E00E94F50580919D0DEB
:101E100090919E0D892B21F181E391E09F938F9307
:101E20000E94CC16E0918E0DF0918F0D10810F90D5
:101E30000F901A3011F08EE5808380919D0D909166
:101E40009E0D9093A40D8093A30D8091C40D90914D
:101E5000C50D0E94B906E0918E0DF0918F0D108393
:101E60008091C40D9091C50D0E9444063FC08CEC3A
:101E700093E03AC087EB93E037C083E094E002C080
:101E80008CEF93E00E9453066091C40D7091C50DD4
:101E900083EA93E029C081E993E026C08CE793E0D0
:101EA00023C088E693E020C086E593E01DC085E46A
:101EB00093E01AC082E393E017C084E293E014C079
:101EC00083E193E011C083E093E00EC08FEE92E0D7
:101ED0000BC089ED92E008C082EC92E005C085EB72
:101EE00092E002C08DE992E00E9453068CE40E94C9
:101EF000610480E00E947604C7CD0E94250A19CFB4
:101F00000E94FA072091BF0D211184C5E0918E0D2A
:101F1000F0918F0D20812A3009F47CC5892B09F0BE
:101F200029CF07CF0E94FA0790938C0D80938B0DD9
:101F30008091BF0D81116EC5E0918E0DF0918F0DD6
:101F400080818A3009F467C165C5E0918E0DF091FA
:101F50008F0D80818A3009F038CF8091A00D90914B
:101F6000A10D5BC110929C0D10929B0D00E018E03A
:101F700080E091E00E944A16009709F4DACE609161
:101F8000C40D7091C50D9C01205231092F353105CA
:101F900040F08A30910529F08D30910511F08FE3E2
:101FA00090E00E949A16015011090115110501F7E0
:101FB00020C010929C0D10929B0D00E010E060E09C
:101FC00071E080E090E00E949A16C8018F7799270F
:101FD0008034910541F46091C40D7091C50D8EE27D
:101FE00090E00E949A160F5F1F4F0F3FB7E01B074C
:101FF00031F78091C40D9091C50D0E94440699CE91
:102000008091380182608093380110929C0D10926B
:102010009B0D80E091E00E944A16C0970A9790F4C9
:1020200010929C0D10929B0D8091AB0D9091AC0D78
:102030009093A10D8093A00D8091380188608093CA
:10204000380122CD89E0C2CE10929C0D10929B0DDA
:102050000E9427079093A40D8093A30D2091A30DB8
:102060003091A40D8091A00D9091A10D28173907F2
:1020700029F080E091E00E94B906F0CF60E071E0C5
:1020800080E090E00E949A1654CE0E944107E091B1
:102090008E0DF0918F0D80808FEB880D8A3110F0BE
:1020A00087E094CE3196F0938F0DE0938E0D0E94D1
:1020B0004107E0918E0DF0918F0D80818D3311F0ED
:1020C0008AE084CE3196F0938F0DE0938E0D0E94BE
:1020D00041071092BF0D0E94FA077C018091BF0D4D
:1020E000811176CE83EA91E00E94510780919F0D85
:1020F00081116BCE0E94FA078C018091BF0D811176
:1021000067CE8EE991E00E94510780919F0D811169
:1021100008C00E94FA075C018091BF0D882321F05E
:1021200057CEAA24A394B12C0E94410780918E0D12
:1021300090918F0DFC0120812A3019F02A3309F08B
:1021400044CE3091BF0D311165C42A3009F062C40C
:10215000E091A60DF091A70D9F01265F3F4F4091A2
:10216000990D50919A0D2417350708F441C03A97FC
:10217000F093A70DE093A60D282D30E021543048B0
:10218000220F331FA091AD0DB091AE0DA20FB31F62
:10219000ED92FC924082818213830283B582A482F5
:1021A0009187808780919D0D90919E0D9783868366
:1021B000B0CD0E94FA0790938C0D80938B0D809187
:1021C000BF0D811127C4A0918E0DB0918F0D8C9100
:1021D0008A3009F01FC4E091A60DF091A70DCF0140
:1021E00006962091990D30919A0D8217930710F45D
:1021F00083E0ECCD3697F093A70DE093A60D87E42E
:1022000090E091838083B583A48380919D0D90910C
:102210009E0D938382830E94270790939E0D809347
:102220009D0D95CD0E944107E0918E0DF0918F0D8F
:10223000808181548A3108F033CF3196F0938F0D2D
:10224000E0938E0D0E944107E0918E0DF0918F0D6D
:1022500080818A3319F08A3009F0B7CD2091A60D1C
:102260003091A70D3093AA0D2093A90D90919F0D49
:10227000A0918E0DB0918F0D1197E091A90DF09165
:10228000AA0D8DE0E938F80708F059C0808186343E
:10229000D1F0873409F0F8CB9C3099F48281938196
:1022A00090939E0D80939D0D8481958190938F0DC9
:1022B00080938E0D2A5F3F4F3093A70D2093A60D7C
:1022C00028CD369637C09330A1F58C914181841387
:1022D00030C090E081549048880F991FA091AD0DB7
:1022E000B091AE0DA80FB91F8D919C9111972481CB
:1022F0003581820F931F8D939C9324813581232BED
:1023000091F0228133812817390768F08085918503
:1023100090938F0D80938E0D8681978190939E0D63
:1023200080939D0DF6CC3A96F093A70DE093A60D01
:10233000F0CC3A96F093AA0DE093A90D9ECF88E0D9
:1023400045CD0E944107E0918E0DF0918F0DF080F8
:102350008FEB8F0D8A3108F0A3CEB090AD0DE090D9
:10236000AE0D3196F0938F0DE0938E0D0E944107D4
:10237000E0918E0DF0918F0D80818A3019F08A33B3
:1023800009F023CDD092C10DC092C00D1092900DD6
:10239000EA9AA12C8091C20D9091C30D0E944A1619
:1023A0008C01882E8091A50D813009F4B2CCC80132
:1023B00099278A30910549F124F48830910559F123
:1023C00048C08D30910509F18D32910509F041C069
:1023D000A11061C06091C40D7091C50D8DE290E0B7
:1023E0000E949A16E091C00DF091C10D0083E0911A
:1023F000C00DF091C10DCF0101969093C10D809356
:10240000C00D1182AA24A39446C0E091C00DF091A2
:10241000C10D508240C08091C00D9091C10D805976
:102420009D4009F018F40E94250A35C06091C40D42
:102430007091C50D88E090E00E949A168091C00DC1
:102440009091C10D01979093C10D8093C00DAA94F6
:1024500022C020ED200F2A30F0F4B5E0BA15C0F00C
:102460006091C40D7091C50D0E949A16E091C00D47
:10247000F091C10D0083A394E091C00DF091C10DC6
:10248000CF0101969093C10D8093C00D118206C0BB
:102490000E94250A03C0EAE08E1619F0FDE08F12B3
:1024A00079CF8091C40D9091C50D0E94440680E9BA
:1024B0009DE00E94CD0CEB2DFE2DEF0DF11DEF0DDB
:1024C000F11DE258F1099183808323CCE0918E0DB8
:1024D000F0918F0D80819FEB980F9A3108F075CCA9
:1024E00090E081549048880F991F0091AD0D109194
:1024F000AE0D080F191F3196F0938F0DE0938E0DDE
:10250000E0918E0DF0918F0D808181548A3118F405
:102510007092BF0DF0CF0E944107E0918E0DF091B7
:102520008F0D80818D3311F08FE050CC8091BF0DE5
:102530008F3F11F481E14ACC3196F0938F0DE093F7
:102540008E0D0E9441070E94FA072091BF0D2111B4
:102550003FCCE0918E0DF0918F0D20812A3019F043
:102560002A3309F032CCD8018D939C93D2CB0E94B0
:10257000FA078C018091BF0D81112ACC0035BCE097
:102580001B0714F083E122CC0E944107E0918E0DDD
:10259000F0918F0D80818C3209F017CC3196F09339
:1025A0008F0DE0938E0D0E9441070E94FA07209143
:1025B000BF0D21110DCC8F3F910519F010F082E174
:1025C00005CCE0918E0DF0918F0D20812A3019F00D
:1025D0002A3309F0FACBF801E55CFE4F808399CBF2
:1025E0000E94FA07182F282F392F8091BF0D8111D3
:1025F000EFCB2F3F310511F008F006C1E0918E0DB1
:10260000F0918F0D80818C3209F0DFCB3196F09301
:102610008F0DE0938E0D0E94FA07682F282F392F17
:102620008091BF0D8111D4CB203F310508F0ECC063
:10263000E0918E0DF0918F0D80818C3209F0C5CB29
:102640003196F0938F0DE0938E0D69830E94FA0707
:102650009C019091BF0D69819111BACB2038310551
:1026600008F09DC0482F812F0E94A90462CB0E94D0
:10267000FA07182F282F392F8091BF0D8111A8CB71
:102680002830310510F08CE0A1CBE0918E0DF09157
:102690008F0D80818C3209F098CB3196F0938F0D9D
:1026A000E0938E0D0E94FA072091BF0D211190CB6F
:1026B0009101012E01C0220F0A94EAF7009739F028
:1026C000019709F082CB81B1822B81B932CB81B1E4
:1026D0002095282321B92DCB0E94FA07182F282FE7
:1026E000392F8091BF0D811173CB2830310558F6F9
:1026F000E0918E0DF0918F0D80818C3209F065CBC9
:102700003196F0938F0DE0938E0D0E94FA07209181
:10271000BF0D21115DCB9101012E01C0220F0A9442
:10272000EAF7009739F0019709F04FCB82B1822B7D
:1027300082B9FFCA82B12095282322B9FACA6091D2
:10274000C40D7091C50D88EC90E00E949A160E940D
:10275000DF036091C40D7091C50D8AE394E00E947F
:1027600053068091AB0D9091AC0D9093A10D809389
:10277000A00DAEC96091C40D7091C50D89EC90E0BB
:102780000E949A160E94DF03D4CA0E94FA079C0195
:102790009091BF0D91111CCB2038310510F084E1D0
:1027A00015CB0E946104C5CA0E94FA079C01909152
:1027B000BF0D91110DCB2038310588F70E947604AA
:1027C000B8CA0E94FA07182F282F392F8091BF0D01
:1027D0008111FECA28313105B8F4E0918E0DF091D7
:1027E0008F0D80818C3209F0F0CA3196F0938F0DF5
:1027F000E0938E0D0E94FA079C019091BF0D9111FC
:10280000E7CA2032310510F080E1E0CA682F812F3D
:102810000E948B048ECAE0918E0DF0918F0D808105
:102820008A3381F48091C40D9091C50D0E944406B5
:1028300080918E0D90918F0D019690938F0D8093C6
:102840008E0D67CA8A3009F474CA0E9441070E943B
:102850000D06811119C0E0918E0DF0918F0D8081D0
:10286000823209F4D7C0873209F4D4C01092BF0D68
:102870000E94FA072091BF0D2111AACA6091C40DD0
:102880007091C50D0E947206E0918E0DF0918F0D32
:1028900080818C3209F031CA3196F0938F0DE0932C
:1028A0008E0DD3CF8A3309F090CA2ECA8A3019F020
:1028B0008A3309F08ACA8091C40D9091C50D0E9497
:1028C000440627CA8FEC2BC08EEC29C00E9441071A
:1028D0000E94FA072091BF0D21117ACA883791050D
:1028E000A9F040F4CC9709F014CA8CEC0E9459046A
:1028F00080E015C08639910571F0843B910509F09F
:1029000008CA8CEC0E94590488E109C08CEC0E9432
:10291000590488E004C08CEC0E94590480E10E94B4
:102920005904F7C90E9441071092BF0DE0918E0D26
:10293000F0918F0D1081123219F0173209F045CA4B
:102940003196F0938F0DE0938E0DE0918E0DF09106
:102950008F0D8081811709F4D7C9893521F180F461
:10296000853459F130F4833431F1F8F48134D9F0FD
:1029700030C08E34D1F08835F1F08D3451F51DC062
:102980008536D9F030F48336B1F078F4813659F0D9
:1029900020C08E3651F018F48D3679F01AC0883781
:1029A00051F08937B1F489EC01C08AEC0E945904D6
:1029B0000E94AE0510C08BECF9CF8DEC0E9459043B
:1029C0000E94AE058091BF0D811105C00E94C40513
:1029D00002C06092BF0D8091BF0D882321F088EC6A
:1029E0000E945904F5C980918E0D90918F0D01962A
:1029F00090938F0D80938E0DA8CF0E94990C909389
:102A00008C0D80938B0DE0918E0DF0918F0D808158
:102A10008A3019F09092BF0DDBC90E94270790936E
:102A2000A40D8093A30D2091A30D3091A40D80914E
:102A3000A00D9091A10D2817390709F425C88091A0
:102A4000C40D9091C50D0E94B906EDCF6091C40DE3
:102A50007091C50D8091AD0D9091AE0D2091A00D9E
:102A60003091A10D821B930B0E9472066091C40DE0
:102A70007091C50D8FE294E00E9453066091C40DE1
:102A80007091C50D80E098E00E9472066091C40DBF
:102A90007091C50D84E294E00E9453063AC980917A
:102AA000B20090E006C00E94FA072091BF0D2111EC
:102AB0008FC90E943F162DC98CE191E09093C30D00
:102AC0008093C20D9093C50D8093C40D10927C002D
:102AD00087E880937A0080917A00806480937A00FE
:102AE00080917A0086FDFCCF11B88FEF82B9209AD1
:102AF000289A22982A9AEA9A539852985B9A5A9A54
:102B000082E084BD15BC94E697BD80936E00109260
:102B1000A50D9BE090938D0D809369001092A80DF8
:102B2000E89A78948FEF87B95698579A5498559A9F
:102B30001092C50085E18093C40086E08093C200B6
:102B400088E18093C1000E94DF030E94250A8CE483
:102B50000E94610480E00E9476046091C40D70912F
:102B6000C50D8AE394E00E9453061092B00087E0FE
:102B70008093B100109270000E94F00CAA1BBB1B46
:102B800051E107C0AA1FBB1FA617B70710F0A61B6D
:102B9000B70B881F991F5A95A9F780959095BC018E
:102BA000CD01089597FB072E16F4009407D077FD0A
:102BB00009D00E94BE1507FC05D03EF49095819582
:102BC0009F4F0895709561957F4F0895EE0FFF1FF9
:102BD0000590F491E02D09948F929F92AF92BF924D
:102BE000CF92DF92EF92FF92CF93DF93EC01688157
:102BF00079818A819B81611571058105910521F497
:102C000064E279ED8BE597E02DE133EF41E050E0B0
:102C10000E94401949015A019B01AC01A7EAB1E4A5
:102C20000E945F196B017C01ACEEB4EFA501940129
:102C30000E946D19C60ED71EE81EF91EF7FE06C0CB
:102C400081E0C81AD108E10880E8F80AC882D98270
:102C5000EA82FB82C6019F77DF91CF91FF90EF90D0
:102C6000DF90CF90BF90AF909F908F9008950E947B
:102C7000EC1508958AE291E00E94EC150895A0E019
:102C8000B0E080932A0190932B01A0932C01B09384
:102C90002D010895CF93DF93EC012B8120FF33C0EA
:102CA00026FF0AC02F7B2B838E819F8101969F83F5
:102CB0008E838A8190E029C022FF0FC0E881F981CC
:102CC0008081992787FD9095009719F420622B83C6
:102CD0001AC03196F983E8830EC0EA85FB85099511
:102CE00097FF09C02B81019611F480E101C080E2B9
:102CF000822B8B8308C02E813F812F5F3F4F3F8304
:102D00002E83992702C08FEF9FEFDF91CF91089517
:102D1000A0E0B0E0EEE8F6E10C948219AE01475F66
:102D20005F4F6F8178858D819E810E94E016E2E081
:102D30000C949E190F931F93CF93DF93182F092F95
:102D4000EB018B8181FD03C08FEF9FEF20C082FFDD
:102D500010C04E815F812C813D81421753077CF466
:102D6000E881F9819F012F5F3F4F398328831083CA
:102D700006C0E885F985812F0995892B29F72E81D1
:102D80003F812F5F3F4F3F832E83812F902FDF9115
:102D9000CF911F910F910895A0E0B0E0E2EDF6E130
:102DA0000C948219FE01359661917191AF01809169
:102DB000C40D9091C50D0E94E016E2E00C949E199E
:102DC000ACE0B0E0E6EEF6E10C9472197C016B0128
:102DD0008A01FC0117821682838181FFBDC1CE0169
:102DE00001964C01F7019381F60193FD859193FFC4
:102DF00081916F01882309F4ABC1853239F493FDC9
:102E0000859193FF81916F01853229F4B70190E09C
:102E10000E949A16E7CF512C312C20E02032A0F4EA
:102E20008B3269F030F4803259F0833269F42061DA
:102E30002CC08D3239F0803339F4216026C02260F5
:102E4000246023C0286021C027FD27C030ED380F43
:102E50003A3078F426FF06C0FAE05F9E300D112468
:102E6000532E13C08AE0389E300D1124332E206279
:102E70000CC08E3221F426FD6BC1206406C08C3656
:102E800011F4206802C0883641F4F60193FD859163
:102E900093FF81916F018111C1CF982F9F7D955430
:102EA000933028F40C5F1F4FFFE3F9830DC0833686
:102EB00031F0833771F0833509F05BC022C0F8012F
:102EC000808189830E5F1F4F44244394512C540109
:102ED00015C03801F2E06F0E711CF801A080B180BE
:102EE00026FF03C0652D70E002C06FEF7FEFC501C4
:102EF0002C870E94D7182C0183012C852F77222E36
:102F000017C03801F2E06F0E711CF801A080B1808B
:102F100026FF03C0652D70E002C06FEF7FEFC50193
:102F20002C870E94CC182C012C852068222E83012E
:102F300023FC1BC0832D90E048165906B0F4B7015E
:102F400080E290E00E949A163A94F4CFF50127FCB3
:102F5000859127FE81915F01B70190E00E949A164A
:102F600031103A94F1E04F1A51084114510471F7AD
:102F7000E5C0843611F0893639F5F80127FF07C01E
:102F800060817181828193810C5F1F4F08C06081D5
:102F90007181882777FD8095982F0E5F1F4F2F76C0
:102FA000B22E97FF09C090958095709561957F4FDF
:102FB0008F4F9F4F2068B22E2AE030E0A4010E947C
:102FC000E218A82EA81844C0853729F42F7EB22E07
:102FD0002AE030E025C0F22FF97FBF2E8F36C1F0F6
:102FE00018F4883579F0B4C0803719F0883721F0AB
:102FF000AFC02F2F2061B22EB4FE0DC08B2D846088
:10300000B82E09C024FF0AC09F2F9660B92E06C0B3
:1030100028E030E005C020E130E002C020E132E0ED
:10302000F801B7FE07C060817181828193810C5FD6
:103030001F4F06C06081718180E090E00E5F1F4FDE
:10304000A4010E94E218A82EA818FB2DFF77BF2E1E
:10305000B6FE0BC02B2D2E7FA51450F4B4FE0AC073
:10306000B2FC08C02B2D2E7E05C07A2C2B2D03C060
:103070007A2C01C0752C24FF0DC0FE01EA0DF11D54
:103080008081803311F4297E09C022FF06C0739429
:10309000739404C0822F867809F0739423FD13C0C3
:1030A00020FF06C05A2C731418F4530C5718732CB5
:1030B000731468F4B70180E290E02C870E949A169E
:1030C00073942C85F5CF731410F4371801C0312C8C
:1030D00024FF12C0B70180E390E02C870E949A166B
:1030E0002C8522FF17C021FF03C088E590E002C0B5
:1030F00088E790E0B7010CC0822F867859F021FD57
:1031000002C080E201C08BE227FD8DE2B70190E0B2
:103110000E949A16A51438F4B70180E390E00E944B
:103120009A165A94F7CFAA94F401EA0DF11D808102
:10313000B70190E00E949A16A110F5CF332009F450
:1031400051CEB70180E290E00E949A163A94F6CFF1
:10315000F7018681978102C08FEF9FEF2C96E2E105
:103160000C948E19F999FECF92BD81BDF89A9927DA
:1031700080B50895262FF999FECF92BD81BDF89AAA
:10318000019700B4021639F01FBA20BD0FB6F894AB
:10319000FA9AF99A0FBE0895FC01059061507040AB
:1031A0000110D8F7809590958E0F9F1F0895FC0110
:1031B0006150704001900110D8F7809590958E0F66
:1031C0009F1F0895FA01AA27283051F1203181F17B
:1031D000E8946F936E7F6E5F7F4F8F4F9F4FAF4F1F
:1031E000B1E03ED0B4E03CD0670F781F891F9A1F32
:1031F000A11D680F791F8A1F911DA11D6A0F711DE6
:10320000811D911DA11D20D009F468943F912AE0F1
:10321000269F11243019305D3193DEF6CF010895D9
:10322000462F4770405D4193B3E00FD0C9F7F6CF0A
:10323000462F4F70405D4A3318F0495D31FD4052D2
:10324000419302D0A9F7EACFB4E0A6959795879568
:1032500077956795BA95C9F7009761057105089547
:103260009B01AC010A2E06945795479537952795F3
:10327000BA95C9F7620F731F841F951FA01D08958B
:10328000052E97FB1EF400940E94571957FD07D096
:103290000E94A91907FC03D04EF40C9457195095BD
:1032A0004095309521953F4F4F4F5F4F0895909532
:1032B0008095709561957F4F8F4F9F4F08950E9425
:1032C000CB19A59F900DB49F900DA49F800D911DCB
:1032D00011240895B7FF0C945F190E945F19821B97
:1032E000930B08952F923F924F925F926F927F922D
:1032F0008F929F92AF92BF92CF92DF92EF92FF9206
:103300000F931F93CF93DF93CDB7DEB7CA1BDB0BB1
:103310000FB6F894DEBF0FBECDBF09942A88398856
:1033200048885F846E847D848C849B84AA84B9845D
:10333000C884DF80EE80FD800C811B81AA81B98169
:10334000CE0FD11D0FB6F894DEBF0FBECDBFED017D
:103350000895A1E21A2EAA1BBB1BFD010DC0AA1FD6
:10336000BB1FEE1FFF1FA217B307E407F50720F0EE
:10337000A21BB30BE40BF50B661F771F881F991F69
:103380001A9469F760957095809590959B01AC01B2
:10339000BD01CF010895A29FB001B39FC001A39FBB
:1033A000700D811D1124911DB29F700D811D11247E
:0833B000911D0895F894FFCF70
:1033B80000000003000000007D038E0300000000F1
:1033C800000300000000660375030000000000030E
:1033D800000000009D03000A0000010000002564B1
:0633E80000202D2D200045
:00000001FF
