:100000000C9447030C94E70A0C9464030C94BF030C
:100010000C9464030C9464030C9464030C946403C4
:100020000C9464030C9464030C9464030C946403B4
:100030000C9464030C9464030C9464030C946403A4
:100040000C94CF030C9464030C9464030C94640329
:100050000C9464030C9464030C9464030C94640384
:100060000C9464030C9464030C9464030C94640374
:100070000C9464030C9464030C9464034E053605DD
:10008000F7044C05070518052705480548054805E8
:1000900048054805480548054805460548054805FA
:1000A00048054805480548054805480548054805E8
:1000B0004805480548054805480548054E053605E4
:1000C000F7044C05070518052705480548054805A8
:1000D00048054805480548054805460514081C0814
:1000E00024082C0834083C081C089B0BCB0B660C1E
:1000F000890B890B660C870B470C660C340C660C5D
:10010000890B340C660C660C7A0B1A0C2915FF0E41
:10011000850E40119212A20FB80F8E1490149214F3
:10012000BE1407115C117C158015CB13E613B70EB6
:100130007310CF119F0F37140D14E3121C13CB0F44
:10014000CB0F5315F11300143714B70EB70EF60E7C
:10015000D80F03102A1052102F10B70EB70EB70E7B
:10016000B70EB70E631398139212210F240F590F75
:100170005C0F5F0F620F6D0F700F730F760F790FAB
:100180007C0F7F0F820F850F880F8B0F8E0F910FC3
:10019000940F484947C848C94C4FD74CCF005354D7
:1001A00045D00054CF003EBD3CBEBEBD3CBDBC21D1
:1001B000BD00504545CB4142D3524EC450494E44F8
:1001C000524541C450494E41524541C4004C4953E7
:1001D000D44E45D75255CE4E4558D44C45D449C639
:1001E000474F54CF4D504C41D94D53544FD05445A7
:1001F0004D50CF4D555349C3474F5355C2524554A7
:100200005552CE52414E444F4D495AC5524E445319
:100210004545C45253D4434CD35245CD464FD249A1
:100220004E5055D4424545D05052494ED44C4F4380
:100230004154C5504F4BC5505345D453544FD045EE
:100240004EC44D45CD5045CE50415045D2BFA3A7D9
:1002500044454C41D9454C4953D445464F524D41F4
:10026000D44543484149CE45534156C5454C4F417D
:10027000C446494C45D343464F524D41D44343486D
:100280004149CE43534156C5434C4F41C450494E5A
:100290004449D250494E4457524954C5004578709C
:1002A000656374656420636F6C6F72205B302E2E03
:1002B0003132375D004F7574206F662072616E6752
:1002C00065004578706563746564206279746520A3
:1002D0005B302E2E3235355D00496E76616C696477
:1002E000207661726961626C65206E616D6500499E
:1002F0006E76616C696420636F6F7264696E61749D
:10030000657300556E6B6E6F776E20636F6D6D61F8
:100310006E6400556E6B6E6F776E2066756E6374DB
:10032000696F6E0050696E20492F4F206572726FA1
:100330007200496E76616C69642070696E205B3072
:100340002E2E375D004469766973696F6E2062797D
:10035000207A65726F004F70657261746F722065EC
:100360007870656374656400496E76616C696420B9
:100370006C696E65206E756D626572004A756D7090
:1003800020706F696E74206E6F7420666F756E6476
:10039000005661726961626C65206578706563748E
:1003A000656400706172656E746865736973206D51
:1003B000697373696E6700556E65787065637465FF
:1003C0006420636861726163746572005374616371
:1003D0006B206F766572666C6F770053796E74610F
:1003E00078206572726F72004E6F74207965742088
:1003F000696D706C656D656E7465640052696768DF
:100400007420004C65667420004F4B004272656199
:100410006B210020627974657320617661696C617B
:10042000626C650020627974657320524F4D002024
:1004300062797465732052414D0057656C636F6D2E
:100440006520746F206E73744241534943207630A7
:100450002E3200000000000000000000000000003C
:100460000000000000000000000000607E607E00D0
:10047000000000000000000000000000000000007C
:100480000000000000000009090909607E607E008C
:10049000000000000000000000000000000000005C
:1004A0000000000000000071515171312131210024
:1004B00000000000000000000000007A5A5A7A7321
:1004C000535373614141617757577732403240004F
:1004D00000000000000000634343637858587864CC
:1004E0004444646545456534243424332333230070
:1004F000000000000000002020202076565676667E
:10050000464666745454747252527235253525002D
:10051000000000000000006E4E4E6E6242426268B3
:100520004848686747476779595979365E365E00AB
:10053000000000000000002C3C2C3C6D4D4D6D6A0D
:100540004A4A6A7555557537263726382A382A009B
:10055000000000000000002C3C2C3C6B4B4B6B69F6
:100560004949696F4F4F6F302930293928392800A0
:10057000000000000000002E3E2E3E2F3F2F3F6C5B
:100580004C4C6C3B3A3B3A705050702D5F2D5F00E5
:1005900000000000000000000000002722272200C9
:1005A0000000005B7B5B7B3D2B3D2B0000000000CF
:1005B00000000000000000000000000D0D0D0D5DAA
:1005C0007D5D7D000000005C7C5C7C000000000024
:1005D000000000000000003C3C3C3C00000000002B
:1005E00000000000000000000000000808080800EB
:1005F0000000000000000031313131000000003403
:100600003434343737373700000000000000000072
:10061000000000303030302E2E2E2E323232323565
:1006200035353536363636383838381B1B1B1B0007
:10063000000000000000002B2B2B2B333333332D15
:100640002D2D2D2A2A2A2A39393939000000000097
:100650000000004B6579626F61726420636F6E6E9B
:100660006563746564207375636365737366756C25
:100670006C79004B6579626F6172642073656C669A
:100680002D74657374206661696C656400001124C3
:100690001FBECFEFD0E1DEBFCDBF11E0A0E0B1E0E3
:1006A000E2E1F4E302C005900D92A633B107D9F759
:1006B0002DE0A6E3B1E001C01D92A13DB207E1F734
:1006C0000E9489150C94071A0C940000CF93C82F30
:1006D0008A3019F48DE00E9466038091C00085FF86
:1006E000FCCFC093C600CF9108958091C00087FFD2
:1006F000FCCF8091C60090E00895682F8091A00DF6
:100700009091A10D9C012F5F3F4F3093A10D20933D
:10071000A00D0E94E71880E090E008958091A00D60
:100720009091A10D9C012F5F3F4F3093A10D20931D
:10073000A00D0E94DF1890E0089588B94E99FECF71
:100740005F9A4E9BFECF5F986EE071E0883079F43F
:1007500088E090E00E94C7166EE071E080E290E0D1
:100760000E94C7166EE071E088E090E003C0992710
:1007700087FD90950E94C71680E090E008951F9233
:100780000F920FB60F9211248F9381E08093AA0DE0
:10079000EA988F910F900FBE0F901F9018951F929F
:1007A0000F920FB60F9211248F938BE080938E0DD2
:1007B00015BC8F910F900FBE0F901F9018956EE093
:1007C00071E08BE190E00E94C7166EE071E08BE56E
:1007D00090E00E94C7166EE071E080E390E00E9416
:1007E000C7166EE071E08DE690E00E94C7166EE0DD
:1007F00071E08BE190E00E94C7166EE071E08BE53E
:1008000090E00E94C7166EE071E088E490E00E94DC
:10081000C7166EE071E08BE190E00E94C7166EE0B3
:1008200071E08BE590E00E94C7166EE071E08AE40B
:1008300090E00C94C716FF920F931F93CF93DF9312
:10084000C82FF62E6EE071E08BE190E00E94C71693
:100850006EE071E08BE590E00E94C7161F92CF9387
:100860000EE211E01F930F93CEE0D1E0DF93CF9320
:100870000E94B516BE018BE390E00E94C7161F923E
:10088000FF921F930F93DF93CF930E94B5168DB7FE
:100890009EB70C960FB6F8949EBF0FBE8DBFBE01DB
:1008A00088E490E0DF91CF911F910F91FF900C941D
:1008B000C71688B94C99FECF5D9A4C9BFECF5D98C8
:1008C00008951F93CF93DF93182FCDECDDE068815F
:1008D00079818EEC90E00E94C71668817981812F22
:1008E00090E0DF91CF911F910C94C7161F93CF9387
:1008F000DF93182FCDECDDE0688179818FEC90E0FB
:100900000E94C71668817981812F90E0DF91CF9195
:100910001F910C94C7160F931F93CF93DF93082F4B
:10092000162FCDECDDE0688179818DEC90E00E949E
:10093000C71668817981802F90E00E94C716688170
:100940007981812F90E0DF91CF911F910F910C94CD
:10095000C716EF92FF920F931F93CF93DF931F92CF
:10096000CDB7DEB7082F162F8DECE82E8DE0F82ED0
:10097000F701608171818AEC90E049830E94C7167B
:10098000F70160817181802F90E00E94C716F70106
:1009900060817181812F90E00E94C716F70160810C
:1009A00071814981842F90E00F90DF91CF911F9149
:1009B0000F91FF90EF900C94C716CF93DF93C091E7
:1009C0008F0DD091900D9E012F5F3F4F3093900D72
:1009D00020938F0D898190E0815491098033910596
:1009E00008F056C0825C9F4FFC010C941316CE0198
:1009F00002969093900D80938F0D8A81833209F433
:100A00004FC03093900D20938F0D81E052C0CE01E6
:100A100002969093900D80938F0D8A818F7D823402
:100A200009F440C03093900D20938F0D85E041C0B4
:100A3000CE0102969093900D80938F0D8A81833220
:100A400099F13093900D20938F0D86E032C0CE0146
:100A500002969093900D80938F0D8A81833231F1AD
:100A60003093900D20938F0D88E023C0CE01029625
:100A70009093900D80938F0D8A818F7D8234C1F089
:100A80003093900D20938F0D8CE013C08DE011C03A
:100A900084E08093C60D0DC083E00BC08AE009C0DE
:100AA00082E007C084E005C087E003C089E001C0A0
:100AB0008BE0DF91CF910895E0918F0DF091900D33
:100AC000CF0101969093900D80938F0D81819EECC4
:100AD000980F963010F480530895823211F08732C7
:100AE00029F4F093900DE0938F0D03C084E0809380
:100AF000C60D80E00895E0918F0DF091900DCF012B
:100B000001969093900D80938F0D81819FEC980FAB
:100B1000983010F48053089584E08093C60D80E0EF
:100B20000895E0918F0DF091900DCF010196909373
:100B3000900D80938F0D81818D3271F08D3321F076
:100B40008B3221F481E0089583E00895F093900DB5
:100B5000E0938F0D80E0089582E00895E0918F0D7D
:100B6000F091900DCF0101969093900D80938F0D91
:100B700081819FEC980F943018F480530C945904A1
:100B800084E08093C60D08950F931F93CF93DF9356
:100B90000CE00E945C05182F882311F10E94DD04EF
:100BA000C82F0E947B05D82F0E9491059D2F9C2B5A
:100BB000982BB1F0CD3039F01250109FC00D112498
:100BC000C150CC0F01C0C0E9D15090E4899FD00D35
:100BD00011248D2F0E9459048C2F0E945904D9CFC3
:100BE000DF91CF911F910F9108950F931F93CF9392
:100BF000DF93EC018B01CE01FE012491222341F011
:100C00002196FC018491B80190E00E94C716F3CFB1
:100C1000DF91CF911F910F910895CF93E0918F0DA8
:100C2000F091900DC081C23221F0C73211F080E006
:100C300029C03196F093900DE0938F0D81918C1720
:100C400019F08A30D9F7F3CFE0918F0DF091900D24
:100C500080818C1789F06091CD0D7091CE0D90E060
:100C60000E94C71680918F0D9091900D01969093E0
:100C7000900D80938F0DE8CF3196F093900DE09317
:100C80008F0D81E0CF910895CF93DF93EC01BC01EC
:100C90008AE090E00E94C716BE018DE090E0DF91EF
:100CA000CF910C94C716CF93DF93EB010E94F5050B
:100CB000CE01DF91CF910C944406E091AB0DF09101
:100CC000AC0D3197F093AC0DE093AB0D808308959C
:100CD000E091AB0DF091AC0D8191F093AC0DE093F0
:100CE000AB0D0895AF92BF92CF92DF92EF92FF9239
:100CF0000F931F93CF93DF9300D0CDB7DEB75C0186
:100D00007B0197FF07C0B194A194B1088DE290E0F8
:100D10000E94C71600E010E09AE0C92ED12CC50150
:100D2000B6010E94FF15805D69837A830E945D068B
:100D30006981A62E7A81B72E0F5F1F4FA114B104CF
:100D400071F70E946806B70190E00E94C716015033
:100D5000110901151105A9F70F900F90DF91CF919F
:100D60001F910F91FF90EF90DF90CF90BF90AF90C9
:100D70000895CF93DF93EC01E091A80DF091A90DB8
:100D8000808191813396F093A90DE093A80DBE0167
:100D90000E947206BE0180E290E00E94C716E091B8
:100DA000A80DF091A90D80818A3071F0BE0190E00C
:100DB0000E94C7168091A80D9091A90D019690935D
:100DC000A90D8093A80DEBCF3196F093A90DE09378
:100DD000A80DCE01DF91CF910C944406CF92DF9203
:100DE000EF92FF920F931F93CF93DF9300D0CDB775
:100DF000DEB78B01C12CD12C2AE0E22EF12CB701F9
:100E00000E94EB15805D69837A830E945D0669818B
:100E1000862F7A81972F2FEFC21AD20A009779F77F
:100E20000E946806B80190E00E94C71681E0C81AC7
:100E3000D108C114D104A1F70F900F90DF91CF9189
:100E40001F910F91FF90EF90DF90CF9008958091C8
:100E5000B00D9091B10D2091A50D3091A60D40914E
:100E60008C0D50918D0D8217930751F0FC0160811C
:100E700071816417750720F46281860F911DF3CF8D
:100E80000895E0918F0DF091900D8081803231F4C2
:100E90003196F093900DE0938F0DF3CF8930C1F32D
:100EA0000895CF93DF93EC011092A40D80E090E0C1
:100EB000FE012491222381F120918F0D3091900D1C
:100EC000F901E80FF91F6081FE014491641303C02A
:100ED00001962196EDCFFE01449170E060587F4F5E
:100EE00050E06417750759F40196820F931F909391
:100EF000900D80938F0DDF91CF910C944107FE01EF
:100F00008491219687FFFBCF8091A40D8F5F809302
:100F1000A40D0E944107CACFDF91CF9108951F937E
:100F2000CF93DF930E944E08EC010E9441071BE023
:100F3000E0918F0DF091900D80818A3281F431968D
:100F4000F093900DE0938F0D0E944E089E01289F14
:100F5000E001299FD00D389FD00D1124E9CF8F32A9
:100F600091F43196F093900DE0938F0D0E944E080E
:100F7000BC01009729F0CE010E94FF15EB01D8CFEC
:100F80001093C60DD5CFCE01DF91CF911F9108955B
:100F9000CF93DF93E0918F0DF091900D80818D3292
:100FA00031F08B3221F00E948F07EC0102C0C0E0CB
:100FB000D0E0E0918F0DF091900D80818D3251F451
:100FC0003196F093900DE0938F0D0E948F07C81B10
:100FD000D90BEFCF8B3251F43196F093900DE09313
:100FE0008F0D0E948F07C80FD91FE3CFCE01DF916D
:100FF000CF910895CF93DF930E94C807EC018091B1
:10100000C60D811144C086EA91E00E9451074091CB
:10101000A40D4730E1F150E047305105D0F5FA0119
:10102000E259FF4F0C9413160E94C80731E020E0EC
:10103000C817D9074CF527C00E94C80731E020E047
:10104000C817D90709F51FC00E94C80731E020E082
:101050008C179D07CCF017C00E94C80731E020E034
:10106000C817D90781F410C00E94C80731E020E0FA
:101070008C179D074CF407C00E94C80731E020E0A0
:10108000C817D9070CF030E0832F922F04C0CE018F
:1010900002C080E090E0DF91CF9108950F931F93FD
:1010A000CF93DF9300D0CDB7DEB701E010E00E9410
:1010B0004107E0918F0DF091900D80818D3249F4C0
:1010C0003196F093900DE0938F0D119501951109D4
:1010D000EECF803331F43196F093900DE0938F0D85
:1010E000F2C09FEC980F9930E8F460E070E09AE06D
:1010F000A0918F0DB091900D9B01929FB001939F95
:10110000700D1124FD018191680F711D60537109EB
:10111000F093900DE0938F0D11968C9180538A304F
:1011200038F3DCC09FEB980F9A3108F0B4C091817E
:1011300091549A31A0F090E081549048880F991F03
:10114000A091B20DB091B30DA80FB91F9C9111964B
:101150008C913196F093900DE0938F0D6EC082EBE1
:1011600091E00E9451072091A40D253011F48EE0EA
:10117000A8C0E0918F0DF091900D8081883211F020
:1011800085E09FC03196F093900DE0938F0D2983F9
:101190000E94FA07BC01E0918F0DF091900D8081C3
:1011A0002981893209F08CC03196F093900DE0933B
:1011B0008F0D2230E9F028F4222341F0213091F004
:1011C0006AC02330F9F02430D9F165C060353CE0C5
:1011D000730714F083E175C0645C7E4FDB016C9192
:1011E00070E07CC077FF7AC071956195710976C017
:1011F00069837A830E94671669817A810E94FF154C
:10120000BC016CC06830710510F08CE05AC081E000
:1012100090E002C0880F991F6A95E2F721B130E093
:1012200028233923232B21F520B130E0282339232B
:1012300091E080E0232B09F490E0692F782F4EC0D5
:101240006830710510F760937C0081E090E002C087
:10125000880F991F6A95E2F742B132B1282F209585
:10126000232322B921B130E028233923232B11F085
:101270008DE027C080917A00806480937A0080910D
:101280007A0086FDFCCF42B96091780070917900B8
:101290007695679523C0E0918F0DF091900D808138
:1012A0008832D9F43196F093900DE0938F0D0E941F
:1012B000FA07E0918F0DF091900D2081293231F0E5
:1012C00086E08093C60D60E070E008C03196F09330
:1012D000900DE0938F0DBC0101C007C0069FC001B7
:1012E000079F900D169F900D11240F900F90DF9186
:1012F000CF911F910F910895E091A50DF091A60D4A
:10130000329690E080818A30B1F0891769F082329C
:1013100069F0873269F091110CC02FE9280F2A314A
:1013200040F48052808305C090E003C092E201C087
:1013300097E23196E7CF089590ED980F9A3090F0AC
:10134000982F9F7D91549A3168F08F3559F08B32E8
:1013500049F08E3239F021E090E08E3709F020E03C
:10136000822F089581E090E008950F931F93CF930B
:10137000DF931092C60DC0918F0DD091900D188102
:10138000812F0E949C09892B31F42196D093900DD6
:10139000C0938F0DF0CF1123F9F0CE0101969093F9
:1013A000900D80938F0D00918F0D1091900DF8018D
:1013B00080810E949C09892B39F00F5F1F4F109389
:1013C000900D00938F0DEFCF0C171D0711F0F80152
:1013D00010828881811103C081E08093C60DCE0107
:1013E000DF91CF911F910F910895009741F0E7E8A9
:1013F000F3E13197F1F700C000000197F6CF0895AF
:1014000020918B0D211105C08FE090E00E94F5091D
:10141000F7CF90919B0DE92FF0E0EC54F24F8081D3
:101420009F5F90939B0D215020938B0D903111F471
:1014300010929B0D90E00895009731F026E02A95D8
:10144000F1F700C00197F8CF0895CF93E898C4E66C
:1014500028988EEE92E00E941C0A289A84EF91E070
:101460000E941C0AC150A1F7E89ACF91089590916B
:101470008B0D903198F42091A70DE22FF0E0EC5401
:10148000F24F808381E0820F8093A70D9F5F90933E
:101490008B0D803129F41092A70D08950C94250A24
:1014A00008959091370190FD84C0873751F158F429
:1014B000843151F118F4823149F12AC08835F9F0AC
:1014C000893521F125C0803EA9F020F48A3A09F43B
:1014D0007DC01EC0803F81F08C3FD1F46091CD0D66
:1014E0007091CE0D83E796E00E9453060E94250A74
:1014F0000C94250A926068C09D7F916065C080E26F
:1015000001C088E0892742C094605EC090615CC0E1
:1015100092FF1AC0813221F481E08093AA0D0895D0
:10152000843329F49B7F9093370187E040C08B344C
:1015300011F48CE03CC08C3111F481E038C084326D
:1015400009F044C082E033C091FF23C08A3511F412
:101550008DE017C0853711F484E013C0823711F491
:1015600085E00FC08B3611F480E10BC0843711F495
:1015700081E107C08C3611F481E003C0893619F48B
:1015800082E00E94370A809137018D7F8093370176
:10159000089594FB222720F995FD2E5F94E0899F02
:1015A000F0011124E20FF11DED5AFB4F84910C94D0
:1015B000370A843131F0893531F0823121F09E7F54
:1015C00003C09A7F01C09E7E9093370108951F92B9
:1015D0000F920FB60F9211242F933F934F935F9367
:1015E0006F937F938F939F93AF93BF93EF93FF93EB
:1015F00099B12091AD0D80918E0D21111AC08B30C3
:1016000011F485E085BD80918E0D8350883050F4B3
:101610008091380186958093380193FF03C08068DC
:101620008093380183E08093690081E08093AD0D61
:1016300011C0815080938E0D811107C080913801B7
:101640000E94510A8BE080938E0D82E080936900A6
:101650001092AD0DFF91EF91BF91AF919F918F913E
:101660007F916F915F914F913F912F910F900FBE9E
:101670000F901F9018950F931F93CF938091A50DF6
:101680009091A60D02969093900D80938F0D90935C
:101690003B0180933A018091390183FD10C0C0EE77
:1016A00038C0E0918F0DF091900D808380918F0D67
:1016B0009091900D01969093900D80938F0D80E006
:1016C00091E00E9477169C0133272A30310559F0AA
:1016D0002D30310541F0232B21F780913901877F8F
:1016E0008093390122C1E0918F0DF091900D8AE035
:1016F00080831BC18091A50D9091A60D029620912B
:101700008F0D3091900D8217930708F48CC00E94C2
:10171000250A8091CB0D9091CC0D0E9477168C01FB
:101720009927FC013197E131F10508F0CFC0EB5862
:10173000FF4F0C9413168091A50D9091A60D029663
:1017400020918F0D3091900D8217930710F76091C3
:10175000CD0D7091CE0D81E090E00E94C716609192
:10176000CD0D7091CE0D80918F0D9091900D2091A7
:10177000A50D3091A60D821B930B82508295869504
:10178000877090E001960E94C7168091A50D9091F8
:10179000A60D029696C020918F0D3091900D8091EC
:1017A0003A0190913B012817390708F0B2CF6091B8
:1017B000CD0D7091CE0D82E090E00E94C716409151
:1017C000A50D5091A60D80913A0190913B01841B8B
:1017D000950B1EEF180F012F0295069507702091AB
:1017E0008F0D3091900D241B350B2250229526959C
:1017F00027706091CD0D7091CE0D802F821B90E0EF
:1018000001960E94C7166091CD0D7091CE0D812F6B
:101810000C9F800D112490E00E94C71680913A0120
:1018200090913B014EC06091CD0D7091CE0D80E145
:1018300090E040C080918F0D9091900D20913A01E1
:1018400030913B018217930708F061CF0196909386
:10185000900D80938F0D6091CD0D7091CE0D81E133
:1018600090E00E94C71655CFE0913A01F0913B01FC
:10187000F093900DE0938F0D8AE080838091CD0DE1
:101880009091CE0DCF911F910F910C9444068091B1
:10189000A50D9091A60D029620918F0D3091900D7F
:1018A0008217930708F033CF6091CD0D7091CE0D64
:1018B00088E090E00E94C71680918F0D9091900D66
:1018C00001979093900D80938F0D23CF2091B20DAF
:1018D0003091B30D2250310940918F0D5091900DF0
:1018E0004217530709F413CF6091CD0D7091CE0DBF
:1018F0000E94C716E0918F0DF091900D00838091AA
:101900008F0D9091900D01969093900D80938F0D77
:1019100020913A0130913B012817390708F0F9CEA0
:1019200090933B0180933A01F4CECF911F910F9198
:1019300008950E94410780E090E05AE0E0918F0D09
:10194000F091900D408120ED240F2A30A0F48939C8
:1019500029E1920788F4589F9001599F300D112476
:10196000842F90E0C097820F931F3196F093900DD3
:10197000E0938F0DE3CF08958FEF9FEF089580914F
:10198000AA0D811104C08091C600833021F4109209
:10199000AA0D81E0089580E00895FC0120812D3298
:1019A00019F4019641E001C040E0FC0180E090E0C4
:1019B0005AE0219130ED320F3A3060F4BC01569F6D
:1019C000C001579F900D112430E020533109820F40
:1019D000931FEFCF442319F09195819591090895B4
:1019E000CF93DF931F92CDB7DEB78CE391E0909356
:1019F000B10D8093B00D9093A60D8093A50D8BE84B
:101A00009DE09093AC0D8093AB0D89E59DE09093A4
:101A10009F0D80939E0D83E29DE09093B30D809384
:101A2000B20D6091CD0D7091CE0D87EE9BE00E94BE
:101A300072066091CD0D7091CE0D8FE294E00E9400
:101A400053066091CD0D7091CE0D80E098E00E941C
:101A500072066091CD0D7091CE0D84E294E00E94EB
:101A600053068091CD0D9091CE0D0E944406B4E0B6
:101A70009B2E22242394312C04E0602E77247A9428
:101A800081E9C82E8DE0D82E6091CD0D7091CE0DDC
:101A900083ED90E00E94C7166091CD0D7091CE0D40
:101AA00081ED90E00E94C7161092A30D1092A20D36
:101AB0008BE89DE09093AC0D8093AB0D6091CD0DC4
:101AC0007091CE0D89E094E00E945306AAE05A2E50
:101AD00080913901982F937021F08C7F8093390188
:101AE00025C18EE30E943B0B0E947C098091A50DCD
:101AF0009091A60D02969093900D80938F0DE0919A
:101B00008F0DF091900D80818A3031F03196F093F5
:101B1000900DE0938F0DF3CFE091B20DF091B30DE6
:101B20003197A0918F0DB091900D8C918083209171
:101B30008F0D3091900D8091A50D9091A60D02967C
:101B40002817390739F0215031093093900D20932F
:101B50008F0DE6CFF093900DE0938F0D0E94990CBE
:101B600090938D0D80938C0D0E94410720918C0DD8
:101B700030918D0D2115310509F4B6C02F3F6FEF5F
:101B8000360709F48DC21092CA0D80918F0D909185
:101B9000900D4091CA0DFC01E40FF11D50815A30A7
:101BA00021F04F5F4093CA0DF4CF4C5F4093CA0DB4
:101BB000FC013397F093900DE0938F0D31832083D8
:101BC000329640830E9427079093C50D8093C40DE1
:101BD0002091A50D3091A60D82179307F9F0FC0115
:101BE0006081718140918C0D50918D0D6417750746
:101BF000A9F44281E40FF11D2E1B3F0BAF01420FF0
:101C0000531FDC01E417F50719F061916D93FACFCA
:101C1000820F931F9093A60D8093A50DE0918F0DD9
:101C2000F091900D83818A3009F452CF2091CA0D32
:101C3000222309F44DCF4091A50D5091A60D80911E
:101C40008F0D9091900D30E0841B950B281739076C
:101C500008F4C901FA01E80FF91FF0939A0DE09317
:101C6000990D2091C40D3091C50DBA01621B730B03
:101C70009B01DA012115310529F04E914293215043
:101C80003109F8CF2817390731F1E091C40DF091EF
:101C9000C50DA0918F0DB091900D4C914083409156
:101CA0008F0D5091900D4F5F5F4F5093900D40936B
:101CB0008F0D4091C40D5091C50D4F5F5F4F5093F4
:101CC000C50D4093C40D4091CA0D41504093CA0DBB
:101CD0002F5F3F4FD7CF8091990D90919A0D9093A0
:101CE000A60D8093A50DA2CF1092AA0DE091A50D8F
:101CF000F091A60DCF0102969093900D80938F0DD9
:101D000082818A3009F052C0E3CEEA9A6091CD0D0B
:101D10007091CE0D82ED90E00E94C7166091CD0DBE
:101D20007091CE0D80ED90E00E94C7168091B00DAD
:101D30009091B10DA0C28B3309F0E4C581818A3046
:101D400009F0DCC53196F093900DE0938F0DE09192
:101D50008F0DF091900D80818A33A1F30E9441078D
:101D6000E0918F0DF091900D80818A3009F5E0911E
:101D7000A20DF091A30D309709F486CE8281E80F71
:101D8000F11DF093A30DE093A20D8091A20D90910F
:101D9000A30D2091A50D3091A60D8217930709F48C
:101DA00073CE03969093900D80938F0DF6E44F2E93
:101DB0000E94BF0C882349F06091CD0D7091CE0D2B
:101DC0008CE094E00E9453065FCE8DEC91E00E947F
:101DD00051071092C60D8091A40D90E08F329105AD
:101DE00030F6FC01EA57FF4F0C9413160E94FA07D5
:101DF00090939D0D80939C0D0E94F509B8CFE091C2
:101E00008F0DF091900D80818A3009F4D6C482E064
:101E10008093C60D83E00E94610480E00E947604F6
:101E20008091C60D90E0FC013197E431F10508F096
:101E30007FC0EB54FF4F6091CD0D7091CE0D0C948F
:101E4000131688EE93E072C08BED93E00E94F505C7
:101E50008091A20D9091A30D892B21F181E391E056
:101E60009F938F930E94F916E0918F0DF091900D42
:101E700010810F900F901A3011F08EE580838091C1
:101E8000A20D9091A30D9093A90D8093A80D809120
:101E9000CD0D9091CE0D0E94B906E0918F0DF0917D
:101EA000900D10838091CD0D9091CE0D0E9444062F
:101EB0003FC08CEC93E03AC087EB93E037C083E0FF
:101EC00094E002C08CEF93E00E9453066091CD0D28
:101ED0007091CE0D83EA93E029C081E993E026C09A
:101EE0008CE793E023C088E693E020C086E593E08A
:101EF0001DC085E493E01AC082E393E017C084E23A
:101F000093E014C083E193E011C083E093E00EC03E
:101F10008FEE92E00BC089ED92E008C082EC92E077
:101F200005C085EB92E002C08DE992E00E94530665
:101F30008CE40E94610480E00E947604A5CD0E949A
:101F4000250A15CF0E94FA0790939D0D80939C0D52
:101F50002091C60D21118AC5E0918F0DF091900D51
:101F600020812A3009F482C5892B09F021CFFFCEC8
:101F70000E94FA0790938D0D80938C0D8091C60D71
:101F8000811174C5E0918F0DF091900D80818A30A0
:101F900009F46FC16BC5E0918F0DF091900D8081B8
:101FA0008A3009F034CF8091A50D9091A60D63C1C0
:101FB0001092A10D1092A00D00E018E080E091E0D9
:101FC0000E94771690939D0D80939C0D009709F4C5
:101FD000CECE6091CD0D7091CE0D9C012052310975
:101FE0002F35310540F08A30910529F08D3091056B
:101FF00011F08FE390E00E94C716015011090115FE
:102000001105E1F620C01092A10D1092A00D00E084
:1020100010E060E071E080E090E00E94C716C80127
:102020008F7799278034910541F46091CD0D70919F
:10203000CE0D8EE290E00E94C7160F5F1F4F0F3F3C
:1020400077E0170731F78091CD0D9091CE0D0E946A
:1020500044068DCE809139018260809339011092BF
:10206000A10D1092A00D80E091E00E947716909350
:102070009D0D80939C0DC0970A9790F41092A10D2E
:102080001092A00D8091B00D9091B10D9093A60D7E
:102090008093A50D80913901886080933901F4CC3B
:1020A00089E0B6CE1092A10D1092A00D0E942707D4
:1020B0009093A90D8093A80D2091A80D3091A90DA2
:1020C0008091A50D9091A60D2817390729F080E081
:1020D00091E00E94B906F0CF60E071E080E090E00E
:1020E0000E94C71644CE0E944107E0918F0DF091E7
:1020F000900D80808FEB880D8A3110F087E088CEBC
:102100003196F093900DE0938F0D0E944107E0917E
:102110008F0DF091900D80818D3311F08AE078CE93
:102120003196F093900DE0938F0D0E94410710922D
:10213000C60D0E94FA077C018091C60D81116ACEFE
:1021400083EA91E00E9451078091A40D81115FCE36
:102150000E94FA078C018091C60D81115BCE8EE939
:1021600091E00E9451078091A40D811108C00E9446
:10217000FA075C018091C60D882321F04BCEAA247A
:10218000A394B12C0E94410780918F0D9091900DE6
:10219000FC0120812A3019F02A3309F038CE309121
:1021A000C60D311163C42A3009F060C4E091AB0D53
:1021B000F091AC0D9F01265F3F4F40919E0D5091D5
:1021C0009F0D2417350708F441C03A97F093AC0DE2
:1021D000E093AB0D282D30E021543048220F331FFF
:1021E000A091B20DB091B30DA20FB31FED92FC926E
:1021F0004082818213830283B582A4829187808783
:102200008091A20D9091A30D97838683A0CD0E940B
:10221000FA0790938D0D80938C0D8091C60D8111DE
:1022200025C4A0918F0DB091900D8C918A3009F04A
:102230001DC4E091AB0DF091AC0DCF01069620913D
:102240009E0D30919F0D8217930710F483E0E0CD2F
:102250003697F093AC0DE093AB0D87E490E091835B
:102260008083B583A4838091A20D9091A30D938365
:1022700082830E9427079093A30D8093A20D85CDA2
:102280000E944107E0918F0DF091900D8081815463
:102290008A3108F033CF3196F093900DE0938F0D93
:1022A0000E944107E0918F0DF091900D80818A335B
:1022B00019F08A3009F0ABCD2091AB0D3091AC0D07
:1022C0003093AF0D2093AE0D9091A40DA0918F0D82
:1022D000B091900D1197E091AE0DF091AF0D6DE0C2
:1022E000EA38F60708F059C080818634D1F0873487
:1022F00009F0CACB9C3099F4828193819093A30D0D
:102300008093A20D848195819093900D80938F0D81
:102310002A5F3F4F3093AC0D2093AB0D18CD36960E
:1023200037C09330A1F58C914181841330C090E087
:1023300081549048880F991FA091B20DB091B30DB0
:10234000A80FB91F8D919C91119724813581820F1F
:10235000931F8D939C9324813581232B91F02281AF
:1023600033812817390768F0808591859093900D07
:1023700080938F0D868197819093A30D8093A20DFA
:10238000E6CC3A96F093AC0DE093AB0DE0CC3A96E8
:10239000F093AF0DE093AE0D9ECF88E039CD0E9453
:1023A0004107E0918F0DF091900DE0808FEB8E0D45
:1023B0008A3108F0A3CE8090B20DA090B30D319673
:1023C000F093900DE0938F0D0E944107E0918F0DE7
:1023D000F091900D80818A3019F08A3309F017CD81
:1023E000D092C80DC092C70D1092910DEA9AF12CAF
:1023F0008091CB0D9091CC0D0E9477168C01B82E58
:102400008091AA0D813009F4A2CCC80199278A30A5
:10241000910549F124F48830910559F148C08D3077
:10242000910509F18D32910509F041C0F11061C0AB
:102430006091CD0D7091CE0D8DE290E00E94C71697
:10244000E091C70DF091C80D0083E091C70DF091A8
:10245000C80DCF0101969093C80D8093C70D1182CE
:10246000FF24F39446C0E091C70DF091C80D50824F
:1024700040C08091C70D9091C80D81599D4009F0D1
:1024800018F40E94250A35C06091CD0D7091CE0DD3
:1024900088E090E00E94C7168091C70D9091C80D0A
:1024A00001979093C80D8093C70DFA9422C020ED38
:1024B000200F2A30F0F4E5E0EF15C0F06091CD0D6B
:1024C0007091CE0D0E94C716E091C70DF091C80D16
:1024D0000083F394E091C70DF091C80DCF010196F0
:1024E0009093C80D8093C70D118206C00E94250AE3
:1024F00003C0FAE0BF1619F02DE0B21279CF809137
:10250000CD0D9091CE0D0E94440681E99DE00E9480
:10251000CD0CE82DFA2DEE0DF11DEE0DF11DE2585A
:10252000F1094EC0E0918F0DF091900D80819FEBED
:10253000980F9A3108F06BCC90E081549048880F46
:10254000991F0091B20D1091B30D080F191F31960C
:10255000F093900DE0938F0DE0918F0DF091900D21
:10256000808181548A3118F47092C60DF0CF0E9498
:102570004107E0918F0DF091900D80818D3311F026
:102580008FE046CC8091C60D8F3F11F481E140CCA5
:102590003196F093900DE0938F0D0E9441070E94B9
:1025A000FA072091C60D211135CCE0918F0DF091E5
:1025B000900D20812A3019F02A3309F028CCF80137
:1025C00091838083C4CB0E94FA078C018091C60D51
:1025D000811120CC0035FCE01F0714F083E118CCFA
:1025E0000E944107E0918F0DF091900D80818C3217
:1025F00009F00DCC3196F093900DE0938F0D0E9471
:1026000041070E94FA072091C60D211103CC8F3F8C
:10261000910519F010F082E1FBCBE0918F0DF09164
:10262000900D20812A3019F02A3309F0F0CBF801FF
:10263000E45CFE4F80838BCB0E94FA07182F282F73
:10264000392F8091C60D8111E5CB2F3F310511F057
:1026500008F006C1E0918F0DF091900D80818C32D1
:1026600009F0D5CB3196F093900DE0938F0D0E9439
:10267000FA07682F282F392F8091C60D8111CACBF8
:10268000203F310508F0ECC0E0918F0DF091900DE6
:1026900080818C3209F0BBCB3196F093900DE093A2
:1026A0008F0D69830E94FA079C019091C60D698184
:1026B0009111B0CB2038310508F09DC0482F812FF3
:1026C0000E94A90454CB0E94FA07182F282F392FF3
:1026D0008091C60D81119ECB2830310510F08CE021
:1026E00097CBE0918F0DF091900D80818C3209F0A5
:1026F0008ECB3196F093900DE0938F0D0E94FA07E8
:102700002091C60D211186CB9101012E01C0220F0F
:102710000A94EAF7009739F0019709F078CB81B174
:10272000822B81B924CB81B12095282321B91FCBDD
:102730000E94FA07182F282F392F8091C60D81117A
:1027400069CB2830310558F6E0918F0DF091900D4E
:1027500080818C3209F05BCB3196F093900DE09341
:102760008F0D0E94FA072091C60D211153CB9101C4
:10277000012E01C0220F0A94EAF7009739F0019761
:1027800009F045CB82B1822B82B9F1CA82B1209582
:10279000282322B9ECCA6091CD0D7091CE0D88EC42
:1027A00090E00E94C7160E94DF036091CD0D7091EA
:1027B000CE0D8AE394E00E9453068091B00D909173
:1027C000B10D9093A60D8093A50D82C96091CD0D9A
:1027D0007091CE0D89EC90E00E94C7160E94DF0335
:1027E000C6CA0E94FA079C019091C60D911112CBA6
:1027F0002038310510F084E10BCB0E946104B7CA88
:102800000E94FA079C019091C60D911103CB2038CC
:10281000310588F70E947604AACA0E94FA07182F89
:10282000282F392F8091C60D8111F4CA2831310526
:10283000B8F4E0918F0DF091900D80818C3209F009
:10284000E6CA3196F093900DE0938F0D0E94FA073F
:102850009C019091C60D9111DDCA2032310510F016
:1028600080E1D6CA682F812F0E948B0480CAE09134
:102870008F0DF091900D80818A3381F48091CD0D80
:102880009091CE0D0E94440680918F0D9091900DF5
:1028900001969093900D80938F0D59CA8A3009F458
:1028A00066CA0E9441070E940D06811119C0E0917D
:1028B0008F0DF091900D8081823209F4D7C087325C
:1028C00009F4D4C01092C60D0E94FA072091C60DDB
:1028D0002111A0CA6091CD0D7091CE0D0E9472069B
:1028E000E0918F0DF091900D80818C3209F023CA18
:1028F0003196F093900DE0938F0DD3CF8A3309F08A
:1029000086CA20CA8A3019F08A3309F080CA8091B9
:10291000CD0D9091CE0D0E94440619CA8FEC2BC0AC
:102920008EEC29C00E9441070E94FA072091C60D33
:10293000211170CA88379105A9F040F4CC9709F0AD
:1029400006CA8CEC0E94590480E015C086399105B6
:1029500071F0843B910509F0FAC98CEC0E9459048E
:1029600088E109C08CEC0E94590488E004C08CEC1A
:102970000E94590480E10E945904E9C90E9441075C
:102980001092C60DE0918F0DF091900D10811232D2
:1029900019F0173209F03BCA3196F093900DE0938D
:1029A0008F0DE0918F0DF091900D8081811709F4CA
:1029B000C9C9893521F180F4853459F130F4833463
:1029C00031F1F8F48134D9F030C08E34D1F088354B
:1029D000F1F08D3451F51DC08536D9F030F48336D1
:1029E000B1F078F4813659F020C08E3651F018F4E9
:1029F0008D3679F01AC0883751F08937B1F489ECF7
:102A000001C08AEC0E9459040E94AE0510C08BECF4
:102A1000F9CF8DEC0E9459040E94AE058091C60D3D
:102A2000811105C00E94C40502C06092C60D80914C
:102A3000C60D882321F088EC0E945904EBC98091CF
:102A40008F0D9091900D01969093900D80938F0D26
:102A5000A8CF0E94990C90938D0D80938C0DE091DE
:102A60008F0DF091900D80818A3019F09092C60DF3
:102A7000D1C90E9427079093A90D8093A80D20919A
:102A8000A80D3091A90D8091A50D9091A60D281744
:102A9000390711F40C94440D8091CD0D9091CE0D19
:102AA0000E94B906ECCF6091CD0D7091CE0D809152
:102AB000B20D9091B30D2091A50D3091A60D821B02
:102AC000930B0E9472066091CD0D7091CE0D8FE236
:102AD00094E00E9453066091CD0D7091CE0D80E080
:102AE00098E00E9472066091CD0D7091CE0D84E247
:102AF00094E00E9453062BC98091B20090E006C07A
:102B00000E94FA072091C60D211184C90E946C16FB
:102B10001EC98CE191E09093CC0D8093CB0D9093E6
:102B2000CE0D8093CD0D10927C0087E880937A00C3
:102B300080917A00806480937A0080917A0086FD8B
:102B4000FCCF11B88FEF82B9209A289A22982A9A3E
:102B5000EA9A539852985B9A5A9A82E084BD15BCBF
:102B600094E697BD80936E001092AA0D9BE090931F
:102B70008E0D809369001092AD0DE89A78948FEFD6
:102B800087B95698579A5498559A1092C50085E17E
:102B90008093C40086E08093C20088E18093C100E6
:102BA0000E94DF030E94250A8CE40E94610480E0F9
:102BB0000E9476046091CD0D7091CE0D8AE394E071
:102BC0000E9453061092B00087E08093B1001092EB
:102BD00070000E94F00CAA1BBB1B51E107C0AA1F8A
:102BE000BB1FA617B70710F0A61BB70B881F991FAE
:102BF0005A95A9F780959095BC01CD01089597FB52
:102C0000072E16F4009407D077FD09D00E94EB152B
:102C100007FC05D03EF4909581959F4F08957095DF
:102C200061957F4F0895EE0FFF1F0590F491E02D01
:102C300009948F929F92AF92BF92CF92DF92EF92C0
:102C4000FF92CF93DF93EC01688179818A819B8128
:102C5000611571058105910521F464E279ED8BE53B
:102C600097E02DE133EF41E050E00E946D194901FA
:102C70005A019B01AC01A7EAB1E40E948C196B01D7
:102C80007C01ACEEB4EFA50194010E949A19C60E26
:102C9000D71EE81EF91EF7FE06C081E0C81AD1084B
:102CA000E10880E8F80AC882D982EA82FB82C6017C
:102CB0009F77DF91CF91FF90EF90DF90CF90BF9003
:102CC000AF909F908F9008950E94191608958AE200
:102CD00091E00E9419160895A0E0B0E080932A01C7
:102CE00090932B01A0932C01B0932D010895CF93C5
:102CF000DF93EC012B8120FF33C026FF0AC02F7B1E
:102D00002B838E819F8101969F838E838A8190E0A1
:102D100029C022FF0FC0E881F9818081992787FDB2
:102D20009095009719F420622B831AC03196F9838D
:102D3000E8830EC0EA85FB85099597FF09C02B81C2
:102D4000019611F480E101C080E2822B8B8308C0E0
:102D50002E813F812F5F3F4F3F832E83992702C0F3
:102D60008FEF9FEFDF91CF910895A0E0B0E0EBEB04
:102D7000F6E10C94AF19AE01475F5F4F6F81788524
:102D80008D819E810E940D17E2E00C94CB190F9368
:102D90001F93CF93DF93182F092FEB018B8181FDB8
:102DA00003C08FEF9FEF20C082FF10C04E815F8174
:102DB0002C813D81421753077CF4E881F9819F0102
:102DC0002F5F3F4F39832883108306C0E885F9853C
:102DD000812F0995892B29F72E813F812F5F3F4F46
:102DE0003F832E83812F902FDF91CF911F910F91E1
:102DF0000895A0E0B0E0EFEFF6E10C94AF19FE010A
:102E0000359661917191AF018091CD0D9091CE0D6C
:102E10000E940D17E2E00C94CB19ACE0B0E0E3E1C6
:102E2000F7E10C949F197C016B018A01FC01178268
:102E30001682838181FFBDC1CE0101964C01F7014D
:102E40009381F60193FD859193FF81916F01882312
:102E500009F4ABC1853239F493FD859193FF8191DB
:102E60006F01853229F4B70190E00E94C716E7CFC1
:102E7000512C312C20E02032A0F48B3269F030F458
:102E8000803259F0833269F420612CC08D3239F0E0
:102E9000803339F4216026C02260246023C028607A
:102EA00021C027FD27C030ED380F3A3078F426FFD7
:102EB00006C0FAE05F9E300D1124532E13C08AE045
:102EC000389E300D1124332E20620CC08E3221F436
:102ED00026FD6BC1206406C08C3611F4206802C048
:102EE000883641F4F60193FD859193FF81916F013E
:102EF0008111C1CF982F9F7D9554933028F40C5F9A
:102F00001F4FFFE3F9830DC0833631F0833771F033
:102F1000833509F05BC022C0F801808189830E5F90
:102F20001F4F44244394512C540115C03801F2E042
:102F30006F0E711CF801A080B18026FF03C0652DC3
:102F400070E002C06FEF7FEFC5012C870E9404196B
:102F50002C0183012C852F77222E17C03801F2E037
:102F60006F0E711CF801A080B18026FF03C0652D93
:102F700070E002C06FEF7FEFC5012C870E94F91847
:102F80002C012C852068222E830123FC1BC0832D5D
:102F900090E048165906B0F4B70180E290E00E9434
:102FA000C7163A94F4CFF50127FC859127FE81914D
:102FB0005F01B70190E00E94C71631103A94F1E02A
:102FC0004F1A51084114510471F7E5C0843611F0CD
:102FD000893639F5F80127FF07C060817181828148
:102FE00093810C5F1F4F08C060817181882777FD36
:102FF0008095982F0E5F1F4F2F76B22E97FF09C036
:1030000090958095709561957F4F8F4F9F4F206869
:10301000B22E2AE030E0A4010E940F19A82EA818B1
:1030200044C0853729F42F7EB22E2AE030E025C037
:10303000F22FF97FBF2E8F36C1F018F4883579F062
:10304000B4C0803719F0883721F0AFC02F2F20612E
:10305000B22EB4FE0DC08B2D8460B82E09C024FFA3
:103060000AC09F2F9660B92E06C028E030E005C048
:1030700020E130E002C020E132E0F801B7FE07C0F5
:1030800060817181828193810C5F1F4F06C06081D6
:10309000718180E090E00E5F1F4FA4010E940F1924
:1030A000A82EA818FB2DFF77BF2EB6FE0BC02B2D28
:1030B0002E7FA51450F4B4FE0AC0B2FC08C02B2D1C
:1030C0002E7E05C07A2C2B2D03C07A2C01C0752CC6
:1030D00024FF0DC0FE01EA0DF11D8081803311F443
:1030E000297E09C022FF06C07394739404C0822F06
:1030F000867809F0739423FD13C020FF06C05A2C74
:10310000731418F4530C5718732C731468F4B70124
:1031100080E290E02C870E94C71673942C85F5CF2F
:10312000731410F4371801C0312C24FF12C0B701FA
:1031300080E390E02C870E94C7162C8522FF17C0E1
:1031400021FF03C088E590E002C088E790E0B70166
:103150000CC0822F867859F021FD02C080E201C0A8
:103160008BE227FD8DE2B70190E00E94C716A514FF
:1031700038F4B70180E390E00E94C7165A94F7CF65
:10318000AA94F401EA0DF11D8081B70190E00E943C
:10319000C716A110F5CF332009F451CEB70180E254
:1031A00090E00E94C7163A94F6CFF7018681978186
:1031B00002C08FEF9FEF2C96E2E10C94BB19F999B6
:1031C000FECF92BD81BDF89A992780B50895262F2C
:1031D000F999FECF92BD81BDF89A019700B402160D
:1031E00039F01FBA20BD0FB6F894FA9AF99A0FBEBB
:1031F0000895FC010590615070400110D8F780954A
:1032000090958E0F9F1F0895FC01615070400190B2
:103210000110D8F7809590958E0F9F1F0895FA01A1
:10322000AA27283051F1203181F1E8946F936E7F05
:103230006E5F7F4F8F4F9F4FAF4FB1E03ED0B4E0F6
:103240003CD0670F781F891F9A1FA11D680F791F37
:103250008A1F911DA11D6A0F711D811D911DA11D48
:1032600020D009F468943F912AE0269F1124301958
:10327000305D3193DEF6CF010895462F4770405DF3
:103280004193B3E00FD0C9F7F6CF462F4F70405DA2
:103290004A3318F0495D31FD4052419302D0A9F7FD
:1032A000EACFB4E0A6959795879577956795BA95F7
:1032B000C9F700976105710508959B01AC010A2EBD
:1032C00006945795479537952795BA95C9F7620F94
:1032D000731F841F951FA01D0895052E97FB1EF4D4
:1032E00000940E94841957FD07D00E94D61907FC4C
:1032F00003D04EF40C948419509540953095219547
:103300003F4F4F4F5F4F0895909580957095619511
:103310007F4F8F4F9F4F08950E94F819A59F900DE2
:10332000B49F900DA49F800D911D11240895B7FFA7
:103330000C948C190E948C19821B930B08952F9268
:103340003F924F925F926F927F928F929F92AF9235
:10335000BF92CF92DF92EF92FF920F931F93CF9382
:10336000DF93CDB7DEB7CA1BDB0B0FB6F894DEBF19
:103370000FBECDBF09942A88398848885F846E843F
:103380007D848C849B84AA84B984C884DF80EE8089
:10339000FD800C811B81AA81B981CE0FD11D0FB692
:1033A000F894DEBF0FBECDBFED010895A1E21A2E45
:1033B000AA1BBB1BFD010DC0AA1FBB1FEE1FFF1FD9
:1033C000A217B307E407F50720F0A21BB30BE40B29
:1033D000F50B661F771F881F991F1A9469F7609570
:1033E0007095809590959B01AC01BD01CF0108952A
:1033F000A29FB001B39FC001A39F700D811D112436
:10340000911DB29F700D811D1124911D0895F89496
:02341000FFCFEC
:1034120000000003000000007D038E030000000096
:1034220000030000000066037503000000000003B3
:10343200000000009D03000A000001000000256456
:0634420000202D2D2000EA
:0400000500800DC4A6
:00000001FF
