:100000000C9447030C9418070C9464030C94F806A2
:100010000C9464030C9464030C9464030C946403C4
:100020000C9464030C9464030C9464030C946403B4
:100030000C9464030C9464030C9464030C946403A4
:100040000C9408070C9464030C9464030C946403EC
:100050000C9464030C9464030C9464030C94640384
:100060000C9464030C9464030C9464030C94640374
:100070000C9464030C9464030C9464036C0B550B94
:10008000120B100B230B350B450B680B680B680B21
:10009000680B680B680B680B680B660B680B680BCA
:1000A000680B680B680B680B680B680B680B680BB8
:1000B000680B680B680B680B680B680B6C0B550BB7
:1000C000120B100B230B350B450B680B680B680BE1
:1000D000680B680B680B680B680B660BDC0BE40B9A
:1000E000EC0BF40BFC0B040CE40B2010CD0FA9104F
:1000F0000E100E10A910B6109610A9108510A91098
:100100000E108510A910A91050106F1092157215BD
:100110007A159E15E5157D158015831586158915AB
:100120008C15A815AB15AF15B215D315DC157715C1
:10013000B515B8157515D615D915BB15BE158F157E
:100140008F15951598159B15D615771577156D157F
:10015000C115C415C715CD15D015EA15EA15EA1550
:10016000EA15EA15DF15E215E51557165A168E162B
:10017000911694169716A216A516A816AB16AE16CB
:10018000B116B416B716BA16BD16C016C316C616E3
:10019000C916000000000000000000000000000080
:1001A00000000000000000000000607E607E000093
:1001B000000000000000000000000000000000003F
:1001C00000000000000009090909607E607E00004F
:1001D000000000000000000000000000000000001F
:1001E00000000000000071515171312131210000E7
:1001F000000000000000000000007A5A5A7A735391
:100200005373614141617757577732403240000064
:10021000000000000000634343637858587864444A
:100220004464654545653424342433233323000076
:1002300000000000000020202020765656766646FA
:100240004666745454747252527235253525000036
:100250000000000000006E4E4E6E6242426268482E
:1002600048686747476779595979365E365E0000B6
:100270000000000000002C3C2C3C6D4D4D6D6A4A86
:100280004A6A7555557537263726382A382A0000A8
:100290000000000000002C3C2C3C6B4B4B6B694970
:1002A00049696F4F4F6F30293029392839280000AC
:1002B0000000000000002E3E2E3E2F3F2F3F6C4CD2
:1002C0004C6C3B3A3B3A705050702D5F2D5F0000F4
:1002D000000000000000000000002722272200008C
:1002E00000005B7B5B7B3D2B3D2B00000000000092
:1002F000000000000000000000000D0D0D0D5D7DF0
:100300005D7D000000005C7C5C7C00000000000063
:100310000000000000003C3C3C3C000000000000ED
:1003200000000000000000000000080808080000AD
:100330000000000000003131313100000000343491
:100340003434373737370000000000000000000069
:100350000000303030302E2E2E2E323232323535F3
:10036000353536363636383838381B1B1B1B0000FF
:100370000000000000002B2B2B2B333333332D2DAB
:100380002D2D2A2A2A2A3939393900000000000087
:1003900000004B6579626F61726420636F6E6E65F9
:1003A00063746564207375636365737366756C6CE1
:1003B00079004B6579626F6172642073656C662D9C
:1003C00074657374206661696C656400484947C848
:1003D00048C94C4FD74CCF00535445D00054CF00A0
:1003E0003EBD3CBEBEBD3CBDBC21BD00504545CB65
:1003F0004142D3524EC450494E44524541C45049E3
:100400004E41524541C4004C4953D44E45D75255F4
:10041000CE4E4558D44C45D449C6474F54CF4D5085
:100420004C41D94D53544FD054454D50CF4D555359
:1004300049C3474F5355C25245545552CE52414E6F
:10044000444F4D495AC5524E44534545C45253D466
:10045000434CD35245CD464FD2494E5055D44245D8
:1004600045D05052494ED44C4F434154C5504F4B48
:10047000C5505345D453544FD0454EC44D45CD502F
:1004800045CE50415045D2BFA3A744454C41D94524
:100490004C4953D445464F524D41D44543484149B8
:1004A000CE45534156C5454C4F41C446494C45D3B2
:1004B00043464F524D41D44343484149CE435341B3
:1004C00056C5434C4F41C450494E4449D250494E01
:1004D0004457524954C5004578706563746564207B
:1004E000636F6C6F72205B302E2E3132375D004FA0
:1004F0007574206F662072616E676500457870655F
:10050000637465642062797465205B302E2E323509
:10051000355D00496E76616C69642076617269614F
:10052000626C65206E616D6500496E76616C696410
:1005300020636F6F7264696E6174657300556E6BD2
:100540006E6F776E20636F6D6D616E6400556E6BBC
:100550006E6F776E2066756E6374696F6E0050699A
:100560006E20492F4F206572726F7200496E76615E
:100570006C69642070696E205B302E2E375D0044FC
:1005800069766973696F6E206279207A65726F008F
:100590004F70657261746F72206578706563746501
:1005A0006400496E76616C6964206C696E65206ECA
:1005B000756D626572004A756D7020706F696E743A
:1005C000206E6F7420666F756E640056617269618B
:1005D000626C652065787065637465640070617233
:1005E000656E746865736973206D697373696E678E
:1005F00000556E6578706563746564206368617228
:10060000616374657200537461636B206F76657209
:10061000666C6F770053796E746178206572726FC3
:1006200072004E6F742079657420696D706C656D11
:10063000656E74656400526967687420004C656675
:100640007420004F4B00427265616B21002062797B
:1006500074657320617661696C61626C650020620B
:100660007974657320524F4D002062797465732050
:1006700052414D0057656C636F6D6520746F206E3D
:10068000737442415349432076302E3200001124C6
:100690001FBECFEFD0E1DEBFCDBF11E0A0E0B1E0E3
:1006A000E4E2F6E302C005900D92A633B107D9F754
:1006B0002DE0A6E3B1E001C01D92A73CB207E1F72F
:1006C0000E94D4160C94101B0C9400000E94C30BC3
:1006D00090939E0D80939D0D8091BF0D811107C059
:1006E000E0919F0DF091A00D80818A3021F084E08F
:1006F0008093BF0D08950E94C70E9093B10D809313
:10070000B00D81E008950E94C30B2091BF0D21110F
:1007100007C0E0919F0DF091A00D20812A3021F4B7
:1007200084E08093BF0D0895892B11F086E0089531
:1007300082E00895BF92CF92DF92EF92FF920F93E3
:100740001F93CF93DF930E94E10EE0919F0DF091F4
:10075000A00DD0808FEB8D0D8A3110F087E00FC097
:100760003196F093A00DE0939F0D0E94E10EE09171
:100770009F0DF091A00D80818D3329F08AE0809348
:10078000BF0D84E079C03196F093A00DE0939F0DEA
:100790000E94E10E1092BF0D0E94C30B7C0180915C
:1007A000BF0D8111EECF8DED93E00E94830A811180
:1007B00024C00E94C30B8C018091BF0D8111E1CF39
:1007C00088ED93E00E94830A811109C00E94C30B47
:1007D0002091BF0D2111D5CFB82EC92E03C0BB2447
:1007E000B394C12C0E94E10EC0919F0DD091A00D39
:1007F00028812A3021F02A3311F082E0C0CF809185
:10080000BF0D811136C02A30A1F5E091B70DF091EE
:10081000B80D9F01265F3F4F4091AC0D5091AD0D3B
:100820002417350710F483E0AACF3A97F093B80D58
:10083000E093B70D2D2D30E021543048220F331FA7
:10084000A091BB0DB091BC0DA20FB31FED92FC9215
:1008500086E48083D18213830283B482C582D187E8
:10086000C0878091B00D9091B10D9783868383E00E
:1008700003C084E08093BF0DDF91CF911F910F9152
:10088000FF90EF90DF90CF90BF9008951092BF0D32
:100890000E94C30B90939E0D80939D0D8091BF0D80
:1008A000811132C0A0919F0DB091A00D8C918A3022
:1008B00059F5E091B70DF091B80DCF010696209152
:1008C000AC0D3091AD0D8217930728F483E080932F
:1008D000BF0D84E008953697F093B80DE093B70DFF
:1008E00087E490E091838083B583A4838091B00DE9
:1008F0009091B10D938382830E94C70E9093B10DA6
:100900008093B00D81E0089584E08093BF0D089539
:100910000E94E10EE0919F0DF091A00D8081815425
:100920008A3110F087E011C03196F093A00DE0936A
:100930009F0D0E94E10EE0919F0DF091A00D80812E
:100940008A3339F08A3029F082E08093BF0D84E049
:10095000089580E008952091B70D3091B80DA091D1
:100960009F0DB091A00DF90111979DE0EC39F907A9
:1009700008F057C090819634D1F0973409F054C0F4
:100980008C3099F4828193819093B10D8093B00D56
:10099000848195819093A00D80939F0D2A5F3F4F96
:1009A0003093B80D2093B70D38C03696DECF833024
:1009B000B1F59C914181941332C0892F90E081540C
:1009C0009048880F991FA091BB0DB091BC0DA80F46
:1009D000B91F8D919C91119724813581820F931FAE
:1009E0008D939C9324813581232B91F02281338137
:1009F0002817390768F0808591859093A00D809322
:100A00009F0D868197819093B10D8093B00D05C0A5
:100A10003A96F093B80DE093B70D83E008953A96B7
:100A2000A4CF88E08093BF0D84E00895CF93DF9337
:100A3000C3ECDDE06881798188EC90E00E94D017FA
:100A40000E9401086881798184E796E00E942C0E5B
:100A50008091B90D9091BA0D9093B30D8093B20D22
:100A600085E0DF91CF9108956091C30D7091C40D21
:100A700089EC90E00E94D0170E94010883E008955D
:100A80000E94C30B2091BF0D21110BC0803891052E
:100A900020F084E18093BF0D04C00E94B60882E07C
:100AA000089584E008950E94C30B2091BF0D211189
:100AB0000BC08038910520F084E18093BF0D04C005
:100AC0000E94CB0882E0089584E00895CF93DF93DD
:100AD0000E94C30BEC018091BF0D81111DC0C83174
:100AE000D105B8F4E0919F0DF091A00D80818C327A
:100AF00011F082E00FC03196F093A00DE0939F0DAE
:100B00000E94C30B2091BF0D211106C080329105B8
:100B100028F080E18093BF0D84E005C0682F8C2F02
:100B20000E94E00882E0DF91CF910895E0919F0D4F
:100B3000F091A00D80818A3381F48091C30D909152
:100B4000C40D0E941D0E80919F0D9091A00D0196E5
:100B50009093A00D80939F0D48C08A3009F44BC03C
:100B60000E94E10E0E94E60D81111BC0E0919F0DD5
:100B7000F091A00D8081823211F0873221F484E05F
:100B80008093BF0D08951092BF0D0E94C30B20915A
:100B9000BF0D211132C06091C30D7091C40D0E9430
:100BA0004B0EE0919F0DF091A00D80818C3231F4BD
:100BB0003196F093A00DE0939F0DD2CF8B3359F473
:100BC00081818A3011F08A3391F43196F093A00D2F
:100BD000E0939F0D0AC08A3011F08A3341F480916E
:100BE000C30D9091C40D0E941D0E83E0089582E014
:100BF0008093BF0D02C082E0089584E008950F93B2
:100C00001F93CF93DF930E94C30BEC018091BF0D24
:100C1000811136C0CF3FD10509F0B0F4E0919F0DAE
:100C2000F091A00D80818C32C1F43196F093A00D2B
:100C3000E0939F0D0E94C30B8C018091BF0D811129
:100C40001FC0003F110510F080E118C0E0919F0D1A
:100C5000F091A00D80818C3211F082E00FC03196AE
:100C6000F093A00DE0939F0D0E94C30B2091BF0D48
:100C7000211106C08038910528F084E18093BF0DD2
:100C800084E006C0482F602F8C2F0E94FE0882E06F
:100C9000DF91CF911F910F910895CF93C82F8A3084
:100CA00019F48DE00E944D068091C00085FFFCCFB5
:100CB000C093C60080E090E0CF9108958091C0007D
:100CC00087FFFCCF8091C60090E0089590914A0183
:100CD000903198F420913701E22FF0E0E65CFE4F6E
:100CE000808381E0820F809337019F5F90934A0158
:100CF000803129F41092370108950C947E0F0895E5
:100D000020914A01211105C08FE090E00E946A0FF6
:100D1000F7CF90913601E92FF0E0E65CFE4F80813D
:100D20009F5F90933601215020934A01903111F436
:100D30001092360190E00895682F8091AE0D909149
:100D4000AF0D9C012F5F3F4F3093AF0D2093AE0D41
:100D50000E94F01980E090E008958091AE0D90918E
:100D6000AF0D9C012F5F3F4F3093AF0D2093AE0D21
:100D70000E94E81990E0089588B94E99FECF5F9AD5
:100D80004E9BFECF5F986EE071E0883079F488E08A
:100D900090E00E94D0176EE071E080E290E00E9447
:100DA000D0176EE071E088E090E003C0992787FDDE
:100DB00090950E94D01780E090E0089522982A9A9A
:100DC000EA9A539852985B9A5A9A82E084BD15BC6D
:100DD00094E697BD80936E001092B60D9BE09093C1
:100DE0004B018093690010924C01E89A7894089521
:100DF0001F920F920FB60F9211248F9381E0809370
:100E0000B60DEA988F910F900FBE0F901F90189516
:100E10001F920F920FB60F9211248F938BE0809345
:100E20004B0115BC8F910F900FBE0F901F9018951E
:100E30001F920F920FB60F9211242F933F934F934F
:100E40005F936F937F938F939F93AF93BF93EF9332
:100E5000FF9399B120914C0180914B0121111AC04F
:100E60008B3011F485E085BD80914B018350883033
:100E700050F48091390186958093390193FF03C026
:100E800080688093390183E08093690081E08093DA
:100E90004C01A6C0815080934B0181119CC0E09110
:100EA00039018091380180FD86C0E73759F158F447
:100EB000E43169F118F4E23161F12DC0E83501F156
:100EC000E93539F128C0E03EB1F020F4EA3A09F4FE
:100ED0007FC021C0E03F89F0EC3FE9F46091C30D91
:100EE0007091C40D82EB93E00E942C0E0E947E0F45
:100EF0000E947E0F6DC0826069C08D7F816066C078
:100F000090E201C098E098279093380161C0846016
:100F10005DC080615BC082FF1AC0E13221F481E0D4
:100F20008093B60D55C0E43329F48B7F809338014C
:100F300087E03EC0EB3411F48CE03AC0EC3111F4A0
:100F400081E036C0E43209F043C082E031C081FF65
:100F500021C0EA3511F48DE017C0E53711F484E0C3
:100F600013C0E23711F485E00FC0EB3611F480E1D5
:100F70000BC0E43711F481E107C0EC3611F481E0D5
:100F800003C0E93619F482E00E94660680913801B8
:100F90008D7F1CC084FB992790F985FD9E5F84E0BE
:100FA000E89FF0011124E90FF11DEE56FE4F8491E8
:100FB0000E9466060DC0E43131F0E93531F0E231CE
:100FC00021F08E7F03C08A7F01C08E7E809338011E
:100FD0008BE080934B0182E08093690010924C017A
:100FE000FF91EF91BF91AF919F918F917F916F9101
:100FF0005F914F913F912F910F900FBE0F901F90D7
:1010000018956EE071E08BE190E00E94D0176EE0E1
:1010100071E08BE590E00E94D0176EE071E080E314
:1010200090E00E94D0176EE071E08DE690E00E94A3
:10103000D0176EE071E08BE190E00E94D0176EE077
:1010400071E08BE590E00E94D0176EE071E088E4DB
:1010500090E00E94D0176EE071E08BE190E00E947A
:10106000D0176EE071E08BE590E00E94D0176EE043
:1010700071E08AE490E00C94D017CF938CE191E07A
:101080009093C20D8093C10D9093C40D8093C30DB6
:1010900010927C0087E880937A0080917A008064C7
:1010A00080937A0080917A0086FDFCCF11B8CFEF53
:1010B000C2B9209A289A0E94DE06C7B95698579A54
:1010C0005498559A1092C50085E18093C40086E03B
:1010D0008093C20088E18093C100CF910C940108F5
:1010E000FF920F931F93CF93DF93C82FF62E6EE0DE
:1010F00071E08BE190E00E94D0176EE071E08BE52B
:1011000090E00E94D0171F92CF930EE211E01F9340
:101110000F93CEE0D1E0DF93CF930E94BE17BE01C4
:101120008BE390E00E94D0171F92FF921F930F93C2
:10113000DF93CF930E94BE178DB79EB70C960FB664
:10114000F8949EBF0FBE8DBFBE0188E490E0DF9192
:10115000CF911F910F91FF900C94D01788B94C99A3
:10116000FECF5D9A4C9BFECF5D9808951F93CF9361
:10117000DF93182FC3ECDDE0688179818EEC90E07D
:101180000E94D01768817981812F90E0DF91CF9103
:101190001F910C94D0171F93CF93DF93182FC3EC9C
:1011A000DDE0688179818FEC90E00E94D017688142
:1011B0007981812F90E0DF91CF911F910C94D0170E
:1011C0000F931F93CF93DF93082F162FC3ECDDE00F
:1011D000688179818DEC90E00E94D01768817981D7
:1011E000802F90E00E94D01768817981812F90E054
:1011F000DF91CF911F910F910C94D017EF92FF9236
:101200000F931F93CF93DF931F92CDB7DEB7082FB5
:10121000162F83ECE82E8DE0F82EF70160817181A6
:101220008AEC90E049830E94D017F70160817181B8
:10123000802F90E00E94D017F70160817181812F8B
:1012400090E00E94D017F701608171814981842F5D
:1012500090E00F90DF91CF911F910F91FF90EF9051
:101260000C94D0178FEC0E94AE0883E008958EECAA
:101270000E94AE0883E008950E94E10E0E94C30B15
:101280002091BF0D211122C08837910599F038F4C3
:10129000CC97F1F48CEC0E94AE0880E014C0863943
:1012A000910569F0843B910599F48CEC0E94AE089D
:1012B00088E109C08CEC0E94AE0888E004C08CEC88
:1012C0000E94AE0880E10E94AE0802C084E008954A
:1012D00083E00895CF93DF930E94E10E1092BF0D3B
:1012E000E0919F0DF091A00DC081C23231F0C73264
:1012F00021F082E08093BF0D26C03196F093A00DBF
:10130000E0939F0DD4E009C080919F0D9091A00DB6
:1013100001969093A00D80939F0DE0919F0DF09109
:10132000A00D80818C1709F449C0893571F489ECCE
:101330000E94AE080E94C30A8091BF0D882321F34A
:1013400088EC0E94AE0884E03FC08A3580F4853482
:1013500031F130F4833409F1F0F4813441F32BC0DE
:101360008E34C9F08835C9F08D3429F518C085361A
:10137000B1F030F4833689F070F48136C1F21BC0CD
:101380008E3649F018F48D3651F015C0883729F0A3
:10139000893769F210C08AECCBCF8BECC9CF8DECCA
:1013A0000E94AE080E94C30A8091BF0D8111C4CF74
:1013B0000E94D90AC1CFD093BF0DBECF3196F09312
:1013C000A00DE0939F0D83E0DF91CF910895CF931F
:1013D000DF931092AF0D1092AE0DC0E0D8E080E028
:1013E00091E00E9480178823D9F06091C30D70911D
:1013F000C40D20EE280F2F3538F08A3029F08D30BB
:1014000019F08FE390E001C090E00E94D01721977F
:10141000209729F78091C30D9091C40D0E941D0E55
:1014200082E0DF91CF910895CF93DF931092AF0DBB
:101430001092AE0DC0E0D0E060E071E080E090E09E
:101440000E94D017CE018F7799278034910541F4FF
:101450006091C30D7091C40D8EE290E00E94D01790
:101460002196CF3F87E0D80739F78091C30D90913F
:10147000C40D0E941D0E82E0DF91CF91089510925D
:10148000AF0D1092AE0D80E091E00E948017805366
:101490008A3090F41092AF0D1092AE0D8091B90D7C
:1014A0009091BA0D9093B30D8093B20D80914D0140
:1014B000886080934D0103C089E08093BF0D84E074
:1014C00008951092AF0D1092AE0D0E94C70E90932A
:1014D000B50D8093B40D2091B40D3091B50D809170
:1014E000B20D9091B30D2817390729F080E091E0F3
:1014F0000E94920EF0CF60E071E080E090E00E94E8
:10150000D01782E008951F93CF93DF93EC0120E082
:1015100030E010E0FE018491882381F140919F0D1D
:101520005091A00DFA01E20FF31F8081FE0194910A
:10153000891304C02F5F3F4F2196ECCFFE016491C9
:10154000E82FF0E0E058FF4F70E0E617F70759F496
:101550002F5F3F4F240F351F3093A00D20939F0D19
:101560000E94E10E0BC0FE018491219687FFFBCF04
:101570001F5F0E94E10E20E030E0CCCF812FDF9191
:10158000CF911F910895E0919F0DF091A00DCF0193
:1015900001969093A00D80939F0D81819FEC980FF1
:1015A000943018F480530C94AE0884E08093BF0DFF
:1015B00008951F93CF93DF93C4E0DCE040919F0D2B
:1015C0005091A00DCA0101969093A00D80939F0D9C
:1015D000FA0161818EEC860F8630A8F460539A017F
:1015E0002E5F3F4F3093A00D20939F0D828190E09E
:1015F000815491098033910508F06AC0825C9F4F45
:10160000FC010C940817623211F0673229F45093F0
:10161000A00D40939F0DB3C084E08093BF0DAFC079
:1016200093E065C0CA0103969093A00D80939F0D2F
:10163000FA018381833209F451C03093A00D2093C5
:101640009F0D91E054C0CA0103969093A00D809322
:101650009F0DFA0183818F7D823409F441C030935C
:10166000A00D20939F0D95E042C0CA010396909370
:10167000A00D80939F0DFA018381833299F13093FD
:10168000A00D20939F0D96E032C0CA01039690935F
:10169000A00D80939F0DFA018381833229F130934D
:1016A000A00D20939F0D98E022C0CA01039690934D
:1016B000A00D80939F0DFA0183818F7D8234B1F05C
:1016C0003093A00D20939F0D9CE011C09DE00FC0B2
:1016D000C093BF0D90E00BC09AE009C092E007C034
:1016E00094E005C097E003C099E001C09BE0E09161
:1016F0009F0DF091A00D9F012F5F3F4F3093A00DE4
:1017000020939F0D81814FEC480F483010F4805397
:1017100003C0C093BF0D80E0AF014E5F5F4F509399
:10172000A00D40939F0D42814D3271F04D3321F059
:101730004B3221F421E009C023E007C03093A00D13
:1017400020939F0D20E001C022E0382F392B322B4F
:10175000B1F09D3041F06250192F6D9F100D112492
:101760001150110F01C010E98150F0E42F9F800D3E
:1017700011240E94AE08812F0E94AE081FCFDF9176
:10178000CF911F910895CF93DF930E94800DEC01BC
:101790008091BF0D811143C080EE93E00E94830AC7
:1017A0008730E9F1482F50E047305105D0F5FA0174
:1017B000E259FF4F0C9408170E94800D31E020E0A1
:1017C000C817D9074CF527C00E94800D31E020E0F2
:1017D000C817D90709F51FC00E94800D31E020E02D
:1017E0008C179D07CCF017C00E94800D31E020E0DF
:1017F000C817D90781F410C00E94800D31E020E0A5
:101800008C179D074CF407C00E94800D31E020E04A
:10181000C817D9070CF030E0832F922F04C0CE01F7
:1018200002C080E090E0DF91CF910895EF92FF92A7
:101830000F931F93CF93DF931F92CDB7DEB701E0D5
:1018400010E00E94E10EE0919F0DF091A00D8081CB
:101850008D3249F43196F093A00DE0939F0D1195D0
:1018600001951109EECF803331F43196F093A00D3C
:10187000E0939F0DFAC09FEC980F9930E0F480E060
:1018800090E03AE0A0919F0DB091A00DAC01349F83
:10189000C001359F900D1124FD012191820F911DF2
:1018A000C097F093A00DE0939F0D11962C912053BB
:1018B0002A3040F3DCC09FEB980F9A3108F0B5C096
:1018C000918191549A31B0F090E081549048880F02
:1018D000991FA091BB0DB091BC0DA80FB91F3C91F1
:1018E00011962C913196F093A00DE0939F0D832FCC
:1018F000922FBDC08CEE93E00E94830A282F853082
:1019000011F48EE0B0C0E0919F0DF091A00D8081A8
:10191000883211F085E0A7C03196F093A00DE093D6
:101920009F0D29830E94C30B7C01E0919F0DF091D4
:10193000A00D80812981893209F094C03196F093FD
:10194000A00DE0939F0D2230F9F028F4222341F0FE
:10195000213099F06AC02330E9F02430D1F165C01C
:1019600050E5E5165CE0F50614F083E17CC0F70174
:10197000E25BFE4F808190E07AC0C701F7FE77C03E
:1019800091958195910973C00E947017B7010E94CB
:10199000F4166DC088E0E816F10410F08CE063C026
:1019A00081E090E002C0880F991FEA94E2F721B12C
:1019B00030E028233923232B29F520B130E02823D8
:1019C000392351E040E0232B09F450E0852F942F78
:1019D0004EC0A8E0EA16F10408F7E0927C0021E08E
:1019E00030E002C0220F331FEA94E2F742B192B115
:1019F000822F8095892382B981B190E0822393233D
:101A0000892B11F08DE02FC080917A008064809343
:101A10007A0080917A0086FDFCCF42B980917800EF
:101A2000909179009695879522C0E0919F0DF09155
:101A3000A00D80818832B1F43196F093A00DE0932F
:101A40009F0D0E94C30B9C01E0919F0DF091A00D92
:101A50008081893239F43196F093A00DE0939F0D87
:101A6000C90105C086E08093BF0D80E090E0FC01D5
:101A70000E9FC0010F9F900D1E9F900D11240F907F
:101A8000DF91CF911F910F91FF90EF9008951F93D9
:101A9000CF93DF930E94160CEC010E94E10E1BE035
:101AA000E0919F0DF091A00D80818A3281F43196F2
:101AB000F093A00DE0939F0D0E94160C9E01289FAD
:101AC000E001299FD00D389FD00D1124E9CF8F322E
:101AD00091F43196F093A00DE0939F0D0E94160CA7
:101AE000BC01009729F0CE010E94F416EB01D8CF7B
:101AF0001093BF0DD5CFCE01DF91CF911F910895E7
:101B0000CF93DF93E0919F0DF091A00D80818D32F6
:101B100031F08B3221F00E94470DEC0102C0C0E091
:101B2000D0E0E0919F0DF091A00D80818D3251F4B5
:101B30003196F093A00DE0939F0D0E94470DC81BB6
:101B4000D90BEFCF8B3251F43196F093A00DE09387
:101B50009F0D0E94470DC80FD91FE3CFCE01DF9123
:101B6000CF910895FF920F931F93CF93DF93EC01D2
:101B70008B01F12CFE01EF0DF11D8081882341F0D6
:101B8000B801992787FD90950E94D017F394F2CF62
:101B9000DF91CF911F910F91FF9008950F931F93A5
:101BA000CF93DF93EC018B01CE01FE012491222320
:101BB00041F02196FC018491B80190E00E94D01779
:101BC000F3CFDF91CF911F910F910895CF93E091C3
:101BD0009F0DF091A00DC081C23221F0C73211F0EB
:101BE00080E029C03196F093A00DE0939F0D819184
:101BF0008C1719F08A30D9F7F3CFE0919F0DF0914F
:101C0000A00D80818C1789F06091C30D7091C40D77
:101C100090E00E94D01780919F0D9091A00D0196A9
:101C20009093A00D80939F0DE8CF3196F093A00D77
:101C3000E0939F0D81E0CF910895CF93DF93EC0166
:101C4000BC018AE090E00E94D017BE018DE090E0D8
:101C5000DF91CF910C94D017CF93DF93EB010E94CB
:101C6000CE0DCE01DF91CF910C941D0EE091B70DFA
:101C7000F091B80D3197F093B80DE093B70D8083D4
:101C80000895E091B70DF091B80D8191F093B80DE2
:101C9000E093B70D0895AF92BF92CF92DF92EF928B
:101CA000FF920F931F93CF93DF9300D0CDB7DEB792
:101CB0005C017B0197FF07C0B194A194B1088DE24C
:101CC00090E00E94D01700E010E08AE0C82ED12CEE
:101CD000C501B6010E94F416805D69837A830E9473
:101CE000360E6981A62E7A81B72E0F5F1F4FA11481
:101CF000B10471F70E94410EB70190E00E94D01725
:101D00000150110901151105A9F70F900F90DF91EE
:101D1000CF911F910F91FF90EF90DF90CF90BF90E8
:101D2000AF900895CF93DF93EC01E091B40DF09163
:101D3000B50D808191813396F093B50DE093B40D8C
:101D4000BE010E944B0EBE0180E290E00E94D017BF
:101D5000E091B40DF091B50D80818A3071F0BE0133
:101D600090E00E94D0178091B40D9091B50D01962E
:101D70009093B50D8093B40DEBCF3196F093B50DE4
:101D8000E093B40DCE01DF91CF910C941D0E8091A4
:101D9000B90D9091BA0D2091B20D3091B30D4091D3
:101DA0009D0D50919E0D8217930751F0FC016081AB
:101DB00071816417750720F46281860F911DF3CF3E
:101DC0000895E0919F0DF091A00D8081803231F453
:101DD0003196F093A00DE0939F0DF3CF8930C1F3BE
:101DE0000895E091B20DF091B30D329690E08081AC
:101DF0008A30B1F0891769F0823269F0873269F070
:101E000091110CC02FE9280F2A3140F480528083B1
:101E100005C090E003C092E201C097E23196E7CF9F
:101E2000089590ED980F9A3090F0982F9F7D9154DF
:101E30009A3168F08F3559F08B3249F08E3239F093
:101E400021E090E08E3709F020E0822F089581E0B4
:101E500090E008950F931F93CF93DF931092BF0DDF
:101E6000C0919F0DD091A00D1881812F0E94110F5C
:101E7000892B31F42196D093A00DC0939F0DF0CF04
:101E80001123F9F0CE0101969093A00D80939F0D40
:101E900000919F0D1091A00DF80180810E94110FFB
:101EA000892B39F00F5F1F4F1093A00D00939F0DEA
:101EB000EFCF0C171D0711F0F801108288818111F6
:101EC00003C081E08093BF0DCE01DF91CF911F91C0
:101ED0000F910895009741F0E7E8F3E13197F1F7AA
:101EE00000C000000197F6CF0895009731F026E07A
:101EF0002A95F1F700C00197F8CF0895CF93E8989D
:101F0000C4E628988EEE92E00E94750F289A84EF1E
:101F100091E00E94750FC150A1F7E89ACF91089502
:101F2000EF92FF921F93CF93DF93C091B20DD091A8
:101F3000B30D2296D093A00DC0939F0D80914D01BB
:101F400083FD10C010EE6AC0E0919F0DF091A00DCE
:101F5000808380919F0D9091A00D01969093A00D8C
:101F600080939F0D80E091E00E9480179C013327B1
:101F70002A30310559F02D30310541F0232B21F75E
:101F800080914D01877F80934D010DC1E0919F0DA0
:101F9000F091A00D8AE0808306C180919F0D909101
:101FA000A00D8C179D07D0F56091C30D7091C40DE5
:101FB00082E090E00E94D0174091B20D5091B30D95
:101FC000CE01841B950B9EEFF92EF80EEF2CE294B8
:101FD000E69427E0E22220919F0D3091A00D241B72
:101FE000350B22502295269527706091C30D709174
:101FF000C40D8E2D821B90E001960E94D017609137
:10200000C30D7091C40D8F2DE19E800D112490E0C1
:102010000E94D017D093A00DC0939F0D8091C10D49
:102020009091C20D0E9480177C019927FC01319785
:10203000E131F10508F08DC0EB58FF4F0C94081703
:102040008091B20D9091B30D029620919F0D309129
:10205000A00D8217930710F76091C30D7091C40D06
:1020600081E090E00E94D0176091C30D7091C40D83
:1020700080919F0D9091A00D2091B20D3091B30DE4
:10208000821B930B825082958695877090E0019613
:102090000E94D0178091B20D9091B30D02961AC094
:1020A0008091B20D9091B30D029620919F0D3091C9
:1020B000A00D8217930708F059C06091C30D70916D
:1020C000C40D80E190E00E94D01780919F0D909107
:1020D000A00D01979093A00D80939F0D9FCF8091AD
:1020E0009F0D9091A00D8C179D0708F03FC00196A1
:1020F0009093A00D80939F0D6091C30D7091C40DBE
:1021000081E190E00E94D01789CFD093A00DC093B9
:102110009F0D8AE088838091C30D9091C40DDF915B
:10212000CF911F91FF90EF900C941D0E8091B20DF6
:102130009091B30D029620919F0D3091A00D8217C2
:102140009307A0F46091C30D7091C40D88E090E0F6
:10215000BACF2091BB0D3091BC0D22503109409176
:102160009F0D5091A00D4217530719F40E947E0F46
:1021700055CF6091C30D7091C40D0E94D017E091AE
:102180009F0DF091A00DE08280919F0D9091A00D88
:1021900001969093A00D80939F0DC817D90708F062
:1021A0003DCFEC013BCFDF91CF911F91FF90EF909E
:1021B00008958091B60D811104C08091C6008330CE
:1021C00021F41092B60D81E0089580E00895FC019D
:1021D00020812D3219F4019641E001C040E0FC015C
:1021E00080E090E05AE0219130ED320F3A3060F417
:1021F000BC01569FC001579F900D112430E0205321
:102200003109820F931FEFCF442319F091958195E7
:1022100091090895AF92BF92CF92DF92EF92FF9211
:102220000F931F93CF93DF930E94E10EE0919F0DD8
:10223000F091A00DF0808FEB8F0D8A3110F087E0C8
:1022400015C0D090BB0DE090BC0D3196F093A00D61
:10225000E0939F0D0E94E10EE0919F0DF091A00D83
:1022600080818A3039F08A3329F082E08093BF0D73
:1022700084E07CC01092A10DEA9AA12CC1EADDE0B5
:102280008AE0B82E8091C10D9091C20D0E948017F6
:102290008C01C82E8091B60D813009F466C0C8014A
:1022A00099278A309105E1F024F488309105D1F026
:1022B0002CC08D309105A1F08D32910531F5A11022
:1022C0003AC06091C30D7091C40D8DE290E00E9400
:1022D000D017FE0101931982EF01AA24A3942BC009
:1022E000B88229C02DE0C13AD20709F018F40E9443
:1022F0007E0F21C06091C30D7091C40D88E090E005
:102300000E94D0172197AA9416C020ED200F2A30E2
:1023100090F425E02A1560F06091C30D7091C40D12
:102320000E94D017FE010193A3941982EF0106C009
:102330000E947E0F03C08AE0C81619F02DE0C21279
:10234000A1CF8091C30D9091C40D0E941D0E81EA12
:102350009DE00E94E710ED2DFE2DEF0DF11DEF0D1C
:10236000F11DE258F1099183808383E0DF91CF91E1
:102370001F910F91FF90EF90DF90CF90BF90AF90A3
:1023800008951F93CF93DF93E0919F0DF091A00DDF
:10239000C0818FEB8C0F8A31F0F51091BB0DD0917D
:1023A000BC0DCF0101969093A00D80939F0D81816C
:1023B00081548A3148F48FEF8093BF0D3296F093A9
:1023C000A00DE0939F0D37C00E94E10EE0919F0D9C
:1023D000F091A00D80818D3311F08FE01DC08091B0
:1023E000BF0D8F3F11F481E117C03196F093A00D1E
:1023F000E0939F0D0E94E10E0E94C30B2091BF0D40
:10240000211119C0E0919F0DF091A00D20812A307B
:1024100031F02A3321F082E08093BF0D0CC0E12F10
:10242000FD2FEC0FF11DEC0FF11DE258F109918326
:10243000808383E001C084E0DF91CF911F910895F4
:10244000CF93DF930E94C30BEC018091BF0D8111EC
:102450002EC0C0358CE0D80714F083E126C00E945E
:10246000E10EE0919F0DF091A00D80818C32E1F49E
:102470003196F093A00DE0939F0D0E94E10E0E9413
:10248000C30B2091BF0D211112C08F3F910519F090
:1024900010F082E10AC0E0919F0DF091A00D208123
:1024A0002A3039F02A3329F082E08093BF0D84E08E
:1024B00004C0C25BDE4F888383E0DF91CF91089533
:1024C0000E94891390939E0D80939D0DE0919F0D26
:1024D000F091A00D80818A3021F084E08093BF0DBF
:1024E00018C00E94C70E9093B50D8093B40D209133
:1024F000B40D3091B50D8091B20D9091B30D2817A8
:10250000390739F08091C30D9091C40D0E94920E4D
:10251000EECF84E00895CF93DF93C3ECDDE06881D4
:1025200079818091BB0D9091BC0D2091B20D3091BD
:10253000B30D821B930B0E944B0E6881798189E653
:1025400096E00E942C0E6881798180E098E00E94DC
:102550004B0E688179818EE596E00E942C0E83E017
:10256000DF91CF9108958091B20090E00E9475179D
:1025700083E008951092BF0D0E94C30B2091BF0D00
:10258000211104C00E94751783E0089584E0089526
:10259000CF93DF93EA9AC3ECDDE06881798180ED27
:1025A00090E00E94D0176881798182ED90E00E94CE
:1025B000D0178091B90D9091BA0D9093B10D809381
:1025C000B00D81E0DF91CF910895E0919F0DF091E2
:1025D000A00D80818A3029F082E08093BF0D84E0D5
:1025E00008958091B20D9091B30D9093B10D8093A9
:1025F000B00D81E00895E0919F0DF091A00D8081D4
:102600008A3029F082E08093BF0D84E008958091A4
:10261000B90D9091BA0D9093B30D8093B20D85E0F2
:102620000895CF93DF930E94C30BEC018091BF0DFF
:1026300081112FC0C830D10510F08CE028C0E09186
:102640009F0DF091A00D80818C3201F53196F093B1
:10265000A00DE0939F0D0E94C30B2091BF0D21118F
:1026600018C021E030E00C2E01C0220F0A94EAF7D6
:10267000009731F0019751F481B1822B81B904C0E8
:1026800081B12095282321B982E004C082E08093A3
:10269000BF0D84E0DF91CF910895CF93DF930E9427
:1026A000C30BEC018091BF0D81112FC0C830D10543
:1026B00010F08CE028C0E0919F0DF091A00D80817A
:1026C0008C3201F53196F093A00DE0939F0D0E949E
:1026D000C30B2091BF0D211118C021E030E00C2E5A
:1026E00001C0220F0A94EAF7009731F0019751F4E4
:1026F00082B1822B82B904C082B12095282322B9ED
:1027000082E004C082E08093BF0D84E0DF91CF912E
:1027100008950E94E10E80E090E05AE0E0919F0D64
:10272000F091A00D408120ED240F2A30A0F48939CA
:1027300029E1920788F4589F9001599F300D112488
:10274000842F90E0C097820F931F3196F093A00DD5
:10275000E0939F0DE3CF08958FEF9FEF0895CF9300
:10276000DF938EE491E09093BA0D8093B90D90932E
:10277000B30D8093B20D8DE99DE09093B80D8093D9
:10278000B70D8BE69DE09093AD0D8093AC0D85E386
:102790009DE09093BC0D8093BB0DC3ECDDE06881A0
:1027A000798187EE9BE00E944B0E6881798189E6F2
:1027B00096E00E942C0E6881798180E098E00E946A
:1027C0004B0E688179818EE596E00E942C0E8881FF
:1027D0009981DF91CF910C941D0EC4E00DE91DE0AD
:1027E000D9E082E0F82E90E1D92E24E0C22E31E328
:1027F000832E31E0932EC43009F56091C30D7091A2
:10280000C40D81ED90E00E94D0176091C30D7091CE
:10281000C40D83ED90E00E94D0171092B10D10927C
:10282000B00D1093B80D0093B70D6091C30D70916A
:10283000C40D83E496E00E942C0EC0E01092BF0D00
:1028400080914D01982F937089F08C7F80934D017A
:102850008091B90D9091BA0D9093B10D8093B00D08
:1028600003969093A00D80939F0D14C10E94900F2A
:102870000E94F10E8091B20D9091B30D029690934B
:10288000A00D80939F0DE0919F0DF091A00D808190
:102890008A3031F03196F093A00DE0939F0DF3CF85
:1028A000E091BB0DF091BC0D3197A0919F0DB091BF
:1028B000A00D8C91808320919F0D3091A00D80916F
:1028C000B20D9091B30D02962817390739F02150B7
:1028D00031093093A00D20939F0DE6CFF093A00D0A
:1028E000E0939F0D0E94891390939E0D80939D0D00
:1028F0000E94E10E20919D0D30919E0D2115310514
:1029000009F4B8C02F3F6FEF360719F4D093BF0D0D
:10291000C1C01092C00D80919F0D9091A00D40916B
:10292000C00DFC01E40FF11D50815A3021F04F5FC2
:102930004093C00DF4CF4C5F4093C00DFC01339722
:10294000F093A00DE0939F0D318320833296408356
:102950000E94C70E9093BE0D8093BD0D2091B20DC5
:102960003091B30D82179307F9F0FC0160817181FA
:1029700040919D0D50919E0D64177507A9F44281F9
:10298000E40FF11D2E1B3F0BAF01420F531FDC0163
:10299000E417F50719F061916D93FACF820F931F39
:1029A0009093B30D8093B20DE0919F0DF091A00D27
:1029B00083818A3009F442CF2091C00D222309F48B
:1029C0003DCF4091B20D5091B30D80919F0D9091EC
:1029D000A00D30E0841B950B2817390708F4C901B6
:1029E000FA01E80FF91FF093AA0DE093A90D2091C9
:1029F000BD0D3091BE0DBA01621B730B9B01DA0154
:102A00002115310529F04E91429321503109F8CF1B
:102A10002817390731F1E091BD0DF091BE0DA0915D
:102A20009F0DB091A00D4C91408340919F0D50910E
:102A3000A00D4F5F5F4F5093A00D40939F0D4091AD
:102A4000BD0D5091BE0D4F5F5F4F5093BE0D409333
:102A5000BD0D4091C00D41504093C00D2F5F3F4FC1
:102A6000D7CF8091A90D9091AA0D9093B30D80932B
:102A7000B20DA2CF1092B60DE091B20DF091B30D50
:102A8000CF0102969093A00D80939F0D82818A3092
:102A900009F4D4CE8091BF0D8111EDC00E94D910F0
:102AA000882349F06091C30D7091C40D86E496E0CF
:102AB0000E942C0EDDC01092AB0D1092BF0D87E06E
:102AC00094E00E94830A90E08F32910508F082C062
:102AD000FC01EA57FF4F0C9408170E94C30B0E9499
:102AE0006A0F05C00E94FB1272C00E947E0FF09216
:102AF000AB0D74C00E94C8126AC00E94830367C0F5
:102B00000E94660364C00E94320961C00E943709B6
:102B10005EC00E943C095BC00E946A0958C00E94C6
:102B2000E51255C00E94601252C00E948B124FC025
:102B30000E9440054CC00E94530549C00E94880471
:102B40008093AB0D8091BF0D811148C083E004C01C
:102B50000E9446043CC08CE00E94AB0438C00E9436
:102B6000B31235C00E94BA1232C00E949A032FC01D
:102B70000E940A112CC00E94201229C00E94FF0549
:102B800026C00E94E70923C00E94140A20C0809139
:102B90004D01826080934D0103C00E94610A17C0FD
:102BA0000E943F0A14C00E94160511C00E9496059B
:102BB0000EC00E9466050BC00E94340508C00E942A
:102BC000111305C00E944D1302C00E94C1118093D1
:102BD000AB0D04C0D092BF0DC092AB0D8091AB0D78
:102BE000843009F445C0853009F444C0863009F4C6
:102BF00055CF8330D9F40E94E10EE0919F0DF09102
:102C0000A00D80818A3381F4E0919F0DF091A00D99
:102C100080818A3331F43196F093A00DE0939F0DBB
:102C2000F3CF0E94E10E3ACFF092AB0D8091AB0D45
:102C3000823069F4E091B00DF091B10D3097C1F0A0
:102C40008281E80FF11DF093B10DE093B00D8091FA
:102C5000B00D9091B10D2091B20D3091B30D82174E
:102C6000930731F003969093A00D80939F0D16CF9C
:102C7000C4E001C0C5E08091BF0D882309F4BBCD3D
:102C800083E00E94B60880E00E94CB088091BF0DCF
:102C900090E0FC013197E431F10508F07EC0EB547F
:102CA000FF4F6091C30D7091C40D0C94081782E220
:102CB00096E071C085E196E00E94CE0D8091B00D46
:102CC0009091B10D892B19F19F928F920E94021859
:102CD000E0919F0DF091A00DA0800F900F907AE0F1
:102CE000A71611F08EE580838091B00D9091B10D03
:102CF0009093B50D8093B40D8091C30D9091C40D48
:102D00000E94920EE0919F0DF091A00DA082809103
:102D1000C30D9091C40D0E941D0E3FC086E096E049
:102D20003AC081EF95E037C08DE396E002C086E3BC
:102D300096E00E942C0E6091C30D7091C40D8DED34
:102D400095E029C08BEC95E026C086EB95E023C08A
:102D500082EA95E020C080E995E01DC08FE795E00C
:102D60001AC08CE695E017C08EE595E014C08DE49E
:102D700095E011C08DE395E00EC089E295E00BC0AF
:102D800083E195E008C08CEF94E005C08FEE94E0FD
:102D900002C087ED94E00E942C0E8CE40E94B608DD
:102DA00080E00E94CB0827CD0E943D088CE40E9461
:102DB000B60880E00E94CB086091C30D7091C40DED
:102DC00084E796E00E942C0E0E947E0F1092B000C5
:102DD00087E08093B100109270000E94AF130E94B0
:102DE000ED1380E090E0089597FB072E16F4009411
:102DF00007D077FD09D00E940E1707FC05D03EF4DE
:102E0000909581959F4F0895709561957F4F089596
:102E1000EE0FFF1F0590F491E02D0994AA1BBB1B38
:102E200051E107C0AA1FBB1FA617B70710F0A61BCA
:102E3000B70B881F991F5A95A9F780959095BC01EB
:102E4000CD0108958F929F92AF92BF92CF92DF9261
:102E5000EF92FF92CF93DF93EC01688179818A81B1
:102E60009B81611571058105910521F464E279ED7D
:102E70008BE597E02DE133EF41E050E00E94761AB8
:102E800049015A019B01AC01A7EAB1E40E94951ADD
:102E90006B017C01ACEEB4EFA50194010E94A31A72
:102EA000C60ED71EE81EF91EF7FE06C081E0C81A3E
:102EB000D108E10880E8F80AC882D982EA82FB8258
:102EC000C6019F77DF91CF91FF90EF90DF90CF9079
:102ED000BF90AF909F908F9008950E942217089501
:102EE0008AE291E00E9422170895A0E0B0E080936A
:102EF0002A0190932B01A0932C01B0932D010895EA
:102F0000CF93DF93EC012B8120FF33C026FF0AC053
:102F10002F7B2B838E819F8101969F838E838A8155
:102F200090E029C022FF0FC0E881F98180819927B4
:102F300087FD9095009719F420622B831AC0319673
:102F4000F983E8830EC0EA85FB85099597FF09C0E0
:102F50002B81019611F480E101C080E2822B8B83EA
:102F600008C02E813F812F5F3F4F3F832E839927DB
:102F700002C08FEF9FEFDF91CF910895A0E0B0E006
:102F8000E4ECF7E10C94B81AAE01475F5F4F6F8134
:102F900078858D819E810E941618E2E00C94D41AE7
:102FA0000F931F93CF93DF93182F092FEB018B8182
:102FB00081FD03C08FEF9FEF20C082FF10C04E81C4
:102FC0005F812C813D81421753077CF4E881F981B0
:102FD0009F012F5F3F4F39832883108306C0E88508
:102FE000F985812F0995892B29F72E813F812F5F44
:102FF0003F4F3F832E83812F902FDF91CF911F91E1
:103000000F910895A0E0B0E0E8E0F8E10C94B81A60
:10301000FE01359661917191AF018091C30D909140
:10302000C40D0E941618E2E00C94D41AACE0B0E093
:10303000ECE1F8E10C94A81A7C016B018A01FC0117
:1030400017821682838181FFBDC1CE0101964C019A
:10305000F7019381F60193FD859193FF81916F01B3
:10306000882309F4ABC1853239F493FD859193FF30
:1030700081916F01853229F4B70190E00E94D01749
:10308000E7CF512C312C20E02032A0F48B3269F0B4
:1030900030F4803259F0833269F420612CC08D32D3
:1030A00039F0803339F4216026C02260246023C0C7
:1030B000286021C027FD27C030ED380F3A3078F462
:1030C00026FF06C0FAE05F9E300D1124532E13C078
:1030D0008AE0389E300D1124332E20620CC08E32CF
:1030E00021F426FD6BC1206406C08C3611F42068E3
:1030F00002C0883641F4F60193FD859193FF8191DA
:103100006F018111C1CF982F9F7D9554933028F482
:103110000C5F1F4FFFE3F9830DC0833631F0833717
:1031200071F0833509F05BC022C0F801808189838A
:103130000E5F1F4F44244394512C540115C0380195
:10314000F2E06F0E711CF801A080B18026FF03C071
:10315000652D70E002C06FEF7FEFC5012C870E94E4
:103160000D1A2C0183012C852F77222E17C03801D0
:10317000F2E06F0E711CF801A080B18026FF03C041
:10318000652D70E002C06FEF7FEFC5012C870E94B4
:10319000021A2C012C852068222E830123FC1BC0DF
:1031A000832D90E048165906B0F4B70180E290E014
:1031B0000E94D0173A94F4CFF50127FC859127FEA1
:1031C00081915F01B70190E00E94D01731103A94CD
:1031D000F1E04F1A51084114510471F7E5C08436EB
:1031E00011F0893639F5F80127FF07C06081718138
:1031F000828193810C5F1F4F08C060817181882795
:1032000077FD8095982F0E5F1F4F2F76B22E97FF78
:1032100009C090958095709561957F4F8F4F9F4F16
:103220002068B22E2AE030E0A4010E94181AA82ECD
:10323000A81844C0853729F42F7EB22E2AE030E04A
:1032400025C0F22FF97FBF2E8F36C1F018F48835D4
:1032500079F0B4C0803719F0883721F0AFC02F2F34
:103260002061B22EB4FE0DC08B2D8460B82E09C033
:1032700024FF0AC09F2F9660B92E06C028E030E0D8
:1032800005C020E130E002C020E132E0F801B7FEE5
:1032900007C060817181828193810C5F1F4F06C0DE
:1032A0006081718180E090E00E5F1F4FA4010E9459
:1032B000181AA82EA818FB2DFF77BF2EB6FE0BC03C
:1032C0002B2D2E7FA51450F4B4FE0AC0B2FC08C00A
:1032D0002B2D2E7E05C07A2C2B2D03C07A2C01C0FD
:1032E000752C24FF0DC0FE01EA0DF11D8081803395
:1032F00011F4297E09C022FF06C07394739404C0A0
:10330000822F867809F0739423FD13C020FF06C036
:103310005A2C731418F4530C5718732C731468F444
:10332000B70180E290E02C870E94D01773942C851F
:10333000F5CF731410F4371801C0312C24FF12C0DC
:10334000B70180E390E02C870E94D0172C8522FFE4
:1033500017C021FF03C088E590E002C088E790E035
:10336000B7010CC0822F867859F021FD02C080E29F
:1033700001C08BE227FD8DE2B70190E00E94D017DB
:10338000A51438F4B70180E390E00E94D0175A9456
:10339000F7CFAA94F401EA0DF11D8081B70190E006
:1033A0000E94D017A110F5CF332009F451CEB701F8
:1033B00080E290E00E94D0173A94F6CFF701868120
:1033C000978102C08FEF9FEF2C96E2E10C94C41A14
:1033D000F999FECF92BD81BDF89A992780B50895DD
:1033E000262FF999FECF92BD81BDF89A019700B4BE
:1033F000021639F01FBA20BD0FB6F894FA9AF99A5E
:103400000FBE0895FC010590615070400110D8F77F
:10341000809590958E0F9F1F0895FC01615070401C
:1034200001900110D8F7809590958E0F9F1F0895F9
:10343000FA01AA27283051F1203181F1E8946F93E5
:103440006E7F6E5F7F4F8F4F9F4FAF4FB1E03ED08B
:10345000B4E03CD0670F781F891F9A1FA11D680F29
:10346000791F8A1F911DA11D6A0F711D811D911D5C
:10347000A11D20D009F468943F912AE0269F1124D1
:103480003019305D3193DEF6CF010895462F477035
:10349000405D4193B3E00FD0C9F7F6CF462F4F7090
:1034A000405D4A3318F0495D31FD4052419302D0EE
:1034B000A9F7EACFB4E0A695979587957795679594
:1034C000BA95C9F700976105710508959B01AC0194
:1034D0000A2E06945795479537952795BA95C9F7BB
:1034E000620F731F841F951FA01D0895052E97FB63
:1034F0001EF400940E948D1A57FD07D00E94DF1A17
:1035000007FC03D04EF40C948D1A509540953095DD
:1035100021953F4F4F4F5F4F08959095809570953F
:1035200061957F4F8F4F9F4F08950E94011BA59F6C
:10353000900DB49F900DA49F800D911D11240895AE
:10354000B7FF0C94951A0E94951A821B930B08954D
:103550002F923F924F925F926F927F928F929F92A3
:10356000AF92BF92CF92DF92EF92FF920F931F9391
:10357000CF93DF93CDB7DEB7CA1BDB0B0FB6F89442
:10358000DEBF0FBECDBF09942A88398848885F8482
:103590006E847D848C849B84AA84B984C884DF80F3
:1035A000EE80FD800C811B81AA81B981CE0FD11DD7
:1035B0000FB6F894DEBF0FBECDBFED010895A1E2B6
:1035C0001A2EAA1BBB1BFD010DC0AA1FBB1FEE1F9D
:1035D000FF1FA217B307E407F50720F0A21BB30BE8
:1035E000E40BF50B661F771F881F991F1A9469F764
:1035F00060957095809590959B01AC01BD01CF01C0
:103600000895A29FB001B39FC001A39F700D811DBB
:103610001124911DB29F700D811D1124911D0895DB
:04362000F894FFCF4C
:1036240000000003000000009C06AD06000000003E
:103634000003000000004D065E06000000000003C9
:1036440000000000BC0680060000010000002564A4
:0636540000202D2D2000D6
:0400000500800DBDAD
:00000001FF
