:100000000C9447030C94DD090C9464030C94BD0913
:100010000C9464030C9464030C9464030C946403C4
:100020000C9464030C9464030C9464030C946403B4
:100030000C9464030C9464030C9464030C946403A4
:100040000C94CD090C9464030C9464030C94640325
:100050000C9464030C9464030C9464030C94640384
:100060000C9464030C9464030C9464030C94640374
:100070000C9464030C9464030C9464036A0C530C96
:10008000100C0E0C210C330C430C660C660C660C29
:10009000660C660C660C660C660C640C660C660CD2
:1000A000660C660C660C660C660C660C660C660CC0
:1000B000660C660C660C660C660C660C6A0C530CBF
:1000C000100C0E0C210C330C430C660C660C660CE9
:1000D000660C660C660C660C660C640CDA0CE20CA2
:1000E000EA0CF20CFA0C020DE20C400FED0EC90FF7
:1000F0002E0F2E0FC90FD60FB60FC90FA50FC90FA0
:100100002E0FA50FC90FC90F700F8F0F0515E7141C
:10011000ED1411155615F014F314F614F914FC141B
:10012000FF1419151C152015231544154D157015B0
:1001300026152915EA1447154A152C152F150215F1
:10014000021508150B150E15471570157015E214DC
:100150003215351538153E154115591559155915CE
:1001600059155915501553155615C015C315F115C8
:10017000F415F715FA15051608160B160E161116B6
:10018000141617161A161D162016231626162916CB
:100190002C164B6579626F61726420636F6E6E65B9
:1001A00063746564207375636365737366756C6CE3
:1001B00079004B6579626F6172642073656C662D9E
:1001C00074657374206661696C6564004578706558
:1001D0006374656420636F6C6F72205B302E2E3108
:1001E00032375D004F7574206F662072616E6765EF
:1001F0000045787065637465642062797465205B7E
:10020000302E2E3235355D00496E76616C69642082
:100210007661726961626C65206E616D6500496E20
:1002200076616C696420636F6F7264696E61746576
:100230007300556E6B6E6F776E20636F6D6D616EC0
:100240006400556E6B6E6F776E2066756E637469B1
:100250006F6E0050696E20492F4F206572726F7269
:1002600000496E76616C69642070696E205B302E87
:100270002E375D004469766973696F6E206279205C
:100280007A65726F004F70657261746F7220657865
:1002900070656374656400496E76616C6964206C96
:1002A000696E65206E756D626572004A756D7020AD
:1002B000706F696E74206E6F7420666F756E640067
:1002C0005661726961626C652065787065637465FA
:1002D0006400706172656E746865736973206D691E
:1002E0007373696E6700556E6578706563746564D5
:1002F0002063686172616374657200537461636B3B
:10030000206F766572666C6F770053796E746178D2
:10031000206572726F72004E6F7420796574206967
:100320006D706C656D656E746564005269676874A4
:1003300020004C65667420004F4B00427265616B73
:10034000210020627974657320617661696C616255
:100350006C650020627974657320524F4D002062F5
:10036000797465732052414D0057656C636F6D65FC
:1003700020746F206E737442415349432076302EAF
:10038000320000000000000000000000000000003B
:1003900000000000000000000000607E607E0000A1
:1003A000000000000000000000000000000000004D
:1003B00000000000000009090909607E607E00005D
:1003C000000000000000000000000000000000002D
:1003D00000000000000071515171312131210000F5
:1003E000000000000000000000007A5A5A7A73539F
:1003F0005373614141617757577732403240000073
:100400000000000000006343436378585878644458
:100410004464654545653424342433233323000084
:100420000000000000002020202076565676664608
:100430004666745454747252527235253525000044
:100440000000000000006E4E4E6E6242426268483C
:1004500048686747476779595979365E365E0000C4
:100460000000000000002C3C2C3C6D4D4D6D6A4A94
:100470004A6A7555557537263726382A382A0000B6
:100480000000000000002C3C2C3C6B4B4B6B69497E
:1004900049696F4F4F6F30293029392839280000BA
:1004A0000000000000002E3E2E3E2F3F2F3F6C4CE0
:1004B0004C6C3B3A3B3A705050702D5F2D5F000002
:1004C000000000000000000000002722272200009A
:1004D00000005B7B5B7B3D2B3D2B000000000000A0
:1004E000000000000000000000000D0D0D0D5D7DFE
:1004F0005D7D000000005C7C5C7C00000000000072
:100500000000000000003C3C3C3C000000000000FB
:1005100000000000000000000000080808080000BB
:10052000000000000000313131310000000034349F
:100530003434373737370000000000000000000077
:100540000000303030302E2E2E2E32323232353501
:10055000353536363636383838381B1B1B1B00000D
:100560000000000000002B2B2B2B333333332D2DB9
:100570002D2D2A2A2A2A3939393900000000000095
:100580000000484947C848C94C4FD74CCF00535486
:1005900045D00054CF003EBD3CBEBEBD3CBDBC21DD
:1005A000BD00504545CB4142D3524EC450494E4404
:1005B000524541C450494E41524541C4004C4953F3
:1005C000D44E45D75255CE4E4558D44C45D449C645
:1005D000474F54CF4D504C41D94D53544FD05445B3
:1005E0004D50CF4D555349C3474F5355C2524554B3
:1005F0005552CE52414E444F4D495AC5524E445326
:100600004545C45253D4434CD35245CD464FD249AD
:100610004E5055D4424545D05052494ED44C4F438C
:100620004154C5504F4BC5505345D453544FD045FA
:100630004EC44D45CD5045CE50415045D2BFA3A7E5
:1006400044454C41D9454C4953D445464F524D4100
:10065000D44543484149CE45534156C5454C4F4189
:10066000C446494C45D343464F524D41D443434879
:100670004149CE43534156C5434C4F41C450494E66
:100680004449D250494E4457524954C500001124A0
:100690001FBECFEFD0E1DEBFCDBF11E0A0E0B1E0E3
:1006A000EAEEF4E302C005900D92A633B107D9F744
:1006B0002DE0A6E3B1E001C01D92AE3BB207E1F729
:1006C0000E9437160C94731A0C940000FF920F933B
:1006D0001F93CF93DF93EC018B01F12CFE01EF0D03
:1006E000F11D8081882341F0B801992787FD9095FD
:1006F0000E943317F394F2CFDF91CF911F910F91A6
:10070000FF900895AF92BF92CF92DF92EF92FF9247
:100710000F931F93CF93DF9300D0CDB7DEB75C016B
:100720007B0197FF07C0B194A194B1088DE290E0DE
:100730000E94331700E010E08AE0C82ED12CC501DA
:10074000B6010E945716805D69837A830E94F90F73
:100750006981A62E7A81B72E0F5F1F4FA114B104B5
:1007600071F70E940410B70190E00E943317015006
:10077000110901151105A9F70F900F90DF91CF9185
:100780001F910F91FF90EF90DF90CF90BF90AF90AF
:1007900008950F931F93CF93DF93EC018B01CE014C
:1007A000FE012491222341F02196FC018491B8019D
:1007B00090E00E943317F3CFDF91CF911F910F91FB
:1007C0000895CF93DF93EC01BC018AE090E00E9492
:1007D0003317BE018DE090E0DF91CF910C94331779
:1007E000CF93DF93EB010E94C903CE01DF91CF913C
:1007F0000C94E1030F931F93CF93DF938C01EB01D4
:10080000FC01808191810E948203BE0180E290E020
:100810000E9433170D5F1F4FF80181918F018A30BD
:1008200029F0BE0190E00E943317F6CFCE01DF9190
:10083000CF911F910F910C94E103CF93E091B10DF3
:10084000F091B20DC081C23221F0C73211F080E0C8
:1008500029C03196F093B20DE093B10D81918C17C0
:1008600019F08A30D9F7F3CFE091B10DF091B20DC4
:1008700080818C1789F06091BA0D7091BB0D90E06A
:100880000E9433178091B10D9091B20D0196909313
:10089000B20D8093B10DE8CF3196F093B20DE09395
:1008A000B10D81E0CF9108950E94C10C9093A10DEC
:1008B0008093A00D8091B60D811107C0E091B10D1C
:1008C000F091B20D80818A3021F084E08093B60DE2
:1008D00008950E940E1090939F0D80939E0D81E0CD
:1008E00008950E94C10C2091B60D211107C0E0911E
:1008F000B10DF091B20D20812A3021F484E0809373
:10090000B60D0895892B11F086E0089582E00895D0
:10091000BF92CF92DF92EF92FF920F931F93CF93EC
:10092000DF930E942610E091B10DF091B20DD080BE
:100930008FEB8D0D8A3110F087E00FC03196F09368
:10094000B20DE093B10D0E942610E091B10DF0912F
:10095000B20D80818D3329F08AE08093B60D84E05A
:1009600079C03196F093B20DE093B10D0E9426103C
:100970001092B60D0E94C10C7C018091B60D8111C0
:10098000EECF83E995E00E94810B811124C00E9483
:10099000C10C8C018091B60D8111E1CF8EE895E0FC
:1009A0000E94810B811109C00E94C10C2091B60DDB
:1009B0002111D5CFB82EC92E03C0BB24B394C12CAE
:1009C0000E942610C091B10DD091B20D28812A301D
:1009D00021F02A3311F082E0C0CF8091B60D811151
:1009E00036C02A30A1F5E091A50DF091A60D9F012A
:1009F000265F3F4F4091AD0D5091AE0D2417350746
:100A000010F483E0AACF3A97F093A60DE093A50DDA
:100A10002D2D30E021543048220F331FA091B40D0A
:100A2000B091B50DA20FB31FED92FC9286E48083C6
:100A3000D18213830283B482C582D187C08780911B
:100A40009E0D90919F0D9783868383E003C084E081
:100A50008093B60DDF91CF911F910F91FF90EF9092
:100A6000DF90CF90BF9008951092B60D0E94C10CF8
:100A70009093A10D8093A00D8091B60D811132C08D
:100A8000A091B10DB091B20D8C918A3059F5E091E1
:100A9000A50DF091A60DCF0106962091AD0D3091D8
:100AA000AE0D8217930728F483E08093B60D84E09F
:100AB00008953697F093A60DE093A50D87E490E096
:100AC00091838083B583A48380919E0D90919F0D27
:100AD000938382830E940E1090939F0D80939E0DAE
:100AE00081E0089584E08093B60D08950E94261059
:100AF000E091B10DF091B20D808181548A3110F0F6
:100B000087E011C03196F093B20DE093B10D0E94D1
:100B10002610E091B10DF091B20D80818A3339F049
:100B20008A3029F082E08093B60D84E0089580E059
:100B300008952091A50D3091A60DA091B10DB09111
:100B4000B20DF90111979DE0ED39F90708F057C092
:100B500090819634D1F0973409F054C08C3099F4D8
:100B60008281938190939F0D80939E0D84819581C6
:100B70009093B20D8093B10D2A5F3F4F3093A60D35
:100B80002093A50D38C03696DECF8330B1F59C9109
:100B90004181941332C0892F90E081549048880F8E
:100BA000991FA091B40DB091B50DA80FB91F8D91EB
:100BB0009C91119724813581820F931F8D939C9373
:100BC00024813581232B91F0228133812817390725
:100BD00068F0808591859093B20D8093B10D8681E8
:100BE000978190939F0D80939E0D05C03A96F09348
:100BF000A60DE093A50D83E008953A96A4CF88E072
:100C00008093B60D84E00895CF93DF93CAEBDDE0C7
:100C10006881798188EC90E00E9433170E948C08EB
:100C20006881798189E693E00E94F0038FE491E086
:100C30009093A30D8093A20D85E0DF91CF9108954D
:100C40006091BA0D7091BB0D89EC90E00E94331752
:100C50000E948C0883E008950E94C10C2091B60D7B
:100C600021110BC08038910520F084E18093B60DEE
:100C700004C00E94410982E0089584E008950E9422
:100C8000C10C2091B60D21110BC08038910520F0C8
:100C900084E18093B60D04C00E94560982E0089555
:100CA00084E00895CF93DF930E94C10CEC01809102
:100CB000B60D81111DC0C831D105B8F4E091B10D58
:100CC000F091B20D80818C3211F082E00FC031962C
:100CD000F093B20DE093B10D0E94C10C2091B60DBE
:100CE000211106C08032910528F080E18093B60D75
:100CF00084E005C0682F8C2F0E946B0982E0DF9191
:100D0000CF910895E091B10DF091B20D80818A33B9
:100D100081F48091BA0D9091BB0D0E94E103809106
:100D2000B10D9091B20D01969093B20D8093B10DDB
:100D300048C08A3009F44BC00E9426100E941D044E
:100D400081111BC0E091B10DF091B20D8081823212
:100D500011F0873221F484E08093B60D089510924B
:100D6000B60D0E94C10C2091B60D211132C06091C8
:100D7000BA0D7091BB0D0E948203E091B10DF0910C
:100D8000B20D80818C3231F43196F093B20DE09344
:100D9000B10DD2CF8B3359F481818A3011F08A336F
:100DA00091F43196F093B20DE093B10D0AC08A3000
:100DB00011F08A3341F48091BA0D9091BB0D0E94DD
:100DC000E10383E0089582E08093B60D02C082E0E3
:100DD000089584E008950F931F93CF93DF930E94AB
:100DE000C10CEC018091B60D811136C0CF3FD10509
:100DF00009F0B0F4E091B10DF091B20D80818C3228
:100E0000C1F43196F093B20DE093B10D0E94C10C84
:100E10008C018091B60D81111FC0003F110510F0AB
:100E200080E118C0E091B10DF091B20D80818C325B
:100E300011F082E00FC03196F093B20DE093B10D46
:100E40000E94C10C2091B60D211106C08038910579
:100E500028F084E18093B60D84E006C0482F602F0F
:100E60008C2F0E94890982E0DF91CF911F910F9111
:100E70000895CF93C82F8A3019F48DE00E94390766
:100E80008091C00085FFFCCFC093C60080E090E059
:100E9000CF9108958091C00087FFFCCF8091C6005C
:100EA00090E0089520914A01211105C08FE090E063
:100EB0000E945610F7CF90913701E92FF0E0E65CE1
:100EC000FE4F80819F5F90933701215020934A010C
:100ED000903111F41092370190E00895682F8091BD
:100EE000AF0D9091B00D9C012F5F3F4F3093B00D2F
:100EF0002093AF0D0E94531980E090E008958091F7
:100F0000AF0D9091B00D9C012F5F3F4F3093B00D0E
:100F10002093AF0D0E944B1990E0089588B94E9927
:100F2000FECF5F9A4E9BFECF5F986EE071E08830F7
:100F300079F488E090E00E9433176EE071E080E27F
:100F400090E00E9433176EE071E088E090E003C00B
:100F5000992787FD90950E94331780E090E00895CF
:100F600022982A9AEA9A539852985B9A5A9A82E05F
:100F700084BD15BC94E697BD80936E001092B30DAE
:100F80009BE090934B018093690010924C01E89A8A
:100F900078940895CF93E898C4E628988EEE92E06E
:100FA0000E946110289A84EF91E00E946110C15064
:100FB000A1F7E89ACF91089590914A01903198F461
:100FC00020913801E22FF0E0E65CFE4F808381E063
:100FD000820F809338019F5F90934A01803129F4FA
:100FE0001092380108950C94CA0708959091390120
:100FF00090FD84C0873751F158F4843151F118F4D1
:10100000823149F12AC08835F9F0893521F125C0AE
:10101000803EA9F020F48A3A09F47DC01EC0803FCA
:1010200081F08C3FD1F46091BA0D7091BB0D82EBD1
:1010300091E00E94F0030E94CA070C94CA079260D4
:1010400068C09D7F916065C080E201C088E089270B
:1010500042C094605EC090615CC092FF1AC0813251
:1010600021F481E08093B30D0895843329F49B7FAC
:101070009093390187E040C08B3411F48CE03CC080
:101080008C3111F481E038C0843209F044C082E030
:1010900033C091FF23C08A3511F48DE017C0853726
:1010A00011F484E013C0823711F485E00FC08B3651
:1010B00011F480E10BC0843711F481E107C08C3654
:1010C00011F481E003C0893619F482E00E94DC0744
:1010D000809139018D7F80933901089594FB2227F7
:1010E00020F995FD2E5F94E0899FF0011124E20F15
:1010F000F11DEE57FC4F84910C94DC07843131F0E4
:10110000893531F0823121F09E7F03C09A7F01C082
:101110009E7E9093390108956EE071E08BE190E03E
:101120000E9433176EE071E08BE590E00E94331768
:101130006EE071E080E390E00E9433176EE071E0B2
:101140008DE690E00E9433176EE071E08BE190E055
:101150000E9433176EE071E08BE590E00E94331738
:101160006EE071E088E490E00E9433176EE071E079
:101170008BE190E00E9433176EE071E08BE590E028
:101180000E9433176EE071E08AE490E00C9433170C
:10119000CF938CE191E09093B90D8093B80D90932B
:1011A000BB0D8093BA0D10927C0087E880937A0083
:1011B00080917A00806480937A0080917A0086FD25
:1011C000FCCF11B8CFEFC2B9209A289A0E94B0077D
:1011D000C7B95698579A5498559A1092C50085E108
:1011E0008093C40086E08093C20088E18093C100B0
:1011F000CF910C948C08FF920F931F93CF93DF93A2
:10120000C82FF62E6EE071E08BE190E00E9433175C
:101210006EE071E08BE590E00E9433171F92CF9350
:101220000EE211E01F930F93CEE0D1E0DF93CF9356
:101230000E942117BE018BE390E00E9433171F929A
:10124000FF921F930F93DF93CF930E9421178DB7C7
:101250009EB70C960FB6F8949EBF0FBE8DBFBE0111
:1012600088E490E0DF91CF911F910F91FF900C9453
:10127000331788B94C99FECF5D9A4C9BFECF5D9891
:1012800008951F93CF93DF93182FCAEBDDE0688199
:1012900079818EEC90E00E94331768817981812FEB
:1012A00090E0DF91CF911F910C9433171F93CF9350
:1012B000DF93182FCAEBDDE0688179818FEC90E035
:1012C0000E94331768817981812F90E0DF91CF915F
:1012D0001F910C9433170F931F93CF93DF93082F15
:1012E000162FCAEBDDE0688179818DEC90E00E94D9
:1012F000331768817981802F90E00E9433176881CD
:101300007981812F90E0DF91CF911F910F910C9403
:101310003317EF92FF920F931F93CF93DF931F9298
:10132000CDB7DEB7082F162F8AEBE82E8DE0F82E0A
:10133000F701608171818AEC90E049830E94331744
:10134000F70160817181802F90E00E943317F701CF
:1013500060817181812F90E00E943317F7016081D5
:1013600071814981842F90E00F90DF91CF911F917F
:101370000F91FF90EF900C9433171F920F920FB6BE
:101380000F9211248F9381E08093B30DEA988F918F
:101390000F900FBE0F901F9018951F920F920FB6CF
:1013A0000F9211248F938BE080934B0115BC8F918A
:1013B0000F900FBE0F901F9018951F920F920FB6AF
:1013C0000F9211242F933F934F935F936F937F93CB
:1013D0008F939F93AF93BF93EF93FF9399B1209116
:1013E0004C0180914B0121111AC08B3011F485E022
:1013F00085BD80914B018350883050F48091360137
:1014000086958093360193FF03C0806880933601F0
:1014100083E08093690081E080934C0111C081508A
:1014200080934B01811107C0809136010E94F6071D
:101430008BE080934B0182E08093690010924C0115
:10144000FF91EF91BF91AF919F918F917F916F919C
:101450005F914F913F912F910F900FBE0F901F9072
:1014600018958FEC0E94390983E008958EEC0E9454
:10147000390983E008950E9426100E94C10C209132
:10148000B60D211122C08837910599F038F4CC9718
:10149000F1F48CEC0E94390980E014C08639910582
:1014A00069F0843B910599F48CEC0E94390988E13C
:1014B00009C08CEC0E94390988E004C08CEC0E94C1
:1014C000390980E10E94390902C084E0089583E06F
:1014D0000895CF93DF930E9426101092B60DE091ED
:1014E000B10DF091B20DC081C23231F0C73221F09E
:1014F00082E08093B60D26C03196F093B20DE09352
:10150000B10DD4E009C08091B10D9091B20D01965A
:101510009093B20D8093B10DE091B10DF091B20DA9
:1015200080818C1709F449C0893571F489EC0E94D7
:1015300039090E94C10B8091B60D882321F388ECF4
:101540000E94390984E03FC08A3580F4853431F146
:1015500030F4833409F1F0F4813441F32BC08E343C
:10156000C9F08835C9F08D3429F518C08536B1F039
:1015700030F4833689F070F48136C1F21BC08E36A8
:1015800049F018F48D3651F015C0883729F08937A5
:1015900069F210C08AECCBCF8BECC9CF8DEC0E94E6
:1015A00039090E94C10B8091B60D8111C4CF0E94F0
:1015B000D70BC1CFD093B60DBECF3196F093B20DFD
:1015C000E093B10D83E0DF91CF910895CF93DF9346
:1015D0001092B00D1092AF0DC0E0D8E080E091E025
:1015E0000E94E3168823D9F06091BA0D7091BB0D6B
:1015F00020EE280F2F3538F08A3029F08D3019F081
:101600008FE390E001C090E00E943317219720976C
:1016100029F78091BA0D9091BB0D0E94E10382E001
:10162000DF91CF910895CF93DF931092B00D109278
:10163000AF0DC0E0D0E060E071E080E090E00E949B
:101640003317CE018F7799278034910541F460914B
:10165000BA0D7091BB0D8EE290E00E943317219677
:10166000CF3F87E0D80739F78091BA0D9091BB0D35
:101670000E94E10382E0DF91CF9108951092B00DB6
:101680001092AF0D80E091E00E94E31680538A3003
:1016900080F41092B00D1092AF0D8FE491E0909312
:1016A000A30D8093A20D8091A40D88608093A40D5A
:1016B00003C089E08093B60D84E00895CF93DF9353
:1016C0001092B00D1092AF0D0E940E10EC0180919F
:1016D000A20D9091A30D60E071E0C817D90749F001
:1016E000CE010E94FA038A8190E00396C80FD91FA9
:1016F000EECF80E090E00E94331782E0DF91CF913F
:1017000008951F93CF93DF93EC0120E030E010E0C9
:10171000FE018491882381F14091B10D5091B20D69
:10172000FA01E20FF31F8081FE019491891304C036
:101730002F5F3F4F2196ECCFFE016491E82FF0E040
:10174000E058FF4F70E0E617F70759F42F5F3F4F5F
:10175000240F351F3093B20D2093B10D0E94261037
:101760000BC0FE018491219687FFFBCF1F5F0E9473
:10177000261020E030E0CCCF812FDF91CF911F9158
:101780000895E091B10DF091B20DCF0101969093C3
:10179000B20D8093B10D81819FEC980F943018F4B5
:1017A00080530C94390984E08093B60D08951F93FB
:1017B000CF93DF93C4E0DCE04091B10D5091B20DC6
:1017C000CA0101969093B20D8093B10DFA01618127
:1017D0008EEC860F8630A8F460539A012E5F3F4F3F
:1017E0003093B20D2093B10D828190E08154910924
:1017F0008033910508F06AC0825C9F4FFC010C9415
:101800006B16623211F0673229F45093B20D409397
:10181000B10DB3C084E08093B60DAFC093E065C056
:10182000CA0103969093B20D8093B10DFA018381A2
:10183000833209F451C03093B20D2093B10D91E081
:1018400054C0CA0103969093B20D8093B10DFA0172
:1018500083818F7D823409F441C03093B20D20938F
:10186000B10D95E042C0CA0103969093B20D8093EA
:10187000B10DFA018381833299F13093B20D209337
:10188000B10D96E032C0CA0103969093B20D8093D9
:10189000B10DFA018381833229F13093B20D209387
:1018A000B10D98E022C0CA0103969093B20D8093C7
:1018B000B10DFA0183818F7D8234B1F03093B20D86
:1018C0002093B10D9CE011C09DE00FC0C093B60DF8
:1018D00090E00BC09AE009C092E007C094E005C018
:1018E00097E003C099E001C09BE0E091B10DF09159
:1018F000B20D9F012F5F3F4F3093B20D2093B10D7A
:1019000081814FEC480F483010F4805303C0C093DE
:10191000B60D80E0AF014E5F5F4F5093B20D409324
:10192000B10D42814D3271F04D3321F04B3221F433
:1019300021E009C023E007C03093B20D2093B10D20
:1019400020E001C022E0382F392B322BB1F09D303E
:1019500041F06250192F6D9F100D11241150110F7D
:1019600001C010E98150F0E42F9F800D11240E94E6
:101970003909812F0E9439091FCFDF91CF911F9123
:101980000895CF93DF930E947E0EEC018091B60DF7
:10199000811143C086E995E00E94810B8730E9F10F
:1019A000482F50E047305105D0F5FA01E259FF4F7A
:1019B0000C946B160E947E0E31E020E0C817D90708
:1019C0004CF527C00E947E0E31E020E0C817D907F1
:1019D00009F51FC00E947E0E31E020E08C179D07A4
:1019E000CCF017C00E947E0E31E020E0C817D90766
:1019F00081F410C00E947E0E31E020E08C179D071C
:101A00004CF407C00E947E0E31E020E0C817D907D1
:101A10000CF030E0832F922F04C0CE0102C080E092
:101A200090E0DF91CF910895EF92FF920F931F9373
:101A3000CF93DF931F92CDB7DEB701E010E00E9495
:101A40002610E091B10DF091B20D80818D3249F4F4
:101A50003196F093B20DE093B10D119501951109F6
:101A6000EECF803331F43196F093B20DE093B10DA7
:101A7000FAC09FEC980F9930E0F480E090E03AE0F3
:101A8000A091B10DB091B20DAC01349FC001359F52
:101A9000900D1124FD012191820F911DC097F093AB
:101AA000B20DE093B10D11962C9120532A3040F3E2
:101AB000DCC09FEB980F9A3108F0B5C0918191542A
:101AC0009A31B0F090E081549048880F991FA0910E
:101AD000B40DB091B50DA80FB91F3C9111962C9182
:101AE0003196F093B20DE093B10D832F922FBDC0CC
:101AF00082EA95E00E94810B282F853011F48EE058
:101B0000B0C0E091B10DF091B20D8081883211F03A
:101B100085E0A7C03196F093B20DE093B10D298313
:101B20000E94C10C7C01E091B10DF091B20D808159
:101B30002981893209F094C03196F093B20DE09377
:101B4000B10D2230F9F028F4222341F0213099F030
:101B50006AC02330E9F02430D1F165C050E5E516C4
:101B60005CE0F50614F083E17CC0F701E15BFE4F19
:101B7000808190E07AC0C701F7FE77C0919581958A
:101B8000910973C00E94D316B7010E9457166DC009
:101B900088E0E816F10410F08CE063C081E090E08A
:101BA00002C0880F991FEA94E2F721B130E02823A0
:101BB0003923232B29F520B130E02823392351E0A4
:101BC00040E0232B09F450E0852F942F4EC0A8E06D
:101BD000EA16F10408F7E0927C0021E030E002C050
:101BE000220F331FEA94E2F742B192B1822F80951F
:101BF000892382B981B190E082239323892B11F04C
:101C00008DE02FC080917A00806480937A0080916B
:101C10007A0086FDFCCF42B98091780090917900DE
:101C20009695879522C0E091B10DF091B20D80811B
:101C30008832B1F43196F093B20DE093B10D0E9469
:101C4000C10C9C01E091B10DF091B20D80818932FF
:101C500039F43196F093B20DE093B10DC90105C08E
:101C600086E08093B60D80E090E0FC010E9FC001FD
:101C70000F9F900D1E9F900D11240F90DF91CF911B
:101C80001F910F91FF90EF9008951F93CF93DF93D3
:101C90000E94140DEC010E9426101BE0E091B10D92
:101CA000F091B20D80818A3281F43196F093B20DB9
:101CB000E093B10D0E94140D9E01289FE001299F21
:101CC000D00D389FD00D1124E9CF8F3291F4319689
:101CD000F093B20DE093B10D0E94140DBC0100977A
:101CE00029F0CE010E945716EB01D8CF1093B60D04
:101CF000D5CFCE01DF91CF911F910895CF93DF9380
:101D0000E091B10DF091B20D80818D3231F08B32C6
:101D100021F00E94450EEC0102C0C0E0D0E0E0914D
:101D2000B10DF091B20D80818D3251F43196F09366
:101D3000B20DE093B10D0E94450EC81BD90BEFCF39
:101D40008B3251F43196F093B20DE093B10D0E94B5
:101D5000450EC80FD91FE3CFCE01DF91CF91089573
:101D6000EF92FF921F93CF93DF93C091A20DD0917A
:101D7000A30D2296D093B20DC093B10D8091A40D06
:101D800083FD10C010EE6AC0E091B10DF091B20D6C
:101D900080838091B10D9091B20D01969093B20D18
:101DA0008093B10D80E091E00E94E3169C013327FF
:101DB0002A30310559F02D30310541F0232B21F720
:101DC0008091A40D877F8093A40D0DC1E091B10D8A
:101DD000F091B20D8AE0808306C18091B10D90919F
:101DE000B20D8C179D07D0F56091BA0D7091BB0DA7
:101DF00082E090E00E9433174091A20D5091A30D14
:101E0000CE01841B950B9EEFF92EF80EEF2CE29479
:101E1000E69427E0E2222091B10D3091B20D241B0F
:101E2000350B22502295269527706091BA0D70913E
:101E3000BB0D8E2D821B90E001960E94331760919E
:101E4000BA0D7091BB0D8F2DE19E800D112490E095
:101E50000E943317D093B20DC093B10D8091B80D8D
:101E60009091B90D0E94E3167C019927FC013197EE
:101E7000E131F10508F08DC0EB58FF4F0C946B1663
:101E80008091A20D9091A30D02962091B10D3091F9
:101E9000B20D8217930710F76091BA0D7091BB0DC8
:101EA00081E090E00E9433176091BA0D7091BB0DF4
:101EB0008091B10D9091B20D2091A20D3091A30DA2
:101EC000821B930B825082958695877090E00196D5
:101ED0000E9433178091A20D9091A30D02961AC013
:101EE0008091A20D9091A30D02962091B10D309199
:101EF000B20D8217930708F059C06091BA0D709126
:101F0000BB0D80E190E00E9433178091B10D90915C
:101F1000B20D01979093B20D8093B10D9FCF809138
:101F2000B10D9091B20D8C179D0708F03FC001963E
:101F30009093B20D8093B10D6091BA0D7091BB0D6D
:101F400081E190E00E94331789CFD093B20DC09306
:101F5000B10D8AE088838091BA0D9091BB0DDF911D
:101F6000CF911F91FF90EF900C94E1038091A20D0F
:101F70009091A30D02962091B10D3091B20D821770
:101F80009307A0F46091BA0D7091BB0D88E090E0CA
:101F9000BACF2091B40D3091B50D22503109409146
:101FA000B10D5091B20D4217530719F40E94CA07A0
:101FB00055CF6091BA0D7091BB0D0E943317E0911F
:101FC000B10DF091B20DE0828091B10D9091B20D02
:101FD00001969093B20D8093B10DC817D90708F000
:101FE0003DCFEC013BCFDF91CF911F91FF90EF9060
:101FF0000895E091A50DF091A60D3197F093A60DEF
:10200000E093A50D80830895E091A50DF091A60DB4
:102010008191F093A60DE093A50D08952091A20D56
:102020003091A30D4091A00D5091A10D8FE491E04E
:102030008217930751F0FC01608171816417750765
:1020400020F46281860F911DF3CF0895E091B10DC8
:10205000F091B20D8081803231F43196F093B20D5F
:10206000E093B10DF3CF8930C1F30895E091A20D53
:10207000F091A30D329690E080818A30B1F08917FB
:1020800069F0823269F0873269F091110CC02FE952
:10209000280F2A3140F48052808305C090E003C0AD
:1020A00092E201C097E23196E7CF0895009741F0A0
:1020B000E7E8F3E13197F1F700C000000197F6CFB0
:1020C0000895009731F026E02A95F1F700C00197B6
:1020D000F8CF08958091B30D811104C08091C6009E
:1020E000833021F41092B30D81E0089580E00895CB
:1020F000FC0120812D3219F4019641E001C040E03D
:10210000FC0180E090E05AE0219130ED320F3A304E
:1021100060F4BC01569FC001579F900D112430E020
:1021200020533109820F931FEFCF442319F091956B
:10213000819591090895AF92BF92CF92DF92EF926D
:10214000FF920F931F93CF93DF930E942610E0918D
:10215000B10DF091B20DF0808FEB8F0D8A3110F040
:1021600087E015C0D090B40DE090B50D3196F09396
:10217000B20DE093B10D0E942610E091B10DF091E7
:10218000B20D80818A3039F08A3329F082E0809361
:10219000B60D84E07CC01092A70DEA9AA12CC7EA84
:1021A000DDE08AE0B82E8091B80D9091B90D0E94C3
:1021B000E3168C01C82E8091B30D813009F466C0FE
:1021C000C80199278A309105E1F024F488309105FF
:1021D000D1F02CC08D309105A1F08D32910531F5F3
:1021E000A1103AC06091BA0D7091BB0D8DE290E0E4
:1021F0000E943317FE0101931982EF01AA24A394D0
:102200002BC0B88229C02DE0C73AD20709F018F4D4
:102210000E94CA0721C06091BA0D7091BB0D88E081
:1022200090E00E9433172197AA9416C020ED200F4A
:102230002A3090F425E02A1560F06091BA0D709173
:10224000BB0D0E943317FE010193A3941982EF0185
:1022500006C00E94CA0703C08AE0C81619F02DE024
:10226000C212A1CF8091BA0D9091BB0D0E94E103E3
:1022700087EA9DE00E947810ED2DFE2DEF0DF11DF7
:10228000EF0DF11DE258F1099183808383E0DF9126
:10229000CF911F910F91FF90EF90DF90CF90BF9063
:1022A000AF9008951F93CF93DF93E091B10DF0911C
:1022B000B20DC0818FEB8C0F8A31F0F51091B40D07
:1022C000D091B50DCF0101969093B20D8093B10DD1
:1022D000818181548A3148F48FEF8093B60D329614
:1022E000F093B20DE093B10D37C00E942610E0913B
:1022F000B10DF091B20D80818D3311F08FE01DC0D2
:102300008091B60D8F3F11F481E117C03196F093A3
:10231000B20DE093B10D0E9426100E94C10C2091D5
:10232000B60D211119C0E091B10DF091B20D2081CF
:102330002A3031F02A3321F082E08093B60D0CC0B0
:10234000E12FFD2FEC0FF11DEC0FF11DE258F1090B
:102350009183808383E001C084E0DF91CF911F915E
:102360000895CF93DF930E94C10CEC018091B60DCC
:1023700081112EC0C0358CE0D80714F083E126C04F
:102380000E942610E091B10DF091B20D80818C3247
:10239000E1F43196F093B20DE093B10D0E94261056
:1023A0000E94C10C2091B60D211112C08F3F9105E2
:1023B00019F010F082E10AC0E091B10DF091B20D78
:1023C00020812A3039F02A3329F082E08093B60D3B
:1023D00084E004C0C15BDE4F888383E0DF91CF914E
:1023E0000895CF93DF930E9417139093A10D8093CC
:1023F000A00DE091B10DF091B20D80818A3021F0F5
:1024000084E08093B60D15C00E940E10EC018091FF
:10241000A20D9091A30DC817D90759F06091BA0D7C
:102420007091BB0DCE010E94FA038A81C80FD11DA5
:10243000EECF84E0DF91CF910895CF93DF93CAEB85
:10244000DDE0688179818091B40D9091B50D209186
:10245000A20D3091A30D821B930B0E948203688111
:1024600079818EE593E00E94F0036881798180E0B4
:1024700098E00E9482036881798183E593E00E945D
:10248000F00383E0DF91CF9108958091B20090E056
:102490000E94D81683E008951092B60D0E94C10CD8
:1024A0002091B60D211104C00E94D81683E0089532
:1024B00084E00895CF93DF93EA9ACAEBDDE0688168
:1024C000798180ED90E00E9433176881798182EDF7
:1024D00090E00E9433178FE491E090939F0D8093DA
:1024E0009E0D81E0DF91CF910895E091B10DF091C3
:1024F000B20D80818A3029F082E08093B60D84E0AD
:1025000008958091A20D9091A30D90939F0D8093BB
:102510009E0D81E00895E091B10DF091B20D8081A2
:102520008A3029F082E08093B60D84E008958FE42C
:1025300091E09093A30D8093A20D85E00895CF9331
:10254000DF930E94C10CEC018091B60D81112FC068
:10255000C830D10510F08CE028C0E091B10DF091A9
:10256000B20D80818C3201F53196F093B20DE0937B
:10257000B10D0E94C10C2091B60D211118C021E0AF
:1025800030E00C2E01C0220F0A94EAF7009731F0D8
:10259000019751F481B1822B81B904C081B120959A
:1025A000282321B982E004C082E08093B60D84E044
:1025B000DF91CF910895CF93DF930E94C10CEC017E
:1025C0008091B60D81112FC0C830D10510F08CE07C
:1025D00028C0E091B10DF091B20D80818C3201F5EF
:1025E0003196F093B20DE093B10D0E94C10C209191
:1025F000B60D211118C021E030E00C2E01C0220FD1
:102600000A94EAF7009731F0019751F482B1822BD6
:1026100082B904C082B12095282322B982E004C087
:1026200082E08093B60D84E0DF91CF9108950E94FF
:10263000261080E090E05AE0E091B10DF091B20DEB
:10264000408120ED240F2A30A0F4893929E1920736
:1026500088F4589F9001599F300D1124842F90E0E9
:10266000C097820F931F3196F093B20DE093B10D96
:10267000E3CF08958FEF9FEF0895CF93DF938FE41B
:1026800091E09093A30D8093A20D8EE99DE090932D
:10269000A60D8093A50DCAEBDDE06881798187EEF8
:1026A0009BE00E948203688179818EE593E00E941D
:1026B000F0036881798180E098E00E94820368815C
:1026C000798183E593E00E94F00388819981DF910D
:1026D000CF910C94E103C4E08EE9A82E8DE0B82ED2
:1026E000D9E00FE411E092E5E92E91E0F92E20E126
:1026F000922E31E3432E31E0532E4EE5C42EC430EA
:1027000009F050C06091BA0D7091BB0D81ED90E061
:102710000E9433176091BA0D7091BB0D83ED90E06C
:102720000E94331710929F0D10929E0DB092A60D2D
:10273000A092A50D6091BA0D7091BB0D88E393E056
:102740000E94F003C0E02EC04C5F4093B70DFC0127
:102750003397F093B20DE093B10D3183208332961D
:1027600040830E940E1090934E0180934D01209162
:10277000A20D3091A30D8217930709F08CC0E09150
:10278000B10DF091B20D83818A3061F0E0914D017D
:10279000F0914E012091B70D2111A1C0F0934E018F
:1027A000E0934D011092B60D8091A40D982F937077
:1027B00061F08C7F8093A40D10939F0D00939E0D6C
:1027C000F092B20DE092B10DDCC00E94B00E0E94FA
:1027D00036108091A20D9091A30D02969093B20DA8
:1027E0008093B10DE091B10DF091B20D80818A30EE
:1027F00031F03196F093B20DE093B10DF3CFE0914B
:10280000B40DF091B50D3197A091B10DB091B20D0D
:102810008C9180832091B10D3091B20D8091A20DE9
:102820009091A30D02962817390739F021503109EC
:102830003093B20D2093B10DE6CFF093B20DE0933B
:10284000B10D0E9417139093A10D8093A00D0E94CB
:1028500026102091A00D3091A10D2115310509F40C
:1028600080C02F3F8FEF380719F4D093B60D89C081
:102870001092B70D8091B10D9091B20D4091B70DAE
:10288000FC01E40FF11D50815A3009F45DCF4F5F18
:102890004093B70DF3CFDC016D917C91119740917E
:1028A000A00D5091A10D6417750709F068CF12961D
:1028B0004C911297FC01E40FF11D2E1B3F0BAF0151
:1028C000420F531FE417F50719F061916D93FACF8A
:1028D000820F931F9093A30D8093A20D50CF609110
:1028E000A20D7091A30D8091B10D9091B20D30E0C9
:1028F000861B970B2817390708F4C901AB01480F4D
:10290000591F9B012E1B3F0B1A012115310549F060
:10291000DB017E90BD01D1017E921D012150310964
:10292000F4CF8E0F9F1FE817F907B1F0A091B10DFA
:10293000B091B20D2C9121932091B10D3091B20D37
:102940002F5F3F4F3093B20D2093B10D2091B70D03
:1029500021502093B70DE7CF5093A30D4093A20DC4
:1029600019CF1092B30DE091A20DF091A30DCF01FC
:1029700002969093B20D8093B10D82818A3009F452
:1029800011CF8091B60D8111DFC00E946A1088239B
:1029900049F06091BA0D7091BB0D8BE393E00E94FA
:1029A000F003CFC01092B60D8DEB95E00E94810B25
:1029B00090E08F32910508F07CC0FC01EA57FF4F90
:1029C0000C946B160E94C10C0E94561089C00E9484
:1029D0008B1272C00E94CA0783C00E945A126CC038
:1029E0000E94710469C00E94540466C00E94310AAA
:1029F00063C00E94360A60C00E943B0A5DC00E940C
:102A0000690A5AC00E94751257C00E94F11154C041
:102A10000E941D1251C00E942C064EC00E943F060B
:102A20004BC00E9476059091B60D911145C083E090
:102A300004C00E94340540C08CE00E9499053CC04F
:102A40000E94451239C00E944C1236C00E94880470
:102A500033C00E949B1030C00E94B1112DC00E9453
:102A6000EB062AC00E94E60A27C00E94130B24C06E
:102A70008091A40D82608093A40D03C00E945E0B20
:102A80001BC00E943E0B18C00E94040615C00E9485
:102A9000820612C00E9452060FC00E9420060CC07F
:102AA0000E949F1209C00E94DB1206C00E945211B0
:102AB00003C09092B60D45C0843009F442C0853001
:102AC00009F441C0863009F460CF833039F50E94A3
:102AD0002610E091B10DF091B20D80818A3371F032
:102AE000E0919E0DF0919F0D309759F18281E80F92
:102AF000F11DF0939F0DE0939E0D12C0E091B10D7A
:102B0000F091B20D80818A3331F43196F093B20D99
:102B1000E093B10DF3CF0E94261037CF823001F33E
:102B200080919E0D90919F0D2091A20D3091A30D4B
:102B30008217930731F003969093B20D8093B10DF5
:102B400024CFC4E001C0C5E08091B60D882309F40C
:102B5000D6CD83E00E94410980E00E945609809111
:102B6000B60D90E0FC013197E431F10508F078C032
:102B7000EB54FF4F6091BA0D7091BB0D0C946B1626
:102B800087E193E06BC08AE093E00E94C9038091E3
:102B90009E0D90919F0D892BE9F05F924F920E94BC
:102BA0006517E091B10DF091B20D70800F900F900C
:102BB000BAE07B12C0826091BA0D7091BB0D80911A
:102BC0009E0D90919F0D0E94FA03E091B10DF0913E
:102BD000B20D70828091BA0D9091BB0D0E94E103FD
:102BE0003FC08BEF92E03AC086EE92E037C082E3BE
:102BF00093E002C08BE293E00E94F0036091BA0D73
:102C00007091BB0D82ED92E029C080EC92E026C06D
:102C10008BEA92E023C087E992E020C085E892E049
:102C20001DC084E792E01AC081E692E017C083E5F8
:102C300092E014C082E492E011C082E392E00EC000
:102C40008EE192E00BC088E092E008C081EF91E055
:102C500005C084EE91E002C08CEC91E00E94F0038C
:102C60008CE40E94410980E00E94560948CD0E94F0
:102C7000C8088CE40E94410980E00E9456096091D6
:102C8000BA0D7091BB0D89E693E00E94F0030E949B
:102C9000CA071092B00087E08093B10010927000D4
:102CA0000E943D130E946B1380E090E0089597FB13
:102CB000072E16F4009407D077FD09D00E947116F4
:102CC00007FC05D03EF4909581959F4F089570952F
:102CD00061957F4F0895EE0FFF1F0590F491E02D51
:102CE0000994AA1BBB1B51E107C0AA1FBB1FA61753
:102CF000B70710F0A61BB70B881F991F5A95A9F7A5
:102D000080959095BC01CD0108958F929F92AF92CE
:102D1000BF92CF92DF92EF92FF92CF93DF93EC01BD
:102D2000688179818A819B81611571058105910591
:102D300021F464E279ED8BE597E02DE133EF41E09A
:102D400050E00E94D91949015A019B01AC01A7EA40
:102D5000B1E40E94F8196B017C01ACEEB4EFA5015F
:102D600094010E94061AC60ED71EE81EF91EF7FE31
:102D700006C081E0C81AD108E10880E8F80AC882D4
:102D8000D982EA82FB82C6019F77DF91CF91FF90C3
:102D9000EF90DF90CF90BF90AF909F908F9008956D
:102DA0000E94851608958AE291E00E948516089592
:102DB000A0E0B0E080932A0190932B01A0932C0116
:102DC000B0932D010895CF93DF93EC012B8120FF69
:102DD00033C026FF0AC02F7B2B838E819F810196F3
:102DE0009F838E838A8190E029C022FF0FC0E881F3
:102DF000F9818081992787FD9095009719F42062C9
:102E00002B831AC03196F983E8830EC0EA85FB85CF
:102E1000099597FF09C02B81019611F480E101C04B
:102E200080E2822B8B8308C02E813F812F5F3F4F32
:102E30003F832E83992702C08FEF9FEFDF91CF91C1
:102E40000895A0E0B0E0E7E2F7E10C941B1AAE01B0
:102E5000475F5F4F6F8178858D819E810E947917D2
:102E6000E2E00C94371A0F931F93CF93DF93182F40
:102E7000092FEB018B8181FD03C08FEF9FEF20C0F5
:102E800082FF10C04E815F812C813D814217530724
:102E90007CF4E881F9819F012F5F3F4F39832883BC
:102EA000108306C0E885F985812F0995892B29F7BC
:102EB0002E813F812F5F3F4F3F832E83812F902FA5
:102EC000DF91CF911F910F910895A0E0B0E0EBE664
:102ED000F7E10C941B1AFE01359661917191AF01D7
:102EE0008091BA0D9091BB0D0E947917E2E00C948D
:102EF000371AACE0B0E0EFE7F7E10C940B1A7C0175
:102F00006B018A01FC0117821682838181FFBDC19A
:102F1000CE0101964C01F7019381F60193FD859155
:102F200093FF81916F01882309F4ABC1853239F495
:102F300093FD859193FF81916F01853229F4B7014B
:102F400090E00E943317E7CF512C312C20E0203243
:102F5000A0F48B3269F030F4803259F0833269F496
:102F600020612CC08D3239F0803339F4216026C0C5
:102F70002260246023C0286021C027FD27C030EDD7
:102F8000380F3A3078F426FF06C0FAE05F9E300D25
:102F90001124532E13C08AE0389E300D1124332E95
:102FA00020620CC08E3221F426FD6BC1206406C065
:102FB0008C3611F4206802C0883641F4F60193FD86
:102FC000859193FF81916F018111C1CF982F9F7DD2
:102FD0009554933028F40C5F1F4FFFE3F9830DC025
:102FE000833631F0833771F0833509F05BC022C03E
:102FF000F801808189830E5F1F4F44244394512C34
:10300000540115C03801F2E06F0E711CF801A08068
:10301000B18026FF03C0652D70E002C06FEF7FEF27
:10302000C5012C870E9470192C0183012C852F77F4
:10303000222E17C03801F2E06F0E711CF801A0803B
:10304000B18026FF03C0652D70E002C06FEF7FEFF7
:10305000C5012C870E9465192C012C852068222E21
:10306000830123FC1BC0832D90E048165906B0F461
:10307000B70180E290E00E9433173A94F4CFF50153
:1030800027FC859127FE81915F01B70190E00E94A6
:10309000331731103A94F1E04F1A5108411451049A
:1030A00071F7E5C0843611F0893639F5F80127FF4C
:1030B00007C060817181828193810C5F1F4F08C0BE
:1030C00060817181882777FD8095982F0E5F1F4F53
:1030D0002F76B22E97FF09C09095809570956195D7
:1030E0007F4F8F4F9F4F2068B22E2AE030E0A4011F
:1030F0000E947B19A82EA81844C0853729F42F7E7A
:10310000B22E2AE030E025C0F22FF97FBF2E8F3695
:10311000C1F018F4883579F0B4C0803719F08837D9
:1031200021F0AFC02F2F2061B22EB4FE0DC08B2D29
:103130008460B82E09C024FF0AC09F2F9660B92E64
:1031400006C028E030E005C020E130E002C020E108
:1031500032E0F801B7FE07C06081718182819381FE
:103160000C5F1F4F06C06081718180E090E00E5FB0
:103170001F4FA4010E947B19A82EA818FB2DFF77D2
:10318000BF2EB6FE0BC02B2D2E7FA51450F4B4FE1F
:103190000AC0B2FC08C02B2D2E7E05C07A2C2B2D28
:1031A00003C07A2C01C0752C24FF0DC0FE01EA0D6E
:1031B000F11D8081803311F4297E09C022FF06C0F1
:1031C0007394739404C0822F867809F0739423FD5E
:1031D00013C020FF06C05A2C731418F4530C571850
:1031E000732C731468F4B70180E290E02C870E947E
:1031F000331773942C85F5CF731410F4371801C06E
:10320000312C24FF12C0B70180E390E02C870E948C
:1032100033172C8522FF17C021FF03C088E590E0FB
:1032200002C088E790E0B7010CC0822F867859F081
:1032300021FD02C080E201C08BE227FD8DE2B701D3
:1032400090E00E943317A51438F4B70180E390E0B2
:103250000E9433175A94F7CFAA94F401EA0DF11D96
:103260008081B70190E00E943317A110F5CF332081
:1032700009F451CEB70180E290E00E9433173A94EE
:10328000F6CFF7018681978102C08FEF9FEF2C96D2
:10329000E2E10C94271AF999FECF92BD81BDF89A0C
:1032A000992780B50895262FF999FECF92BD81BD4B
:1032B000F89A019700B4021639F01FBA20BD0FB674
:1032C000F894FA9AF99A0FBE0895FC01059061509E
:1032D00070400110D8F7809590958E0F9F1F08952C
:1032E000FC016150704001900110D8F780959095D5
:1032F0008E0F9F1F0895FA01AA27283051F120311F
:1033000081F1E8946F936E7F6E5F7F4F8F4F9F4F79
:10331000AF4FB1E03ED0B4E03CD0670F781F891FBB
:103320009A1FA11D680F791F8A1F911DA11D6A0F89
:10333000711D811D911DA11D20D009F468943F913C
:103340002AE0269F11243019305D3193DEF6CF013B
:103350000895462F4770405D4193B3E00FD0C9F701
:10336000F6CF462F4F70405D4A3318F0495D31FD6E
:103370004052419302D0A9F7EACFB4E0A6959795C1
:10338000879577956795BA95C9F700976105710597
:1033900008959B01AC010A2E0694579547953795E1
:1033A0002795BA95C9F7620F731F841F951FA01D3B
:1033B0000895052E97FB1EF400940E94F01957FD06
:1033C00007D00E94421A07FC03D04EF40C94F01967
:1033D00050954095309521953F4F4F4F5F4F089541
:1033E00090958095709561957F4F8F4F9F4F089571
:1033F0000E94641AA59F900DB49F900DA49F800D0C
:10340000911D11240895B7FF0C94F8190E94F81922
:10341000821B930B08952F923F924F925F926F926F
:103420007F928F929F92AF92BF92CF92DF92EF9254
:10343000FF920F931F93CF93DF93CDB7DEB7CA1BD5
:10344000DB0B0FB6F894DEBF0FBECDBF09942A8800
:10345000398848885F846E847D848C849B84AA84A8
:10346000B984C884DF80EE80FD800C811B81AA8135
:10347000B981CE0FD11D0FB6F894DEBF0FBECDBF00
:10348000ED010895A1E21A2EAA1BBB1BFD010DC080
:10349000AA1FBB1FEE1FFF1FA217B307E407F50704
:1034A00020F0A21BB30BE40BF50B661F771F881FE0
:1034B000991F1A9469F760957095809590959B0176
:1034C000AC01BD01CF010895A29FB001B39FC0011F
:1034D000A39F700D811D1124911DB29F700D811D40
:0A34E0001124911D0895F894FFCF08
:1034EA0000000003000000006E077F0700000000D4
:1034FA0000030000000039074A070000000000032B
:10350A00000000008E075207000001000000256439
:06351A0000202D2D200011
:00000001FF
