:100000000C9447030C9423070C9464030C9403078B
:100010000C9464030C9464030C9464030C946403C4
:100020000C9464030C9464030C9464030C946403B4
:100030000C9464030C9464030C9464030C946403A4
:100040000C9413070C9464030C9464030C946403E1
:100050000C9464030C9464030C9464030C94640384
:100060000C9464030C9464030C9464030C94640374
:100070000C9464030C9464030C946403770B600B7E
:100080001D0B1B0B2E0B400B500B730B730B730BC9
:10009000730B730B730B730B730B710B730B730B72
:1000A000730B730B730B730B730B730B730B730B60
:1000B000730B730B730B730B730B730B770B600B5F
:1000C0001D0B1B0B2E0B400B500B730B730B730B89
:1000D000730B730B730B730B730B710BE70BEF0B42
:1000E000F70BFF0B070C0F0CEF0BFB0F2B10C610C1
:1000F000E90FE90FC610E70FA710C6109410C6103D
:10010000E90F9410C610C610DA0F7A10DA15BA1576
:10011000C215E6152D16C515C815CB15CE15D1156A
:10012000D415F015F315F715FA151B162416BF157F
:10013000FD150016BD151E16211603160616D71539
:10014000D715DD15E015E3151E16BF15BF15B5153E
:1001500009160C160F161516181632163216321608
:100160003216321627162A162D169F16A216D616E6
:10017000D916DC16DF16EA16ED16F016F316F6168B
:10018000F916FC16FF160217051708170B170E179E
:100190001117000000000000000000000000000037
:1001A00000000000000000000000607E607E000093
:1001B000000000000000000000000000000000003F
:1001C00000000000000009090909607E607E00004F
:1001D000000000000000000000000000000000001F
:1001E00000000000000071515171312131210000E7
:1001F000000000000000000000007A5A5A7A735391
:100200005373614141617757577732403240000064
:10021000000000000000634343637858587864444A
:100220004464654545653424342433233323000076
:1002300000000000000020202020765656766646FA
:100240004666745454747252527235253525000036
:100250000000000000006E4E4E6E6242426268482E
:1002600048686747476779595979365E365E0000B6
:100270000000000000002C3C2C3C6D4D4D6D6A4A86
:100280004A6A7555557537263726382A382A0000A8
:100290000000000000002C3C2C3C6B4B4B6B694970
:1002A00049696F4F4F6F30293029392839280000AC
:1002B0000000000000002E3E2E3E2F3F2F3F6C4CD2
:1002C0004C6C3B3A3B3A705050702D5F2D5F0000F4
:1002D000000000000000000000002722272200008C
:1002E00000005B7B5B7B3D2B3D2B00000000000092
:1002F000000000000000000000000D0D0D0D5D7DF0
:100300005D7D000000005C7C5C7C00000000000063
:100310000000000000003C3C3C3C000000000000ED
:1003200000000000000000000000080808080000AD
:100330000000000000003131313100000000343491
:100340003434373737370000000000000000000069
:100350000000303030302E2E2E2E323232323535F3
:10036000353536363636383838381B1B1B1B0000FF
:100370000000000000002B2B2B2B333333332D2DAB
:100380002D2D2A2A2A2A3939393900000000000087
:1003900000004B6579626F61726420636F6E6E65F9
:1003A00063746564207375636365737366756C6CE1
:1003B00079004B6579626F6172642073656C662D9C
:1003C00074657374206661696C656400484947C848
:1003D00048C94C4FD74CCF00535445D00054CF00A0
:1003E0003EBD3CBEBEBD3CBDBC21BD00504545CB65
:1003F0004142D3524EC450494E44524541C45049E3
:100400004E41524541C4004C4953D44E45D75255F4
:10041000CE4E4558D44C45D449C6474F54CF4D5085
:100420004C41D94D53544FD054454D50CF4D555359
:1004300049C3474F5355C25245545552CE52414E6F
:10044000444F4D495AC5524E44534545C45253D466
:10045000434CD35245CD464FD2494E5055D44245D8
:1004600045D05052494ED44C4F434154C5504F4B48
:10047000C5505345D453544FD0454EC44D45CD502F
:1004800045CE50415045D2BFA3A744454C41D94524
:100490004C4953D445464F524D41D44543484149B8
:1004A000CE45534156C5454C4F41C446494C45D3B2
:1004B00043464F524D41D44343484149CE435341B3
:1004C00056C5434C4F41C450494E4449D250494E01
:1004D0004457524954C5004578706563746564207B
:1004E000636F6C6F72205B302E2E3132375D004FA0
:1004F0007574206F662072616E676500457870655F
:10050000637465642062797465205B302E2E323509
:10051000355D00496E76616C69642076617269614F
:10052000626C65206E616D6500496E76616C696410
:1005300020636F6F7264696E6174657300556E6BD2
:100540006E6F776E20636F6D6D616E6400556E6BBC
:100550006E6F776E2066756E6374696F6E0050699A
:100560006E20492F4F206572726F7200496E76615E
:100570006C69642070696E205B302E2E375D0044FC
:1005800069766973696F6E206279207A65726F008F
:100590004F70657261746F72206578706563746501
:1005A0006400496E76616C6964206C696E65206ECA
:1005B000756D626572004A756D7020706F696E743A
:1005C000206E6F7420666F756E640056617269618B
:1005D000626C652065787065637465640070617233
:1005E000656E746865736973206D697373696E678E
:1005F00000556E6578706563746564206368617228
:10060000616374657200537461636B206F76657209
:10061000666C6F770053796E746178206572726FC3
:1006200072004E6F742079657420696D706C656D11
:10063000656E74656400526967687420004C656675
:100640007420004F4B00427265616B21002062797B
:1006500074657320617661696C61626C650020620B
:100660007974657320524F4D002062797465732050
:1006700052414D0057656C636F6D6520746F206E3D
:10068000737442415349432076302E3200001124C6
:100690001FBECFEFD0E1DEBFCDBF11E0A0E0B1E0E3
:1006A000E4EBF6E302C005900D92A633B107D9F74B
:1006B0002DE0A6E3B1E001C01D92AD3CB207E1F729
:1006C0000E941C170C94581B0C9400000E94CE0B27
:1006D0009093A00D80939F0D8091C30D811107C051
:1006E000E091A10DF091A20D80818A3021F084E08B
:1006F0008093C30D08950E94D20E9093B30D809302
:10070000B20D81E008950E94CE0B2091C30D2111FE
:1007100007C0E091A10DF091A20D20812A3021F4B3
:1007200084E08093C30D0895892B11F086E008952D
:1007300082E00895BF92CF92DF92EF92FF920F93E3
:100740001F93CF93DF930E94EC0EE091A10DF091E7
:10075000A20DD0808FEB8D0D8A3110F087E00FC095
:100760003196F093A20DE093A10D0E94EC0EE09162
:10077000A10DF091A20D80818D3329F08AE0809344
:10078000C30D84E079C03196F093A20DE093A10DE2
:100790000E94EC0E1092C30D0E94CE0B7C01809142
:1007A000C30D8111EECF8DED93E00E948E0A811171
:1007B00024C00E94CE0B8C018091C30D8111E1CF2A
:1007C00088ED93E00E948E0A811109C00E94CE0B31
:1007D0002091C30D2111D5CFB82EC92E03C0BB2443
:1007E000B394C12C0E94EC0EC091A10DD091A20D2A
:1007F00028812A3021F02A3311F082E0C0CF809185
:10080000C30D811136C02A30A1F5E091B90DF091E8
:10081000BA0D9F01265F3F4F4091AE0D5091AF0D35
:100820002417350710F483E0AACF3A97F093BA0D56
:10083000E093B90D2D2D30E021543048220F331FA5
:10084000A091BF0DB091C00DA20FB31FED92FC920D
:1008500086E48083D18213830283B482C582D187E8
:10086000C0878091B20D9091B30D9783868383E00A
:1008700003C084E08093C30DDF91CF911F910F914E
:10088000FF90EF90DF90CF90BF9008951092C30D2E
:100890000E94CE0B9093A00D80939F0D8091C30D6D
:1008A000811132C0A091A10DB091A20D8C918A301E
:1008B00059F5E091B90DF091BA0DCF01069620914E
:1008C000AE0D3091AF0D8217930728F483E080932B
:1008D000C30D84E008953697F093BA0DE093B90DF7
:1008E00087E490E091838083B583A4838091B20DE7
:1008F0009091B30D938382830E94D20E9093B30D97
:100900008093B20D81E0089584E08093C30D089533
:100910000E94EC0EE091A10DF091A20D8081815416
:100920008A3110F087E011C03196F093A20DE09368
:10093000A10D0E94EC0EE091A10DF091A20D80811D
:100940008A3339F08A3029F082E08093C30D84E045
:10095000089580E008952091B90D3091BA0D30933B
:10096000BC0D2093BB0DA091A10DB091A20D1197CC
:10097000E091BB0DF091BC0D9DE0EE39F90708F058
:100980005BC090819634D1F0973409F058C08C3018
:1009900099F4828193819093B30D8093B20D8481F9
:1009A00095819093A20D8093A10D2A5F3F4F3093C4
:1009B000BA0D2093B90D38C0369639C08330B1F5E1
:1009C0009C914181941332C0892F90E081549048CA
:1009D000880F991FA091BF0DB091C00DA80FB91F2E
:1009E0008D919C91119724813581820F931F8D9356
:1009F0009C9324813581232B91F022813381281708
:100A0000390768F0808591859093A20D8093A10DA0
:100A1000868197819093B30D8093B20D05C03A966D
:100A2000F093BA0DE093B90D83E008953A96F093F0
:100A3000BC0DE093BB0D9CCF88E08093C30D84E098
:100A40000895CF93DF93C9ECDDE06881798188EC6C
:100A500090E00E9418180E940C086881798184E750
:100A600096E00E94370E8091BD0D9091BE0D90933F
:100A7000B50D8093B40D85E0DF91CF91089560911D
:100A8000C90D7091CA0D89EC90E00E9418180E945F
:100A90000C0883E008950E94CE0B2091C30D211114
:100AA0000BC08038910520F084E18093C30D04C011
:100AB0000E94C10882E0089584E008950E94CE0B50
:100AC0002091C30D21110BC08038910520F084E1E5
:100AD0008093C30D04C00E94D60882E0089584E08C
:100AE0000895CF93DF930E94CE0BEC018091C30D4C
:100AF00081111DC0C831D105B8F4E091A10DF0916C
:100B0000A20D80818C3211F082E00FC03196F093FB
:100B1000A20DE093A10D0E94CE0B2091C30D2111D7
:100B200006C08032910528F080E18093C30D84E0F7
:100B300005C0682F8C2F0E94EB0882E0DF91CF91D7
:100B40000895E091A10DF091A20D80818A3381F486
:100B50008091C90D9091CA0D0E94280E8091A10D1F
:100B60009091A20D01969093A20D8093A10D48C083
:100B70008A3009F44BC00E94EC0E0E94F10D8111E5
:100B80001BC0E091A10DF091A20D8081823211F085
:100B9000873221F484E08093C30D08951092C30D31
:100BA0000E94CE0B2091C30D211132C06091C90D5E
:100BB0007091CA0D0E94560EE091A10DF091A20D08
:100BC00080818C3231F43196F093A20DE093A10D27
:100BD000D2CF8B3359F481818A3011F08A3391F46A
:100BE0003196F093A20DE093A10D0AC08A3011F066
:100BF0008A3341F48091C90D9091CA0D0E94280E4C
:100C000083E0089582E08093C30D02C082E00895DE
:100C100084E008950F931F93CF93DF930E94CE0B30
:100C2000EC018091C30D811136C0CF3FD10509F091
:100C3000B0F4E091A10DF091A20D80818C32C1F44D
:100C40003196F093A20DE093A10D0E94CE0B8C0182
:100C50008091C30D81111FC0003F110510F080E18C
:100C600018C0E091A10DF091A20D80818C3211F09D
:100C700082E00FC03196F093A20DE093A10D0E9487
:100C8000CE0B2091C30D211106C08038910528F0AC
:100C900084E18093C30D84E006C0482F602F8C2F21
:100CA0000E94090982E0DF91CF911F910F91089571
:100CB000CF93C82F8A3019F48DE00E945806809196
:100CC000C00085FFFCCFC093C60080E090E0CF91CC
:100CD00008958091C00087FFFCCF8091C60090E00E
:100CE000089590914A01903198F420913701E22FB4
:100CF000F0E0E65CFE4F808381E0820F8093370155
:100D00009F5F90934A01803129F410923701089532
:100D10000C94890F089520914A01211105C08FE09C
:100D200090E00E94750FF7CF90913601E92FF0E027
:100D3000E65CFE4F80819F5F9093360121502093A7
:100D40004A01903111F41092360190E00895682F15
:100D50008091B00D9091B10D9C012F5F3F4F30936A
:100D6000B10D2093B00D0E94381A80E090E00895F4
:100D70008091B00D9091B10D9C012F5F3F4F30934A
:100D8000B10D2093B00D0E94301A90E0089588B9FB
:100D90004E99FECF5F9A4E9BFECF5F986EE071E05A
:100DA000883079F488E090E00E9418186EE071E0D5
:100DB00080E290E00E9418186EE071E088E090E018
:100DC00003C0992787FD90950E94181880E090E055
:100DD000089522982A9AEA9A539852985B9A5A9AB6
:100DE00082E084BD15BC94E697BD80936E0010929E
:100DF000B80D9BE090934B018093690010924C01D9
:100E0000E89A789408951F920F920FB60F921124CA
:100E10008F9381E08093B80DEA988F910F900FBE69
:100E20000F901F9018951F920F920FB60F921124DA
:100E30008F938BE080934B0115BC8F910F900FBE69
:100E40000F901F9018951F920F920FB60F921124BA
:100E50002F933F934F935F936F937F938F939F93C2
:100E6000AF93BF93EF93FF9399B120914C01809181
:100E70004B0121111AC08B3011F485E085BD8091A2
:100E80004B018350883050F48091390186958093CE
:100E9000390193FF03C080688093390183E0809318
:100EA000690081E080934C01A6C0815080934B0182
:100EB00081119CC0E09139018091380180FD86C08C
:100EC000E73759F158F4E43169F118F4E23161F18E
:100ED0002DC0E83501F1E93539F128C0E03EB1F027
:100EE00020F4EA3A09F47FC021C0E03F89F0EC3FEA
:100EF000E9F46091C90D7091CA0D82EB93E00E94F4
:100F0000370E0E94890F0E94890F6DC0826069C0F0
:100F10008D7F816066C090E201C098E09827909331
:100F2000380161C084605DC080615BC082FF1AC00F
:100F3000E13221F481E08093B80D55C0E43329F407
:100F40008B7F8093380187E03EC0EB3411F48CE056
:100F50003AC0EC3111F481E036C0E43209F043C00C
:100F600082E031C081FF21C0EA3511F48DE017C065
:100F7000E53711F484E013C0E23711F485E00FC0C7
:100F8000EB3611F480E10BC0E43711F481E107C0C6
:100F9000EC3611F481E003C0E93619F482E00E94D6
:100FA0007106809138018D7F1CC084FB992790F9D0
:100FB00085FD9E5F84E0E89FF0011124E90FF11D9B
:100FC000EE56FE4F84910E9471060DC0E43131F05F
:100FD000E93531F0E23121F08E7F03C08A7F01C014
:100FE0008E7E809338018BE080934B0182E080936A
:100FF000690010924C01FF91EF91BF91AF919F91C9
:101000008F917F916F915F914F913F912F910F90B1
:101010000FBE0F901F9018956EE071E08BE190E08D
:101020000E9418186EE071E08BE590E00E9418189D
:101030006EE071E080E390E00E9418186EE071E0CD
:101040008DE690E00E9418186EE071E08BE190E070
:101050000E9418186EE071E08BE590E00E9418186D
:101060006EE071E088E490E00E9418186EE071E094
:101070008BE190E00E9418186EE071E08BE590E043
:101080000E9418186EE071E08AE490E00C94181841
:10109000CF938CE191E09093C80D8093C70D90930E
:1010A000CA0D8093C90D10927C0087E880937A0066
:1010B00080917A00806480937A0080917A0086FD26
:1010C000FCCF11B8CFEFC2B9209A289A0E94E90646
:1010D000C7B95698579A5498559A1092C50085E109
:1010E0008093C40086E08093C20088E18093C100B1
:1010F000CF910C940C08FF920F931F93CF93DF9323
:10110000C82FF62E6EE071E08BE190E00E94181877
:101110006EE071E08BE590E00E9418181F92CF936B
:101120000EE211E01F930F93CEE0D1E0DF93CF9357
:101130000E940618BE018BE390E00E9418181F92CF
:10114000FF921F930F93DF93CF930E9406188DB7E2
:101150009EB70C960FB6F8949EBF0FBE8DBFBE0112
:1011600088E490E0DF91CF911F910F91FF900C9454
:10117000181888B94C99FECF5D9A4C9BFECF5D98AC
:1011800008951F93CF93DF93182FC9ECDDE068819A
:1011900079818EEC90E00E94181868817981812F06
:1011A00090E0DF91CF911F910C9418181F93CF936B
:1011B000DF93182FC9ECDDE0688179818FEC90E036
:1011C0000E94181868817981812F90E0DF91CF917A
:1011D0001F910C9418180F931F93CF93DF93082F30
:1011E000162FC9ECDDE0688179818DEC90E00E94DA
:1011F000181868817981802F90E00E941818688102
:101200007981812F90E0DF91CF911F910F910C9404
:101210001818EF92FF920F931F93CF93DF931F92B3
:10122000CDB7DEB7082F162F89ECE82E8DE0F82E0B
:10123000F701608171818AEC90E049830E9418185F
:10124000F70160817181802F90E00E941818F701EA
:1012500060817181812F90E00E941818F7016081F0
:1012600071814981842F90E00F90DF91CF911F9180
:101270000F91FF90EF900C9418188FEC0E94B90812
:1012800083E008958EEC0E94B90883E008950E94DF
:10129000EC0E0E94CE0B2091C30D211122C0883785
:1012A000910599F038F4CC97F1F48CEC0E94B908D0
:1012B00080E014C08639910569F0843B910599F46A
:1012C0008CEC0E94B90888E109C08CEC0E94B90836
:1012D00088E004C08CEC0E94B90880E10E94B90843
:1012E00002C084E0089583E00895CF93DF930E94C5
:1012F000EC0E1092C30DE091A10DF091A20DC081F2
:10130000C23231F0C73221F082E08093C30D26C093
:101310003196F093A20DE093A10DD4E009C0809125
:10132000A10D9091A20D01969093A20D8093A10D15
:10133000E091A10DF091A20D80818C1709F449C0B4
:10134000893571F489EC0E94B9080E94CE0A809117
:10135000C30D882321F388EC0E94B90884E03FC0C4
:101360008A3580F4853431F130F4833409F1F0F4B6
:10137000813441F32BC08E34C9F08835C9F08D34E7
:1013800029F518C08536B1F030F4833689F070F451
:101390008136C1F21BC08E3649F018F48D3651F0FB
:1013A00015C0883729F0893769F210C08AECCBCF95
:1013B0008BECC9CF8DEC0E94B9080E94CE0A8091B7
:1013C000C30D8111C4CF0E94E40AC1CFD093C30DD5
:1013D000BECF3196F093A20DE093A10D83E0DF9193
:1013E000CF910895CF93DF931092B10D1092B00D6D
:1013F000C0E0D8E080E091E00E94C8178823D9F0CF
:101400006091C90D7091CA0D20EE280F2F3538F06C
:101410008A3029F08D3019F08FE390E001C090E020
:101420000E9418182197209729F78091C90D909153
:10143000CA0D0E94280E82E0DF91CF910895CF93CC
:10144000DF931092B10D1092B00DC0E0D0E060E0DB
:1014500071E080E090E00E941818CE018F77992704
:101460008034910541F46091C90D7091CA0D8EE2EE
:1014700090E00E9418182196CF3F87E0D80739F7EF
:101480008091C90D9091CA0D0E94280E82E0DF91D3
:10149000CF9108951092B10D1092B00D80E091E0BF
:1014A0000E94C81780538A3090F41092B10D1092A8
:1014B000B00D8091BD0D9091BE0D9093B50D8093B0
:1014C000B40D80914D01886080934D0103C089E087
:1014D0008093C30D84E008951092B10D1092B00D69
:1014E0000E94D20E9093B70D8093B60D2091B60D49
:1014F0003091B70D8091B40D9091B50D2817390733
:1015000029F080E091E00E949D0EF0CF60E071E054
:1015100080E090E00E94181882E008951F93CF9316
:10152000DF93EC0120E030E010E0FE01849188239D
:1015300081F14091A10D5091A20DFA01E20FF31F2C
:101540008081FE019491891304C02F5F3F4F219643
:10155000ECCFFE016491E82FF0E0E058FF4F70E01F
:10156000E617F70759F42F5F3F4F240F351F3093CD
:10157000A20D2093A10D0E94EC0E0BC0FE018491E0
:10158000219687FFFBCF1F5F0E94EC0E20E030E02A
:10159000CCCF812FDF91CF911F910895E091A10DC4
:1015A000F091A20DCF0101969093A20D8093A10D11
:1015B00081819FEC980F943018F480530C94B908F3
:1015C00084E08093C30D08951F93CF93DF93C4E00D
:1015D000DCE04091A10D5091A20DCA0101969093BB
:1015E000A20D8093A10DFA0161818EEC860F8630E9
:1015F000A8F460539A012E5F3F4F3093A20D2093C1
:10160000A10D828190E0815491098033910508F009
:101610006AC0825C9F4FFC010C945017623211F03B
:10162000673229F45093A20D4093A10DB3C084E01A
:101630008093C30DAFC093E065C0CA010396909339
:10164000A20D8093A10DFA018381833209F451C068
:101650003093A20D2093A10D91E054C0CA010396CE
:101660009093A20D8093A10DFA0183818F7D823426
:1016700009F441C03093A20D2093A10D95E042C022
:10168000CA0103969093A20D8093A10DFA01838164
:10169000833299F13093A20D2093A10D96E032C0D0
:1016A000CA0103969093A20D8093A10DFA01838144
:1016B000833229F13093A20D2093A10D98E022C02E
:1016C000CA0103969093A20D8093A10DFA01838124
:1016D0008F7D8234B1F03093A20D2093A10D9CE058
:1016E00011C09DE00FC0C093C30D90E00BC09AE005
:1016F00009C092E007C094E005C097E003C099E0FC
:1017000001C09BE0E091A10DF091A20D9F012F5F20
:101710003F4F3093A20D2093A10D81814FEC480FD4
:10172000483010F4805303C0C093C30D80E0AF0174
:101730004E5F5F4F5093A20D4093A10D42814D32F9
:1017400071F04D3321F04B3221F421E009C023E048
:1017500007C03093A20D2093A10D20E001C022E02C
:10176000382F392B322BB1F09D3041F06250192FB8
:101770006D9F100D11241150110F01C010E98150FF
:10178000F0E42F9F800D11240E94B908812F0E9440
:10179000B9081FCFDF91CF911F910895CF93DF93A9
:1017A0000E948B0DEC018091C30D811143C080EE2E
:1017B00093E00E948E0A8730E9F1482F50E04730CD
:1017C0005105D0F5FA01E259FF4F0C9450170E94D1
:1017D0008B0D31E020E0C817D9074CF527C00E94D7
:1017E0008B0D31E020E0C817D90709F51FC00E9412
:1017F0008B0D31E020E08C179D07CCF017C00E94C4
:101800008B0D31E020E0C817D90781F410C00E9489
:101810008B0D31E020E08C179D074CF407C00E942F
:101820008B0D31E020E0C817D9070CF030E0832F92
:10183000922F04C0CE0102C080E090E0DF91CF91F2
:101840000895EF92FF920F931F93CF93DF931F9210
:10185000CDB7DEB701E010E00E94EC0EE091A10DE3
:10186000F091A20D80818D3249F43196F093A20D52
:10187000E093A10D119501951109EECF803331F45C
:101880003196F093A20DE093A10DFAC09FEC980F52
:101890009930E0F480E090E03AE0A091A10DB091A1
:1018A000A20DAC01349FC001359F900D1124FD01A4
:1018B0002191820F911DC097F093A20DE093A10D8D
:1018C00011962C9120532A3040F3DCC09FEB980FE7
:1018D0009A3108F0B5C0918191549A31B0F090E0FE
:1018E00081549048880F991FA091BF0DB091C00DF1
:1018F000A80FB91F3C9111962C913196F093A20D2F
:10190000E093A10D832F922FBDC08CEE93E00E9437
:101910008E0A282F853011F48EE0B0C0E091A10D21
:10192000F091A20D8081883211F085E0A7C0319638
:10193000F093A20DE093A10D29830E94CE0B7C01B0
:10194000E091A10DF091A20D80812981893209F0E9
:1019500094C03196F093A20DE093A10D2230F9F0DE
:1019600028F4222341F0213099F06AC02330E9F0B5
:101970002430D1F165C050E5E5165CE0F50614F0C1
:1019800083E17CC0F701E05BFE4F808190E07AC08C
:10199000C701F7FE77C091958195910973C00E94A8
:1019A000B817B7010E943C176DC088E0E816F10433
:1019B00010F08CE063C081E090E002C0880F991FB6
:1019C000EA94E2F721B130E028233923232B29F5CB
:1019D00020B130E02823392351E040E0232B09F4E3
:1019E00050E0852F942F4EC0A8E0EA16F10408F7C6
:1019F000E0927C0021E030E002C0220F331FEA9425
:101A0000E2F742B192B1822F8095892382B981B1E8
:101A100090E082239323892B11F08DE02FC08091D9
:101A20007A00806480937A0080917A0086FDFCCFF2
:101A300042B980917800909179009695879522C05F
:101A4000E091A10DF091A20D80818832B1F4319620
:101A5000F093A20DE093A10D0E94CE0B9C01E091AA
:101A6000A10DF091A20D8081893239F43196F09365
:101A7000A20DE093A10DC90105C086E08093C30DBE
:101A800080E090E0FC010E9FC0010F9F900D1E9F13
:101A9000900D11240F90DF91CF911F910F91FF9026
:101AA000EF9008951F93CF93DF930E94210CEC01D8
:101AB0000E94EC0E1BE0E091A10DF091A20D80813F
:101AC0008A3281F43196F093A20DE093A10D0E9429
:101AD000210C9E01289FE001299FD00D389FD00D39
:101AE0001124E9CF8F3291F43196F093A20DE09357
:101AF000A10D0E94210CBC01009729F0CE010E948B
:101B00003C17EB01D8CF1093C30DD5CFCE01DF9199
:101B1000CF911F910895CF93DF93E091A10DF091A4
:101B2000A20D80818D3231F08B3221F00E94520D56
:101B3000EC0102C0C0E0D0E0E091A10DF091A20D57
:101B400080818D3251F43196F093A20DE093A10D76
:101B50000E94520DC81BD90BEFCF8B3251F4319636
:101B6000F093A20DE093A10D0E94520DC80FD91F52
:101B7000E3CFCE01DF91CF910895FF920F931F9392
:101B8000CF93DF93EC018B01F12CFE01EF0DF11DE2
:101B90008081882341F0B801992787FD90950E94A4
:101BA0001818F394F2CFDF91CF911F910F91FF900E
:101BB00008950F931F93CF93DF93EC018B01CE0118
:101BC000FE012491222341F02196FC018491B80169
:101BD00090E00E941818F3CFDF91CF911F910F91E1
:101BE0000895CF93E091A10DF091A20DC081C23272
:101BF00021F0C73211F080E029C03196F093A20D98
:101C0000E093A10D81918C1719F08A30D9F7F3CFA9
:101C1000E091A10DF091A20D80818C1789F0609167
:101C2000C90D7091CA0D90E00E9418188091A10D05
:101C30009091A20D01969093A20D8093A10DE8CFF3
:101C40003196F093A20DE093A10D81E0CF9108951C
:101C5000CF93DF93EC01BC018AE090E00E9418185A
:101C6000BE018DE090E0DF91CF910C941818CF93D6
:101C7000DF93EB010E94D90DCE01DF91CF910C943F
:101C8000280EE091B90DF091BA0D3197F093BA0D8D
:101C9000E093B90D80830895E091B90DF091BA0DEC
:101CA0008191F093BA0DE093B90D0895AF92BF9270
:101CB000CF92DF92EF92FF920F931F93CF93DF9318
:101CC00000D0CDB7DEB75C017B0197FF07C0B194B0
:101CD000A194B1088DE290E00E94181800E010E095
:101CE0008AE0C82ED12CC501B6010E943C17805D48
:101CF00069837A830E94410E6981A62E7A81B72E6C
:101D00000F5F1F4FA114B10471F70E944C0EB70171
:101D100090E00E9418180150110901151105A9F74A
:101D20000F900F90DF91CF911F910F91FF90EF9047
:101D3000DF90CF90BF90AF900895CF93DF93EC01E9
:101D4000E091B60DF091B70D808191813396F093BB
:101D5000B70DE093B60DBE010E94560EBE0180E2A3
:101D600090E00E941818E091B60DF091B70D8081B7
:101D70008A3071F0BE0190E00E9418188091B60D73
:101D80009091B70D01969093B70D8093B60DEBCF60
:101D90003196F093B70DE093B60DCE01DF91CF9160
:101DA0000C94280E8091BD0D9091BE0D2091B40D24
:101DB0003091B50D40919F0D5091A00D8217930762
:101DC00051F0FC01608171816417750720F4628114
:101DD000860F911DF3CF0895E091A10DF091A20D12
:101DE0008081803231F43196F093A20DE093A10D01
:101DF000F3CF8930C1F30895E091B40DF091B50DA2
:101E0000329690E080818A30B1F0891769F0823291
:101E100069F0873269F091110CC02FE9280F2A313F
:101E200040F48052808305C090E003C092E201C07C
:101E300097E23196E7CF089590ED980F9A3090F0A1
:101E4000982F9F7D91549A3168F08F3559F08B32DD
:101E500049F08E3239F021E090E08E3709F020E031
:101E6000822F089581E090E008950F931F93CF9300
:101E7000DF931092C30DC091A10DD091A20D1881D6
:101E8000812F0E941C0F892B31F42196D093A20D33
:101E9000C093A10DF0CF1123F9F0CE0101969093DC
:101EA000A20D8093A10D0091A10D1091A20DF8013A
:101EB00080810E941C0F892B39F00F5F1F4F1093F8
:101EC000A20D0093A10DEFCF0C171D0711F0F80123
:101ED00010828881811103C081E08093C30DCE01FF
:101EE000DF91CF911F910F910895009741F0E7E89E
:101EF000F3E13197F1F700C000000197F6CF0895A4
:101F0000009731F026E02A95F1F700C00197F8CF4D
:101F10000895CF93E898C4E628988EEE92E00E9448
:101F2000800F289A84EF91E00E94800FC150A1F7A2
:101F3000E89ACF9108950F931F93CF938091B40D9A
:101F40009091B50D02969093A20D8093A10D909360
:101F50004F0180934E0180914D0183FD10C0C0EE72
:101F600038C0E091A10DF091A20D80838091A10D68
:101F70009091A20D01969093A20D8093A10D80E007
:101F800091E00E94C8179C0133272A30310559F08F
:101F90002D30310541F0232B21F780914D01877FB2
:101FA00080934D0122C1E091A10DF091A20D8AE034
:101FB00080831BC18091B40D9091B50D0296209144
:101FC000A10D3091A20D8217930708F48CC00E94D6
:101FD000890F8091C70D9091C80D0E94C8178C0180
:101FE0009927FC013197E131F10508F0CFC0EB589A
:101FF000FF4F0C9450178091B40D9091B50D02963F
:102000002091A10D3091A20D8217930710F76091D6
:10201000C90D7091CA0D81E090E00E94181860917E
:10202000C90D7091CA0D8091A10D9091A20D2091C2
:10203000B40D3091B50D821B930B8250829586951D
:10204000877090E001960E9418188091B40D9091CD
:10205000B50D029696C02091A10D3091A20D8091F0
:102060004E0190914F012817390708F0B2CF6091C7
:10207000C90D7091CA0D82E090E00E94181840913D
:10208000B40D5091B50D80914E0190914F01841B7C
:10209000950B1EEF180F012F0295069507702091E2
:1020A000A10D3091A20D241B350B225022952695AF
:1020B00027706091C90D7091CA0D802F821B90E02E
:1020C00001960E9418186091C90D7091CA0D812F58
:1020D0000C9F800D112490E00E94181880914E01F1
:1020E00090914F014EC06091C90D7091CA0D80E171
:1020F00090E040C08091A10D9091A20D20914E01E1
:1021000030914F018217930708F061CF01969093A9
:10211000A20D8093A10D6091C90D7091CA0D81E14E
:1021200090E00E94181855CFE0914E01F0914F01B8
:10213000F093A20DE093A10D8AE080838091C90DF8
:102140009091CA0DCF911F910F910C94280E809100
:10215000B40D9091B50D02962091A10D3091A20D74
:102160008217930708F033CF6091C90D7091CA0DA3
:1021700088E090E00E9418188091A10D9091A20D26
:1021800001979093A20D8093A10D23CF2091BF0DB5
:102190003091C00D225031094091A10D5091A20DF6
:1021A0004217530709F413CF6091C90D7091CA0DFE
:1021B0000E941818E091A10DF091A20D008380916A
:1021C000A10D9091A20D01969093A20D8093A10D67
:1021D00020914E0130914F012817390708F0F9CEB0
:1021E00090934F0180934E01F4CECF911F910F91A8
:1021F00008958091B80D811104C08091C60083308C
:1022000021F41092B80D81E0089580E00895FC015A
:1022100020812D3219F4019641E001C040E0FC011B
:1022200080E090E05AE0219130ED320F3A3060F4D6
:10223000BC01569FC001579F900D112430E02053E0
:102240003109820F931FEFCF442319F091958195A7
:1022500091090895CF92DF92EF92FF920F931F930F
:10226000CF93DF930E94EC0EE091A10DF091A20DAF
:1022700010818FEB810F8A3110F087E015C0F0904C
:10228000BF0D0091C00D3196F093A20DE093A10D0A
:102290000E94EC0EE091A10DF091A20D80818A3098
:1022A00039F08A3329F082E08093C30D84E0A8C01E
:1022B00083EA9DE09093C50D8093C40D1092A30D09
:1022C000EA9AC12C8AE0D82E8091C70D9091C80D52
:1022D0000E94C817EC01E82E8091B80D813009F4F6
:1022E0008EC0CE0199278A30910549F124F48830B7
:1022F000910559F148C08D30910509F18D32910554
:1023000009F041C0C11061C06091C90D7091CA0D42
:102310008DE290E00E941818E091C40DF091C50D77
:10232000C083E091C40DF091C50DCF01019690934B
:10233000C50D8093C40D1182CC24C39446C0E09196
:10234000C40DF091C50DD08240C08091C40D909114
:10235000C50D835A9D4009F018F40E94890F35C0BD
:102360006091C90D7091CA0D88E090E00E94181824
:102370008091C40D9091C50D01979093C50D8093E8
:10238000C40DCA9422C02C2F20532A30F0F425E02B
:102390002C15C0F06091C90D7091CA0D0E941818DB
:1023A000E091C40DF091C50DC083C394E091C40DBC
:1023B000F091C50DCF0101969093C50D8093C40D8A
:1023C000118206C00E94890F03C02AE0E21619F0AC
:1023D0008DE0E81279CF8091C90D9091CA0D0E94CD
:1023E000280E83EA9DE00E940711EF2DF02FE10FE8
:1023F000F11DE10FF11DE258F1099183808383E023
:10240000DF91CF911F910F91FF90EF90DF90CF90D0
:1024100008951F93CF93DF93E091A10DF091A20D4A
:10242000C0818FEB8C0F8A31F0F51091BF0DD091E8
:10243000C00DCF0101969093A20D8093A10D8181D3
:1024400081548A3148F48FEF8093C30D3296F09314
:10245000A20DE093A10D37C00E94EC0EE091A10DFA
:10246000F091A20D80818D3311F08FE01DC080911D
:10247000C30D8F3F11F481E117C03196F093A20D87
:10248000E093A10D0E94EC0E0E94CE0B2091C30D93
:10249000211119C0E091A10DF091A20D20812A30E7
:1024A00031F02A3321F082E08093C30D0CC0E12F7C
:1024B000FD2FEC0FF11DEC0FF11DE258F109918396
:1024C000808383E001C084E0DF91CF911F91089564
:1024D000CF93DF930E94CE0BEC018091C30D81114D
:1024E0002EC0C0358CE0D80714F083E126C00E94CE
:1024F000EC0EE091A10DF091A20D80818C32E1F4FF
:102500003196F093A20DE093A10D0E94EC0E0E9473
:10251000CE0B2091C30D211112C08F3F910519F0F0
:1025200010F082E10AC0E091A10DF091A20D20818E
:102530002A3039F02A3329F082E08093C30D84E0F9
:1025400004C0C05BDE4F888383E0DF91CF910895A4
:102550000E94D1139093A00D80939F0DE091A10D47
:10256000F091A20D80818A3021F084E08093C30D28
:1025700018C00E94D20E9093B70D8093B60D209193
:10258000B60D3091B70D8091B40D9091B50D28170F
:10259000390739F08091C90D9091CA0D0E949D0EA6
:1025A000EECF84E00895CF93DF93C9ECDDE068813E
:1025B00079818091BF0D9091C00D2091B40D309123
:1025C000B50D821B930B0E94560E6881798189E6B6
:1025D00096E00E94370E6881798180E098E00E9441
:1025E000560E688179818EE596E00E94370E83E071
:1025F000DF91CF9108958091B20090E00E94BD17C5
:1026000083E008951092C30D0E94CE0B2091C30D5C
:10261000211104C00E94BD1783E0089584E008954D
:10262000CF93DF93EA9AC9ECDDE06881798180ED90
:1026300090E00E9418186881798182ED90E00E94F4
:1026400018188091BD0D9091BE0D9093B30D80939D
:10265000B20D81E0DF91CF910895E091A10DF0914D
:10266000A20D80818A3029F082E08093C30D84E03E
:1026700008958091B40D9091B50D9093B30D809312
:10268000B20D81E00895E091A10DF091A20D80813D
:102690008A3029F082E08093C30D84E00895809110
:1026A000BD0D9091BE0D9093B50D8093B40D85E056
:1026B0000895CF93DF930E94CE0BEC018091C30D60
:1026C00081112FC0C830D10510F08CE028C0E091F6
:1026D000A10DF091A20D80818C3201F53196F0931D
:1026E000A20DE093A10D0E94CE0B2091C30D2111EC
:1026F00018C021E030E00C2E01C0220F0A94EAF746
:10270000009731F0019751F481B1822B81B904C057
:1027100081B12095282321B982E004C082E0809312
:10272000C30D84E0DF91CF910895CF93DF930E9492
:10273000CE0BEC018091C30D81112FC0C830D105A3
:1027400010F08CE028C0E091A10DF091A20D8081E5
:102750008C3201F53196F093A20DE093A10D0E9409
:10276000CE0B2091C30D211118C021E030E00C2EBA
:1027700001C0220F0A94EAF7009731F0019751F453
:1027800082B1822B82B904C082B12095282322B95C
:1027900082E004C082E08093C30D84E0DF91CF919A
:1027A00008950E94EC0E80E090E05AE0E091A10DC7
:1027B000F091A20D408120ED240F2A30A0F4893938
:1027C00029E1920788F4589F9001599F300D1124F8
:1027D000842F90E0C097820F931F3196F093A20D43
:1027E000E093A10DE3CF08958FEF9FEF0895CF936E
:1027F000DF9380E591E09093BE0D8093BD0D9093A3
:10280000B50D8093B40D8FE99DE09093BA0D809340
:10281000B90D8DE69DE09093AF0D8093AE0D87E3EB
:102820009DE09093C00D8093BF0DC9ECDDE0688101
:10283000798187EE9BE00E94560E6881798189E656
:1028400096E00E94370E6881798180E098E00E94CE
:10285000560E688179818EE596E00E94370E888158
:102860009981DF91CF910C94280EC4E00FE91DE00F
:10287000D9E082E0F82E90E1D92E24E0C22E31E397
:10288000832E31E0932EC43009F56091C90D70910B
:10289000CA0D81ED90E00E9418186091C90D7091E9
:1028A000CA0D83ED90E00E9418181092B30D10929B
:1028B000B20D1093BA0D0093B90D6091C90D7091CE
:1028C000CA0D83E496E00E94370EC0E01092C30D5B
:1028D00080914D01982F937089F08C7F80934D01EA
:1028E0008091BD0D9091BE0D9093B30D8093B20D6C
:1028F00003969093A20D8093A10D14C10E949B0F8B
:102900000E94FC0E8091B40D9091B50D02969093AB
:10291000A20D8093A10DE091A10DF091A20D8081F7
:102920008A3031F03196F093A20DE093A10DF3CFF0
:10293000E091BF0DF091C00D3197A091A10DB09124
:10294000A20D8C9180832091A10D3091A20D8091D8
:10295000B40D9091B50D02962817390739F0215022
:1029600031093093A20D2093A10DE6CFF093A20D73
:10297000E093A10D0E94D1139093A00D80939F0D21
:102980000E94EC0E20919F0D3091A00D2115310574
:1029900009F4B8C02F3F6FEF360719F4D093C30D79
:1029A000C1C01092C60D8091A10D9091A20D4091D1
:1029B000C60DFC01E40FF11D50815A3021F04F5F2C
:1029C0004093C60DF4CF4C5F4093C60DFC01339786
:1029D000F093A20DE093A10D3183208332964083C2
:1029E0000E94D20E9093C20D8093C10D2091B40D20
:1029F0003091B50D82179307F9F0FC016081718168
:102A000040919F0D5091A00D64177507A9F4428164
:102A1000E40FF11D2E1B3F0BAF01420F531FDC01D2
:102A2000E417F50719F061916D93FACF820F931FA8
:102A30009093B50D8093B40DE091A10DF091A20D8E
:102A400083818A3009F442CF2091C60D222309F4F4
:102A50003DCF4091B40D5091B50D8091A10D909155
:102A6000A20D30E0841B950B2817390708F4C90123
:102A7000FA01E80FF91FF093AC0DE093AB0D209134
:102A8000C10D3091C20DBA01621B730B9B01DA01BB
:102A90002115310529F04E91429321503109F8CF8B
:102AA0002817390731F1E091C10DF091C20DA091C5
:102AB000A10DB091A20D4C9140834091A10D509178
:102AC000A20D4F5F5F4F5093A20D4093A10D409117
:102AD000C10D5091C20D4F5F5F4F5093C20D409397
:102AE000C10D4091C60D41504093C60D2F5F3F4F21
:102AF000D7CF8091AB0D9091AC0D9093B50D809395
:102B0000B40DA2CF1092B80DE091B40DF091B50DB7
:102B1000CF0102969093A20D8093A10D82818A30FD
:102B200009F4D4CE8091C30D8111EDC00E94F9103B
:102B3000882349F06091C90D7091CA0D86E496E032
:102B40000E94370EDDC01092AD0D1092C30D87E0CC
:102B500094E00E948E0A90E08F32910508F082C0C6
:102B6000FC01EA57FF4F0C9450170E94CE0B0E94B5
:102B7000750F05C00E94431372C00E94890FF09226
:102B8000AD0D74C00E9410136AC00E94830367C019
:102B90000E94660364C00E943D0961C00E94420910
:102BA0005EC00E9447095BC00E94750958C00E9420
:102BB0002D1355C00E94A81252C00E94D3124FC0BC
:102BC0000E944B054CC00E945E0549C00E948804CB
:102BD0008093AD0D8091C30D811148C083E004C086
:102BE0000E9446043CC08CE00E94AB0438C00E94A6
:102BF000FB1235C00E94021332C00E949A032FC0FC
:102C00000E942A112CC00E94681229C00E940A0644
:102C100026C00E94F20923C00E941F0A20C0809192
:102C20004D01826080934D0103C00E946C0A17C061
:102C30000E944A0A14C00E94210511C00E94A105E9
:102C40000EC00E9471050BC00E943F0508C00E9483
:102C5000591305C00E94951302C00E940912809367
:102C6000AD0D04C0D092C30DC092AD0D8091AD0DDD
:102C7000843009F445C0853009F444C0863009F435
:102C800055CF8330D9F40E94EC0EE091A10DF09164
:102C9000A20D80818A3381F4E091A10DF091A20D03
:102CA00080818A3331F43196F093A20DE093A10D27
:102CB000F3CF0E94EC0E3ACFF092AD0D8091AD0DA6
:102CC000823069F4E091B20DF091B30D3097C1F00C
:102CD0008281E80FF11DF093B30DE093B20D809166
:102CE000B20D9091B30D2091B40D3091B50D8217B6
:102CF000930731F003969093A20D8093A10D16CF08
:102D0000C4E001C0C5E08091C30D882309F4BBCDA8
:102D100083E00E94C10880E00E94D6088091C30D24
:102D200090E0FC013197E431F10508F07EC0EB54EE
:102D3000FF4F6091C90D7091CA0D0C94501782E23B
:102D400096E071C085E196E00E94D90D8091B20DA8
:102D50009091B30D892B19F19F928F920E944A187E
:102D6000E091A10DF091A20DA0800F900F907AE05C
:102D7000A71611F08EE580838091B20D9091B30D6E
:102D80009093B70D8093B60D8091C90D9091CA0DA7
:102D90000E949D0EE091A10DF091A20DA082809164
:102DA000C90D9091CA0D0E94280E3FC086E096E0A2
:102DB0003AC081EF95E037C08DE396E002C086E32C
:102DC00096E00E94370E6091C90D7091CA0D8DED8D
:102DD00095E029C08BEC95E026C086EB95E023C0FA
:102DE00082EA95E020C080E995E01DC08FE795E07C
:102DF0001AC08CE695E017C08EE595E014C08DE40E
:102E000095E011C08DE395E00EC089E295E00BC01E
:102E100083E195E008C08CEF94E005C08FEE94E06C
:102E200002C087ED94E00E94370E8CE40E94C10836
:102E300080E00E94D60827CD0E9448088CE40E94BA
:102E4000C10880E00E94D6086091C90D7091CA0D3A
:102E500084E796E00E94370E0E94890F1092B0001E
:102E600087E08093B100109270000E94F7130E94D7
:102E7000351480E090E0089597FB072E16F4009437
:102E800007D077FD09D00E94561707FC05D03EF405
:102E9000909581959F4F0895709561957F4F089506
:102EA000EE0FFF1F0590F491E02D0994AA1BBB1BA8
:102EB00051E107C0AA1FBB1FA617B70710F0A61B3A
:102EC000B70B881F991F5A95A9F780959095BC015B
:102ED000CD0108958F929F92AF92BF92CF92DF92D1
:102EE000EF92FF92CF93DF93EC01688179818A8121
:102EF0009B81611571058105910521F464E279EDED
:102F00008BE597E02DE133EF41E050E00E94BE1ADF
:102F100049015A019B01AC01A7EAB1E40E94DD1A04
:102F20006B017C01ACEEB4EFA50194010E94EB1A99
:102F3000C60ED71EE81EF91EF7FE06C081E0C81AAD
:102F4000D108E10880E8F80AC882D982EA82FB82C7
:102F5000C6019F77DF91CF91FF90EF90DF90CF90E8
:102F6000BF90AF909F908F9008950E946A17089528
:102F70008AE291E00E946A170895A0E0B0E0809391
:102F80002A0190932B01A0932C01B0932D01089559
:102F9000CF93DF93EC012B8120FF33C026FF0AC0C3
:102FA0002F7B2B838E819F8101969F838E838A81C5
:102FB00090E029C022FF0FC0E881F9818081992724
:102FC00087FD9095009719F420622B831AC03196E3
:102FD000F983E8830EC0EA85FB85099597FF09C050
:102FE0002B81019611F480E101C080E2822B8B835A
:102FF00008C02E813F812F5F3F4F3F832E8399274B
:1030000002C08FEF9FEFDF91CF910895A0E0B0E075
:10301000ECE0F8E10C94001BAE01475F5F4F6F815D
:1030200078858D819E810E945E18E2E00C941C1BC5
:103030000F931F93CF93DF93182F092FEB018B81F1
:1030400081FD03C08FEF9FEF20C082FF10C04E8133
:103050005F812C813D81421753077CF4E881F9811F
:103060009F012F5F3F4F39832883108306C0E88577
:10307000F985812F0995892B29F72E813F812F5FB3
:103080003F4F3F832E83812F902FDF91CF911F9150
:103090000F910895A0E0B0E0E0E5F8E10C94001B8A
:1030A000FE01359661917191AF018091C90D9091AA
:1030B000CA0D0E945E18E2E00C941C1BACE0B0E06C
:1030C000E4E6F8E10C94F01A7C016B018A01FC0142
:1030D00017821682838181FFBDC1CE0101964C010A
:1030E000F7019381F60193FD859193FF81916F0123
:1030F000882309F4ABC1853239F493FD859193FFA0
:1031000081916F01853229F4B70190E00E9418186F
:10311000E7CF512C312C20E02032A0F48B3269F023
:1031200030F4803259F0833269F420612CC08D3242
:1031300039F0803339F4216026C02260246023C036
:10314000286021C027FD27C030ED380F3A3078F4D1
:1031500026FF06C0FAE05F9E300D1124532E13C0E7
:103160008AE0389E300D1124332E20620CC08E323E
:1031700021F426FD6BC1206406C08C3611F4206852
:1031800002C0883641F4F60193FD859193FF819149
:103190006F018111C1CF982F9F7D9554933028F4F2
:1031A0000C5F1F4FFFE3F9830DC0833631F0833787
:1031B00071F0833509F05BC022C0F80180818983FA
:1031C0000E5F1F4F44244394512C540115C0380105
:1031D000F2E06F0E711CF801A080B18026FF03C0E1
:1031E000652D70E002C06FEF7FEFC5012C870E9454
:1031F000551A2C0183012C852F77222E17C03801F8
:10320000F2E06F0E711CF801A080B18026FF03C0B0
:10321000652D70E002C06FEF7FEFC5012C870E9423
:103220004A1A2C012C852068222E830123FC1BC006
:10323000832D90E048165906B0F4B70180E290E083
:103240000E9418183A94F4CFF50127FC859127FEC7
:1032500081915F01B70190E00E94181831103A94F3
:10326000F1E04F1A51084114510471F7E5C084365A
:1032700011F0893639F5F80127FF07C060817181A7
:10328000828193810C5F1F4F08C060817181882704
:1032900077FD8095982F0E5F1F4F2F76B22E97FFE8
:1032A00009C090958095709561957F4F8F4F9F4F86
:1032B0002068B22E2AE030E0A4010E94601AA82EF5
:1032C000A81844C0853729F42F7EB22E2AE030E0BA
:1032D00025C0F22FF97FBF2E8F36C1F018F4883544
:1032E00079F0B4C0803719F0883721F0AFC02F2FA4
:1032F0002061B22EB4FE0DC08B2D8460B82E09C0A3
:1033000024FF0AC09F2F9660B92E06C028E030E047
:1033100005C020E130E002C020E132E0F801B7FE54
:1033200007C060817181828193810C5F1F4F06C04D
:103330006081718180E090E00E5F1F4FA4010E94C8
:10334000601AA82EA818FB2DFF77BF2EB6FE0BC063
:103350002B2D2E7FA51450F4B4FE0AC0B2FC08C079
:103360002B2D2E7E05C07A2C2B2D03C07A2C01C06C
:10337000752C24FF0DC0FE01EA0DF11D8081803304
:1033800011F4297E09C022FF06C07394739404C00F
:10339000822F867809F0739423FD13C020FF06C0A6
:1033A0005A2C731418F4530C5718732C731468F4B4
:1033B000B70180E290E02C870E94181873942C8546
:1033C000F5CF731410F4371801C0312C24FF12C04C
:1033D000B70180E390E02C870E9418182C8522FF0B
:1033E00017C021FF03C088E590E002C088E790E0A5
:1033F000B7010CC0822F867859F021FD02C080E20F
:1034000001C08BE227FD8DE2B70190E00E94181801
:10341000A51438F4B70180E390E00E9418185A947C
:10342000F7CFAA94F401EA0DF11D8081B70190E075
:103430000E941818A110F5CF332009F451CEB7011E
:1034400080E290E00E9418183A94F6CFF701868146
:10345000978102C08FEF9FEF2C96E2E10C940C1B3A
:10346000F999FECF92BD81BDF89A992780B508954C
:10347000262FF999FECF92BD81BDF89A019700B42D
:10348000021639F01FBA20BD0FB6F894FA9AF99ACD
:103490000FBE0895FC010590615070400110D8F7EF
:1034A000809590958E0F9F1F0895FC01615070408C
:1034B00001900110D8F7809590958E0F9F1F089569
:1034C000FA01AA27283051F1203181F1E8946F9355
:1034D0006E7F6E5F7F4F8F4F9F4FAF4FB1E03ED0FB
:1034E000B4E03CD0670F781F891F9A1FA11D680F99
:1034F000791F8A1F911DA11D6A0F711D811D911DCC
:10350000A11D20D009F468943F912AE0269F112440
:103510003019305D3193DEF6CF010895462F4770A4
:10352000405D4193B3E00FD0C9F7F6CF462F4F70FF
:10353000405D4A3318F0495D31FD4052419302D05D
:10354000A9F7EACFB4E0A695979587957795679503
:10355000BA95C9F700976105710508959B01AC0103
:103560000A2E06945795479537952795BA95C9F72A
:10357000620F731F841F951FA01D0895052E97FBD2
:103580001EF400940E94D51A57FD07D00E94271BF5
:1035900007FC03D04EF40C94D51A50954095309505
:1035A00021953F4F4F4F5F4F0895909580957095AF
:1035B00061957F4F8F4F9F4F08950E94491BA59F94
:1035C000900DB49F900DA49F800D911D112408951E
:1035D000B7FF0C94DD1A0E94DD1A821B930B08952D
:1035E0002F923F924F925F926F927F928F929F9213
:1035F000AF92BF92CF92DF92EF92FF920F931F9301
:10360000CF93DF93CDB7DEB7CA1BDB0B0FB6F894B1
:10361000DEBF0FBECDBF09942A88398848885F84F1
:103620006E847D848C849B84AA84B984C884DF8062
:10363000EE80FD800C811B81AA81B981CE0FD11D46
:103640000FB6F894DEBF0FBECDBFED010895A1E225
:103650001A2EAA1BBB1BFD010DC0AA1FBB1FEE1F0C
:10366000FF1FA217B307E407F50720F0A21BB30B57
:10367000E40BF50B661F771F881F991F1A9469F7D3
:1036800060957095809590959B01AC01BD01CF012F
:103690000895A29FB001B39FC001A39F700D811D2B
:1036A0001124911DB29F700D811D1124911D08954B
:0436B000F894FFCFBC
:1036B4000000000300000000A706B8060000000098
:1036C4000003000000005806690600000000000323
:1036D40000000000C7068B060000010000002564FE
:0636E40000202D2D200046
:0400000500800DC1A9
:00000001FF
