:100000000C9447030C94590B0C9464030C94390B17
:100010000C9464030C9464030C9464030C946403C4
:100020000C9464030C9464030C9464030C946403B4
:100030000C9464030C9464030C9464030C946403A4
:100040000C94490B0C9464030C9464030C946403A7
:100050000C9464030C9464030C9464030C94640384
:100060000C9464030C9464030C9464030C94640374
:100070000C9464030C9464030C9464034F043804DC
:10008000F503F3030604180428044B044B044B0443
:100090004B044B044B044B044B0449044B044B04EA
:1000A0004B044B044B044B044B044B044B044B04D8
:1000B0004B044B044B044B044B044B044F043804D7
:1000C000F503F3030604180428044B044B044B0403
:1000D0004B044B044B044B044B044904BF04C704BA
:1000E000CF04D704DF04E704C704540F010FDD0F6A
:1000F000420F420FDD0FEA0FCA0FDD0FB90FDD0F00
:10010000420FB90FDD0FDD0F840FA30F85156715A3
:100110006D159115D61570157315761579157C1515
:100120007F1599159C15A015A315C415CD15F015AF
:10013000A615A9156A15C715CA15AC15AF158215F0
:10014000821588158B158E15C715F015F0156215DB
:10015000B215B515B815BE15C115D915D915D915CE
:10016000D915D915D015D315D615401643167516C1
:1001700078167B167E1689168C168F169216951693
:1001800098169B169E16A116A416A716AA16AD16AB
:10019000B016484947C848C94C4FD74CCF005354B4
:1001A00045D00054CF003EBD3CBEBEBD3CBDBC21D1
:1001B000BD00504545CB4142D3524EC450494E44F8
:1001C000524541C450494E41524541C4004C4953E7
:1001D000D44E45D75255CE4E4558D44C45D449C639
:1001E000474F54CF4D504C41D94D53544FD05445A7
:1001F0004D50CF4D555349C3474F5355C2524554A7
:100200005552CE52414E444F4D495AC5524E445319
:100210004545C45253D4434CD35245CD464FD249A1
:100220004E5055D4424545D05052494ED44C4F4380
:100230004154C5504F4BC5505345D453544FD045EE
:100240004EC44D45CD5045CE50415045D2BFA3A7D9
:1002500044454C41D9454C4953D445464F524D41F4
:10026000D44543484149CE45534156C5454C4F417D
:10027000C446494C45D343464F524D41D44343486D
:100280004149CE43534156C5434C4F41C450494E5A
:100290004449D250494E4457524954C500000000C9
:1002A000000000000000000000000000000000004E
:1002B0000000000000607E607E0000000000000082
:1002C000000000000000000000000000000000002E
:1002D0000009090909607E607E000000000000003E
:1002E000000000000000000000000000000000000E
:1002F00000715151713121312100000000000000D6
:1003000000000000007A5A5A7A73535373614141D6
:1003100061775757773240324000000000000000FC
:1003200000634343637858587864444464654545A2
:1003300065342434243323332300000000000000FC
:100340000020202020765656766646466674545421
:1003500074725252723525352500000000000000ED
:10036000006E4E4E6E624242626848486867474778
:100370006779595979365E365E000000000000004A
:10038000002C3C2C3C6D4D4D6D6A4A4A6A755555A2
:100390007537263726382A382A000000000000006A
:1003A000002C3C2C3C6B4B4B6B694949696F4F4FA0
:1003B0006F3029302939283928000000000000005A
:1003C000002E3E2E3E2F3F2F3F6C4C4C6C3B3A3B59
:1003D0003A705050702D5F2D5F000000000000004B
:1003E000000000000027222722000000005B7B5B4A
:1003F0007B3D2B3D2B0000000000000000000000B2
:1004000000000000000D0D0D0D5D7D5D7D00000004
:10041000005C7C5C7C00000000000000000000002C
:10042000003C3C3C3C0000000000000000000000DC
:10043000000000000008080808000000000000009C
:100440000031313131000000003434343437373773
:1004500037000000000000000000000000303030D5
:10046000302E2E2E2E323232323535353536363666
:1004700036383838381B1B1B1B00000000000000FA
:10048000002B2B2B2B333333332D2D2D2D2A2A2AC2
:100490002A3939393900000000000000004B657925
:1004A000626F61726420636F6E6E65637465642051
:1004B0007375636365737366756C6C79004B6579EE
:1004C000626F6172642073656C662D74657374204D
:1004D0006661696C65640045787065637465642065
:1004E000636F6C6F72205B302E2E3132375D004FA0
:1004F0007574206F662072616E676500457870655F
:10050000637465642062797465205B302E2E323509
:10051000355D00496E76616C69642076617269614F
:10052000626C65206E616D6500496E76616C696410
:1005300020636F6F7264696E6174657300556E6BD2
:100540006E6F776E20636F6D6D616E6400556E6BBC
:100550006E6F776E2066756E6374696F6E0050699A
:100560006E20492F4F206572726F7200496E76615E
:100570006C69642070696E205B302E2E375D0044FC
:1005800069766973696F6E206279207A65726F008F
:100590004F70657261746F72206578706563746501
:1005A0006400496E76616C6964206C696E65206ECA
:1005B000756D626572004A756D7020706F696E743A
:1005C000206E6F7420666F756E640056617269618B
:1005D000626C652065787065637465640070617233
:1005E000656E746865736973206D697373696E678E
:1005F00000556E6578706563746564206368617228
:10060000616374657200537461636B206F76657209
:10061000666C6F770053796E746178206572726FC3
:1006200072004E6F742079657420696D706C656D11
:10063000656E74656400526967687420004C656675
:100640007420004F4B00427265616B21002062797B
:1006500074657320617661696C61626C650020620B
:100660007974657320524F4D002062797465732050
:1006700052414D0057656C636F6D6520746F206E3D
:10068000737442415349432076302E3200001124C6
:100690001FBECFEFD0E1DEBFCDBF11E0A0E0B1E0E3
:1006A000E2EFF5E302C005900D92A633B107D9F74A
:1006B0002DE0A6E3B1E001C01D92A23CB207E1F734
:1006C0000E94BB160C94F71A0C9400001F93CF9352
:1006D000DF93EC0120E030E010E0FE0184918823FC
:1006E00081F14091A10D5091A20DFA01E20FF31F8B
:1006F0008081FE019491891304C02F5F3F4F2196A2
:10070000ECCFFE016491E82FF0E0E058FF4F70E07D
:10071000E617F70759F42F5F3F4F240F351F30932B
:10072000A20D2093A10D0E943C100BC0FE018491EC
:10073000219687FFFBCF1F5F0E943C1020E030E036
:10074000CCCF812FDF91CF911F910895E091A10D22
:10075000F091A20DCF0101969093A20D8093A10D6F
:1007600081819FEC980F943018F480530C94EF0C17
:1007700084E08093BA0D08951F93CF93DF93C4E074
:10078000DCE04091A10D5091A20DCA010196909319
:10079000A20D8093A10DFA0161818EEC860F863047
:1007A000A8F460539A012E5F3F4F3093A20D20931F
:1007B000A10D828190E0815491098033910508F068
:1007C0006AC0825C9F4FFC010C94EF16623211F0FC
:1007D000673229F45093A20D4093A10DB3C084E079
:1007E0008093BA0DAFC093E065C0CA0103969093A1
:1007F000A20D8093A10DFA018381833209F451C0C7
:100800003093A20D2093A10D91E054C0CA0103962C
:100810009093A20D8093A10DFA0183818F7D823484
:1008200009F441C03093A20D2093A10D95E042C080
:10083000CA0103969093A20D8093A10DFA018381C2
:10084000833299F13093A20D2093A10D96E032C02E
:10085000CA0103969093A20D8093A10DFA018381A2
:10086000833229F13093A20D2093A10D98E022C08C
:10087000CA0103969093A20D8093A10DFA01838182
:100880008F7D8234B1F03093A20D2093A10D9CE0B6
:1008900011C09DE00FC0C093BA0D90E00BC09AE06C
:1008A00009C092E007C094E005C097E003C099E05A
:1008B00001C09BE0E091A10DF091A20D9F012F5F7F
:1008C0003F4F3093A20D2093A10D81814FEC480F33
:1008D000483010F4805303C0C093BA0D80E0AF01DC
:1008E0004E5F5F4F5093A20D4093A10D42814D3258
:1008F00071F04D3321F04B3221F421E009C023E0A7
:1009000007C03093A20D2093A10D20E001C022E08A
:10091000382F392B322BB1F09D3041F06250192F16
:100920006D9F100D11241150110F01C010E981505D
:10093000F0E42F9F800D11240E94EF0C812F0E9464
:10094000EF0C1FCFDF91CF911F910895CF93DF93CD
:100950000E946306EC018091BA0D811143C086EAC2
:1009600091E00E9466038730E9F1482F50E047305C
:100970005105D0F5FA01E259FF4F0C94EF160E9491
:10098000630631E020E0C817D9074CF527C00E9464
:10099000630631E020E0C817D90709F51FC00E949F
:1009A000630631E020E08C179D07CCF017C00E9451
:1009B000630631E020E0C817D90781F410C00E9417
:1009C000630631E020E08C179D074CF407C00E94BD
:1009D000630631E020E0C817D9070CF030E0832F20
:1009E000922F04C0CE0102C080E090E0DF91CF9151
:1009F0000895EF92FF920F931F93CF93DF931F926F
:100A0000CDB7DEB701E010E00E943C10E091A10DEF
:100A1000F091A20D80818D3249F43196F093A20DB0
:100A2000E093A10D119501951109EECF803331F4BA
:100A30003196F093A20DE093A10DFAC09FEC980FB0
:100A40009930E0F480E090E03AE0A091A10DB091FF
:100A5000A20DAC01349FC001359F900D1124FD0102
:100A60002191820F911DC097F093A20DE093A10DEB
:100A700011962C9120532A3040F3DCC09FEB980F45
:100A80009A3108F0B5C0918191549A31B0F090E05C
:100A900081549048880F991FA091B80DB091B90D5D
:100AA000A80FB91F3C9111962C913196F093A20D8D
:100AB000E093A10D832F922FBDC082EB91E00E94A5
:100AC0006603282F853011F48EE0B0C0E091A10DAF
:100AD000F091A20D8081883211F085E0A7C0319697
:100AE000F093A20DE093A10D29830E94A6047C013E
:100AF000E091A10DF091A20D80812981893209F048
:100B000094C03196F093A20DE093A10D2230F9F03C
:100B100028F4222341F0213099F06AC02330E9F013
:100B20002430D1F165C050E5E5165CE0F50614F01F
:100B300083E17CC0F701E05BFE4F808190E07AC0EA
:100B4000C701F7FE77C091958195910973C00E9406
:100B50005717B7010E94DB166DC088E0E816F10454
:100B600010F08CE063C081E090E002C0880F991F14
:100B7000EA94E2F721B130E028233923232B29F529
:100B800020B130E02823392351E040E0232B09F441
:100B900050E0852F942F4EC0A8E0EA16F10408F724
:100BA000E0927C0021E030E002C0220F331FEA9483
:100BB000E2F742B192B1822F8095892382B981B147
:100BC00090E082239323892B11F08DE02FC0809138
:100BD0007A00806480937A0080917A0086FDFCCF51
:100BE00042B980917800909179009695879522C0BE
:100BF000E091A10DF091A20D80818832B1F431967F
:100C0000F093A20DE093A10D0E94A6049C01E09137
:100C1000A10DF091A20D8081893239F43196F093C3
:100C2000A20DE093A10DC90105C086E08093BA0D25
:100C300080E090E0FC010E9FC0010F9F900D1E9F71
:100C4000900D11240F90DF91CF911F910F91FF9084
:100C5000EF9008951F93CF93DF930E94F904EC0166
:100C60000E943C101BE0E091A10DF091A20D80814B
:100C70008A3281F43196F093A20DE093A10D0E9487
:100C8000F9049E01289FE001299FD00D389FD00DC7
:100C90001124E9CF8F3291F43196F093A20DE093B5
:100CA000A10D0E94F904BC01009729F0CE010E9419
:100CB000DB16EB01D8CF1093BA0DD5CFCE01DF9163
:100CC000CF911F910895CF93DF93E091A10DF09103
:100CD000A20D80818D3231F08B3221F00E942A06E4
:100CE000EC0102C0C0E0D0E0E091A10DF091A20DB6
:100CF00080818D3251F43196F093A20DE093A10DD5
:100D00000E942A06C81BD90BEFCF8B3251F43196C3
:100D1000F093A20DE093A10D0E942A06C80FD91FDF
:100D2000E3CFCE01DF91CF910895FF920F931F93F0
:100D3000CF93DF93EC018B01F12CFE01EF0DF11D40
:100D40008081882341F0B801992787FD90950E9402
:100D5000B717F394F2CFDF91CF911F910F91FF90CE
:100D60000895AF92BF92CF92DF92EF92FF920F93CE
:100D70001F93CF93DF9300D0CDB7DEB75C017B012B
:100D800097FF07C0B194A194B1088DE290E00E9452
:100D9000B71700E010E08AE0C82ED12CC501B601DB
:100DA0000E94DB16805D69837A830E940D10698141
:100DB000A62E7A81B72E0F5F1F4FA114B10471F7D1
:100DC0000E941810B70190E00E94B7170150110956
:100DD00001151105A9F70F900F90DF91CF911F9189
:100DE0000F91FF90EF90DF90CF90BF90AF9008955C
:100DF0000F931F93CF93DF93EC018B01CE01FE0184
:100E00002491222341F02196FC018491B80190E0C5
:100E10000E94B717F3CFDF91CF911F910F910895E3
:100E2000CF93DF93EC01BC018AE090E00E94B717FA
:100E3000BE018DE090E0DF91CF910C94B717CF9376
:100E4000DF93EB010E94F806CE01DF91CF910C9465
:100E50001007CF93DF93EC01E091B30DF091B40D47
:100E6000808191813396F093B40DE093B30DBE0170
:100E70000E94B106BE0180E290E00E94B717E091A7
:100E8000B30DF091B40D80818A3071F0BE0190E015
:100E90000E94B7178091B30D9091B40D0196909375
:100EA000B40D8093B30DEBCF3196F093B40DE09376
:100EB000B30DCE01DF91CF910C941007CF93E09149
:100EC000A10DF091A20DC081C23221F0C73211F004
:100ED00080E029C03196F093A20DE093A10D81919D
:100EE0008C1719F08A30D9F7F3CFE091A10DF0916A
:100EF000A20D80818C1789F06091BE0D7091BF0D9D
:100F000090E00E94B7178091A10D9091A20D0196DB
:100F10009093A20D8093A10DE8CF3196F093A20D8E
:100F2000E093A10D81E0CF9108950E94A6049093D3
:100F3000A00D80939F0D8091BA0D811107C0E091A3
:100F4000A10DF091A20D80818A3021F084E0809380
:100F5000BA0D08950E9422109093B00D8093AF0DAA
:100F600081E008950E94A6042091BA0D211107C0C6
:100F7000E091A10DF091A20D20812A3021F484E0AE
:100F80008093BA0D0895892B11F086E0089582E0D0
:100F90000895BF92CF92DF92EF92FF920F931F932B
:100FA000CF93DF930E943C10E091A10DF091A20D30
:100FB000D0808FEB8D0D8A3110F087E00FC0319615
:100FC000F093A20DE093A10D0E943C10E091A10DC1
:100FD000F091A20D80818D3329F08AE08093BA0DC3
:100FE00084E079C03196F093A20DE093A10D0E94A8
:100FF0003C101092BA0D0E94A6047C018091BA0D9B
:101000008111EECF83EA91E00E946603811124C032
:101010000E94A6048C018091BA0D8111E1CF8EE966
:1010200091E00E946603811109C00E94A6042091EC
:10103000BA0D2111D5CFB82EC92E03C0BB24B3944D
:10104000C12C0E943C10C091A10DD091A20D28810D
:101050002A3021F02A3311F082E0C0CF8091BA0DFE
:10106000811136C02A30A1F5E091A30DF091A40DB5
:101070009F01265F3F4F4091AB0D5091AC0D24175F
:10108000350710F483E0AACF3A97F093A40DE093CC
:10109000A30D2D2D30E021543048220F331FA09195
:1010A000B80DB091B90DA20FB31FED92FC9286E47A
:1010B0008083D18213830283B482C582D187C087A3
:1010C0008091AF0D9091B00D9783868383E003C02C
:1010D00084E08093BA0DDF91CF911F910F91FF9023
:1010E000EF90DF90CF90BF9008951092BA0D0E94BC
:1010F000A6049093A00D80939F0D8091BA0D81114D
:1011000032C0A091A10DB091A20D8C918A3059F5F9
:10111000E091A30DF091A40DCF0106962091AB0DA7
:101120003091AC0D8217930728F483E08093BA0DB9
:1011300084E008953697F093A40DE093A30D87E41F
:1011400090E091838083B583A4838091AF0D9091CB
:10115000B00D938382830E9422109093B00D8093F0
:10116000AF0D81E0089584E08093BA0D08950E9448
:101170003C10E091A10DF091A20D808181548A3143
:1011800010F087E011C03196F093A20DE093A10D0D
:101190000E943C10E091A10DF091A20D80818A3354
:1011A00039F08A3029F082E08093BA0D84E0089506
:1011B00080E008952091A30D3091A40DA091A10D80
:1011C000B091A20DF90111979DE0EE39F90708F0F1
:1011D00057C090819634D1F0973409F054C08C30C8
:1011E00099F4828193819093B00D8093AF0D8481A7
:1011F00095819093A20D8093A10D2A5F3F4F30936C
:10120000A40D2093A30D38C03696DECF8330B1F500
:101210009C914181941332C0892F90E08154904871
:10122000880F991FA091B80DB091B90DA80FB91FE3
:101230008D919C91119724813581820F931F8D93FD
:101240009C9324813581232B91F0228133812817AF
:10125000390768F0808591859093A20D8093A10D48
:10126000868197819093B00D8093AF0D05C03A961B
:10127000F093A40DE093A30D83E008953A96A4CFD4
:1012800088E08093BA0D84E00895CF93DF93CEEB8E
:10129000DDE06881798188EC90E00E94B7170E94B8
:1012A000420C6881798184E796E00E941F07809153
:1012B000B60D9091B70D9093B20D8093B10D85E06E
:1012C000DF91CF9108956091BE0D7091BF0D89ECB3
:1012D00090E00E94B7170E94420C83E008950E949C
:1012E000A6042091BA0D21110BC08038910520F081
:1012F00084E18093BA0D04C00E94F70C82E0089547
:1013000084E008950E94A6042091BA0D21110BC01B
:101310008038910520F084E18093BA0D04C00E94CA
:101320000C0D82E0089584E00895CF93DF930E942E
:10133000A604EC018091BA0D81111DC0C831D10500
:10134000B8F4E091A10DF091A20D80818C3211F0E2
:1013500082E00FC03196F093A20DE093A10D0E94A0
:10136000A6042091BA0D211106C08032910528F003
:1013700080E18093BA0D84E005C0682F8C2F0E9415
:10138000210D82E0DF91CF910895E091A10DF091C0
:10139000A20D80818A3381F48091BE0D9091BF0DA2
:1013A0000E9410078091A10D9091A20D019690933B
:1013B000A20D8093A10D48C08A3009F44BC00E9451
:1013C0003C100E945E0781111BC0E091A10DF091BD
:1013D000A20D8081823211F0873221F484E0809363
:1013E000BA0D08951092BA0D0E94A6042091BA0D6C
:1013F000211132C06091BE0D7091BF0D0E94B106E7
:10140000E091A10DF091A20D80818C3231F43196E2
:10141000F093A20DE093A10DD2CF8B3359F48181CB
:101420008A3011F08A3391F43196F093A20DE09353
:10143000A10D0AC08A3011F08A3341F48091BE0DAB
:101440009091BF0D0E94100783E0089582E0809381
:10145000BA0D02C082E0089584E008950F931F93AF
:10146000CF93DF930E94A604EC018091BA0D811105
:1014700036C0CF3FD10509F0B0F4E091A10DF09155
:10148000A20D80818C32C1F43196F093A20DE093CD
:10149000A10D0E94A6048C018091BA0D81111FC07C
:1014A000003F110510F080E118C0E091A10DF0910E
:1014B000A20D80818C3211F082E00FC03196F09342
:1014C000A20DE093A10D0E94A6042091BA0D211156
:1014D00006C08038910528F084E18093BA0D84E03D
:1014E00006C0482F602F8C2F0E943F0D82E0DF91B5
:1014F000CF911F910F910895CF93C82F8A3019F47F
:101500008DE00E947C0A8091C00085FFFCCFC093D3
:10151000C60080E090E0CF9108958091C00087FFE1
:10152000FCCF8091C60090E0089520914A012111DE
:1015300005C08FE090E00E94C510F7CF9091360172
:10154000E92FF0E0E65CFE4F80819F5F90933601CB
:10155000215020934A01903111F41092360190E00D
:101560000895682F8091AD0D9091AE0D9C012F5F75
:101570003F4F3093AE0D2093AD0D0E94D71980E000
:1015800090E008958091AD0D9091AE0D9C012F5F7C
:101590003F4F3093AE0D2093AD0D0E94CF1990E0D8
:1015A000089588B94E99FECF5F9A4E9BFECF5F9803
:1015B0006EE071E0883079F488E090E00E94B7171F
:1015C0006EE071E080E290E00E94B7176EE071E09B
:1015D00088E090E003C0992787FD90950E94B71797
:1015E00080E090E0089522982A9AEA9A53985298B7
:1015F0005B9A5A9A82E084BD15BC94E697BD8093AD
:101600006E001092B50D9BE090934B0180936900A2
:1016100010924C01E89A78940895CF93E898C4E624
:1016200028988EEE92E00E94D010289A84EF91E0E4
:101630000E94D010C150A1F7E89ACF9108959091DF
:101640004A01903198F420913701E22FF0E0E65CF6
:10165000FE4F808381E0820F809337019F5F9093DC
:101660004A01803129F41092370108950C940D0B32
:1016700008951F920F920FB60F9211248F9381E05D
:101680008093B50DEA988F910F900FBE0F901F9029
:1016900018951F920F920FB60F9211248F938BE023
:1016A00080934B0115BC8F910F900FBE0F901F9030
:1016B00018951F920F920FB60F9211242F933F93FC
:1016C0004F935F936F937F938F939F93AF93BF934A
:1016D000EF93FF9399B120914C0180914B0121111F
:1016E0001AC08B3011F485E085BD80914B01835089
:1016F000883050F48091390186958093390193FFA9
:1017000003C080688093390183E08093690081E0A1
:1017100080934C01A6C0815080934B0181119CC0E5
:10172000E09139018091380180FD86C0E73759F199
:1017300058F4E43169F118F4E23161F12DC0E83573
:1017400001F1E93539F128C0E03EB1F020F4EA3A80
:1017500009F47FC021C0E03F89F0EC3FE9F46091DB
:10176000BE0D7091BF0D8DEB94E00E941F070E948B
:101770000D0B0E940D0B6DC0826069C08D7F816072
:1017800066C090E201C098E098279093380161C04C
:1017900084605DC080615BC082FF1AC0E13221F4C9
:1017A00081E08093B50D55C0E43329F48B7F80939D
:1017B000380187E03EC0EB3411F48CE03AC0EC31E4
:1017C00011F481E036C0E43209F043C082E031C058
:1017D00081FF21C0EA3511F48DE017C0E53711F41F
:1017E00084E013C0E23711F485E00FC0EB3611F44A
:1017F00080E10BC0E43711F481E107C0EC3611F44D
:1018000081E003C0E93619F482E00E941F0B809149
:1018100038018D7F1CC084FB992790F985FD9E5F60
:1018200084E0E89FF0011124E90FF11DE356FD4F1C
:1018300084910E941F0B0DC0E43131F0E93531F085
:10184000E23121F08E7F03C08A7F01C08E7E8093BB
:1018500038018BE080934B0182E080936900109205
:101860004C01FF91EF91BF91AF919F918F917F912B
:101870006F915F914F913F912F910F900FBE0F90FD
:101880001F9018956EE071E08BE190E00E94B71711
:101890006EE071E08BE590E00E94B7176EE071E0BA
:1018A00080E390E00E94B7176EE071E08DE690E073
:1018B0000E94B7176EE071E08BE190E00E94B717CD
:1018C0006EE071E08BE590E00E94B7176EE071E08A
:1018D00088E490E00E94B7176EE071E08BE190E041
:1018E0000E94B7176EE071E08BE590E00E94B71799
:1018F0006EE071E08AE490E00C94B717CF938CE12E
:1019000091E09093BD0D8093BC0D9093BF0D80939B
:10191000BE0D10927C0087E880937A0080917A0057
:10192000806480937A0080917A0086FDFCCF11B8A4
:10193000CFEFC2B9209A289A0E94F30AC7B95698E5
:10194000579A5498559A1092C50085E18093C40027
:1019500086E08093C20088E18093C100CF910C940F
:10196000420CFF920F931F93CF93DF93C82FF62E55
:101970006EE071E08BE190E00E94B7176EE071E0DD
:101980008BE590E00E94B7171F92CF930EE211E013
:101990001F930F93CEE0D1E0DF93CF930E94A51762
:1019A000BE018BE390E00E94B7171F92FF921F9336
:1019B0000F93DF93CF930E94A5178DB79EB70C9618
:1019C0000FB6F8949EBF0FBE8DBFBE0188E490E0B5
:1019D000DF91CF911F910F91FF900C94B71788B9A9
:1019E0004C99FECF5D9A4C9BFECF5D9808951F9356
:1019F000CF93DF93182FCEEBDDE0688179818EECF9
:101A000090E00E94B71768817981812F90E0DF9183
:101A1000CF911F910C94B7171F93CF93DF93182F7B
:101A2000CEEBDDE0688179818FEC90E00E94B71702
:101A300068817981812F90E0DF91CF911F910C9483
:101A4000B7170F931F93CF93DF93082F162FCEEB6B
:101A5000DDE0688179818DEC90E00E94B7176881A4
:101A60007981802F90E00E94B71768817981812F5A
:101A700090E0DF91CF911F910F910C94B717EF92E7
:101A8000FF920F931F93CF93DF931F92CDB7DEB7D3
:101A9000082F162F8EEBE82E8DE0F82EF7016081CF
:101AA00071818AEC90E049830E94B717F701608149
:101AB0007181802F90E00E94B717F70160817181DA
:101AC000812F90E00E94B717F701608171814981F1
:101AD000842F90E00F90DF91CF911F910F91FF9095
:101AE000EF900C94B7178FEC0E94EF0C83E00895F1
:101AF0008EEC0E94EF0C83E008950E943C100E943F
:101B0000A6042091BA0D211122C08837910599F0C1
:101B100038F4CC97F1F48CEC0E94EF0C80E014C008
:101B20008639910569F0843B910599F48CEC0E940B
:101B3000EF0C88E109C08CEC0E94EF0C88E004C037
:101B40008CEC0E94EF0C80E10E94EF0C02C084E05C
:101B5000089583E00895CF93DF930E943C10109284
:101B6000BA0DE091A10DF091A20DC081C23231F009
:101B7000C73221F082E08093BA0D26C03196F093EF
:101B8000A20DE093A10DD4E009C08091A10D909128
:101B9000A20D01969093A20D8093A10DE091A10D4D
:101BA000F091A20D80818C1709F449C0893571F438
:101BB00089EC0E94EF0C0E94A6038091BA0D882345
:101BC00021F388EC0E94EF0C84E03FC08A3580F45A
:101BD000853431F130F4833409F1F0F4813441F388
:101BE0002BC08E34C9F08835C9F08D3429F518C062
:101BF0008536B1F030F4833689F070F48136C1F265
:101C00001BC08E3649F018F48D3651F015C0883758
:101C100029F0893769F210C08AECCBCF8BECC9CFA1
:101C20008DEC0E94EF0C0E94A6038091BA0D8111E9
:101C3000C4CF0E94BC03C1CFD093BA0DBECF3196A2
:101C4000F093A20DE093A10D83E0DF91CF91089571
:101C5000CF93DF931092AE0D1092AD0DC0E0D8E09F
:101C600080E091E00E9467178823D9F06091BE0D53
:101C70007091BF0D20EE280F2F3538F08A3029F0F3
:101C80008D3019F08FE390E001C090E00E94B7170B
:101C90002197209729F78091BE0D9091BF0D0E944A
:101CA000100782E0DF91CF910895CF93DF931092D8
:101CB000AE0D1092AD0DC0E0D0E060E071E080E0CC
:101CC00090E00E94B717CE018F7799278034910555
:101CD00041F46091BE0D7091BF0D8EE290E00E94C4
:101CE000B7172196CF3F87E0D80739F78091BE0D0F
:101CF0009091BF0D0E94100782E0DF91CF9108956F
:101D00001092AE0D1092AD0D80E091E00E94671729
:101D100080538A3090F41092AE0D1092AD0D8091E8
:101D2000B60D9091B70D9093B20D8093B10D809147
:101D30004F01886080934F0103C089E08093BA0D02
:101D400084E008951092AE0D1092AD0D0E94221005
:101D50009093B40D8093B30D2091B30D3091B40DD9
:101D60008091B10D9091B20D2817390729F080E0CC
:101D700091E00E942907F0CF60E071E080E090E000
:101D80000E94B71782E00895EF92FF921F93CF93BE
:101D9000DF93C091B10DD091B20D2296D093A20DD8
:101DA000C093A10D80914F0183FD10C010EE6AC059
:101DB000E091A10DF091A20D80838091A10D9091F1
:101DC000A20D01969093A20D8093A10D80E091E069
:101DD0000E9467179C0133272A30310559F02D30B6
:101DE000310541F0232B21F780914F01877F8093AC
:101DF0004F010DC1E091A10DF091A20D8AE0808309
:101E000006C18091A10D9091A20D8C179D07D0F570
:101E10006091BE0D7091BF0D82E090E00E94B717F7
:101E20004091B10D5091B20DCE01841B950B9EEFE8
:101E3000F92EF80EEF2CE294E69427E0E2222091AE
:101E4000A10D3091A20D241B350B22502295269511
:101E500027706091BE0D7091BF0D8E2D821B90E09A
:101E600001960E94B7176091BE0D7091BF0D8F2D26
:101E7000E19E800D112490E00E94B717D093A20D2F
:101E8000C093A10D8091BC0D9091BD0D0E9467176C
:101E90007C019927FC013197E131F10508F08DC0F3
:101EA000EB58FF4F0C94EF168091B10D9091B20D4D
:101EB00002962091A10D3091A20D8217930710F781
:101EC0006091BE0D7091BF0D81E090E00E94B71748
:101ED0006091BE0D7091BF0D8091A10D9091A20DEA
:101EE0002091B10D3091B20D821B930B82508295DF
:101EF0008695877090E001960E94B7178091B10D8A
:101F00009091B20D02961AC08091B10D9091B20DD0
:101F100002962091A10D3091A20D8217930708F02F
:101F200059C06091BE0D7091BF0D80E190E00E949C
:101F3000B7178091A10D9091A20D01979093A20DDA
:101F40008093A10D9FCF8091A10D9091A20D8C1730
:101F50009D0708F03FC001969093A20D8093A10DBC
:101F60006091BE0D7091BF0D81E190E00E94B717A6
:101F700089CFD093A20DC093A10D8AE08883809170
:101F8000BE0D9091BF0DDF91CF911F91FF90EF900B
:101F90000C9410078091B10D9091B20D0296209192
:101FA000A10D3091A20D82179307A0F46091BE0D90
:101FB0007091BF0D88E090E0BACF2091B80D3091BC
:101FC000B90D225031094091A10D5091A20D421737
:101FD000530719F40E940D0B55CF6091BE0D7091FF
:101FE000BF0D0E94B717E091A10DF091A20DE08204
:101FF0008091A10D9091A20D01969093A20D8093D6
:10200000A10DC817D90708F03DCFEC013BCFDF91F8
:10201000CF911F91FF90EF900895E091A30DF09163
:10202000A40D3197F093A40DE093A30D8083089540
:10203000E091A30DF091A40D8191F093A40DE09394
:10204000A30D08958091B60D9091B70D2091B10D1B
:102050003091B20D40919F0D5091A00D82179307C2
:1020600051F0FC01608171816417750720F4628171
:10207000860F911DF3CF0895E091A10DF091A20D6F
:102080008081803231F43196F093A20DE093A10D5E
:10209000F3CF8930C1F30895E091B10DF091B20D05
:1020A000329690E080818A30B1F0891769F08232EF
:1020B00069F0873269F091110CC02FE9280F2A319D
:1020C00040F48052808305C090E003C092E201C0DA
:1020D00097E23196E7CF089590ED980F9A3090F0FF
:1020E000982F9F7D91549A3168F08F3559F08B323B
:1020F00049F08E3239F021E090E08E3709F020E08F
:10210000822F089581E090E008950F931F93CF935D
:10211000DF931092BA0DC091A10DD091A20D18813C
:10212000812F0E946C10892B31F42196D093A20D3F
:10213000C093A10DF0CF1123F9F0CE010196909339
:10214000A20D8093A10D0091A10D1091A20DF80197
:1021500080810E946C10892B39F00F5F1F4F109304
:10216000A20D0093A10DEFCF0C171D0711F0F80180
:1021700010828881811103C081E08093BA0DCE0165
:10218000DF91CF911F910F910895009741F0E7E8FB
:10219000F3E13197F1F700C000000197F6CF089501
:1021A000009731F026E02A95F1F700C00197F8CFAB
:1021B00008958091B50D811104C08091C6008330CF
:1021C00021F41092B50D81E0089580E00895FC019E
:1021D00020812D3219F4019641E001C040E0FC015C
:1021E00080E090E05AE0219130ED320F3A3060F417
:1021F000BC01569FC001579F900D112430E0205321
:102200003109820F931FEFCF442319F091958195E7
:1022100091090895AF92BF92CF92DF92EF92FF9211
:102220000F931F93CF93DF930E943C10E091A10D79
:10223000F091A20DF0808FEB8F0D8A3110F087E0C6
:1022400015C0D090B80DE090B90D3196F093A20D65
:10225000E093A10D0E943C10E091A10DF091A20D20
:1022600080818A3039F08A3329F082E08093BA0D78
:1022700084E07CC01092A50DEA9AA12CC5EADDE0AD
:102280008AE0B82E8091BC0D9091BD0D0E94671719
:102290008C01C82E8091B50D813009F466C0C8014B
:1022A00099278A309105E1F024F488309105D1F026
:1022B0002CC08D309105A1F08D32910531F5A11022
:1022C0003AC06091BE0D7091BF0D8DE290E00E940A
:1022D000B717FE0101931982EF01AA24A3942BC022
:1022E000B88229C02DE0C53AD20709F018F40E943F
:1022F0000D0B21C06091BE0D7091BF0D88E090E084
:102300000E94B7172197AA9416C020ED200F2A30FB
:1023100090F425E02A1560F06091BE0D7091BF0D1C
:102320000E94B717FE010193A3941982EF0106C022
:102330000E940D0B03C08AE0C81619F02DE0C212EE
:10234000A1CF8091BE0D9091BF0D0E94100785EA2C
:102350009DE00E94E710ED2DFE2DEF0DF11DEF0D1C
:10236000F11DE258F1099183808383E0DF91CF91E1
:102370001F910F91FF90EF90DF90CF90BF90AF90A3
:1023800008951F93CF93DF93E091A10DF091A20DDB
:10239000C0818FEB8C0F8A31F0F51091B80DD09180
:1023A000B90DCF0101969093A20D8093A10D81816B
:1023B00081548A3148F48FEF8093BA0D3296F093AE
:1023C000A20DE093A10D37C00E943C10E091A10D39
:1023D000F091A20D80818D3311F08FE01DC08091AE
:1023E000BA0D8F3F11F481E117C03196F093A20D21
:1023F000E093A10D0E943C100E94A6042091BA0D0A
:10240000211119C0E091A10DF091A20D20812A3077
:1024100031F02A3321F082E08093BA0D0CC0E12F15
:10242000FD2FEC0FF11DEC0FF11DE258F109918326
:10243000808383E001C084E0DF91CF911F910895F4
:10244000CF93DF930E94A604EC018091BA0D811115
:102450002EC0C0358CE0D80714F083E126C00E945E
:102460003C10E091A10DF091A20D80818C32E1F43D
:102470003196F093A20DE093A10D0E943C100E94B2
:10248000A6042091BA0D211112C08F3F910519F0B9
:1024900010F082E10AC0E091A10DF091A20D20811F
:1024A0002A3039F02A3329F082E08093BA0D84E093
:1024B00004C0C05BDE4F888383E0DF91CF91089535
:1024C0000E9489139093A00D80939F0DE091A10D20
:1024D000F091A20D80818A3021F084E08093BA0DC2
:1024E00018C00E9422109093B40D8093B30D2091D8
:1024F000B30D3091B40D8091B10D9091B20D2817AC
:10250000390739F08091BE0D9091BF0D0E942907C7
:10251000EECF84E00895CF93DF93CEEBDDE06881CA
:1025200079818091B80D9091B90D2091B10D3091C4
:10253000B20D821B930B0E94B1066881798189E6F6
:1025400096E00E941F076881798180E098E00E94F0
:10255000B106688179818EE596E00E941F0783E0CD
:10256000DF91CF9108958091B20090E00E945C17B6
:1025700083E008951092BA0D0E94A6042091BA0D2E
:10258000211104C00E945C1783E0089584E008953F
:10259000CF93DF93EA9ACEEBDDE06881798180ED1D
:1025A00090E00E94B7176881798182ED90E00E94E7
:1025B000B7178091B60D9091B70D9093B00D8093A1
:1025C000AF0D81E0DF91CF910895E091A10DF091E1
:1025D000A20D80818A3029F082E08093BA0D84E0D8
:1025E00008958091B10D9091B20D9093B00D8093AC
:1025F000AF0D81E00895E091A10DF091A20D8081D1
:102600008A3029F082E08093BA0D84E008958091A9
:10261000B60D9091B70D9093B20D8093B10D85E0FA
:102620000895CF93DF930E94A604EC018091BA0D28
:1026300081112FC0C830D10510F08CE028C0E09186
:10264000A10DF091A20D80818C3201F53196F093AD
:10265000A20DE093A10D0E94A6042091BA0D2111B4
:1026600018C021E030E00C2E01C0220F0A94EAF7D6
:10267000009731F0019751F481B1822B81B904C0E8
:1026800081B12095282321B982E004C082E08093A3
:10269000BA0D84E0DF91CF910895CF93DF930E942C
:1026A000A604EC018091BA0D81112FC0C830D1056C
:1026B00010F08CE028C0E091A10DF091A20D808176
:1026C0008C3201F53196F093A20DE093A10D0E949A
:1026D000A6042091BA0D211118C021E030E00C2E83
:1026E00001C0220F0A94EAF7009731F0019751F4E4
:1026F00082B1822B82B904C082B12095282322B9ED
:1027000082E004C082E08093BA0D84E0DF91CF9133
:1027100008950E943C1080E090E05AE0E091A10D05
:10272000F091A20D408120ED240F2A30A0F48939C8
:1027300029E1920788F4589F9001599F300D112488
:10274000842F90E0C097820F931F3196F093A20DD3
:10275000E093A10DE3CF08958FEF9FEF0895CF93FE
:10276000DF9380E591E09093B70D8093B60D909341
:10277000B20D8093B10D8FE99DE09093A40D8093ED
:10278000A30D8DE69DE09093AC0D8093AB0D87E398
:102790009DE09093B90D8093B80DCEEBDDE068819C
:1027A000798187EE9BE00E94B1066881798189E694
:1027B00096E00E941F076881798180E098E00E947E
:1027C000B106688179818EE596E00E941F078881B5
:1027D0009981DF91CF910C941007C4E00FE91DE0BF
:1027E000D9E080E1E82E91E3892E91E0992E2EE543
:1027F000D22EC43009F050C06091BE0D7091BF0D53
:1028000081ED90E00E94B7176091BE0D7091BF0DF1
:1028100083ED90E00E94B7171092B00D1092AF0DAB
:102820001093A40D0093A30D6091BE0D7091BF0D88
:1028300083E496E00E941F07C0E02EC04C5F4093E7
:10284000BB0DFC013397F093A20DE093A10D3183F2
:102850002083329640830E94221090934E018093F1
:102860004D012091B10D3091B20D8217930709F0FF
:1028700091C0E091A10DF091A20D83818A3061F0A9
:10288000E0914D01F0914E012091BB0D2111A6C0A8
:10289000F0934E01E0934D011092BA0D80914F01DB
:1028A000982F937089F08C7F80934F018091B60DA3
:1028B0009091B70D9093B00D8093AF0D03969093C8
:1028C000A20D8093A10DDDC00E94C40E0E944C1089
:1028D0008091B10D9091B20D02969093A20D8093CC
:1028E000A10DE091A10DF091A20D80818A3031F00F
:1028F0003196F093A20DE093A10DF3CFE091B80DC6
:10290000F091B90D3197A091A10DB091A20D8C91CC
:1029100080832091A10D3091A20D8091B10D9091F5
:10292000B20D02962817390739F02150310930933A
:10293000A20D2093A10DE6CFF093A20DE093A10D7F
:102940000E9489139093A00D80939F0D0E943C10CC
:1029500020919F0D3091A00D2115310509F481C002
:102960002F3F8FEF380719F4D093BA0D8AC0109219
:10297000BB0D8091A10D9091A20D4091BB0DFC016A
:10298000E40FF11D50815A3009F458CF4F5F409346
:10299000BB0DF3CFDC016D917C91119740919F0DA0
:1029A0005091A00D6417750709F063CF12964C91F2
:1029B0001297FC01E40FF11D2E1B3F0BAF01420FDC
:1029C000531FE417F50719F061916D93FACF820F49
:1029D000931F9093B20D8093B10D4BCFA091B10D89
:1029E000B091B20D8091A10D9091A20D30E08A1BA3
:1029F0009B0B2817390708F4C901AD01480F591F6F
:102A00009D012E1B3F0B3D01BA012115310549F0F7
:102A1000D301BE903D01DB01BE92BD0121503109C1
:102A2000F4CF8E0F9F1FE817F907B1F0A091A10D09
:102A3000B091A20D2C9121932091A10D3091A20D66
:102A40002F5F3F4F3093A20D2093A10D2091BB0D1E
:102A500021502093BB0DE7CF5093B20D4093B10DA1
:102A600013CF1092B50DE091B10DF091B20DCF01E1
:102A700002969093A20D8093A10D82818A3009F471
:102A80000BCF8091BA0D8111DFC00E94D91088232D
:102A900049F06091BE0D7091BF0D86E496E00E94F2
:102AA0001F07CFC01092BA0D8DEC91E00E94660313
:102AB00090E08F32910508F07CC0FC01EA57FF4F8F
:102AC0000C94EF160E94A6040E94C51089C00E94B3
:102AD000FB1272C00E940D0B83C00E94C8126CC012
:102AE0000E94B20769C00E94950766C00E94730DDC
:102AF00063C00E94780D60C00E947D0D5DC00E9481
:102B0000AB0D5AC00E94E51257C00E94601254C01B
:102B10000E948B1251C00E946F094EC00E94820910
:102B20004BC00E94B7089091BA0D911145C083E047
:102B300004C00E94750840C08CE00E94DA083CC0C6
:102B40000E94B31239C00E94BA1236C00E94C9074F
:102B500033C00E940A1130C00E9420122DC00E9472
:102B60002E0A2AC00E94280E27C00E94550E24C09B
:102B700080914F01826080934F0103C00E94A20E9A
:102B80001BC00E94800E18C00E94450915C00E94FB
:102B9000C50912C00E9495090FC00E9463090CC0AC
:102BA0000E94111309C00E944D1306C00E94C1115A
:102BB00003C0E092BA0D45C0843009F442C08530AC
:102BC00009F441C0863009F460CF833039F50E94A2
:102BD0003C10E091A10DF091A20D80818A3371F03B
:102BE000E091AF0DF091B00D309759F18281E80F6F
:102BF000F11DF093B00DE093AF0D12C0E091A10D67
:102C0000F091A20D80818A3331F43196F093A20DB8
:102C1000E093A10DF3CF0E943C1037CF823001F337
:102C20008091AF0D9091B00D2091B10D3091B20D0A
:102C30008217930731F003969093A20D8093A10D14
:102C400024CFC4E001C0C5E08091BA0D882309F407
:102C5000D0CD83E00E94F70C80E00E940C0D8091A3
:102C6000BA0D90E0FC013197E431F10508F07CC029
:102C7000EB54FF4F6091BE0D7091BF0D0C94EF1699
:102C800082E296E06FC085E196E00E94F8068091AE
:102C9000AF0D9091B00D892B09F19F928F920E94F8
:102CA000E917E091A10DF091A20DB0800F900F9067
:102CB000BAE0BB12D0828091AF0D9091B00D90938D
:102CC000B40D8093B30D8091BE0D9091BF0D0E9405
:102CD0002907E091A10DF091A20DB0828091BE0D67
:102CE0009091BF0D0E9410073FC086E096E03AC069
:102CF00081EF95E037C08DE396E002C086E396E071
:102D00000E941F076091BE0D7091BF0D8DED95E083
:102D100029C08BEC95E026C086EB95E023C082EAC3
:102D200095E020C080E995E01DC08FE795E01AC0CE
:102D30008CE695E017C08EE595E014C08DE495E033
:102D400011C08DE395E00EC089E295E00BC083E1F0
:102D500095E008C08CEF94E005C08FEE94E002C0CF
:102D600087ED94E00E941F078CE40E94F70C80E03E
:102D70000E940C0D3ECD0E947E0C8CE40E94F70C4C
:102D800080E00E940C0D6091BE0D7091BF0D84E734
:102D900096E00E941F070E940D0B1092B00087E082
:102DA0008093B100109270000E94AF130E94ED1347
:102DB00080E090E0089597FB072E16F4009407D06A
:102DC00077FD09D00E94F51607FC05D03EF49095DA
:102DD00081959F4F0895709561957F4F0895EE0FEF
:102DE000FF1F0590F491E02D0994AA1BBB1B51E134
:102DF00007C0AA1FBB1FA617B70710F0A61BB70B6B
:102E0000881F991F5A95A9F780959095BC01CD010F
:102E100008958F929F92AF92BF92CF92DF92EF92DE
:102E2000FF92CF93DF93EC01688179818A819B8146
:102E3000611571058105910521F464E279ED8BE559
:102E400097E02DE133EF41E050E00E945D1A490127
:102E50005A019B01AC01A7EAB1E40E947C1A6B0104
:102E60007C01ACEEB4EFA50194010E948A1AC60E53
:102E7000D71EE81EF91EF7FE06C081E0C81AD10869
:102E8000E10880E8F80AC882D982EA82FB82C6019A
:102E90009F77DF91CF91FF90EF90DF90CF90BF9021
:102EA000AF909F908F9008950E94091708958AE22D
:102EB00091E00E9409170895A0E0B0E080932A01F4
:102EC00090932B01A0932C01B0932D010895CF93E3
:102ED000DF93EC012B8120FF33C026FF0AC02F7B3C
:102EE0002B838E819F8101969F838E838A8190E0C0
:102EF00029C022FF0FC0E881F9818081992787FDD1
:102F00009095009719F420622B831AC03196F983AB
:102F1000E8830EC0EA85FB85099597FF09C02B81E0
:102F2000019611F480E101C080E2822B8B8308C0FE
:102F30002E813F812F5F3F4F3F832E83992702C011
:102F40008FEF9FEFDF91CF910895A0E0B0E0EBEA23
:102F5000F7E10C949F1AAE01475F5F4F6F81788550
:102F60008D819E810E94FD17E2E00C94BB1A0F93A5
:102F70001F93CF93DF93182F092FEB018B8181FDD6
:102F800003C08FEF9FEF20C082FF10C04E815F8192
:102F90002C813D81421753077CF4E881F9819F0120
:102FA0002F5F3F4F39832883108306C0E885F9855A
:102FB000812F0995892B29F72E813F812F5F3F4F64
:102FC0003F832E83812F902FDF91CF911F910F91FF
:102FD0000895A0E0B0E0EFEEF7E10C949F1AFE0137
:102FE000359661917191AF018091BE0D9091BF0DA9
:102FF0000E94FD17E2E00C94BB1AACE0B0E0E3E005
:10300000F8E10C948F1A7C016B018A01FC01178294
:103010001682838181FFBDC1CE0101964C01F7016B
:103020009381F60193FD859193FF81916F01882330
:1030300009F4ABC1853239F493FD859193FF8191F9
:103040006F01853229F4B70190E00E94B717E7CFEE
:10305000512C312C20E02032A0F48B3269F030F476
:10306000803259F0833269F420612CC08D3239F0FE
:10307000803339F4216026C02260246023C0286098
:1030800021C027FD27C030ED380F3A3078F426FFF5
:1030900006C0FAE05F9E300D1124532E13C08AE063
:1030A000389E300D1124332E20620CC08E3221F454
:1030B00026FD6BC1206406C08C3611F4206802C066
:1030C000883641F4F60193FD859193FF81916F015C
:1030D0008111C1CF982F9F7D9554933028F40C5FB8
:1030E0001F4FFFE3F9830DC0833631F0833771F052
:1030F000833509F05BC022C0F801808189830E5FAF
:103100001F4F44244394512C540115C03801F2E060
:103110006F0E711CF801A080B18026FF03C0652DE1
:1031200070E002C06FEF7FEFC5012C870E94F41999
:103130002C0183012C852F77222E17C03801F2E055
:103140006F0E711CF801A080B18026FF03C0652DB1
:1031500070E002C06FEF7FEFC5012C870E94E91974
:103160002C012C852068222E830123FC1BC0832D7B
:1031700090E048165906B0F4B70180E290E00E9452
:10318000B7173A94F4CFF50127FC859127FE81917A
:103190005F01B70190E00E94B71731103A94F1E057
:1031A0004F1A51084114510471F7E5C0843611F0EB
:1031B000893639F5F80127FF07C060817181828166
:1031C00093810C5F1F4F08C060817181882777FD54
:1031D0008095982F0E5F1F4F2F76B22E97FF09C054
:1031E00090958095709561957F4F8F4F9F4F206888
:1031F000B22E2AE030E0A4010E94FF19A82EA818E0
:1032000044C0853729F42F7EB22E2AE030E025C055
:10321000F22FF97FBF2E8F36C1F018F4883579F080
:10322000B4C0803719F0883721F0AFC02F2F20614C
:10323000B22EB4FE0DC08B2D8460B82E09C024FFC1
:103240000AC09F2F9660B92E06C028E030E005C066
:1032500020E130E002C020E132E0F801B7FE07C013
:1032600060817181828193810C5F1F4F06C06081F4
:10327000718180E090E00E5F1F4FA4010E94FF1952
:10328000A82EA818FB2DFF77BF2EB6FE0BC02B2D46
:103290002E7FA51450F4B4FE0AC0B2FC08C02B2D3A
:1032A0002E7E05C07A2C2B2D03C07A2C01C0752CE4
:1032B00024FF0DC0FE01EA0DF11D8081803311F461
:1032C000297E09C022FF06C07394739404C0822F24
:1032D000867809F0739423FD13C020FF06C05A2C92
:1032E000731418F4530C5718732C731468F4B70143
:1032F00080E290E02C870E94B71773942C85F5CF5D
:10330000731410F4371801C0312C24FF12C0B70118
:1033100080E390E02C870E94B7172C8522FF17C00E
:1033200021FF03C088E590E002C088E790E0B70184
:103330000CC0822F867859F021FD02C080E201C0C6
:103340008BE227FD8DE2B70190E00E94B717A5142C
:1033500038F4B70180E390E00E94B7175A94F7CF92
:10336000AA94F401EA0DF11D8081B70190E00E945A
:10337000B717A110F5CF332009F451CEB70180E281
:1033800090E00E94B7173A94F6CFF70186819781B3
:1033900002C08FEF9FEF2C96E2E10C94AB1AF999E3
:1033A000FECF92BD81BDF89A992780B50895262F4A
:1033B000F999FECF92BD81BDF89A019700B402162B
:1033C00039F01FBA20BD0FB6F894FA9AF99A0FBED9
:1033D0000895FC010590615070400110D8F7809568
:1033E00090958E0F9F1F0895FC01615070400190D1
:1033F0000110D8F7809590958E0F9F1F0895FA01C0
:10340000AA27283051F1203181F1E8946F936E7F23
:103410006E5F7F4F8F4F9F4FAF4FB1E03ED0B4E014
:103420003CD0670F781F891F9A1FA11D680F791F55
:103430008A1F911DA11D6A0F711D811D911DA11D66
:1034400020D009F468943F912AE0269F1124301976
:10345000305D3193DEF6CF010895462F4770405D11
:103460004193B3E00FD0C9F7F6CF462F4F70405DC0
:103470004A3318F0495D31FD4052419302D0A9F71B
:10348000EACFB4E0A6959795879577956795BA9515
:10349000C9F700976105710508959B01AC010A2EDB
:1034A00006945795479537952795BA95C9F7620FB2
:1034B000731F841F951FA01D0895052E97FB1EF4F2
:1034C00000940E94741A57FD07D00E94C61A07FC88
:1034D00003D04EF40C94741A509540953095219574
:1034E0003F4F4F4F5F4F0895909580957095619530
:1034F0007F4F8F4F9F4F08950E94E81AA59F900D10
:10350000B49F900DA49F800D911D11240895B7FFC5
:103510000C947C1A0E947C1A821B930B08952F92A4
:103520003F924F925F926F927F928F929F92AF9253
:10353000BF92CF92DF92EF92FF920F931F93CF93A0
:10354000DF93CDB7DEB7CA1BDB0B0FB6F894DEBF37
:103550000FBECDBF09942A88398848885F846E845D
:103560007D848C849B84AA84B984C884DF80EE80A7
:10357000FD800C811B81AA81B981CE0FD11D0FB6B0
:10358000F894DEBF0FBECDBFED010895A1E21A2E63
:10359000AA1BBB1BFD010DC0AA1FBB1FEE1FFF1FF7
:1035A000A217B307E407F50720F0A21BB30BE40B47
:1035B000F50B661F771F881F991F1A9469F760958E
:1035C0007095809590959B01AC01BD01CF01089548
:1035D000A29FB001B39FC001A39F700D811D112454
:1035E000911DB29F700D811D1124911D0895F894B5
:0235F000FFCF0B
:1035F2000000000300000000B10AC20A000000003F
:103602000003000000007C0A8D0A00000000000395
:1036120000000000D10A950A0000010000002564A4
:0636220000202D2D200008
:00000001FF
