:100000000C9447030C94F0120C9464030C94BF03FB
:100010000C9464030C9464030C9464030C946403C4
:100020000C9464030C9464030C9464030C946403B4
:100030000C9464030C9464030C9464030C946403A4
:100040000C94CF030C9464030C9464030C94640329
:100050000C9464030C9464030C9464030C94640384
:100060000C9464030C9464030C9464030C94640374
:100070000C9464030C9464030C9464034E053605DD
:10008000F7044C05070518052705480548054805E8
:1000900048054805480548054805460548054805FA
:1000A00048054805480548054805480548054805E8
:1000B0004805480548054805480548054E053605E4
:1000C000F7044C05070518052705480548054805A8
:1000D000480548054805480548054605150A180A13
:1000E0004D0A500A530A560A610A640A670A6A0AE4
:1000F0006D0A700A730A760A790A7C0A7F0A820AF4
:10010000850A880AA20BAA0BB20BBA0BC20BCA0B48
:10011000AA0BA413D4136F14921392136F14901399
:1001200050146F143D146F1492133D146F146F1418
:10013000831323140216E215E8150E165316EB1559
:10014000EE15F115F315F915FC1517161A161D16EF
:10015000201641164A16581623162616E51544167B
:10016000471629162C16FF15FF15051608160B162F
:10017000441658165816D9152F16321635163B1632
:100180003E16581658165816581658164D1650162C
:100190005316484947C848C94C4FD74CCF00535411
:1001A00045D00054CF003EBD3CBEBEBD3CBDBC21D1
:1001B000BD00504545CB4142D3524EC450494E44F8
:1001C000524541C450494E41524541C4004C4953E7
:1001D000D44E45D75255CE4E4558D44C45D449C639
:1001E000474F54CF4D504C41D94D53544FD05445A7
:1001F0004D50CF4D555349C3474F5355C2524554A7
:100200005552CE52414E444F4D495AC5524E445319
:100210004545C45253D4434CD35245CD464FD249A1
:100220004E5055D4424545D05052494ED44C4F4380
:100230004154C5504F4BC5505345D453544FD045EE
:100240004EC44D45CD5045CE50415045D2BFA3A7D9
:1002500044454C41D9454C4953D445464F524D41F4
:10026000D44543484149CE45534156C5454C4F417D
:10027000C446494C45D343464F524D41D44343486D
:100280004149CE43534156C5434C4F41C450494E5A
:100290004449D250494E4457524954C5004578709C
:1002A000656374656420636F6C6F72205B302E2E03
:1002B0003132375D004F7574206F662072616E6752
:1002C00065004578706563746564206279746520A3
:1002D0005B302E2E3235355D00496E76616C696477
:1002E000207661726961626C65206E616D6500499E
:1002F0006E76616C696420636F6F7264696E61749D
:10030000657300556E6B6E6F776E20636F6D6D61F8
:100310006E6400556E6B6E6F776E2066756E6374DB
:10032000696F6E0050696E20492F4F206572726FA1
:100330007200496E76616C69642070696E205B3072
:100340002E2E375D004469766973696F6E2062797D
:10035000207A65726F004F70657261746F722065EC
:100360007870656374656400496E76616C696420B9
:100370006C696E65206E756D626572004A756D7090
:1003800020706F696E74206E6F7420666F756E6476
:10039000005661726961626C65206578706563748E
:1003A000656400706172656E746865736973206D51
:1003B000697373696E6700556E65787065637465FF
:1003C0006420636861726163746572005374616371
:1003D0006B206F766572666C6F770053796E74610F
:1003E00078206572726F72004E6F74207965742088
:1003F000696D706C656D656E7465640052696768DF
:100400007420004C65667420004F4B004272656199
:100410006B210020627974657320617661696C617B
:10042000626C650020627974657320524F4D002024
:1004300062797465732052414D0057656C636F6D2E
:100440006520746F206E73744241534943207630A7
:100450002E3200000000000000000000000000003C
:100460000000000000000000000000607E607E00D0
:10047000000000000000000000000000000000007C
:100480000000000000000009090909607E607E008C
:10049000000000000000000000000000000000005C
:1004A0000000000000000071515171312131210024
:1004B00000000000000000000000007A5A5A7A7321
:1004C000535373614141617757577732403240004F
:1004D00000000000000000634343637858587864CC
:1004E0004444646545456534243424332333230070
:1004F000000000000000002020202076565676667E
:10050000464666745454747252527235253525002D
:10051000000000000000006E4E4E6E6242426268B3
:100520004848686747476779595979365E365E00AB
:10053000000000000000002C3C2C3C6D4D4D6D6A0D
:100540004A4A6A7555557537263726382A382A009B
:10055000000000000000002C3C2C3C6B4B4B6B69F6
:100560004949696F4F4F6F302930293928392800A0
:10057000000000000000002E3E2E3E2F3F2F3F6C5B
:100580004C4C6C3B3A3B3A705050702D5F2D5F00E5
:1005900000000000000000000000002722272200C9
:1005A0000000005B7B5B7B3D2B3D2B0000000000CF
:1005B00000000000000000000000000D0D0D0D5DAA
:1005C0007D5D7D000000005C7C5C7C000000000024
:1005D000000000000000003C3C3C3C00000000002B
:1005E00000000000000000000000000808080800EB
:1005F0000000000000000031313131000000003403
:100600003434343737373700000000000000000072
:10061000000000303030302E2E2E2E323232323565
:1006200035353536363636383838381B1B1B1B0007
:10063000000000000000002B2B2B2B333333332D15
:100640002D2D2D2A2A2A2A39393939000000000097
:100650000000004B6579626F61726420636F6E6E9B
:100660006563746564207375636365737366756C25
:100670006C79004B6579626F6172642073656C669A
:100680002D74657374206661696C656400001124C3
:100690001FBECFEFD0E1DEBFCDBF11E0A0E0B1E0E3
:1006A000E8E3F7E302C005900D92A633B107D9F74E
:1006B0002DE0A6E3B1E001C01D92A23DB207E1F733
:1006C0000E941A170C949A1B0C940000CF93C82F09
:1006D0008A3019F48DE00E9466038091C00085FF86
:1006E000FCCFC093C600CF9108958091C00087FFD2
:1006F000FCCF8091C60090E00895682F8091A10DF5
:100700009091A20D9C012F5F3F4F3093A20D20933B
:10071000A10D0E947A1A80E090E008958091A10DC9
:100720009091A20D9C012F5F3F4F3093A20D20931B
:10073000A10D0E94721A90E0089588B94E99FECFDB
:100740005F9A4E9BFECF5F986EE071E0883079F43F
:1007500088E090E00E945A186EE071E080E290E03C
:100760000E945A186EE071E088E090E003C099277B
:1007700087FD90950E945A1880E090E008951F929E
:100780000F920FB60F9211248F9381E08093AB0DDF
:10079000EA988F910F900FBE0F901F9018951F929F
:1007A0000F920FB60F9211248F938BE080938E0DD2
:1007B00015BC8F910F900FBE0F901F9018956EE093
:1007C00071E08BE190E00E945A186EE071E08BE5D9
:1007D00090E00E945A186EE071E080E390E00E9481
:1007E0005A186EE071E08DE690E00E945A186EE0B3
:1007F00071E08BE190E00E945A186EE071E08BE5A9
:1008000090E00E945A186EE071E088E490E00E9447
:100810005A186EE071E08BE190E00E945A186EE089
:1008200071E08BE590E00E945A186EE071E08AE476
:1008300090E00C945A18FF920F931F93CF93DF937D
:10084000C82FF62E6EE071E08BE190E00E945A18FE
:100850006EE071E08BE590E00E945A181F92CF93F2
:100860000EE211E01F930F93CEE0D1E0DF93CF9320
:100870000E944818BE018BE390E00E945A181F9214
:10088000FF921F930F93DF93CF930E9448188DB769
:100890009EB70C960FB6F8949EBF0FBE8DBFBE01DB
:1008A00088E490E0DF91CF911F910F91FF900C941D
:1008B0005A1888B94C99FECF5D9A4C9BFECF5D9833
:1008C00008951F93CF93DF93182FCEECDDE068815E
:1008D00079818EEC90E00E945A1868817981812F8D
:1008E00090E0DF91CF911F910C945A181F93CF93F2
:1008F000DF93182FCEECDDE0688179818FEC90E0FA
:100900000E945A1868817981812F90E0DF91CF9100
:100910001F910C945A180F931F93CF93DF93082FB6
:10092000162FCEECDDE0688179818DEC90E00E949D
:100930005A1868817981802F90E00E945A18688146
:100940007981812F90E0DF91CF911F910F910C94CD
:100950005A18EF92FF920F931F93CF93DF931F923A
:10096000CDB7DEB7082F162F8EECE82E8DE0F82ECF
:10097000F701608171818AEC90E049830E945A18E6
:10098000F70160817181802F90E00E945A18F70171
:1009900060817181812F90E00E945A18F701608177
:1009A00071814981842F90E00F90DF91CF911F9149
:1009B0000F91FF90EF900C945A18CF93DF93C09152
:1009C0008F0DD091900D9E012F5F3F4F3093900D72
:1009D00020938F0D898190E0815491098033910596
:1009E00008F056C0825C9F4FFC010C949217CE0118
:1009F00002969093900D80938F0D8A81833209F433
:100A00004FC03093900D20938F0D81E052C0CE01E6
:100A100002969093900D80938F0D8A818F7D823402
:100A200009F440C03093900D20938F0D85E041C0B4
:100A3000CE0102969093900D80938F0D8A81833220
:100A400099F13093900D20938F0D86E032C0CE0146
:100A500002969093900D80938F0D8A81833231F1AD
:100A60003093900D20938F0D88E023C0CE01029625
:100A70009093900D80938F0D8A818F7D8234C1F089
:100A80003093900D20938F0D8CE013C08DE011C03A
:100A900084E08093C70D0DC083E00BC08AE009C0DD
:100AA00082E007C084E005C087E003C089E001C0A0
:100AB0008BE0DF91CF910895E0918F0DF091900D33
:100AC000CF0101969093900D80938F0D81819EECC4
:100AD000980F963010F480530895823211F08732C7
:100AE00029F4F093900DE0938F0D03C084E0809380
:100AF000C70D80E00895E0918F0DF091900DCF012A
:100B000001969093900D80938F0D81819FEC980FAB
:100B1000983010F48053089584E08093C70D80E0EE
:100B20000895E0918F0DF091900DCF010196909373
:100B3000900D80938F0D81818D3271F08D3321F076
:100B40008B3221F481E0089583E00895F093900DB5
:100B5000E0938F0D80E0089582E00895E0918F0D7D
:100B6000F091900DCF0101969093900D80938F0D91
:100B700081819FEC980F943018F480530C945904A1
:100B800084E08093C70D08950F931F93CF93DF9355
:100B90000CE00E945C05182F882311F10E94DD04EF
:100BA000C82F0E947B05D82F0E9491059D2F9C2B5A
:100BB000982BB1F0CD3039F01250109FC00D112498
:100BC000C150CC0F01C0C0E9D15090E4899FD00D35
:100BD00011248D2F0E9459048C2F0E945904D9CFC3
:100BE000DF91CF911F910F9108958FEC0E945904CE
:100BF00083E008958EEC0E94590483E0089560918B
:100C0000CE0D7091CF0D89EC90E00E945A180E9491
:100C1000DF0383E008952091AC0D3091AD0D30934A
:100C2000B00D2093AF0D9091A50DA0918F0DB091B7
:100C3000900D1197E091AF0DF091B00D8DE0EA3875
:100C4000F80708F05AC080818634D1F0873409F063
:100C500057C09C3099F4828193819093A40D809326
:100C6000A30D848195819093900D80938F0D2A5FC1
:100C70003F4F3093AD0D2093AC0D37C0369638C042
:100C80009330A9F58C914181841331C090E0815457
:100C90009048880F991FA091B30DB091B40DA80F83
:100CA000B91F8D919C91119724813581820F931FDB
:100CB0008D939C9324813581232B91F02281338164
:100CC0002817390768F0808591859093900D80935F
:100CD0008F0D868197819093A40D8093A30D05C0FD
:100CE0003A96F093AD0DE093AC0D83E008953A96FB
:100CF000F093B00DE093AF0D9DCF88E08093C70DCA
:100D000084E008951092A20D1092A10D80E091E070
:100D10000E940A1890939E0D80939D0DC0970A978C
:100D200090F41092A20D1092A10D8091B10D9091AE
:100D3000B20D9093A70D8093A60D80913901886024
:100D40008093390103C089E08093C70D84E0089542
:100D50008091B20090E00E94FF1783E00895CF9346
:100D6000DF93EA9ACEECDDE06881798180ED90E056
:100D70000E945A186881798182ED90E00E945A1889
:100D80008091B10D9091B20D9093A40D8093A30D1D
:100D900081E0DF91CF910895E0918F0DF091900D5A
:100DA00080818A3029F082E08093C70D84E0089525
:100DB0008091A60D9091A70D9093A40D8093A30D03
:100DC00081E00895E0918F0DF091900D80818A303F
:100DD00029F082E08093C70D84E008958091B10DE1
:100DE0009091B20D9093A70D8093A60D85E0089584
:100DF0002091CB0D222309F459C04091A60D5091AA
:100E0000A70D80918F0D9091900D30E0841B950B74
:100E10002817390708F4C901DA01A80FB91FB093E0
:100E20009A0DA093990D2091C50D3091C60DBA0170
:100E3000621B730B9B01FA012115310529F04291C8
:100E40004E9321503109F8CF2817390731F1E0913D
:100E5000C50DF091C60DA0918F0DB091900D4C91E4
:100E6000408340918F0D5091900D4F5F5F4F509395
:100E7000900D40938F0D4091C50D5091C60D4F5F61
:100E80005F4F5093C60D4093C50D4091CB0D41501F
:100E90004093CB0D2F5F3F4FD7CF8091990D90910D
:100EA0009A0D9093A70D8093A60DA2CF0895CF938E
:100EB000DF93E091C50DF091C60D8091A60D909144
:100EC000A70DE817F907F9F04081518120918C0DA9
:100ED00030918D0D42175307B1F42281DF01A20F2B
:100EE000B11D8A1B9B0B9D01280F391FEF01A21713
:100EF000B30719F04D914993FACFE80FF91FF0931A
:100F0000A70DE093A60DDF91CF9108958091A60DD6
:100F10009091A70D02969093900D80938F0DE09184
:100F20008F0DF091900D80818A3031F03196F093E1
:100F3000900DE0938F0DF3CFE091B30DF091B40DD0
:100F40003197A0918F0DB091900D8C91808320915D
:100F50008F0D3091900D8091A60D9091A70D029666
:100F60002817390739F0215031093093900D20931B
:100F70008F0DE6CFF093900DE0938F0D08951092B2
:100F8000CB0D80918F0D9091900D2091CB0DFC0198
:100F9000E20FF11D30813A3021F02F5F2093CB0D0D
:100FA000F4CF44E0420F4093CB0DFC013397F09314
:100FB000900DE0938F0D20918C0D30918D0D31832C
:100FC0002083329640830895FF920F931F93CF930F
:100FD000DF93EC018B01F12CFE01EF0DF11D8081FF
:100FE000882341F0B801992787FD90950E945A18EF
:100FF000F394F2CFDF91CF911F910F91FF9008955D
:101000000F931F93CF93DF93EC018B01CE01FE0171
:101010002491222341F02196FC018491B80190E0B3
:101020000E945A18F3CFDF91CF911F910F9108952D
:10103000CF93E0918F0DF091900DC081C23221F0DD
:10104000C73211F080E029C03196F093900DE09303
:101050008F0D81918C1719F08A30D9F7F3CFE09179
:101060008F0DF091900D80818C1789F06091CE0DDD
:101070007091CF0D90E00E945A1880918F0D909141
:10108000900D01969093900D80938F0DE8CF31963F
:10109000F093900DE0938F0D81E0CF910895CF9361
:1010A000DF93EC01BC018AE090E00E945A18BE0177
:1010B0008DE090E0DF91CF910C945A18CF93DF939D
:1010C0001092A20D1092A10DC0E0D8E080E091E056
:1010D0000E940A1890939E0D80939D0D0097E9F051
:1010E0006091CE0D7091CF0D9C01205231092F35AA
:1010F000310540F08A30910529F08D30910511F0CD
:101100008FE390E00E945A1821972097F9F680917A
:10111000CE0D9091CF0D0E944F0882E0DF91CF91CC
:101120000895CF93DF931092A20D1092A10DC0E00D
:10113000D0E060E071E080E090E00E945A18CE01BB
:101140008F7799278034910541F46091CE0D70918D
:10115000CF0D8EE290E00E945A182196CF3F87E093
:10116000D80739F78091CE0D9091CF0D0E944F088E
:1011700082E0DF91CF910895CF93DF93EB010E943E
:101180000008CE01DF91CF910C944F08CF93DF93ED
:10119000CEECDDE06881798188EC90E00E945A18FD
:1011A0000E94DF03688179818AE394E00E94BC0891
:1011B0008091B10D9091B20D9093A70D8093A60DE3
:1011C00085E0DF91CF910895CF93DF93CEECDDE002
:1011D0006881798181ED90E00E945A186881798157
:1011E00083ED90E00E945A181092A40D1092A30D66
:1011F0008BE89DE09093AD0D8093AC0D6881798173
:1012000089E094E0DF91CF910C94BC08E091AC0DA3
:10121000F091AD0D3197F093AD0DE093AC0D80835F
:101220000895E091AC0DF091AD0D8191F093AD0D6D
:10123000E093AC0D0895AF92BF92CF92DF92EF9200
:10124000FF920F931F93CF93DF9300D0CDB7DEB7FC
:101250005C017B0197FF07C0B194A194B1088DE2B6
:1012600090E00E945A1800E010E03AE0C32ED12C22
:10127000C501B6010E947E17805D69837A830E9452
:1012800006096981A62E7A81B72E0F5F1F4FA11420
:10129000B10471F70E941109B70190E00E945A1839
:1012A0000150110901151105A9F70F900F90DF9159
:1012B000CF911F910F91FF90EF90DF90CF90BF9053
:1012C000AF900895CF93DF93CEECDDE06881798114
:1012D0008091B30D9091B40D2091A60D3091A70D82
:1012E000821B930B0E941B09688179818FE294E035
:1012F0000E94BC086881798180E098E00E941B0907
:101300006881798184E294E00E94BC0883E0DF91E7
:10131000CF910895CF93DF938CE391E09093B20D3A
:101320008093B10D9093A70D8093A60D8BE89DE05F
:101330009093AD0D8093AC0D89E59DE09093A00D49
:1013400080939F0D83E29DE09093B40D8093B30D45
:10135000CEECDDE06881798187EE9BE00E941B097D
:10136000688179818FE294E00E94BC08688179816C
:1013700080E098E00E941B096881798184E294E012
:101380000E94BC0888819981DF91CF910C944F080D
:10139000CF93DF93EC01E091A90DF091AA0D80812C
:1013A00091813396F093AA0DE093A90DBE010E949E
:1013B0001B09BE0180E290E00E945A18E091A90D3D
:1013C000F091AA0D80818A3071F0BE0190E00E94F8
:1013D0005A188091A90D9091AA0D01969093AA0D8B
:1013E0008093A90DEBCF3196F093AA0DE093A90D50
:1013F000CE01DF91CF910C944F08CF9383E00E94F0
:10140000610480E00E9476048091C70D90E0FC01A9
:101410003197E431F10508F07FC0E259FF4F609148
:10142000CE0D7091CF0D0C94921788EE93E072C0A0
:101430008BED93E00E9400088091A30D9091A40D84
:10144000892B21F181E391E09F938F930E948C1867
:10145000E0918F0DF091900DC0810F900F90CA30E8
:1014600011F08EE580838091A30D9091A40D90934F
:10147000AA0D8093A90D8091CE0D9091CF0D0E9461
:10148000C809E0918F0DF091900DC0838091CE0D31
:101490009091CF0D0E944F083FC08CEC93E03AC072
:1014A00087EB93E037C083E094E002C08CEF93E0D9
:1014B0000E94BC086091CE0D7091CF0D83EA93E03D
:1014C00029C081E993E026C08CE793E023C088E639
:1014D00093E020C086E593E01DC085E493E01AC048
:1014E00082E393E017C084E293E014C083E193E0C9
:1014F00011C083E093E00EC08FEE92E00BC089ED47
:1015000092E008C082EC92E005C085EB92E002C058
:101510008DE992E00E94BC088CE40E94610480E0A6
:10152000CF910C9476048091B10D9091B20D2091E1
:10153000A60D3091A70D40918C0D50918D0D821705
:10154000930751F0FC01608171816417750720F4E5
:101550006281860F911DF3CF08951092A20D109213
:10156000A10D0E94930A9093AA0D8093A90D20913A
:10157000A90D3091AA0D8091A60D9091A70D281765
:10158000390729F080E091E00E94C809F0CF60E0BF
:1015900071E080E090E00E945A1882E00895E091A6
:1015A0008F0DF091900D8081803231F43196F0935F
:1015B000900DE0938F0DF3CF8930C1F30895CF9351
:1015C000DF93EC011092A50D80E090E0FE012491E4
:1015D000222381F120918F0D3091900DF901E80FB8
:1015E000F91F6081FE014491641303C001962196A6
:1015F000EDCFFE01449170E060587F4F50E06417DA
:10160000750759F40196820F931F9093900D809364
:101610008F0DDF91CF910C94CF0AFE01849121961A
:1016200087FFFBCF8091A50D8F5F8093A50D0E9452
:10163000CF0ACACFDF91CF9108951F93CF93DF9345
:101640000E94DC0BEC010E94CF0A1BE0E0918F0DA1
:10165000F091900D80818A3281F43196F093900D53
:10166000E0938F0D0E94DC0B9E01289FE001299FD3
:10167000D00D389FD00D1124E9CF8F3291F43196DF
:10168000F093900DE0938F0D0E94DC0BBC0100974E
:1016900029F0CE010E947E17EB01D8CF1093C70D21
:1016A000D5CFCE01DF91CF911F910895CF93DF93D6
:1016B000E0918F0DF091900D80818D3231F08B3261
:1016C00021F00E941D0BEC0102C0C0E0D0E0E091CF
:1016D0008F0DF091900D80818D3251F43196F09301
:1016E000900DE0938F0D0E941D0BC81BD90BEFCFFF
:1016F0008B3251F43196F093900DE0938F0D0E9450
:101700001D0BC80FD91FE3CFCE01DF91CF910895F4
:10171000CF93DF930E94560BEC018091C70D81118E
:1017200044C086EA91E00E94DF0A4091A50D47304F
:10173000E1F150E047305105D0F5FA01EE57FF4F87
:101740000C9492170E94560B31E020E0C817D9077D
:101750004CF527C00E94560B31E020E0C817D9078E
:1017600009F51FC00E94560B31E020E08C179D0741
:10177000CCF017C00E94560B31E020E0C817D90703
:1017800081F410C00E94560B31E020E08C179D07B9
:101790004CF407C00E94560B31E020E0C817D9076F
:1017A0000CF030E0832F922F04C0CE0102C080E005
:1017B00090E0DF91CF9108950F931F93CF93DF9324
:1017C00000D0CDB7DEB701E010E00E94CF0AE09173
:1017D0008F0DF091900D80818D3249F43196F09308
:1017E000900DE0938F0D119501951109EECF803387
:1017F00031F43196F093900DE0938F0DF2C09FEC91
:10180000980F9930E8F460E070E09AE0A0918F0DB5
:10181000B091900D9B01929FB001939F700D112488
:10182000FD018191680F711D60537109F093900D56
:10183000E0938F0D11968C9180538A3038F3DCC081
:101840009FEB980F9A3108F0B4C0918191549A316E
:10185000A0F090E081549048880F991FA091B30D9B
:10186000B091B40DA80FB91F9C9111968C9131962F
:10187000F093900DE0938F0D6EC082EB91E00E948B
:10188000DF0A2091A50D253011F48EE0A8C0E0916B
:101890008F0DF091900D8081883211F085E09FC00E
:1018A0003196F093900DE0938F0D29830E94880B61
:1018B000BC01E0918F0DF091900D808129818932DA
:1018C00009F08CC03196F093900DE0938F0D22308B
:1018D000E9F028F4222341F0213091F06AC023304E
:1018E000F9F02430D9F165C060353CE0730714F09D
:1018F00083E175C0645C7E4FDB016C9170E07CC05D
:1019000077FF7AC071956195710976C069837A8392
:101910000E94FA1769817A810E947E17BC016CC00F
:101920006830710510F08CE05AC081E090E002C090
:10193000880F991F6A95E2F721B130E028233923F7
:10194000232B21F520B130E02823392391E080E0DA
:10195000232B09F490E0692F782F4EC06830710571
:1019600010F760937C0081E090E002C0880F991F1F
:101970006A95E2F742B132B1282F2095232322B98C
:1019800021B130E028233923232B11F08DE027C02B
:1019900080917A00806480937A0080917A0086FD3D
:1019A000FCCF42B960917800709179007695679587
:1019B00023C0E0918F0DF091900D80818832D9F491
:1019C0003196F093900DE0938F0D0E94880BE0917B
:1019D0008F0DF091900D2081293231F086E08093B7
:1019E000C70D60E070E008C03196F093900DE09371
:1019F0008F0DBC0101C007C0069FC001079F900D5D
:101A0000169F900D11240F900F90DF91CF911F9191
:101A10000F9108950E94880B2091C70D21110BC0D2
:101A20008038910520F084E18093C70D04C00E94A6
:101A3000610482E0089584E008950E94880B20915B
:101A4000C70D21110BC08038910520F084E18093EF
:101A5000C70D04C00E94760482E0089584E00895D2
:101A6000CF93DF930E94880BEC018091C70D811109
:101A70001DC0C831D105B8F4E0918F0DF091900DE3
:101A800080818C3211F082E00FC03196F093900D7E
:101A9000E0938F0D0E94880B2091C70D211106C085
:101AA0008032910528F080E18093C70D84E005C065
:101AB000682F8C2F0E948B0482E0DF91CF910895D4
:101AC0000F931F93CF93DF930E94880BEC018091BB
:101AD000C70D811136C0CF3FD10509F0B0F4E091B8
:101AE0008F0DF091900D80818C32C1F43196F0937E
:101AF000900DE0938F0D0E94880B8C018091C70D93
:101B000081111FC0003F110510F080E118C0E09165
:101B10008F0DF091900D80818C3211F082E00FC01A
:101B20003196F093900DE0938F0D0E94880B2091D9
:101B3000C70D211106C08038910528F084E18093FB
:101B4000C70D84E006C0482F602F8C2F0E94A90487
:101B500082E0DF91CF911F910F9108950E94880B31
:101B600090938D0D80938C0D8091C70D811107C0CE
:101B7000E0918F0DF091900D80818A3021F084E00A
:101B80008093C70D08950E94930A9093A40D8093AB
:101B9000A30D81E008950E94880B90939E0D809381
:101BA0009D0D2091C70D211107C0E0918F0DF0917F
:101BB000900D20812A3021F484E08093C70D089590
:101BC000892B11F086E0089582E008951092C70DE8
:101BD0000E94880B90938D0D80938C0D8091C70D82
:101BE000811132C0A0918F0DB091900D8C918A30EF
:101BF00059F5E091AC0DF091AD0DCF010696209115
:101C00009F0D3091A00D8217930728F483E08093F5
:101C1000C70D84E008953697F093AD0DE093AC0DB9
:101C200087E490E091838083B583A4838091A30DA2
:101C30009091A40D938382830E94930A9093A40DA4
:101C40008093A30D81E0089584E08093C70D0895EB
:101C5000CF93DF930E94880BEC018091C70D811117
:101C60002FC0C830D10510F08CE028C0E0918F0D56
:101C7000F091900D80818C3201F53196F093900DAA
:101C8000E0938F0D0E94880B2091C70D211118C081
:101C900021E030E00C2E01C0220F0A94EAF70097F1
:101CA00031F0019751F481B1822B81B904C081B127
:101CB0002095282321B982E004C082E08093C70DDB
:101CC00084E0DF91CF910895CF93DF930E94880B3A
:101CD000EC018091C70D81112FC0C830D10510F0E3
:101CE0008CE028C0E0918F0DF091900D80818C32B6
:101CF00001F53196F093900DE0938F0D0E94880BC3
:101D00002091C70D211118C021E030E00C2E01C038
:101D1000220F0A94EAF7009731F0019751F482B14B
:101D2000822B82B904C082B12095282322B982E097
:101D300004C082E08093C70D84E0DF91CF910895C5
:101D40001092C70D0E94880B2091C70D211104C06D
:101D50000E94FF1783E0089584E008950E94CF0A4F
:101D60000E94880B2091C70D211122C08837910550
:101D700099F038F4CC97F1F48CEC0E94590480E08F
:101D800014C08639910569F0843B910599F48CEC77
:101D90000E94590488E109C08CEC0E94590488E033
:101DA00004C08CEC0E94590480E10E94590402C0D6
:101DB00084E0089583E00895CF93DF930E94CF0AD3
:101DC0001092C70DE0918F0DF091900DC081C2323D
:101DD00031F0C73221F082E08093C70D26C03196E2
:101DE000F093900DE0938F0DD4E009C080918F0D9A
:101DF0009091900D01969093900D80938F0DE091AE
:101E00008F0DF091900D80818C1709F449C08935B0
:101E100071F489EC0E9459040E94AE058091C70DAF
:101E2000882321F388EC0E94590484E03FC08A355E
:101E300080F4853431F130F4833409F1F0F48134E5
:101E400041F32BC08E34C9F08835C9F08D3429F5A3
:101E500018C08536B1F030F4833689F070F48136DD
:101E6000C1F21BC08E3649F018F48D3651F015C002
:101E7000883729F0893769F210C08AECCBCF8BEC18
:101E8000C9CF8DEC0E9459040E94AE058091C70D08
:101E90008111C4CF0E94C405C1CFD093C70DBECF5E
:101EA0003196F093900DE0938F0D83E0DF91CF9109
:101EB0000895E0918F0DF091900D80818A3381F427
:101EC0008091CE0D9091CF0D0E944F0880918F0D83
:101ED0009091900D01969093900D80938F0D48C036
:101EE0008A3009F44BC00E94CF0A0E941808811161
:101EF0001BC0E0918F0DF091900D8081823211F026
:101F0000873221F484E08093C70D08951092C70DA5
:101F10000E94880B2091C70D211132C06091CE0D17
:101F20007091CF0D0E941B09E0918F0DF091900DE3
:101F300080818C3231F43196F093900DE0938F0DC7
:101F4000D2CF8B3359F481818A3011F08A3391F4E6
:101F50003196F093900DE0938F0D0AC08A3011F006
:101F60008A3341F48091CE0D9091CF0D0E944F089D
:101F700083E0089582E08093C70D02C082E0089557
:101F800084E00895BF92CF92DF92EF92FF920F9379
:101F90001F93CF93DF930E94CF0AE0918F0DF091B2
:101FA000900DD0808FEB8D0D8A3110F087E00FC03F
:101FB0003196F093900DE0938F0D0E94CF0AE0913F
:101FC0008F0DF091900D80818D3329F08AE0809300
:101FD000C70D84E07DC03196F093900DE0938F0D96
:101FE0000E94CF0A1092C70D0E94880B7C0180913D
:101FF000C70D8111EECF83EA91E00E94DF0A809144
:10200000A50D811126C00E94880B8C018091C70DFF
:102010008111DFCF8EE991E00E94DF0A8091A50D4A
:10202000811109C00E94880B2091C70D2111D1CFC9
:10203000B82EC92E03C0BB24B394C12C0E94CF0A72
:10204000C0918F0DD091900D28812A3021F02A3334
:1020500011F082E0BCCF8091C70D811136C02A30CB
:10206000A1F5E091AC0DF091AD0D9F01265F3F4FC2
:1020700040919F0D5091A00D2417350710F483E077
:10208000A6CF3A97F093AD0DE093AC0D2D2D30E037
:1020900021543048220F331FA091B30DB091B40DDD
:1020A000A20FB31FED92FC9286E48083D18213834A
:1020B0000283B482C582D187C0878091A30D90919D
:1020C000A40D9783868383E003C084E08093C70DCB
:1020D000DF91CF911F910F91FF90EF90DF90CF9004
:1020E000BF9008950E94CF0AE0918F0DF091900D5E
:1020F000808181548A3110F087E011C03196F093CD
:10210000900DE0938F0D0E94CF0AE0918F0DF0911A
:10211000900D80818A3339F08A3029F082E08093F3
:10212000C70D84E0089580E008951F93CF93DF9357
:10213000E0918F0DF091900DC0818FEB8C0F8A3163
:10214000F0F51091B30DD091B40DCF01019690939D
:10215000900D80938F0D818181548A3148F48FEFE7
:102160008093C70D3296F093900DE0938F0D37C09A
:102170000E94CF0AE0918F0DF091900D80818D33F8
:1021800011F08FE01DC08091C70D8F3F11F481E1E8
:1021900017C03196F093900DE0938F0D0E94CF0AF7
:1021A0000E94880B2091C70D211119C0E0918F0D5D
:1021B000F091900D20812A3031F02A3321F082E015
:1021C0008093C70D0CC0E12FFD2FEC0FF11DEC0F1C
:1021D000F11DE258F1099183808383E001C084E01E
:1021E000DF91CF911F910895CF93DF930E94880BC9
:1021F000EC018091C70D81112EC0C0358CE0D8074D
:1022000014F083E126C00E94CF0AE0918F0DF09177
:10221000900D80818C32E1F43196F093900DE09333
:102220008F0D0E94CF0A0E94880B2091C70D2111AB
:1022300012C08F3F910519F010F082E10AC0E091C1
:102240008F0DF091900D20812A3039F02A3329F03A
:1022500082E08093C70D84E004C0C45CDE4F8883B5
:1022600083E0DF91CF9108950E94CF0A80E090E053
:102270005AE0E0918F0DF091900D408120ED240FF8
:102280002A30A0F4893929E1920788F4589F9001F7
:10229000599F300D1124842F90E0C097820F931F17
:1022A0003196F093900DE0938F0DE3CF08958FEF6B
:1022B0009FEF08950E94341190938D0D80938C0DA3
:1022C000E0918F0DF091900D80818A3021F084E0B3
:1022D0008093C70D18C00E94930A9093AA0D809313
:1022E000A90D2091A90D3091AA0D8091A60D909174
:1022F000A70D2817390739F08091CE0D9091CF0D99
:102300000E94C809EECF84E00895E091A60DF091F7
:10231000A70D329690E080818A30B1F0891769F07C
:10232000823269F0873269F091110CC02FE9280FD1
:102330002A3140F48052808305C090E003C092E2CD
:1023400001C097E23196E7CF089590ED980F9A304B
:1023500090F0982F9F7D91549A3168F08F3559F005
:102360008B3249F08E3239F021E090E08E3709F05F
:1023700020E0822F089581E090E008950F931F934D
:10238000CF93DF931092C70DC0918F0DD091900D18
:102390001881812F0E94A511892B31F42196D093A9
:1023A000900DC0938F0DF0CF1123F9F0CE0101965F
:1023B0009093900D80938F0D00918F0D1091900D43
:1023C000F80180810E94A511892B39F00F5F1F4F02
:1023D0001093900D00938F0DEFCF0C171D0711F088
:1023E000F80110828881811103C081E08093C70DBC
:1023F000CE01DF91CF911F910F910895009741F089
:10240000E7E8F3E13197F1F700C000000197F6CF5C
:10241000089520918B0D211105C08FE090E00E945E
:10242000FE11F7CF90919B0DE92FF0E0EB54F24FA6
:1024300080819F5F90939B0D215020938B0D903155
:1024400011F410929B0D90E00895009731F026E072
:102450002A95F1F700C00197F8CF0895CF93E89837
:10246000C4E628988EEE92E00E942512289A84EF06
:1024700091E00E942512C150A1F7E89ACF910895EA
:1024800090918B0D903198F42091A80DE22FF0E0FF
:10249000EB54F24F808381E0820F8093A80D9F5F01
:1024A00090938B0D803129F41092A80D08950C940F
:1024B0002E1208959091370190FD84C0873751F115
:1024C00058F4843151F118F4823149F12AC0883529
:1024D000F9F0893521F125C0803EA9F020F48A3A2F
:1024E00009F47DC01EC0803F81F08C3FD1F4609123
:1024F000CE0D7091CF0D83E796E00E94BC080E943C
:102500002E120C942E12926068C09D7F916065C05F
:1025100080E201C088E0892742C094605EC090617B
:102520005CC092FF1AC0813221F481E08093AB0D30
:102530000895843329F49B7F9093370187E040C04E
:102540008B3411F48CE03CC08C3111F481E038C044
:10255000843209F044C082E033C091FF23C08A3541
:1025600011F48DE017C0853711F484E013C0823771
:1025700011F485E00FC08B3611F480E10BC0843775
:1025800011F481E107C08C3611F481E003C0893673
:1025900019F482E00E944012809137018D7F809370
:1025A0003701089594FB222720F995FD2E5F94E0D2
:1025B000899FF0011124E20FF11DED5AFB4F849128
:1025C0000C944012843131F0893531F0823121F0A0
:1025D0009E7F03C09A7F01C09E7E9093370108952D
:1025E0001F920F920FB60F9211242F933F934F9388
:1025F0005F936F937F938F939F93AF93BF93EF936B
:10260000FF9399B12091AE0D80918E0D21111AC0CA
:102610008B3011F485E085BD80918E0D835088301C
:1026200050F48091380186958093380193FF03C060
:1026300080688093380183E08093690081E0809313
:10264000AE0D11C0815080938E0D811107C0809115
:1026500038010E945A128BE080938E0D82E08093A5
:1026600069001092AE0DFF91EF91BF91AF919F91D4
:102670008F917F916F915F914F913F912F910F902B
:102680000FBE0F901F9018950F931F93CF938091BB
:10269000A60D9091A70D02969093900D80938F0DAB
:1026A00090933B0180933A018091390183FD10C0E2
:1026B000C0EE38C0E0918F0DF091900D8083809135
:1026C0008F0D9091900D01969093900D80938F0DAA
:1026D00080E091E00E940A189C0133272A303105DE
:1026E00059F02D30310541F0232B21F7809139012C
:1026F000877F8093390122C1E0918F0DF091900D79
:102700008AE080831BC18091A60D9091A70D02964F
:1027100020918F0D3091900D8217930708F48CC093
:102720000E942E128091CC0D9091CD0D0E940A181E
:102730008C019927FC013197E131F10508F0CFC0F8
:10274000E757FF4F0C9492178091A60D9091A70D1B
:10275000029620918F0D3091900D8217930710F7FC
:102760006091CE0D7091CF0D81E090E00E945A18DB
:102770006091CE0D7091CF0D80918F0D9091900D45
:102780002091A60D3091A70D821B930B825082954C
:102790008695877090E001960E945A188091A60D48
:1027A0009091A70D029696C020918F0D3091900DBB
:1027B00080913A0190913B012817390708F0B2CF78
:1027C0006091CE0D7091CF0D82E090E00E945A187A
:1027D0004091A60D5091A70D80913A0190913B0137
:1027E000841B950B1EEF180F012F0295069507709D
:1027F00020918F0D3091900D241B350B2250229586
:10280000269527706091CE0D7091CF0D802F821B81
:1028100090E001960E945A186091CE0D7091CF0DF4
:10282000812F0C9F800D112490E00E945A188091F6
:102830003A0190913B014EC06091CE0D7091CF0D49
:1028400080E190E040C080918F0D9091900D20919B
:102850003A0130913B018217930708F061CF01964E
:102860009093900D80938F0D6091CE0D7091CF0D50
:1028700081E190E00E945A1855CFE0913A01F09121
:102880003B01F093900DE0938F0D8AE0808380915F
:10289000CE0D9091CF0DCF911F910F910C944F08B9
:1028A0008091A60D9091A70D029620918F0D3091E9
:1028B000900D8217930708F033CF6091CE0D709181
:1028C000CF0D88E090E00E945A1880918F0D909172
:1028D000900D01979093900D80938F0D23CF2091B1
:1028E000B30D3091B40D2250310940918F0D5091AC
:1028F000900D4217530709F413CF6091CE0D7091DC
:10290000CF0D0E945A18E0918F0DF091900D008329
:1029100080918F0D9091900D01969093900D8093E2
:102920008F0D20913A0130913B012817390708F0AB
:10293000F9CE90933B0180933A01F4CECF911F9151
:102940000F9108958091AB0D811104C08091C60054
:10295000833021F41092AB0D81E0089580E008955A
:10296000FC0120812D3219F4019641E001C040E0C4
:10297000FC0180E090E05AE0219130ED320F3A30D6
:1029800060F4BC01569FC001579F900D112430E0A8
:1029900020533109820F931FEFCF442319F09195F3
:1029A000819591090895CF92DF92EF92FF920F9354
:1029B0001F93CF93DF930E94CF0AE0918F0DF09188
:1029C000900D10818FEB810F8A3110F087E015C0D8
:1029D000F090B30D0091B40D3196F093900DE0930B
:1029E0008F0D0E94CF0AE0918F0DF091900D8081A4
:1029F0008A3039F08A3329F082E08093C70D84E071
:102A0000A8C081E99DE09093C90D8093C80D1092F4
:102A1000910DEA9AC12C7AE0D72E8091CC0D90913D
:102A2000CD0D0E940A18EC01E82E8091AB0D81308B
:102A300009F48EC0CE0199278A30910549F124F41A
:102A40008830910559F148C08D30910509F18D32DA
:102A5000910509F041C0C11061C06091CE0D709127
:102A6000CF0D8DE290E00E945A18E091C80DF091D0
:102A7000C90DC083E091C80DF091C90DCF01019639
:102A80009093C90D8093C80D1182CC24C39446C085
:102A9000E091C80DF091C90DD08240C08091C80D61
:102AA0009091C90D81599D4009F018F40E942E1291
:102AB00035C06091CE0D7091CF0D88E090E00E94FE
:102AC0005A188091C80D9091C90D01979093C90D26
:102AD0008093C80DCA9422C02C2F20532A30F0F4C2
:102AE00025E02C15C0F06091CE0D7091CF0D0E94A5
:102AF0005A18E091C80DF091C90DC083C394E091BC
:102B0000C80DF091C90DCF0101969093C90D809326
:102B1000C80D118206C00E942E1203C02AE0E216E0
:102B200019F08DE0E81279CF8091CE0D9091CF0D04
:102B30000E944F0881E99DE00E94B014EF2DF02F14
:102B4000E10FF11DE10FF11DE258F109918380833E
:102B500083E0DF91CF911F910F91FF90EF90DF9075
:102B6000CF900895CF93DF93C2E0D3E00E94A214E8
:102B7000882349F06091CE0D7091CF0D8CE094E0E8
:102B80000E94BC08E1C010929C0D1092A50D1092FD
:102B9000C70D8DEC91E00E94DF0A8091A50D90E0B9
:102BA0008F32910508F084C0FC01E656FF4F0C946B
:102BB00092170E94880B90939E0D80939D0D0E940A
:102BC000FE1176C00E94E20670C00E942E1270C0F4
:102BD0000E94AF066AC00E94CB0D67C00E94AE0D76
:102BE00064C08FEC01C08EEC0E945904D0939C0D00
:102BF00061C00E94AE0E59C00E94DC0E56C00E94F9
:102C0000CC0653C00E945A1150C00E9462094DC0A8
:102C10000E940A0D4AC00E941D0D47C00E947210FA
:102C200080939C0D8091C70D811144C003C00E9408
:102C3000E60D3BC00E940B0638C00E94A80635C0B6
:102C40000E94A00E32C00E94C20F2FC00E94D31457
:102C50002CC00E94F41029C00E94600D26C00E9462
:102C60005E0823C00E94910820C0809139018260D3
:102C70008093390103C00E94AD0A17C00E948206EA
:102C800014C00E94C60811C00E94590F0EC00E94B5
:102C9000300D0BC00E94FF0508C00E94280E05C021
:102CA0000E94640E02C00E94951080939C0D02C089
:102CB000C0939C0D80919C0D843009F445C08530F3
:102CC00009F444C0863009F451CF8330D9F40E940E
:102CD000CF0AE0918F0DF091900D80818A3381F4BD
:102CE000E0918F0DF091900D80818A3331F431960F
:102CF000F093900DE0938F0DF3CF0E94CF0A36CF63
:102D0000C0939C0D80919C0D823069F4E091A30DDD
:102D1000F091A40D3097C1F08281E80FF11DF0937E
:102D2000A40DE093A30D8091A30D9091A40D20918B
:102D3000A60D3091A70D8217930731F0039690935B
:102D4000900D80938F0D12CF84E001C085E0DF915C
:102D5000CF910895C4E0D9E0C43019F40E94E4088A
:102D6000C0E01092C70D80913901982F937091F0B7
:102D70008C7F809339012091B10D3091B20D309349
:102D8000A40D2093A30D2D5F3F4F3093900D209302
:102D90008F0D41C00E9444130E9485110E94860736
:102DA0000E94341190938D0D80938C0D0E94CF0A58
:102DB00020918C0D30918D0D21153105D9F02F3FCB
:102DC0003F4F19F4D093C70D26C00E94BF070E9441
:102DD000930A9093C60D8093C50D0E945707E0910A
:102DE0008F0DF091900D83818A3009F4BACF0E9443
:102DF000F806B7CF1092AB0DE091A60DF091A70D9C
:102E00009F012E5F3F4F3093900D20938F0D828155
:102E10008A3009F4A6CF8091C70D811103C00E94AA
:102E2000B215C82F8091C70D882309F495CF0E9451
:102E3000FD0992CF8CE191E09093CD0D8093CC0D64
:102E40009093CF0D8093CE0D10927C0087E88093F5
:102E50007A0080917A00806480937A0080917A0071
:102E600086FDFCCF11B88FEF82B9209A289A22985C
:102E70002A9AEA9A539852985B9A5A9A82E084BDA9
:102E800015BC94E697BD80936E001092AB0D9BE04D
:102E900090938E0D809369001092AE0DE89A78940D
:102EA0008FEF87B95698579A5498559A1092C50043
:102EB00085E18093C40086E08093C20088E180931E
:102EC000C1000E94DF038CE40E94610480E00E9444
:102ED00076046091CE0D7091CF0D8AE394E00E944C
:102EE000BC080E942E121092B00087E08093B100BF
:102EF000109270000E948A090E94AA1697FB072E62
:102F000016F4009407D077FD09D00E94981707FCAB
:102F100005D03EF4909581959F4F089570956195E9
:102F20007F4F0895EE0FFF1F0590F491E02D099457
:102F3000AA1BBB1B51E107C0AA1FBB1FA617B707DF
:102F400010F0A61BB70B881F991F5A95A9F78095FB
:102F50009095BC01CD0108958F929F92AF92BF9240
:102F6000CF92DF92EF92FF92CF93DF93EC016881D3
:102F700079818A819B81611571058105910521F413
:102F800064E279ED8BE597E02DE133EF41E050E02D
:102F90000E94001B49015A019B01AC01A7EAB1E460
:102FA0000E941F1B6B017C01ACEEB4EFA5019401E4
:102FB0000E942D1BC60ED71EE81EF91EF7FE06C086
:102FC00081E0C81AD108E10880E8F80AC882D982ED
:102FD000EA82FB82C6019F77DF91CF91FF90EF904D
:102FE000DF90CF90BF90AF909F908F9008950E94F8
:102FF000AC1708958AE291E00E94AC170895A0E012
:10300000B0E080932A0190932B01A0932C01B09300
:103010002D010895CF93DF93EC012B8120FF33C066
:1030200026FF0AC02F7B2B838E819F8101969F8371
:103030008E838A8190E029C022FF0FC0E881F98148
:103040008081992787FD9095009719F420622B8342
:103050001AC03196F983E8830EC0EA85FB8509958D
:1030600097FF09C02B81019611F480E101C080E235
:10307000822B8B8308C02E813F812F5F3F4F3F8380
:103080002E83992702C08FEF9FEFDF91CF91089594
:10309000A0E0B0E0EEE4F8E10C94421BAE01475F23
:1030A0005F4F6F8178858D819E810E94A018E2E03C
:1030B0000C945E1B0F931F93CF93DF93182F092F50
:1030C000EB018B8181FD03C08FEF9FEF20C082FF5A
:1030D00010C04E815F812C813D81421753077CF4E3
:1030E000E881F9819F012F5F3F4F39832883108347
:1030F00006C0E885F985812F0995892B29F72E814E
:103100003F812F5F3F4F3F832E83812F902FDF9191
:10311000CF911F910F910895A0E0B0E0E2E9F8E1AE
:103120000C94421BFE01359661917191AF01809123
:10313000CE0D9091CF0D0E94A018E2E00C945E1B82
:10314000ACE0B0E0E6EAF8E10C94321B7C016B01E4
:103150008A01FC0117821682838181FFBDC1CE01E5
:1031600001964C01F7019381F60193FD859193FF40
:1031700081916F01882309F4ABC1853239F493FD45
:10318000859193FF81916F01853229F4B70190E019
:103190000E945A18E7CF512C312C20E02032A0F4A5
:1031A0008B3269F030F4803259F0833269F4206157
:1031B0002CC08D3239F0803339F4216026C0226072
:1031C000246023C0286021C027FD27C030ED380FC0
:1031D0003A3078F426FF06C0FAE05F9E300D1124E5
:1031E000532E13C08AE0389E300D1124332E2062F6
:1031F0000CC08E3221F426FD6BC1206406C08C36D3
:1032000011F4206802C0883641F4F60193FD8591DF
:1032100093FF81916F018111C1CF982F9F7D9554AC
:10322000933028F40C5F1F4FFFE3F9830DC0833602
:1032300031F0833771F0833509F05BC022C0F801AB
:10324000808189830E5F1F4F44244394512C540185
:1032500015C03801F2E06F0E711CF801A080B1803A
:1032600026FF03C0652D70E002C06FEF7FEFC50140
:103270002C870E94971A2C0183012C852F77222EF0
:1032800017C03801F2E06F0E711CF801A080B18008
:1032900026FF03C0652D70E002C06FEF7FEFC50110
:1032A0002C870E948C1A2C012C852068222E8301E9
:1032B00023FC1BC0832D90E048165906B0F4B701DB
:1032C00080E290E00E945A183A94F4CFF50127FC6E
:1032D000859127FE81915F01B70190E00E945A1805
:1032E00031103A94F1E04F1A51084114510471F72A
:1032F000E5C0843611F0893639F5F80127FF07C09B
:1033000060817181828193810C5F1F4F08C0608151
:103310007181882777FD8095982F0E5F1F4F2F763C
:10332000B22E97FF09C090958095709561957F4F5B
:103330008F4F9F4F2068B22E2AE030E0A4010E94F8
:10334000A21AA82EA81844C0853729F42F7EB22EC1
:103350002AE030E025C0F22FF97FBF2E8F36C1F072
:1033600018F4883579F0B4C0803719F0883721F027
:10337000AFC02F2F2061B22EB4FE0DC08B2D846004
:10338000B82E09C024FF0AC09F2F9660B92E06C030
:1033900028E030E005C020E130E002C020E132E06A
:1033A000F801B7FE07C060817181828193810C5F53
:1033B0001F4F06C06081718180E090E00E5F1F4F5B
:1033C000A4010E94A21AA82EA818FB2DFF77BF2ED9
:1033D000B6FE0BC02B2D2E7FA51450F4B4FE0AC0F0
:1033E000B2FC08C02B2D2E7E05C07A2C2B2D03C0DD
:1033F0007A2C01C0752C24FF0DC0FE01EA0DF11DD1
:103400008081803311F4297E09C022FF06C07394A5
:10341000739404C0822F867809F0739423FD13C03F
:1034200020FF06C05A2C731418F4530C5718732C31
:10343000731468F4B70180E290E02C870E945A1858
:1034400073942C85F5CF731410F4371801C0312C08
:1034500024FF12C0B70180E390E02C870E945A1825
:103460002C8522FF17C021FF03C088E590E002C031
:1034700088E790E0B7010CC0822F867859F021FDD3
:1034800002C080E201C08BE227FD8DE2B70190E02F
:103490000E945A18A51438F4B70180E390E00E9406
:1034A0005A185A94F7CFAA94F401EA0DF11D8081BD
:1034B000B70190E00E945A18A110F5CF332009F40B
:1034C00051CEB70180E290E00E945A183A94F6CFAC
:1034D000F7018681978102C08FEF9FEF2C96E2E182
:1034E0000C944E1BF999FECF92BD81BDF89A992795
:1034F00080B50895262FF999FECF92BD81BDF89A27
:10350000019700B4021639F01FBA20BD0FB6F89427
:10351000FA9AF99A0FBE0895FC0105906150704027
:103520000110D8F7809590958E0F9F1F0895FC018C
:103530006150704001900110D8F7809590958E0FE2
:103540009F1F0895FA01AA27283051F1203181F1F7
:10355000E8946F936E7F6E5F7F4F8F4F9F4FAF4F9B
:10356000B1E03ED0B4E03CD0670F781F891F9A1FAE
:10357000A11D680F791F8A1F911DA11D6A0F711D62
:10358000811D911DA11D20D009F468943F912AE06E
:10359000269F11243019305D3193DEF6CF01089556
:1035A000462F4770405D4193B3E00FD0C9F7F6CF87
:1035B000462F4F70405D4A3318F0495D31FD40524F
:1035C000419302D0A9F7EACFB4E0A69597958795E5
:1035D00077956795BA95C9F70097610571050895C4
:1035E0009B01AC010A2E0694579547953795279570
:1035F000BA95C9F7620F731F841F951FA01D089508
:10360000052E97FB1EF400940E94171B57FD07D050
:103610000E94691B07FC03D04EF40C94171B5095B5
:103620004095309521953F4F4F4F5F4F08959095AE
:103630008095709561957F4F8F4F9F4F08950E94A1
:103640008B1BA59F900DB49F900DA49F800D911D85
:1036500011240895B7FF0C941F1B0E941F1B821B8F
:10366000930B08952F923F924F925F926F927F92A9
:103670008F929F92AF92BF92CF92DF92EF92FF9282
:103680000F931F93CF93DF93CDB7DEB7CA1BDB0B2E
:103690000FB6F894DEBF0FBECDBF09942A883988D3
:1036A00048885F846E847D848C849B84AA84B984DA
:1036B000C884DF80EE80FD800C811B81AA81B981E6
:1036C000CE0FD11D0FB6F894DEBF0FBECDBFED01FA
:1036D0000895A1E21A2EAA1BBB1BFD010DC0AA1F53
:1036E000BB1FEE1FFF1FA217B307E407F50720F06B
:1036F000A21BB30BE40BF50B661F771F881F991FE6
:103700001A9469F760957095809590959B01AC012E
:10371000BD01CF010895A29FB001B39FC001A39F37
:10372000700D811D1124911DB29F700D811D1124FA
:08373000911D0895F894FFCFEC
:1037380000000003000000007D038E03000000006D
:10374800000300000000660375030000000000038A
:10375800000000009D03091200000100000025641C
:0637680000202D2D2000C1
:0400000500800DC5A5
:00000001FF
