:100000000C9447030C94FA090C9464030C94DA09D9
:100010000C9464030C9464030C9464030C946403C4
:100020000C9464030C9464030C9464030C946403B4
:100030000C9464030C9464030C9464030C946403A4
:100040000C94EA090C9464030C9464030C94640308
:100050000C9464030C9464030C9464030C94640384
:100060000C9464030C9464030C9464030C94640374
:100070000C9464030C9464030C946403850C6E0C60
:100080002B0C290C3C0C4E0C5E0C810C810C810C51
:10009000810C810C810C810C810C7F0C810C810CFA
:1000A000810C810C810C810C810C810C810C810CE8
:1000B000810C810C810C810C810C810C850C6E0CE7
:1000C0002B0C290C3C0C4E0C5E0C810C810C810C11
:1000D000810C810C810C810C810C7F0CF50CFD0CCA
:1000E000050D0D0D150D1D0DFD0C5B0F080FE40F1B
:1000F000490F490FE40FF10FD10FE40FC00FE40FC8
:10010000490FC00FE40FE40F8B0FAA0F2C150E152B
:10011000141538157D1517151A151D1520152315DD
:1001200026154015431547154A156B157415951579
:100130004D15501511156E157115531556152915B8
:1001400029152F15321535156E15951595150915A7
:1001500059155C155F156515681580158015801596
:100160008015801577157A157D15DD15E0150E16AD
:100170001116141617162216251628162B162E16CB
:100180003116341637163A163D16401643164616E3
:1001900049164B6579626F61726420636F6E6E659C
:1001A00063746564207375636365737366756C6CE3
:1001B00079004B6579626F6172642073656C662D9E
:1001C00074657374206661696C6564004578706558
:1001D0006374656420636F6C6F72205B302E2E3108
:1001E00032375D004F7574206F662072616E6765EF
:1001F0000045787065637465642062797465205B7E
:10020000302E2E3235355D00496E76616C69642082
:100210007661726961626C65206E616D6500496E20
:1002200076616C696420636F6F7264696E61746576
:100230007300556E6B6E6F776E20636F6D6D616EC0
:100240006400556E6B6E6F776E2066756E637469B1
:100250006F6E0050696E20492F4F206572726F7269
:1002600000496E76616C69642070696E205B302E87
:100270002E375D004469766973696F6E206279205C
:100280007A65726F004F70657261746F7220657865
:1002900070656374656400496E76616C6964206C96
:1002A000696E65206E756D626572004A756D7020AD
:1002B000706F696E74206E6F7420666F756E640067
:1002C0005661726961626C652065787065637465FA
:1002D0006400706172656E746865736973206D691E
:1002E0007373696E6700556E6578706563746564D5
:1002F0002063686172616374657200537461636B3B
:10030000206F766572666C6F770053796E746178D2
:10031000206572726F72004E6F7420796574206967
:100320006D706C656D656E746564005269676874A4
:1003300020004C65667420004F4B00427265616B73
:10034000210020627974657320617661696C616255
:100350006C650020627974657320524F4D002062F5
:10036000797465732052414D0057656C636F6D65FC
:1003700020746F206E737442415349432076302EAF
:10038000320000000000000000000000000000003B
:1003900000000000000000000000607E607E0000A1
:1003A000000000000000000000000000000000004D
:1003B00000000000000009090909607E607E00005D
:1003C000000000000000000000000000000000002D
:1003D00000000000000071515171312131210000F5
:1003E000000000000000000000007A5A5A7A73539F
:1003F0005373614141617757577732403240000073
:100400000000000000006343436378585878644458
:100410004464654545653424342433233323000084
:100420000000000000002020202076565676664608
:100430004666745454747252527235253525000044
:100440000000000000006E4E4E6E6242426268483C
:1004500048686747476779595979365E365E0000C4
:100460000000000000002C3C2C3C6D4D4D6D6A4A94
:100470004A6A7555557537263726382A382A0000B6
:100480000000000000002C3C2C3C6B4B4B6B69497E
:1004900049696F4F4F6F30293029392839280000BA
:1004A0000000000000002E3E2E3E2F3F2F3F6C4CE0
:1004B0004C6C3B3A3B3A705050702D5F2D5F000002
:1004C000000000000000000000002722272200009A
:1004D00000005B7B5B7B3D2B3D2B000000000000A0
:1004E000000000000000000000000D0D0D0D5D7DFE
:1004F0005D7D000000005C7C5C7C00000000000072
:100500000000000000003C3C3C3C000000000000FB
:1005100000000000000000000000080808080000BB
:10052000000000000000313131310000000034349F
:100530003434373737370000000000000000000077
:100540000000303030302E2E2E2E32323232353501
:10055000353536363636383838381B1B1B1B00000D
:100560000000000000002B2B2B2B333333332D2DB9
:100570002D2D2A2A2A2A3939393900000000000095
:100580000000484947C848C94C4FD74CCF00535486
:1005900045D00054CF003EBD3CBEBEBD3CBDBC21DD
:1005A000BD00504545CB4142D3524EC450494E4404
:1005B000524541C450494E41524541C4004C4953F3
:1005C000D44E45D75255CE4E4558D44C45D449C645
:1005D000474F54CF4D504C41D94D53544FD05445B3
:1005E0004D50CF4D555349C3474F5355C2524554B3
:1005F0005552CE52414E444F4D495AC5524E445326
:100600004545C45253D4434CD35245CD464FD249AD
:100610004E5055D4424545D05052494ED44C4F438C
:100620004154C5504F4BC5505345D453544FD045FA
:100630004EC44D45CD5045CE50415045D2BFA3A7E5
:1006400044454C41D9454C4953D445464F524D4100
:10065000D44543484149CE45534156C5454C4F4189
:10066000C446494C45D343464F524D41D443434879
:100670004149CE43534156C5434C4F41C450494E66
:100680004449D250494E4457524954C500001124A0
:100690001FBECFEFD0E1DEBFCDBF11E0A0E0B1E0E3
:1006A000E4E2F5E302C005900D92A633B107D9F755
:1006B0002DE0A6E3B1E001C01D92AE3BB207E1F729
:1006C0000E9454160C94901A0C940000FF920F9301
:1006D0001F93CF93DF93EC018B01F12CFE01EF0D03
:1006E000F11D8081882341F0B801992787FD9095FD
:1006F0000E945017F394F2CFDF91CF911F910F9189
:10070000FF900895AF92BF92CF92DF92EF92FF9247
:100710000F931F93CF93DF9300D0CDB7DEB75C016B
:100720007B0197FF07C0B194A194B1088DE290E0DE
:100730000E94501700E010E08AE0C82ED12CC501BD
:10074000B6010E947416805D69837A830E9414103A
:100750006981A62E7A81B72E0F5F1F4FA114B104B5
:1007600071F70E941F10B70190E00E9450170150CE
:10077000110901151105A9F70F900F90DF91CF9185
:100780001F910F91FF90EF90DF90CF90BF90AF90AF
:1007900008950F931F93CF93DF93EC018B01CE014C
:1007A000FE012491222341F02196FC018491B8019D
:1007B00090E00E945017F3CFDF91CF911F910F91DE
:1007C0000895CF93DF93EC01BC018AE090E00E9492
:1007D0005017BE018DE090E0DF91CF910C9450173F
:1007E000CF93DF93EB010E94C903CE01DF91CF913C
:1007F0000C94E1030F931F93CF93DF938C01EB01D4
:10080000FC01808191810E948203BE0180E290E020
:100810000E9450170D5F1F4FF80181918F018A30A0
:1008200029F0BE0190E00E945017F6CFCE01DF9173
:10083000CF911F910F910C94E103CF93E091B30DF1
:10084000F091B40DC081C23221F0C73211F080E0C6
:1008500029C03196F093B40DE093B30D81918C17BC
:1008600019F08A30D9F7F3CFE091B30DF091B40DC0
:1008700080818C1789F06091BA0D7091BB0D90E06A
:100880000E9450178091B30D9091B40D01969093F2
:10089000B40D8093B30DE8CF3196F093B40DE0938F
:1008A000B30D81E0CF9108951F93CF93DF93182F5D
:1008B000CAEBDDE06881798183E290E00E94501705
:1008C00068817981812F90E00E9450176881798139
:1008D00080E290E0DF91CF911F910C9450170E941D
:1008E000DC0C9093A10D8093A00D8091B60D811129
:1008F00007C0E091B30DF091B40D80818A3021F0F2
:1009000084E08093B60D08950E94291090939F0D66
:1009100080939E0D81E008950E94DC0C2091B60D1D
:10092000211107C0E091B30DF091B40D20812A3060
:1009300021F484E08093B60D0895892B11F086E0B0
:10094000089582E00895BF92CF92DF92EF92FF92D6
:100950000F931F93CF93DF930E944110E091B30D4B
:10096000F091B40DD0808FEB8D0D8A3110F087E0BF
:100970000FC03196F093B40DE093B30D0E94411077
:10098000E091B30DF091B40D80818D3329F08AE0B0
:100990008093B60D84E079C03196F093B40DE09366
:1009A000B30D0E9441101092B60D0E94DC0C7C0128
:1009B0008091B60D8111EECF83E995E00E949C0BEA
:1009C000811124C00E94DC0C8C018091B60D811134
:1009D000E1CF8EE895E00E949C0B811109C00E9436
:1009E000DC0C2091B60D2111D5CFB82EC92E03C035
:1009F000BB24B394C12C0E944110C091B30DD0917F
:100A0000B40D28812A3021F02A3311F082E0C0CFC2
:100A10008091B60D811136C02A30A1F5E091A70D65
:100A2000F091A80D9F01265F3F4F4091AF0D50916F
:100A3000B00D2417350710F483E0AACF3A97F0934E
:100A4000A80DE093A70D2D2D30E021543048220F42
:100A5000331FA091A20DB091A30DA20FB31FED9271
:100A6000FC9286E48083D18213830283B482C582A0
:100A7000D187C08780919E0D90919F0D978386832B
:100A800083E003C084E08093B60DDF91CF911F9186
:100A90000F91FF90EF90DF90CF90BF90089510924C
:100AA000B60D0E94DC0C9093A10D8093A00D809157
:100AB000B60D811132C0A091B30DB091B40D8C91DF
:100AC0008A3059F5E091A70DF091A80DCF01069657
:100AD0002091AF0D3091B00D8217930728F483E079
:100AE0008093B60D84E008953697F093A80DE093B7
:100AF000A70D87E490E091838083B583A4838091E0
:100B00009E0D90919F0D938382830E942910909354
:100B10009F0D80939E0D81E0089584E08093B60D33
:100B200008950E944110E091B30DF091B40D8081C1
:100B300081548A3110F087E011C03196F093B40DE2
:100B4000E093B30D0E944110E091B30DF091B40D0C
:100B500080818A3339F08A3029F082E08093B60DA3
:100B600084E0089580E008952091A70D3091A80DAC
:100B7000A091B30DB091B40DF90111979DE0ED393D
:100B8000F90708F057C090819634D1F0973409F0F6
:100B900054C08C3099F48281938190939F0D8093FF
:100BA0009E0D848195819093B40D8093B30D2A5F3F
:100BB0003F4F3093A80D2093A70D38C03696DECF57
:100BC0008330B1F59C914181941332C0892F90E01C
:100BD00081549048880F991FA091A20DB091A30D48
:100BE000A80FB91F8D919C91119724813581820F97
:100BF000931F8D939C9324813581232B91F0228127
:100C000033812817390768F0808591859093B40D5A
:100C10008093B30D8681978190939F0D80939E0D55
:100C200005C03A96F093A80DE093A70D83E00895D0
:100C30003A96A4CF88E08093B60D84E00895CF93D0
:100C4000DF93CAEBDDE06881798188EC90E00E9457
:100C500050170E94A9086881798189E693E00E9473
:100C6000F0038FE491E09093A50D8093A40D85E0AF
:100C7000DF91CF9108956091BA0D7091BB0D89EC11
:100C800090E00E9450170E94A90883E008950E94F6
:100C9000DC0C2091B60D21110BC08038910520F09D
:100CA00084E18093B60D04C00E945E0982E008953D
:100CB00084E008950E94DC0C2091B60D21110BC038
:100CC0008038910520F084E18093B60D04C00E9425
:100CD000730982E0089584E00895CF93DF930E9422
:100CE000DC0CEC018091B60D81111DC0C831D1051D
:100CF000B8F4E091B30DF091B40D80818C3211F015
:100D000082E00FC03196F093B40DE093B30D0E94D2
:100D1000DC0C2091B60D211106C08032910528F01F
:100D200080E18093B60D84E005C0682F8C2F0E946F
:100D3000880982E0DF91CF910895E091B30DF091A1
:100D4000B40D80818A3381F48091BA0D9091BB0DEE
:100D50000E94E1038091B30D9091B40D01969093A0
:100D6000B40D8093B30D4AC08A3009F44DC00E947F
:100D700041100E941D0481111BC0E091B30DF09140
:100D8000B40D8081823211F0873221F484E08093A7
:100D9000B60D08951092B60D0E94DC0C2091B60D90
:100DA000211134C06091BA0D7091BB0D0E94820375
:100DB0000E944110E091B30DF091B40D80818C320E
:100DC00031F43196F093B40DE093B30DD0CF8B3363
:100DD00059F481818A3011F08A3391F43196F0937D
:100DE000B40DE093B30D0AC08A3011F08A3341F498
:100DF0008091BA0D9091BB0D0E94E10383E00895AC
:100E000082E08093B60D02C082E0089584E00895E8
:100E10000F931F93CF93DF930E94DC0CEC01809122
:100E2000B60D811136C0CF3FD10509F0B0F4E09185
:100E3000B30DF091B40D80818C32C1F43196F093F2
:100E4000B40DE093B30D0E94DC0C8C018091B60DC3
:100E500081111FC0003F110510F080E118C0E09122
:100E6000B30DF091B40D80818C3211F082E00FC08F
:100E70003196F093B40DE093B30D0E94DC0C2091F9
:100E8000B60D211106C08038910528F084E18093C9
:100E9000B60D84E006C0482F602F8C2F0E94A60953
:100EA00082E0DF91CF911F910F910895CF93C82FCA
:100EB0008A3019F48DE00E9456078091C00085FFAA
:100EC000FCCFC093C60080E090E0CF910895809160
:100ED000C00087FFFCCF8091C60090E0089520916C
:100EE0004A01211105C08FE090E00E947110F7CFF8
:100EF00090913701E92FF0E0E65CFE4F80819F5F23
:100F000090933701215020934A01903111F41092AF
:100F1000370190E00895682F8091B10D9091B20D46
:100F20009C012F5F3F4F3093B20D2093B10D0E9473
:100F3000701980E090E008958091B10D9091B20D0C
:100F40009C012F5F3F4F3093B20D2093B10D0E9453
:100F5000681990E0089588B94E99FECF5F9A4E9B2C
:100F6000FECF5F986EE071E0883079F488E090E021
:100F70000E9450176EE071E080E290E00E945017EE
:100F80006EE071E088E090E003C0992787FD9095BE
:100F90000E94501780E090E0089522982A9AEA9AD9
:100FA000539852985B9A5A9A82E084BD15BC94E695
:100FB00097BD80936E001092B50D9BE090934B010E
:100FC0008093690010924C01E89A78940895CF9329
:100FD000E898C4E628988EEE92E00E947C10289A49
:100FE00084EF91E00E947C10C150A1F7E89ACF9164
:100FF000089590914A01903198F420913801E22FA0
:10100000F0E0E65CFE4F808381E0820F8093380140
:101010009F5F90934A01803129F41092380108951E
:101020000C94E70708959091390190FD84C08737AB
:1010300051F158F4843151F118F4823149F12AC048
:101040008835F9F0893521F125C0803EA9F020F4DA
:101050008A3A09F47DC01EC0803F81F08C3FD1F4F4
:101060006091BA0D7091BB0D82EB91E00E94F0038C
:101070000E94E7070C94E707926068C09D7F91602B
:1010800065C080E201C088E0892742C094605EC0EC
:1010900090615CC092FF1AC0813221F481E080939C
:1010A000B50D0895843329F49B7F9093390187E02F
:1010B00040C08B3411F48CE03CC08C3111F481E0E1
:1010C00038C0843209F044C082E033C091FF23C0AD
:1010D0008A3511F48DE017C0853711F484E013C010
:1010E000823711F485E00FC08B3611F480E10BC01C
:1010F000843711F481E107C08C3611F481E003C01C
:10110000893619F482E00E94F907809139018D7FB8
:1011100080933901089594FB222720F995FD2E5FD5
:1011200094E0899FF0011124E20FF11DEE57FC4F6E
:1011300084910C94F907843131F0893531F0823192
:1011400021F09E7F03C09A7F01C09E7E909339015B
:1011500008956EE071E08BE190E00E9450176EE020
:1011600071E08BE590E00E9450176EE071E080E343
:1011700090E00E9450176EE071E08DE690E00E94D2
:1011800050176EE071E08BE190E00E9450176EE026
:1011900071E08BE590E00E9450176EE071E088E40A
:1011A00090E00E9450176EE071E08BE190E00E94A9
:1011B00050176EE071E08BE590E00E9450176EE0F2
:1011C00071E08AE490E00C945017CF938CE191E0A9
:1011D0009093B90D8093B80D9093BB0D8093BA0D89
:1011E00010927C0087E880937A0080917A00806476
:1011F00080937A0080917A0086FDFCCF11B8CFEF02
:10120000C2B9209A289A0E94CD07C7B95698579A12
:101210005498559A1092C50085E18093C40086E0E9
:101220008093C20088E18093C100CF910C94A908FB
:10123000FF920F931F93CF93DF93C82FF62E6EE08C
:1012400071E08BE190E00E9450176EE071E08BE559
:1012500090E00E9450171F92CF930EE211E01F936F
:101260000F93CEE0D1E0DF93CF930E943E17BE01F3
:101270008BE390E00E9450171F92FF921F930F93F1
:10128000DF93CF930E943E178DB79EB70C960FB693
:10129000F8949EBF0FBE8DBFBE0188E490E0DF9141
:1012A000CF911F910F91FF900C94501788B94C99D2
:1012B000FECF5D9A4C9BFECF5D9808951F93CF9310
:1012C000DF93182FCAEBDDE0688179818EEC90E026
:1012D0000E94501768817981812F90E0DF91CF9132
:1012E0001F910C9450171F93CF93DF93182FCAEBC5
:1012F000DDE0688179818FEC90E00E945017688171
:101300007981812F90E0DF91CF911F910C9450173C
:101310000F931F93CF93DF93082F162FCAEBDDE0B7
:10132000688179818DEC90E00E9450176881798105
:10133000802F90E00E94501768817981812F90E082
:10134000DF91CF911F910F910C945017EF92FF9264
:101350000F931F93CF93DF931F92CDB7DEB7082F64
:10136000162F8AEBE82E8DE0F82EF701608171814F
:101370008AEC90E049830E945017F70160817181E7
:10138000802F90E00E945017F70160817181812FBA
:1013900090E00E945017F701608171814981842F8C
:1013A00090E00F90DF91CF911F910F91FF90EF9000
:1013B0000C9450171F920F920FB60F9211248F9317
:1013C00081E08093B50DEA988F910F900FBE0F903A
:1013D0001F9018951F920F920FB60F9211248F93A2
:1013E0008BE080934B0115BC8F910F900FBE0F9037
:1013F0001F9018951F920F920FB60F9211242F93E2
:101400003F934F935F936F937F938F939F93AF938C
:10141000BF93EF93FF9399B120914C0180914B01C1
:1014200021111AC08B3011F485E085BD80914B01EC
:101430008350883050F48091360186958093360130
:1014400093FF03C080688093360183E08093690036
:1014500081E080934C0111C0815080934B01811138
:1014600007C0809136010E9413088BE080934B01E6
:1014700082E08093690010924C01FF91EF91BF913F
:10148000AF919F918F917F916F915F914F913F911C
:101490002F910F900FBE0F901F9018958FEC0E9408
:1014A000560983E008958EEC0E94560983E0089562
:1014B0000E9441100E94DC0C2091B60D211122C027
:1014C0008837910599F038F4CC97F1F48CEC0E94B0
:1014D000560980E014C08639910569F0843B910576
:1014E00099F48CEC0E94560988E109C08CEC0E94AA
:1014F000560988E004C08CEC0E94560980E10E94E5
:10150000560902C084E0089583E00895CF93DF93E5
:101510000E9441101092B60DE091B30DF091B40D00
:10152000C081C23231F0C73221F082E08093B60D23
:1015300026C03196F093B40DE093B30DD4E009C00A
:101540008091B30D9091B40D01969093B40D80935A
:10155000B30DE091B30DF091B40D80818C1709F4B7
:1015600049C0893571F489EC0E9456090E94DC0B50
:101570008091B60D882321F388EC0E94560984E0FF
:101580003FC08A3580F4853431F130F4833409F179
:10159000F0F4813441F32BC08E34C9F08835C9F0A2
:1015A0008D3429F518C08536B1F030F4833689F0D2
:1015B00070F48136C1F21BC08E3649F018F48D36B6
:1015C00051F015C0883729F0893769F210C08AECCC
:1015D000CBCF8BECC9CF8DEC0E9456090E94DC0B5F
:1015E0008091B60D8111C4CF0E94F20BC1CFD09370
:1015F000B60DBECF3196F093B40DE093B30D83E0FA
:10160000DF91CF910895CF93DF931092B20D109296
:10161000B10DC0E0D8E080E091E00E94001788237F
:10162000D9F06091BA0D7091BB0D20EE280F2F35C7
:1016300038F08A3029F08D3019F08FE390E001C046
:1016400090E00E9450172197209729F78091BA0DBA
:101650009091BB0D0E94E10382E0DF91CF9108954C
:10166000CF93DF931092B20D1092B10DC0E0D0E095
:1016700060E071E080E090E00E945017CE018F772B
:1016800099278034910541F46091BA0D7091BB0D9A
:101690008EE290E00E9450172196CF3F87E0D80756
:1016A00039F78091BA0D9091BB0D0E94E10382E061
:1016B000DF91CF9108951092B20D1092B10D80E09C
:1016C00091E00E94001780538A3080F41092B20D8E
:1016D0001092B10D8FE491E09093A50D8093A40D2D
:1016E0008091A60D88608093A60D03C089E0809349
:1016F000B60D84E00895CF93DF931092B20D10924F
:10170000B10D0E942910EC018091A40D9091A50DBE
:1017100060E071E0C817D90739F0CE010E94FA03E2
:101720008A81C80FD11DF0CF80E090E00E94501751
:1017300082E0DF91CF9108951F93CF93DF93EC0167
:1017400020E030E010E0FE018491882381F1409197
:10175000B30D5091B40DFA01E20FF31F8081FE0129
:101760009491891304C02F5F3F4F2196ECCFFE0167
:101770006491E82FF0E0E058FF4F70E0E617F707BC
:1017800059F42F5F3F4F240F351F3093B40D209332
:10179000B30D0E9441100BC0FE018491219687FF7A
:1017A000FBCF1F5F0E94411020E030E0CCCF812FA3
:1017B000DF91CF911F910895E091B30DF091B40D99
:1017C000CF0101969093B40D8093B30D81819FEC6E
:1017D000980F943018F480530C94560984E0809349
:1017E000B60D08951F93CF93DF93C4E0DCE04091E2
:1017F000B30D5091B40DCA0101969093B40D80932E
:10180000B30DFA0161818EEC860F8630A8F4605327
:101810009A012E5F3F4F3093B40D2093B30D828118
:1018200090E0815491098033910508F06AC0825C90
:101830009F4FFC010C948816623211F0673229F434
:101840005093B40D4093B30DB3C084E08093B60DB4
:10185000AFC093E065C0CA0103969093B40D809326
:10186000B30DFA018381833209F451C03093B40D72
:101870002093B30D91E054C0CA0103969093B40D28
:101880008093B30DFA0183818F7D823409F441C0C6
:101890003093B40D2093B30D95E042C0CA01039676
:1018A0009093B40D8093B30DFA018381833299F143
:1018B0003093B40D2093B30D96E032C0CA01039665
:1018C0009093B40D8093B30DFA018381833229F193
:1018D0003093B40D2093B30D98E022C0CA01039653
:1018E0009093B40D8093B30DFA0183818F7D823480
:1018F000B1F03093B40D2093B30D9CE011C09DE086
:101900000FC0C093B60D90E00BC09AE009C092E002
:1019100007C094E005C097E003C099E001C09BE0D8
:10192000E091B30DF091B40D9F012F5F3F4F3093C5
:10193000B40D2093B30D81814FEC480F483010F463
:10194000805303C0C093B60D80E0AF014E5F5F4F80
:101950005093B40D4093B30D42814D3271F04D332D
:1019600021F04B3221F421E009C023E007C030937D
:10197000B40D2093B30D20E001C022E0382F392BA5
:10198000322BB1F09D3041F06250192F6D9F100D38
:1019900011241150110F01C010E98150F0E42F9F64
:1019A000800D11240E945609812F0E9456091FCFD5
:1019B000DF91CF911F910895CF93DF930E94990EED
:1019C000EC018091B60D811143C086E995E00E943B
:1019D0009C0B8730E9F1482F50E047305105D0F596
:1019E000FA01E259FF4F0C9488160E94990E31E0DB
:1019F00020E0C817D9074CF527C00E94990E31E0A6
:101A000020E0C817D90709F51FC00E94990E31E0E0
:101A100020E08C179D07CCF017C00E94990E31E092
:101A200020E0C817D90781F410C00E94990E31E058
:101A300020E08C179D074CF407C00E94990E31E0FE
:101A400020E0C817D9070CF030E0832F922F04C094
:101A5000CE0102C080E090E0DF91CF910895EF9237
:101A6000FF920F931F93CF93DF931F92CDB7DEB7F3
:101A700001E010E00E944110E091B30DF091B40D2F
:101A800080818D3249F43196F093B40DE093B30D1B
:101A9000119501951109EECF803331F43196F09311
:101AA000B40DE093B30DFAC09FEC980F9930E0F4B9
:101AB00080E090E03AE0A091B30DB091B40DAC019C
:101AC000349FC001359F900D1124FD012191820F9B
:101AD000911DC097F093B40DE093B30D11962C9126
:101AE00020532A3040F3DCC09FEB980F9A3108F066
:101AF000B5C0918191549A31B0F090E081549048F2
:101B0000880F991FA091A20DB091A30DA80FB91F26
:101B10003C9111962C913196F093B40DE093B30D56
:101B2000832F922FBDC082EA95E00E949C0B282F44
:101B3000853011F48EE0B0C0E091B30DF091B40D9A
:101B40008081883211F085E0A7C03196F093B40D02
:101B5000E093B30D29830E94DC0C7C01E091B30D6E
:101B6000F091B40D80812981893209F094C03196B9
:101B7000F093B40DE093B30D2230F9F028F4222352
:101B800041F0213099F06AC02330E9F02430D1F1DE
:101B900065C050E5E5165CE0F50614F083E17CC015
:101BA000F701E15BFE4F808190E07AC0C701F7FE4C
:101BB00077C091958195910973C00E94F016B70185
:101BC0000E9474166DC088E0E816F10410F08CE0F5
:101BD00063C081E090E002C0880F991FEA94E2F7A9
:101BE00021B130E028233923232B29F520B130E01F
:101BF0002823392351E040E0232B09F450E0852FBE
:101C0000942F4EC0A8E0EA16F10408F7E0927C0099
:101C100021E030E002C0220F331FEA94E2F742B124
:101C200092B1822F8095892382B981B190E082237D
:101C30009323892B11F08DE02FC080917A0080646E
:101C400080937A0080917A0086FDFCCF42B9809122
:101C50007800909179009695879522C0E091B30D18
:101C6000F091B40D80818832B1F43196F093B40DC7
:101C7000E093B30D0E94DC0C9C01E091B30DF09158
:101C8000B40D8081893239F43196F093B40DE0932C
:101C9000B30DC90105C086E08093B60D80E090E0E9
:101CA000FC010E9FC0010F9F900D1E9F900D1124EF
:101CB0000F90DF91CF911F910F91FF90EF900895BA
:101CC0001F93CF93DF930E942F0DEC010E944110D0
:101CD0001BE0E091B30DF091B40D80818A3281F464
:101CE0003196F093B40DE093B30D0E942F0D9E0139
:101CF000289FE001299FD00D389FD00D1124E9CFF6
:101D00008F3291F43196F093B40DE093B30D0E94AD
:101D10002F0DBC01009729F0CE010E947416EB0133
:101D2000D8CF1093B60DD5CFCE01DF91CF911F91B3
:101D30000895CF93DF93E091B30DF091B40D8081BE
:101D40008D3231F08B3221F00E94600EEC0102C026
:101D5000C0E0D0E0E091B30DF091B40D80818D3200
:101D600051F43196F093B40DE093B30D0E94600EE0
:101D7000C81BD90BEFCF8B3251F43196F093B40DD1
:101D8000E093B30D0E94600EC80FD91FE3CFCE01C0
:101D9000DF91CF910895EF92FF921F93CF93DF933E
:101DA000C091A40DD091A50D2296D093B40DC093EF
:101DB000B30D8091A60D83FD10C010EE6AC0E091B6
:101DC000B30DF091B40D80838091B30D9091B40D5B
:101DD00001969093B40D8093B30D80E091E00E9442
:101DE00000179C0133272A30310559F02D30310579
:101DF00041F0232B21F78091A60D877F8093A60DBC
:101E00000DC1E091B30DF091B40D8AE0808306C15D
:101E10008091B30D9091B40D8C179D07D0F5609112
:101E2000BA0D7091BB0D82E090E00E945017409176
:101E3000A40D5091A50DCE01841B950B9EEFF92E9C
:101E4000F80EEF2CE294E69427E0E2222091B30D05
:101E50003091B40D241B350B225022952695277006
:101E60006091BA0D7091BB0D8E2D821B90E0019692
:101E70000E9450176091BA0D7091BB0D8F2DE19E9D
:101E8000800D112490E00E945017D093B40DC093A0
:101E9000B30D8091B80D9091B90D0E9400177C018F
:101EA0009927FC013197E131F10508F08DC0EB581D
:101EB000FF4F0C9488168091A40D9091A50D029669
:101EC0002091B30D3091B40D8217930710F76091F4
:101ED000BA0D7091BB0D81E090E00E9450176091A7
:101EE000BA0D7091BB0D8091B30D9091B40D2091FE
:101EF000A40D3091A50D821B930B8250829586957F
:101F0000877090E001960E9450178091A40D9091E7
:101F1000A50D02961AC08091A40D9091A50D029670
:101F20002091B30D3091B40D8217930708F059C07A
:101F30006091BA0D7091BB0D80E190E00E94501746
:101F40008091B30D9091B40D01979093B40D80934F
:101F5000B30D9FCF8091B30D9091B40D8C179D0759
:101F600008F03FC001969093B40D8093B30D60913B
:101F7000BA0D7091BB0D81E190E00E94501789CF9E
:101F8000D093B40DC093B30D8AE088838091BA0DCD
:101F90009091BB0DDF91CF911F91FF90EF900C942A
:101FA000E1038091A40D9091A50D02962091B30DAF
:101FB0003091B40D82179307A0F46091BA0D70911F
:101FC000BB0D88E090E0BACF2091A20D3091A30D17
:101FD000225031094091B30D5091B40D421753076F
:101FE00019F40E94E70755CF6091BA0D7091BB0DAF
:101FF0000E945017E091B30DF091B40DE0828091F2
:10200000B30D9091B40D01969093B40D8093B30DE0
:10201000C817D90708F03DCFEC013BCFDF91CF9136
:102020001F91FF90EF900895E091A70DF091A80DFA
:102030003197F093A80DE093A70D80830895E09168
:10204000A70DF091A80D8191F093A80DE093A70D35
:1020500008952091A40D3091A50D4091A00D5091AF
:10206000A10D8FE491E08217930751F0FC0160818C
:1020700071816417750720F46281860F911DF3CF7B
:102080000895E091B30DF091B40D8081803231F468
:102090003196F093B40DE093B30DF3CF8930C1F3D3
:1020A0000895E091A40DF091A50D329690E0808105
:1020B0008A30B1F0891769F0823269F0873269F0AD
:1020C00091110CC02FE9280F2A3140F480528083EF
:1020D00005C090E003C092E201C097E23196E7CFDD
:1020E0000895009741F0E7E8F3E13197F1F700C078
:1020F00000000197F6CF0895009731F026E02A9569
:10210000F1F700C00197F8CF08958091B50D8111C6
:1021100004C08091C600833021F41092B50D81E097
:10212000089580E00895FC0120812D3219F4019674
:1021300041E001C040E0FC0180E090E05AE02191E4
:1021400030ED320F3A3060F4BC01569FC001579F0A
:10215000900D112430E020533109820F931FEFCFEF
:10216000442319F09195819591090895AF92BF92FA
:10217000CF92DF92EF92FF920F931F93CF93DF9353
:102180000E944110E091B30DF091B40DF0808FEBFF
:102190008F0D8A3110F087E015C0D090A20DE0902D
:1021A000A30D3196F093B40DE093B30D0E9441104E
:1021B000E091B30DF091B40D80818A3039F08A330B
:1021C00029F082E08093B60D84E07CC01092A90DC6
:1021D000EA9AA12CC9EADDE08AE0B82E8091B80D18
:1021E0009091B90D0E9400178C01C82E8091B50DF9
:1021F000813009F466C0C80199278A309105E1F061
:1022000024F488309105D1F02CC08D309105A1F0D7
:102210008D32910531F5A1103AC06091BA0D7091DF
:10222000BB0D8DE290E00E945017FE0101931982D0
:10223000EF01AA24A3942BC0B88229C02DE0C93A8B
:10224000D20709F018F40E94E70721C06091BA0D87
:102250007091BB0D88E090E00E9450172197AA94DE
:1022600016C020ED200F2A3090F425E02A1560F0EA
:102270006091BA0D7091BB0D0E945017FE01019341
:10228000A3941982EF0106C00E94E70703C08AE009
:10229000C81619F02DE0C212A1CF8091BA0D90910D
:1022A000BB0D0E94E10389EA9DE00E949310ED2D91
:1022B000FE2DEF0DF11DEF0DF11DE258F109918397
:1022C000808383E0DF91CF911F910F91FF90EF907A
:1022D000DF90CF90BF90AF9008951F93CF93DF937F
:1022E000E091B30DF091B40DC0818FEB8C0F8A316A
:1022F000F0F51091A20DD091A30DCF01019690930E
:10230000B40D8093B30D818181548A3148F48FEFED
:102310008093B60D3296F093B40DE093B30D37C0B1
:102320000E944110E091B30DF091B40D80818D3386
:1023300011F08FE01DC08091B60D8F3F11F481E147
:1023400017C03196F093B40DE093B30D0E94411085
:102350000E94DC0C2091B60D211119C0E091B30D43
:10236000F091B40D20812A3031F02A3321F082E03F
:102370008093B60D0CC0E12FFD2FEC0FF11DEC0F7B
:10238000F11DE258F1099183808383E001C084E06C
:10239000DF91CF911F910895CF93DF930E94DC0CC2
:1023A000EC018091B60D81112EC0C0358CE0D807AC
:1023B00014F083E126C00E944110E091B30DF0912A
:1023C000B40D80818C32E1F43196F093B40DE0933A
:1023D000B30D0E9441100E94DC0C2091B60D21111A
:1023E00012C08F3F910519F010F082E10AC0E09110
:1023F000B30DF091B40D20812A3039F02A3329F041
:1024000082E08093B60D84E004C0C15BDE4F888318
:1024100083E0DF91CF910895CF93DF930E94321331
:102420009093A10D8093A00DE091B30DF091B40DA8
:1024300080818A3021F084E08093B60D15C00E941F
:102440002910EC018091A40D9091A50DC817D90712
:1024500059F06091BA0D7091BB0DCE010E94FA0344
:102460008A81C80FD11DEECF84E0DF91CF9108950E
:10247000CF93DF93CAEBDDE0688179818091A20D73
:102480009091A30D2091A40D3091A50D821B930B6B
:102490000E948203688179818EE593E00E94F003B7
:1024A0006881798180E098E00E9482036881798167
:1024B00083E593E00E94F00383E0DF91CF910895DC
:1024C0008091B20090E00E94F51683E0089510928A
:1024D000B60D0E94DC0C2091B60D211104C00E94A3
:1024E000F51683E0089584E00895CF93DF93EA9A88
:1024F000CAEBDDE06881798180ED90E00E945017A1
:102500006881798182ED90E00E9450178FE491E01C
:1025100090939F0D80939E0D81E0DF91CF91089560
:10252000E091B30DF091B40D80818A3029F082E002
:102530008093B60D84E008958091A40D9091A50D2F
:1025400090939F0D80939E0D81E00895E091B30DCF
:10255000F091B40D80818A3029F082E08093B60D2D
:1025600084E008958FE491E09093A50D8093A40DED
:1025700085E00895CF93DF930E94DC0CEC018091FD
:10258000B60D81112FC0C830D10510F08CE028C0E5
:10259000E091B30DF091B40D80818C3201F531964C
:1025A000F093B40DE093B30D0E94DC0C2091B60DB6
:1025B000211118C021E030E00C2E01C0220F0A9436
:1025C000EAF7009731F0019751F481B1822B81B97C
:1025D00004C081B12095282321B982E004C082E0A3
:1025E0008093B60D84E0DF91CF910895CF93DF9370
:1025F0000E94DC0CEC018091B60D81112FC0C83017
:10260000D10510F08CE028C0E091B30DF091B40D2D
:1026100080818C3201F53196F093B40DE093B30DC7
:102620000E94DC0C2091B60D211118C021E030E091
:102630000C2E01C0220F0A94EAF7009731F001979F
:1026400051F482B1822B82B904C082B12095282333
:1026500022B982E004C082E08093B60D84E0DF916D
:10266000CF9108950E94411080E090E05AE0E091FF
:10267000B30DF091B40D408120ED240F2A30A0F469
:10268000893929E1920788F4589F9001599F300DAC
:102690001124842F90E0C097820F931F3196F093FE
:1026A000B40DE093B30DE3CF08958FEF9FEF08953E
:1026B000CF93DF938FE491E09093A50D8093A40DC9
:1026C0008EE99DE09093A80D8093A70D8CE69DE088
:1026D0009093B00D8093AF0D86E39DE09093A30D92
:1026E0008093A20DCAEBDDE06881798187EE9BE0E3
:1026F0000E948203688179818EE593E00E94F00355
:102700006881798180E098E00E9482036881798104
:1027100083E593E00E94F00388819981DF91CF9156
:102720000C94E103C4E08EE9A82E8DE0B82ED9E028
:102730000FE411E092E5E92E91E0F92E20E1922ECE
:1027400031E3432E31E0532E4EE5C42EC43009F060
:1027500050C06091BA0D7091BB0D81ED90E00E9468
:1027600050176091BA0D7091BB0D83ED90E00E94FF
:10277000501710929F0D10929E0DB092A80DA0922E
:10278000A70D6091BA0D7091BB0D88E393E00E9494
:10279000F003C0E02EC04C5F4093B70DFC013397AF
:1027A000F093B40DE093B30D3183208332964083D0
:1027B0000E94291090934E0180934D012091A40D09
:1027C0003091A50D8217930709F08CC0E091B30DED
:1027D000F091B40D83818A3061F0E0914D01F09168
:1027E0004E012091B70D2111A1C0F0934E01E0934D
:1027F0004D011092B60D8091A60D982F937061F047
:102800008C7F8093A60D10939F0D00939E0DF092E8
:10281000B40DE092B30DDCC00E94CB0E0E945110AB
:102820008091A40D9091A50D02969093B40D809384
:10283000B30DE091B30DF091B40D80818A3031F089
:102840003196F093B40DE093B30DF3CFE091A20D68
:10285000F091A30D3197A091B30DB091B40D8C916F
:1028600080832091B30D3091B40D8091A40D90918F
:10287000A50D02962817390739F0215031093093F8
:10288000B40D2093B30DE6CFF093B40DE093B30DE8
:102890000E9432139093A10D8093A00D0E944110CD
:1028A0002091A00D3091A10D2115310509F480C0B2
:1028B0002F3F8FEF380719F4D093B60D89C01092CF
:1028C000B70D8091B30D9091B40D4091B70DFC01FF
:1028D000E40FF11D50815A3009F45DCF4F5F4093F2
:1028E000B70DF3CFDC016D917C9111974091A00D54
:1028F0005091A10D6417750709F068CF12964C919D
:102900001297FC01E40FF11D2E1B3F0BAF01420F8C
:10291000531FE417F50719F061916D93FACF820FF9
:10292000931F9093A50D8093A40D50CF6091A40D9B
:102930007091A50D8091B30D9091B40D30E0861B80
:10294000970B2817390708F4C901AB01480F591F25
:102950009B012E1B3F0B1A012115310549F0DB01AC
:102960007E90BD01D1017E921D0121503109F4CF2D
:102970008E0F9F1FE817F907B1F0A091B30DB0912A
:10298000B40D2C9121932091B30D3091B40D2F5F94
:102990003F4F3093B40D2093B30D2091B70D2150CC
:1029A0002093B70DE7CF5093A50D4093A40D19CFF9
:1029B0001092B50DE091A40DF091A50DCF010296F6
:1029C0009093B40D8093B30D82818A3009F411CFB6
:1029D0008091B60D8111D5C00E948510882349F0E1
:1029E0006091BA0D7091BB0D8BE393E00E94F003F0
:1029F000C5C01092B60D8DEB95E00E949C0B90E047
:102A00008F32910508F07CC0FC01EA57FF4F0C940F
:102A100088160E94DC0C0E94711087C00E94A612CA
:102A200072C00E94E70781C00E9475126CC00E94AC
:102A30008C0469C00E946F0466C00E944E0A63C085
:102A40000E94530A60C00E94580A5DC00E94860A14
:102A50005AC00E94901257C00E940C1254C00E948B
:102A6000381251C00E9447064EC00E945A064BC001
:102A70000E9491059091B60D911145C083E004C06C
:102A80000E944F0540C08CE00E94B4053CC00E94EB
:102A9000601239C00E94671236C00E94A30433C07E
:102AA0000E94B61030C00E94CC112DC00E940807B1
:102AB0002AC00E94030B27C00E94300B24C08091C3
:102AC000A60D82608093A60D03C00E947B0B1BC0E5
:102AD0000E945B0B18C00E941F0615C00E949D0635
:102AE00012C00E946D060FC00E943B060CC00E94DF
:102AF000BA1209C00E94F61206C00E946D1103C0EE
:102B00009092B60D3BC08430C9F18530C9F1863052
:102B100009F462CF8330F9F40E944110E091B30DC3
:102B2000F091B40D80818A3371F0E0919E0DF091A7
:102B30009F0D309719F18281E80FF11DF0939F0DE1
:102B4000E0939E0D0AC03196F093B40DE093B30D5F
:102B50000E94411041CF823041F380919E0D9091AF
:102B60009F0D2091A40D3091A50D8217930731F090
:102B700003969093B40D8093B30D2ECFC4E001C0A3
:102B8000C5E08091B60D882309F4E0CD83E00E9472
:102B90005E0980E00E9473098091B60D90E0FC010F
:102BA0003197E431F10508F078C0EB54FF4F6091A4
:102BB000BA0D7091BB0D0C94881687E193E06BC041
:102BC0008AE093E00E94C90380919E0D90919F0D31
:102BD000892BE9F05F924F920E948217E091B30D2A
:102BE000F091B40D70800F900F90BAE07B12C0820C
:102BF0006091BA0D7091BB0D80919E0D90919F0DCB
:102C00000E94FA03E091B30DF091B40D70828091AF
:102C1000BA0D9091BB0D0E94E1033FC08BEF92E093
:102C20003AC086EE92E037C082E393E002C08BE2C6
:102C300093E00E94F0036091BA0D7091BB0D82ED9C
:102C400092E029C080EC92E026C08BEA92E023C09B
:102C500087E992E020C085E892E01DC084E792E019
:102C60001AC081E692E017C083E592E014C082E4C6
:102C700092E011C082E392E00EC08EE192E00BC0C0
:102C800088E092E008C081EF91E005C084EE91E019
:102C900002C08CEC91E00E94F0038CE40E945E097B
:102CA00080E00E94730952CD0E94E5088CE40E94E6
:102CB0005E0980E00E9473096091BA0D7091BB0DAE
:102CC00089E693E00E94F0030E94E7071092B000AB
:102CD00087E08093B100109270000E9458130E9408
:102CE000921380E090E0089597FB072E16F400946D
:102CF00007D077FD09D00E948E1607FC05D03EF460
:102D0000909581959F4F0895709561957F4F089597
:102D1000EE0FFF1F0590F491E02D0994AA1BBB1B39
:102D200051E107C0AA1FBB1FA617B70710F0A61BCB
:102D3000B70B881F991F5A95A9F780959095BC01EC
:102D4000CD0108958F929F92AF92BF92CF92DF9262
:102D5000EF92FF92CF93DF93EC01688179818A81B2
:102D60009B81611571058105910521F464E279ED7E
:102D70008BE597E02DE133EF41E050E00E94F6193A
:102D800049015A019B01AC01A7EAB1E40E94151A5E
:102D90006B017C01ACEEB4EFA50194010E94231AF3
:102DA000C60ED71EE81EF91EF7FE06C081E0C81A3F
:102DB000D108E10880E8F80AC882D982EA82FB8259
:102DC000C6019F77DF91CF91FF90EF90DF90CF907A
:102DD000BF90AF909F908F9008950E94A216089583
:102DE0008AE291E00E94A2160895A0E0B0E08093EC
:102DF0002A0190932B01A0932C01B0932D010895EB
:102E0000CF93DF93EC012B8120FF33C026FF0AC054
:102E10002F7B2B838E819F8101969F838E838A8156
:102E200090E029C022FF0FC0E881F98180819927B5
:102E300087FD9095009719F420622B831AC0319674
:102E4000F983E8830EC0EA85FB85099597FF09C0E1
:102E50002B81019611F480E101C080E2822B8B83EB
:102E600008C02E813F812F5F3F4F3F832E839927DC
:102E700002C08FEF9FEFDF91CF910895A0E0B0E007
:102E8000E4E4F7E10C94381AAE01475F5F4F6F81BD
:102E900078858D819E810E949617E2E00C94541AE9
:102EA0000F931F93CF93DF93182F092FEB018B8183
:102EB00081FD03C08FEF9FEF20C082FF10C04E81C5
:102EC0005F812C813D81421753077CF4E881F981B1
:102ED0009F012F5F3F4F39832883108306C0E88509
:102EE000F985812F0995892B29F72E813F812F5F45
:102EF0003F4F3F832E83812F902FDF91CF911F91E2
:102F00000F910895A0E0B0E0E8E8F7E10C94381ADA
:102F1000FE01359661917191AF018091BA0D90914A
:102F2000BB0D0E949617E2E00C94541AACE0B0E09E
:102F3000ECE9F7E10C94281A7C016B018A01FC0191
:102F400017821682838181FFBDC1CE0101964C019B
:102F5000F7019381F60193FD859193FF81916F01B4
:102F6000882309F4ABC1853239F493FD859193FF31
:102F700081916F01853229F4B70190E00E945017CA
:102F8000E7CF512C312C20E02032A0F48B3269F0B5
:102F900030F4803259F0833269F420612CC08D32D4
:102FA00039F0803339F4216026C02260246023C0C8
:102FB000286021C027FD27C030ED380F3A3078F463
:102FC00026FF06C0FAE05F9E300D1124532E13C079
:102FD0008AE0389E300D1124332E20620CC08E32D0
:102FE00021F426FD6BC1206406C08C3611F42068E4
:102FF00002C0883641F4F60193FD859193FF8191DB
:103000006F018111C1CF982F9F7D9554933028F483
:103010000C5F1F4FFFE3F9830DC0833631F0833718
:1030200071F0833509F05BC022C0F801808189838B
:103030000E5F1F4F44244394512C540115C0380196
:10304000F2E06F0E711CF801A080B18026FF03C072
:10305000652D70E002C06FEF7FEFC5012C870E94E5
:103060008D192C0183012C852F77222E17C0380152
:10307000F2E06F0E711CF801A080B18026FF03C042
:10308000652D70E002C06FEF7FEFC5012C870E94B5
:1030900082192C012C852068222E830123FC1BC061
:1030A000832D90E048165906B0F4B70180E290E015
:1030B0000E9450173A94F4CFF50127FC859127FE22
:1030C00081915F01B70190E00E94501731103A944E
:1030D000F1E04F1A51084114510471F7E5C08436EC
:1030E00011F0893639F5F80127FF07C06081718139
:1030F000828193810C5F1F4F08C060817181882796
:1031000077FD8095982F0E5F1F4F2F76B22E97FF79
:1031100009C090958095709561957F4F8F4F9F4F17
:103120002068B22E2AE030E0A4010E949819A82E4F
:10313000A81844C0853729F42F7EB22E2AE030E04B
:1031400025C0F22FF97FBF2E8F36C1F018F48835D5
:1031500079F0B4C0803719F0883721F0AFC02F2F35
:103160002061B22EB4FE0DC08B2D8460B82E09C034
:1031700024FF0AC09F2F9660B92E06C028E030E0D9
:1031800005C020E130E002C020E132E0F801B7FEE6
:1031900007C060817181828193810C5F1F4F06C0DF
:1031A0006081718180E090E00E5F1F4FA4010E945A
:1031B0009819A82EA818FB2DFF77BF2EB6FE0BC0BE
:1031C0002B2D2E7FA51450F4B4FE0AC0B2FC08C00B
:1031D0002B2D2E7E05C07A2C2B2D03C07A2C01C0FE
:1031E000752C24FF0DC0FE01EA0DF11D8081803396
:1031F00011F4297E09C022FF06C07394739404C0A1
:10320000822F867809F0739423FD13C020FF06C037
:103210005A2C731418F4530C5718732C731468F445
:10322000B70180E290E02C870E94501773942C85A0
:10323000F5CF731410F4371801C0312C24FF12C0DD
:10324000B70180E390E02C870E9450172C8522FF65
:1032500017C021FF03C088E590E002C088E790E036
:10326000B7010CC0822F867859F021FD02C080E2A0
:1032700001C08BE227FD8DE2B70190E00E9450175C
:10328000A51438F4B70180E390E00E9450175A94D7
:10329000F7CFAA94F401EA0DF11D8081B70190E007
:1032A0000E945017A110F5CF332009F451CEB70179
:1032B00080E290E00E9450173A94F6CFF7018681A1
:1032C000978102C08FEF9FEF2C96E2E10C94441A95
:1032D000F999FECF92BD81BDF89A992780B50895DE
:1032E000262FF999FECF92BD81BDF89A019700B4BF
:1032F000021639F01FBA20BD0FB6F894FA9AF99A5F
:103300000FBE0895FC010590615070400110D8F780
:10331000809590958E0F9F1F0895FC01615070401D
:1033200001900110D8F7809590958E0F9F1F0895FA
:10333000FA01AA27283051F1203181F1E8946F93E6
:103340006E7F6E5F7F4F8F4F9F4FAF4FB1E03ED08C
:10335000B4E03CD0670F781F891F9A1FA11D680F2A
:10336000791F8A1F911DA11D6A0F711D811D911D5D
:10337000A11D20D009F468943F912AE0269F1124D2
:103380003019305D3193DEF6CF010895462F477036
:10339000405D4193B3E00FD0C9F7F6CF462F4F7091
:1033A000405D4A3318F0495D31FD4052419302D0EF
:1033B000A9F7EACFB4E0A695979587957795679595
:1033C000BA95C9F700976105710508959B01AC0195
:1033D0000A2E06945795479537952795BA95C9F7BC
:1033E000620F731F841F951FA01D0895052E97FB64
:1033F0001EF400940E940D1A57FD07D00E945F1A18
:1034000007FC03D04EF40C940D1A5095409530955E
:1034100021953F4F4F4F5F4F089590958095709540
:1034200061957F4F8F4F9F4F08950E94811AA59FEE
:10343000900DB49F900DA49F800D911D11240895AF
:10344000B7FF0C94151A0E94151A821B930B08954E
:103450002F923F924F925F926F927F928F929F92A4
:10346000AF92BF92CF92DF92EF92FF920F931F9392
:10347000CF93DF93CDB7DEB7CA1BDB0B0FB6F89443
:10348000DEBF0FBECDBF09942A88398848885F8483
:103490006E847D848C849B84AA84B984C884DF80F4
:1034A000EE80FD800C811B81AA81B981CE0FD11DD8
:1034B0000FB6F894DEBF0FBECDBFED010895A1E2B7
:1034C0001A2EAA1BBB1BFD010DC0AA1FBB1FEE1F9E
:1034D000FF1FA217B307E407F50720F0A21BB30BE9
:1034E000E40BF50B661F771F881F991F1A9469F765
:1034F00060957095809590959B01AC01BD01CF01C1
:103500000895A29FB001B39FC001A39F700D811DBC
:103510001124911DB29F700D811D1124911D0895DC
:04352000F894FFCF4D
:1035240000000003000000008B079C07000000005F
:1035340000030000000056076707000000000003B6
:1035440000000000AB076F070000010000002564C5
:0635540000202D2D2000D7
:00000001FF
