:100000000C9447030C94E1090C9464030C94C1090B
:100010000C9464030C9464030C9464030C946403C4
:100020000C9464030C9464030C9464030C946403B4
:100030000C9464030C9464030C9464030C946403A4
:100040000C94D1090C9464030C9464030C94640321
:100050000C9464030C9464030C9464030C94640384
:100060000C9464030C9464030C9464030C94640374
:100070000C9464030C9464030C946403720C5B0C86
:10008000180C160C290C3B0C4B0C6E0C6E0C6E0CE9
:100090006E0C6E0C6E0C6E0C6E0C6C0C6E0C6E0C92
:1000A0006E0C6E0C6E0C6E0C6E0C6E0C6E0C6E0C80
:1000B0006E0C6E0C6E0C6E0C6E0C6E0C720C5B0C7F
:1000C000180C160C290C3B0C4B0C6E0C6E0C6E0CA9
:1000D0006E0C6E0C6E0C6E0C6E0C6C0CE20CEA0C62
:1000E000F20CFA0C020D0A0DEA0C480FF50ED10FB6
:1000F000360F360FD10FDE0FBE0FD10FAD0FD10F60
:10010000360FAD0FD10FD10F780F970F2A150C15A1
:10011000121536157B15151518151B151E152115ED
:1001200024153E1541154515481569157215951587
:100130004B154E150F156C156F15511554152715C8
:1001400027152D15301533156C15951595150715B3
:1001500057155A155D15631566157E157E157E15A6
:100160007E157E15751578157B15E515E8151A169B
:100170001D16201623162E163116341637163A166B
:100180003D1640164316461649164C164F16521683
:1001900055164B6579626F61726420636F6E6E6590
:1001A00063746564207375636365737366756C6CE3
:1001B00079004B6579626F6172642073656C662D9E
:1001C00074657374206661696C6564004578706558
:1001D0006374656420636F6C6F72205B302E2E3108
:1001E00032375D004F7574206F662072616E6765EF
:1001F0000045787065637465642062797465205B7E
:10020000302E2E3235355D00496E76616C69642082
:100210007661726961626C65206E616D6500496E20
:1002200076616C696420636F6F7264696E61746576
:100230007300556E6B6E6F776E20636F6D6D616EC0
:100240006400556E6B6E6F776E2066756E637469B1
:100250006F6E0050696E20492F4F206572726F7269
:1002600000496E76616C69642070696E205B302E87
:100270002E375D004469766973696F6E206279205C
:100280007A65726F004F70657261746F7220657865
:1002900070656374656400496E76616C6964206C96
:1002A000696E65206E756D626572004A756D7020AD
:1002B000706F696E74206E6F7420666F756E640067
:1002C0005661726961626C652065787065637465FA
:1002D0006400706172656E746865736973206D691E
:1002E0007373696E6700556E6578706563746564D5
:1002F0002063686172616374657200537461636B3B
:10030000206F766572666C6F770053796E746178D2
:10031000206572726F72004E6F7420796574206967
:100320006D706C656D656E746564005269676874A4
:1003300020004C65667420004F4B00427265616B73
:10034000210020627974657320617661696C616255
:100350006C650020627974657320524F4D002062F5
:10036000797465732052414D0057656C636F6D65FC
:1003700020746F206E737442415349432076302EAF
:10038000320000000000000000000000000000003B
:1003900000000000000000000000607E607E0000A1
:1003A000000000000000000000000000000000004D
:1003B00000000000000009090909607E607E00005D
:1003C000000000000000000000000000000000002D
:1003D00000000000000071515171312131210000F5
:1003E000000000000000000000007A5A5A7A73539F
:1003F0005373614141617757577732403240000073
:100400000000000000006343436378585878644458
:100410004464654545653424342433233323000084
:100420000000000000002020202076565676664608
:100430004666745454747252527235253525000044
:100440000000000000006E4E4E6E6242426268483C
:1004500048686747476779595979365E365E0000C4
:100460000000000000002C3C2C3C6D4D4D6D6A4A94
:100470004A6A7555557537263726382A382A0000B6
:100480000000000000002C3C2C3C6B4B4B6B69497E
:1004900049696F4F4F6F30293029392839280000BA
:1004A0000000000000002E3E2E3E2F3F2F3F6C4CE0
:1004B0004C6C3B3A3B3A705050702D5F2D5F000002
:1004C000000000000000000000002722272200009A
:1004D00000005B7B5B7B3D2B3D2B000000000000A0
:1004E000000000000000000000000D0D0D0D5D7DFE
:1004F0005D7D000000005C7C5C7C00000000000072
:100500000000000000003C3C3C3C000000000000FB
:1005100000000000000000000000080808080000BB
:10052000000000000000313131310000000034349F
:100530003434373737370000000000000000000077
:100540000000303030302E2E2E2E32323232353501
:10055000353536363636383838381B1B1B1B00000D
:100560000000000000002B2B2B2B333333332D2DB9
:100570002D2D2A2A2A2A3939393900000000000095
:100580000000484947C848C94C4FD74CCF00535486
:1005900045D00054CF003EBD3CBEBEBD3CBDBC21DD
:1005A000BD00504545CB4142D3524EC450494E4404
:1005B000524541C450494E41524541C4004C4953F3
:1005C000D44E45D75255CE4E4558D44C45D449C645
:1005D000474F54CF4D504C41D94D53544FD05445B3
:1005E0004D50CF4D555349C3474F5355C2524554B3
:1005F0005552CE52414E444F4D495AC5524E445326
:100600004545C45253D4434CD35245CD464FD249AD
:100610004E5055D4424545D05052494ED44C4F438C
:100620004154C5504F4BC5505345D453544FD045FA
:100630004EC44D45CD5045CE50415045D2BFA3A7E5
:1006400044454C41D9454C4953D445464F524D4100
:10065000D44543484149CE45534156C5454C4F4189
:10066000C446494C45D343464F524D41D443434879
:100670004149CE43534156C5434C4F41C450494E66
:100680004449D250494E4457524954C500001124A0
:100690001FBECFEFD0E1DEBFCDBF11E0A0E0B1E0E3
:1006A000ECE3F5E302C005900D92A633B107D9F74C
:1006B0002DE0A6E3B1E001C01D92AE3BB207E1F729
:1006C0000E9460160C949C1A0C940000FF920F93E9
:1006D0001F93CF93DF93EC018B01F12CFE01EF0D03
:1006E000F11D8081882341F0B801992787FD9095FD
:1006F0000E945C17F394F2CFDF91CF911F910F917D
:10070000FF900895AF92BF92CF92DF92EF92FF9247
:100710000F931F93CF93DF9300D0CDB7DEB75C016B
:100720007B0197FF07C0B194A194B1088DE290E0DE
:100730000E945C1700E010E08AE0C82ED12CC501B1
:10074000B6010E948016805D69837A830E94011041
:100750006981A62E7A81B72E0F5F1F4FA114B104B5
:1007600071F70E940C10B70190E00E945C170150D5
:10077000110901151105A9F70F900F90DF91CF9185
:100780001F910F91FF90EF90DF90CF90BF90AF90AF
:1007900008950F931F93CF93DF93EC018B01CE014C
:1007A000FE012491222341F02196FC018491B8019D
:1007B00090E00E945C17F3CFDF91CF911F910F91D2
:1007C0000895CF93DF93EC01BC018AE090E00E9492
:1007D0005C17BE018DE090E0DF91CF910C945C1727
:1007E000CF93DF93EB010E94C903CE01DF91CF913C
:1007F0000C94E1030F931F93CF93DF938C01EB01D4
:10080000DC01ED91FC911197808191813396ED93FC
:10081000FC930E948203BE0180E290E00E945C177C
:10082000D801ED91FD918D0180818A3019F0BE01D2
:1008300090E0F4CFCE01DF91CF911F910F910C94F6
:10084000E103CF93E091A10DF091A20DC081C232DE
:1008500021F0C73211F080E029C03196F093A20D4B
:10086000E093A10D81918C1719F08A30D9F7F3CF5D
:10087000E091A10DF091A20D80818C1789F060911B
:10088000BA0D7091BB0D90E00E945C178091A10D94
:100890009091A20D01969093A20D8093A10DE8CFA7
:1008A0003196F093A20DE093A10D81E0CF910895D0
:1008B0000E94C90C90939F0D80939E0D8091B60D60
:1008C000811107C0E091A10DF091A20D80818A30C5
:1008D00021F084E08093B60D08950E941610909345
:1008E000B00D8093AF0D81E008950E94C90C209156
:1008F000B60D211107C0E091A10DF091A20D20814C
:100900002A3021F484E08093B60D0895892B11F0EC
:1009100086E0089582E00895BF92CF92DF92EF9231
:10092000FF920F931F93CF93DF930E942E10E091BD
:10093000A10DF091A20DD0808FEB8D0D8A3110F0BA
:1009400087E00FC03196F093A20DE093A10D0E94B5
:100950002E10E091A10DF091A20D80818D3329F030
:100960008AE08093B60D84E079C03196F093A20DB1
:10097000E093A10D0E942E101092B60D0E94C90C9A
:100980007C018091B60D8111EECF83E995E00E9444
:10099000890B811124C00E94C90C8C018091B60D75
:1009A0008111E1CF8EE895E00E94890B811109C089
:1009B0000E94C90C2091B60D2111D5CFB82EC92E99
:1009C00003C0BB24B394C12C0E942E10C091A10D72
:1009D000D091A20D28812A3021F02A3311F082E033
:1009E000C0CF8091B60D811136C02A30A1F5E091BB
:1009F000A30DF091A40D9F01265F3F4F4091AB0DD9
:100A00005091AC0D2417350710F483E0AACF3A9724
:100A1000F093A40DE093A30D2D2D30E02154304828
:100A2000220F331FA091B40DB091B50DA20FB31FCB
:100A3000ED92FC9286E48083D18213830283B48298
:100A4000C582D187C0878091AF0D9091B00D9783FB
:100A5000868383E003C084E08093B60DDF91CF915D
:100A60001F910F91FF90EF90DF90CF90BF9008956E
:100A70001092B60D0E94C90C90939F0D80939E0D0D
:100A80008091B60D811132C0A091A10DB091A20D3F
:100A90008C918A3059F5E091A30DF091A40DCF010E
:100AA00006962091AB0D3091AC0D8217930728F478
:100AB00083E08093B60D84E008953697F093A40DFB
:100AC000E093A30D87E490E091838083B583A483B2
:100AD0008091AF0D9091B00D938382830E94161088
:100AE0009093B00D8093AF0D81E0089584E08093E2
:100AF000B60D08950E942E10E091A10DF091A20D67
:100B0000808181548A3110F087E011C03196F093D2
:100B1000A20DE093A10D0E942E10E091A10DF09185
:100B2000A20D80818A3339F08A3029F082E08093E7
:100B3000B60D84E0089580E008952091A30D3091D2
:100B4000A40DA091A10DB091A20DF90111979DE006
:100B5000ED39F90708F057C090819634D1F09734F9
:100B600009F054C08C3099F4828193819093B00D38
:100B70008093AF0D848195819093A20D8093A10DF8
:100B80002A5F3F4F3093A40D2093A30D38C03696B3
:100B9000DECF8330B1F59C914181941332C0892F0F
:100BA00090E081549048880F991FA091B40DB091A6
:100BB000B50DA80FB91F8D919C9111972481358196
:100BC000820F931F8D939C9324813581232B91F069
:100BD000228133812817390768F0808591859093A9
:100BE000A20D8093A10D868197819093B00D809383
:100BF000AF0D05C03A96F093A40DE093A30D83E0EA
:100C000008953A96A4CF88E08093B60D84E00895C5
:100C1000CF93DF93CAEBDDE06881798188EC90E0C7
:100C20000E945C170E9490086881798189E693E0B0
:100C30000E94F0038FE491E09093B20D8093B10D88
:100C400085E0DF91CF9108956091BA0D7091BB0D51
:100C500089EC90E00E945C170E94900883E0089560
:100C60000E94C90C2091B60D21110BC0803891054E
:100C700020F084E18093B60D04C00E94450982E013
:100C8000089584E008950E94C90C2091B60D2111A9
:100C90000BC08038910520F084E18093B60D04C02C
:100CA0000E945A0982E0089584E00895CF93DF936B
:100CB0000E94C90CEC018091B60D81111DC0C83194
:100CC000D105B8F4E091A10DF091A20D80818C3294
:100CD00011F082E00FC03196F093A20DE093A10DC8
:100CE0000E94C90C2091B60D211106C080329105D9
:100CF00028F080E18093B60D84E005C0682F8C2F2A
:100D00000E946F0982E0DF91CF910895E091A10DDB
:100D1000F091A20D80818A3381F48091BA0D909177
:100D2000BB0D0E94E1038091A10D9091A20D01964F
:100D30009093A20D8093A10D48C08A3009F44BC056
:100D40000E942E100E94210481111BC0E091A10D70
:100D5000F091A20D8081823211F0873221F484E07B
:100D60008093B60D08951092B60D0E94C90C209183
:100D7000B60D211132C06091BA0D7091BB0D0E9469
:100D80008203E091A10DF091A20D80818C3231F4AB
:100D90003196F093A20DE093A10DD2CF8B3359F48D
:100DA00081818A3011F08A3391F43196F093A20D4B
:100DB000E093A10D0AC08A3011F08A3341F480918A
:100DC000BA0D9091BB0D0E94E10383E0089582E08B
:100DD0008093B60D02C082E0089584E008950F93D9
:100DE0001F93CF93DF930E94C90CEC018091B60D45
:100DF000811136C0CF3FD10509F0B0F4E091A10DCB
:100E0000F091A20D80818C32C1F43196F093A20D45
:100E1000E093A10D0E94C90C8C018091B60D811147
:100E20001FC0003F110510F080E118C0E091A10D36
:100E3000F091A20D80818C3211F082E00FC03196CA
:100E4000F093A20DE093A10D0E94C90C2091B60D64
:100E5000211106C08038910528F084E18093B60DF9
:100E600084E006C0482F602F8C2F0E948D0982E0FD
:100E7000DF91CF911F910F910895CF93C82F8A30A2
:100E800019F48DE00E943D078091C00085FFFCCFE2
:100E9000C093C60080E090E0CF9108958091C0009B
:100EA00087FFFCCF8091C60090E0089520914A0111
:100EB000211105C08FE090E00E945E10F7CF909165
:100EC0003701E92FF0E0E65CFE4F80819F5F909351
:100ED0003701215020934A01903111F410923701CB
:100EE00090E00895682F8091AD0D9091AE0D9C011A
:100EF0002F5F3F4F3093AE0D2093AD0D0E947C19B4
:100F000080E090E008958091AD0D9091AE0D9C0130
:100F10002F5F3F4F3093AE0D2093AD0D0E9474199B
:100F200090E0089588B94E99FECF5F9A4E9BFECF10
:100F30005F986EE071E0883079F488E090E00E947C
:100F40005C176EE071E080E290E00E945C176EE05A
:100F500071E088E090E003C0992787FD90950E949A
:100F60005C1780E090E0089522982A9AEA9A5398B4
:100F700052985B9A5A9A82E084BD15BC94E697BD5C
:100F800080936E001092B30D9BE090934B01809381
:100F9000690010924C01E89A78940895CF93E898EC
:100FA000C4E628988EEE92E00E946910289A84EF99
:100FB00091E00E946910C150A1F7E89ACF9108957D
:100FC00090914A01903198F420913801E22FF0E09D
:100FD000E65CFE4F808381E0820F809338019F5F43
:100FE00090934A01803129F41092380108950C94AD
:100FF000CE0708959091390190FD84C0873751F153
:1010000058F4843151F118F4823149F12AC08835FD
:10101000F9F0893521F125C0803EA9F020F48A3A03
:1010200009F47DC01EC0803F81F08C3FD1F46091F7
:10103000BA0D7091BB0D82EB91E00E94F0030E940B
:10104000CE070C94CE07926068C09D7F916065C00A
:1010500080E201C088E0892742C094605EC0906150
:101060005CC092FF1AC0813221F481E08093B30DFD
:101070000895843329F49B7F9093390187E040C021
:101080008B3411F48CE03CC08C3111F481E038C019
:10109000843209F044C082E033C091FF23C08A3516
:1010A00011F48DE017C0853711F484E013C0823746
:1010B00011F485E00FC08B3611F480E10BC084374A
:1010C00011F481E107C08C3611F481E003C0893648
:1010D00019F482E00E94E007809139018D7F8093AE
:1010E0003901089594FB222720F995FD2E5F94E0A5
:1010F000899FF0011124E20FF11DEE57FC4F8491FE
:101100000C94E007843131F0893531F0823121F0DF
:101110009E7F03C09A7F01C09E7E909339010895FF
:101120006EE071E08BE190E00E945C176EE071E090
:101130008BE590E00E945C176EE071E080E390E048
:101140000E945C176EE071E08DE690E00E945C17F3
:101150006EE071E08BE190E00E945C176EE071E060
:101160008BE590E00E945C176EE071E088E490E00F
:101170000E945C176EE071E08BE190E00E945C17CA
:101180006EE071E08BE590E00E945C176EE071E02C
:101190008AE490E00C945C17CF938CE191E09093FB
:1011A000B90D8093B80D9093BB0D8093BA0D10923A
:1011B0007C0087E880937A0080917A008064809335
:1011C0007A0080917A0086FDFCCF11B8CFEFC2B9CA
:1011D000209A289A0E94B407C7B95698579A5498EB
:1011E000559A1092C50085E18093C40086E08093F3
:1011F000C20088E18093C100CF910C949008FF92C7
:101200000F931F93CF93DF93C82FF62E6EE071E0FC
:101210008BE190E00E945C176EE071E08BE590E05E
:101220000E945C171F92CF930EE211E01F930F9361
:10123000CEE0D1E0DF93CF930E944A17BE018BE34B
:1012400090E00E945C171F92FF921F930F93DF9311
:10125000CF930E944A178DB79EB70C960FB6F8949D
:101260009EBF0FBE8DBFBE0188E490E0DF91CF919D
:101270001F910F91FF900C945C1788B94C99FECF89
:101280005D9A4C9BFECF5D9808951F93CF93DF939B
:10129000182FCAEBDDE0688179818EEC90E00E9426
:1012A0005C1768817981812F90E0DF91CF911F9148
:1012B0000C945C171F93CF93DF93182FCAEBDDE0DC
:1012C000688179818FEC90E00E945C176881798158
:1012D000812F90E0DF91CF911F910C945C170F93B9
:1012E0001F93CF93DF93082F162FCAEBDDE06881A1
:1012F00079818DEC90E00E945C1768817981802F64
:1013000090E00E945C1768817981812F90E0DF91E5
:10131000CF911F910F910C945C17EF92FF920F9356
:101320001F93CF93DF931F92CDB7DEB7082F162FF1
:101330008AEBE82E8DE0F82EF701608171818AEC4E
:1013400090E049830E945C17F70160817181802FD2
:1013500090E00E945C17F70160817181812F90E01D
:101360000E945C17F701608171814981842F90E0B0
:101370000F90DF91CF911F910F91FF90EF900C9400
:101380005C171F920F920FB60F9211248F9381E07A
:101390008093B30DEA988F910F900FBE0F901F901E
:1013A00018951F920F920FB60F9211248F938BE016
:1013B00080934B0115BC8F910F900FBE0F901F9023
:1013C00018951F920F920FB60F9211242F933F93EF
:1013D0004F935F936F937F938F939F93AF93BF933D
:1013E000EF93FF9399B120914C0180914B01211112
:1013F0001AC08B3011F485E085BD80914B0183507C
:10140000883050F48091360186958093360193FFA1
:1014100003C080688093360183E08093690081E097
:1014200080934C0111C0815080934B01811107C002
:10143000809136010E94FA078BE080934B0182E095
:101440008093690010924C01FF91EF91BF91AF9191
:101450009F918F917F916F915F914F913F912F91CC
:101460000F900FBE0F901F9018958FEC0E943D09B2
:1014700083E008958EEC0E943D0983E008950E9468
:101480002E100E94C90C2091B60D211122C0883760
:10149000910599F038F4CC97F1F48CEC0E943D0959
:1014A00080E014C08639910569F0843B910599F478
:1014B0008CEC0E943D0988E109C08CEC0E943D093A
:1014C00088E004C08CEC0E943D0980E10E943D0947
:1014D00002C084E0089583E00895CF93DF930E94D3
:1014E0002E101092B60DE091A10DF091A20DC081C9
:1014F000C23231F0C73221F082E08093B60D26C0AF
:101500003196F093A20DE093A10DD4E009C0809133
:10151000A10D9091A20D01969093A20D8093A10D23
:10152000E091A10DF091A20D80818C1709F449C0C2
:10153000893571F489EC0E943D090E94C90B8091A4
:10154000B60D882321F388EC0E943D0984E03FC05A
:101550008A3580F4853431F130F4833409F1F0F4C4
:10156000813441F32BC08E34C9F08835C9F08D34F5
:1015700029F518C08536B1F030F4833689F070F45F
:101580008136C1F21BC08E3649F018F48D3651F009
:1015900015C0883729F0893769F210C08AECCBCFA3
:1015A0008BECC9CF8DEC0E943D090E94C90B809144
:1015B000B60D8111C4CF0E94DF0BC1CFD093B60D01
:1015C000BECF3196F093A20DE093A10D83E0DF91A1
:1015D000CF910895CF93DF931092AE0D1092AD0D81
:1015E000C0E0D8E080E091E00E940C178823D9F099
:1015F0006091BA0D7091BB0D20EE280F2F3538F099
:101600008A3029F08D3019F08FE390E001C090E02E
:101610000E945C172197209729F78091BA0D90912D
:10162000BB0D0E94E10382E0DF91CF910895CF933B
:10163000DF931092AE0D1092AD0DC0E0D0E060E0EF
:1016400071E080E090E00E945C17CE018F779927CF
:101650008034910541F46091BA0D7091BB0D8EE21A
:1016600090E00E945C172196CF3F87E0D80739F7BA
:101670008091BA0D9091BB0D0E94E10382E0DF9151
:10168000CF9108951092AE0D1092AD0D80E091E0D3
:101690000E940C1780538A3080F41092AE0D109285
:1016A000AD0D8FE491E09093B20D8093B10D8091D8
:1016B000A00D88608093A00D03C089E08093B60DD3
:1016C00084E00895CF93DF9300D0CDB7DEB71092BA
:1016D000AE0D1092AD0D0E9416109A838983298158
:1016E0003A818091B10D9091B20D60E071E02817C0
:1016F000390729F0CE0101960E94FA03F0CF80E06D
:1017000090E00E945C1782E00F900F90DF91CF91E4
:1017100008951F93CF93DF93EC0120E030E010E0B9
:10172000FE018491882381F14091A10D5091A20D79
:10173000FA01E20FF31F8081FE019491891304C026
:101740002F5F3F4F2196ECCFFE016491E82FF0E030
:10175000E058FF4F70E0E617F70759F42F5F3F4F4F
:10176000240F351F3093A20D2093A10D0E942E103F
:101770000BC0FE018491219687FFFBCF1F5F0E9463
:101780002E1020E030E0CCCF812FDF91CF911F9140
:101790000895E091A10DF091A20DCF0101969093D3
:1017A000A20D8093A10D81819FEC980F943018F4C5
:1017B00080530C943D0984E08093B60D08951F93E7
:1017C000CF93DF93C4E0DCE04091A10D5091A20DD6
:1017D000CA0101969093A20D8093A10DFA01618137
:1017E0008EEC860F8630A8F460539A012E5F3F4F2F
:1017F0003093A20D2093A10D828190E08154910934
:101800008033910508F06AC0825C9F4FFC010C9404
:101810009416623211F0673229F45093A20D40936E
:10182000A10DB3C084E08093B60DAFC093E065C056
:10183000CA0103969093A20D8093A10DFA018381B2
:10184000833209F451C03093A20D2093A10D91E091
:1018500054C0CA0103969093A20D8093A10DFA0182
:1018600083818F7D823409F441C03093A20D20938F
:10187000A10D95E042C0CA0103969093A20D8093FA
:10188000A10DFA018381833299F13093A20D209347
:10189000A10D96E032C0CA0103969093A20D8093E9
:1018A000A10DFA018381833229F13093A20D209397
:1018B000A10D98E022C0CA0103969093A20D8093D7
:1018C000A10DFA0183818F7D8234B1F03093A20D96
:1018D0002093A10D9CE011C09DE00FC0C093B60DF8
:1018E00090E00BC09AE009C092E007C094E005C008
:1018F00097E003C099E001C09BE0E091A10DF09159
:10190000A20D9F012F5F3F4F3093A20D2093A10D99
:1019100081814FEC480F483010F4805303C0C093CE
:10192000B60D80E0AF014E5F5F4F5093A20D409324
:10193000A10D42814D3271F04D3321F04B3221F433
:1019400021E009C023E007C03093A20D2093A10D30
:1019500020E001C022E0382F392B322BB1F09D302E
:1019600041F06250192F6D9F100D11241150110F6D
:1019700001C010E98150F0E42F9F800D11240E94D6
:101980003D09812F0E943D091FCFDF91CF911F910B
:101990000895CF93DF930E94860EEC018091B60DDF
:1019A000811143C086E995E00E94890B8730E9F1F7
:1019B000482F50E047305105D0F5FA01E259FF4F6A
:1019C0000C9494160E94860E31E020E0C817D907C7
:1019D0004CF527C00E94860E31E020E0C817D907D9
:1019E00009F51FC00E94860E31E020E08C179D078C
:1019F000CCF017C00E94860E31E020E0C817D9074E
:101A000081F410C00E94860E31E020E08C179D0703
:101A10004CF407C00E94860E31E020E0C817D907B9
:101A20000CF030E0832F922F04C0CE0102C080E082
:101A300090E0DF91CF910895EF92FF920F931F9363
:101A4000CF93DF931F92CDB7DEB701E010E00E9485
:101A50002E10E091A10DF091A20D80818D3249F4FC
:101A60003196F093A20DE093A10D11950195110906
:101A7000EECF803331F43196F093A20DE093A10DB7
:101A8000FAC09FEC980F9930E0F480E090E03AE0E3
:101A9000A091A10DB091A20DAC01349FC001359F62
:101AA000900D1124FD012191820F911DC097F0939B
:101AB000A20DE093A10D11962C9120532A3040F3F2
:101AC000DCC09FEB980F9A3108F0B5C0918191541A
:101AD0009A31B0F090E081549048880F991FA091FE
:101AE000B40DB091B50DA80FB91F3C9111962C9172
:101AF0003196F093A20DE093A10D832F922FBDC0DC
:101B000082EA95E00E94890B282F853011F48EE03F
:101B1000B0C0E091A10DF091A20D8081883211F04A
:101B200085E0A7C03196F093A20DE093A10D298323
:101B30000E94C90C7C01E091A10DF091A20D808161
:101B40002981893209F094C03196F093A20DE09377
:101B5000A10D2230F9F028F4222341F0213099F030
:101B60006AC02330E9F02430D1F165C050E5E516B4
:101B70005CE0F50614F083E17CC0F701E15BFE4F09
:101B8000808190E07AC0C701F7FE77C0919581957A
:101B9000910973C00E94FC16B7010E9480166DC0A7
:101BA00088E0E816F10410F08CE063C081E090E07A
:101BB00002C0880F991FEA94E2F721B130E0282390
:101BC0003923232B29F520B130E02823392351E094
:101BD00040E0232B09F450E0852F942F4EC0A8E05D
:101BE000EA16F10408F7E0927C0021E030E002C040
:101BF000220F331FEA94E2F742B192B1822F80950F
:101C0000892382B981B190E082239323892B11F03B
:101C10008DE02FC080917A00806480937A0080915B
:101C20007A0086FDFCCF42B98091780090917900CE
:101C30009695879522C0E091A10DF091A20D80812B
:101C40008832B1F43196F093A20DE093A10D0E9479
:101C5000C90C9C01E091A10DF091A20D8081893207
:101C600039F43196F093A20DE093A10DC90105C09E
:101C700086E08093B60D80E090E0FC010E9FC001ED
:101C80000F9F900D1E9F900D11240F90DF91CF910B
:101C90001F910F91FF90EF9008951F93CF93DF93C3
:101CA0000E941C0DEC010E942E101BE0E091A10D82
:101CB000F091A20D80818A3281F43196F093A20DC9
:101CC000E093A10D0E941C0D9E01289FE001299F19
:101CD000D00D389FD00D1124E9CF8F3291F4319679
:101CE000F093A20DE093A10D0E941C0DBC01009782
:101CF00029F0CE010E948016EB01D8CF1093B60DCB
:101D0000D5CFCE01DF91CF911F910895CF93DF936F
:101D1000E091A10DF091A20D80818D3231F08B32D6
:101D200021F00E944D0EEC0102C0C0E0D0E0E09135
:101D3000A10DF091A20D80818D3251F43196F09376
:101D4000A20DE093A10D0E944D0EC81BD90BEFCF41
:101D50008B3251F43196F093A20DE093A10D0E94C5
:101D60004D0EC80FD91FE3CFCE01DF91CF9108955B
:101D7000EF92FF921F93CF93DF93C091B10DD0915B
:101D8000B20D2296D093A20DC093A10D8091A00D0B
:101D900083FD10C010EE6AC0E091A10DF091A20D7C
:101DA00080838091A10D9091A20D01969093A20D38
:101DB0008093A10D80E091E00E940C179C013327D5
:101DC0002A30310559F02D30310541F0232B21F710
:101DD0008091A00D877F8093A00D0DC1E091A10D92
:101DE000F091A20D8AE0808306C18091A10D9091AF
:101DF000A20D8C179D07D0F56091BA0D7091BB0DA7
:101E000082E090E00E945C174091B10D5091B20DBC
:101E1000CE01841B950B9EEFF92EF80EEF2CE29469
:101E2000E69427E0E2222091A10D3091A20D241B1F
:101E3000350B22502295269527706091BA0D70912E
:101E4000BB0D8E2D821B90E001960E945C17609165
:101E5000BA0D7091BB0D8F2DE19E800D112490E085
:101E60000E945C17D093A20DC093A10D8091B80D74
:101E70009091B90D0E940C177C019927FC013197B4
:101E8000E131F10508F08DC0EB58FF4F0C9494162A
:101E90008091B10D9091B20D02962091A10D3091DB
:101EA000A20D8217930710F76091BA0D7091BB0DC8
:101EB00081E090E00E945C176091BA0D7091BB0DBB
:101EC0008091A10D9091A20D2091B10D3091B20D94
:101ED000821B930B825082958695877090E00196C5
:101EE0000E945C178091B10D9091B20D02961AC0BC
:101EF0008091B10D9091B20D02962091A10D30917B
:101F0000A20D8217930708F059C06091BA0D709125
:101F1000BB0D80E190E00E945C178091A10D909133
:101F2000A20D01979093A20D8093A10D9FCF809158
:101F3000A10D9091A20D8C179D0708F03FC001964E
:101F40009093A20D8093A10D6091BA0D7091BB0D7D
:101F500081E190E00E945C1789CFD093A20DC093DD
:101F6000A10D8AE088838091BA0D9091BB0DDF911D
:101F7000CF911F91FF90EF900C94E1038091B10DF0
:101F80009091B20D02962091A10D3091A20D821771
:101F90009307A0F46091BA0D7091BB0D88E090E0BA
:101FA000BACF2091B40D3091B50D22503109409136
:101FB000A10D5091A20D4217530719F40E94CE07AC
:101FC00055CF6091BA0D7091BB0D0E945C17E091E6
:101FD000A10DF091A20DE0828091A10D9091A20D32
:101FE00001969093A20D8093A10DC817D90708F010
:101FF0003DCFEC013BCFDF91CF911F91FF90EF9050
:102000000895E091A30DF091A40D3197F093A40DE4
:10201000E093A30D80830895E091A30DF091A40DAA
:102020008191F093A40DE093A30D08952091B10D3B
:102030003091B20D40919E0D50919F0D8FE491E033
:102040008217930751F0FC01608171816417750755
:1020500020F46281860F911DF3CF0895E091A10DC8
:10206000F091A20D8081803231F43196F093A20D6F
:10207000E093A10DF3CF8930C1F30895E091B10D44
:10208000F091B20D329690E080818A30B1F08917DC
:1020900069F0823269F0873269F091110CC02FE942
:1020A000280F2A3140F48052808305C090E003C09D
:1020B00092E201C097E23196E7CF0895009741F090
:1020C000E7E8F3E13197F1F700C000000197F6CFA0
:1020D0000895009731F026E02A95F1F700C00197A6
:1020E000F8CF08958091B30D811104C08091C6008E
:1020F000833021F41092B30D81E0089580E00895BB
:10210000FC0120812D3219F4019641E001C040E02C
:10211000FC0180E090E05AE0219130ED320F3A303E
:1021200060F4BC01569FC001579F900D112430E010
:1021300020533109820F931FEFCF442319F091955B
:10214000819591090895AF92BF92CF92DF92EF925D
:10215000FF920F931F93CF93DF930E942E10E09175
:10216000A10DF091A20DF0808FEB8F0D8A3110F050
:1021700087E015C0D090B40DE090B50D3196F09386
:10218000A20DE093A10D0E942E10E091A10DF091FF
:10219000A20D80818A3039F08A3329F082E0809361
:1021A000B60D84E07CC01092A50DEA9AA12CC5EA78
:1021B000DDE08AE0B82E8091B80D9091B90D0E94B3
:1021C0000C178C01C82E8091B30D813009F466C0C4
:1021D000C80199278A309105E1F024F488309105EF
:1021E000D1F02CC08D309105A1F08D32910531F5E3
:1021F000A1103AC06091BA0D7091BB0D8DE290E0D4
:102200000E945C17FE0101931982EF01AA24A39496
:102210002BC0B88229C02DE0C53AD20709F018F4C6
:102220000E94CE0721C06091BA0D7091BB0D88E06D
:1022300090E00E945C172197AA9416C020ED200F11
:102240002A3090F425E02A1560F06091BA0D709163
:10225000BB0D0E945C17FE010193A3941982EF014C
:1022600006C00E94CE0703C08AE0C81619F02DE010
:10227000C212A1CF8091BA0D9091BB0D0E94E103D3
:1022800085EA9DE00E948010ED2DFE2DEF0DF11DE1
:10229000EF0DF11DE258F1099183808383E0DF9116
:1022A000CF911F910F91FF90EF90DF90CF90BF9053
:1022B000AF9008951F93CF93DF93E091A10DF0911C
:1022C000A20DC0818FEB8C0F8A31F0F51091B40D07
:1022D000D091B50DCF0101969093A20D8093A10DE1
:1022E000818181548A3148F48FEF8093B60D329604
:1022F000F093A20DE093A10D37C00E942E10E09143
:10230000A10DF091A20D80818D3311F08FE01DC0E1
:102310008091B60D8F3F11F481E117C03196F09393
:10232000A20DE093A10D0E942E100E94C90C2091D5
:10233000B60D211119C0E091A10DF091A20D2081DF
:102340002A3031F02A3321F082E08093B60D0CC0A0
:10235000E12FFD2FEC0FF11DEC0FF11DE258F109FB
:102360009183808383E001C084E0DF91CF911F914E
:102370000895CF93DF930E94C90CEC018091B60DB4
:1023800081112EC0C0358CE0D80714F083E126C03F
:102390000E942E10E091A10DF091A20D80818C324F
:1023A000E1F43196F093A20DE093A10D0E942E105E
:1023B0000E94C90C2091B60D211112C08F3F9105CA
:1023C00019F010F082E10AC0E091A10DF091A20D88
:1023D00020812A3039F02A3329F082E08093B60D2B
:1023E00084E004C0C15BDE4F888383E0DF91CF913E
:1023F0000895CF93DF9300D0CDB7DEB70E942513A9
:1024000090939F0D80939E0DE091A10DF091A20DF0
:1024100080818A3021F084E08093B60D16C00E943E
:1024200016109A83898329813A818091B10D909108
:10243000B20D2817390749F06091BA0D7091BB0DA4
:10244000CE0101960E94FA03EECF84E00F900F9028
:10245000DF91CF910895CF93DF93CAEBDDE06881E0
:1024600079818091B40D9091B50D2091B10D30918D
:10247000B20D821B930B0E948203688179818EE5E5
:1024800093E00E94F0036881798180E098E00E94E7
:1024900082036881798183E593E00E94F00383E001
:1024A000DF91CF9108958091B20090E00E940117D2
:1024B00083E008951092B60D0E94C90C2091B60DCC
:1024C000211104C00E94011783E0089584E008955B
:1024D000CF93DF93EA9ACAEBDDE06881798180EDE2
:1024E00090E00E945C176881798182ED90E00E9403
:1024F0005C178FE491E09093B00D8093AF0D81E075
:10250000DF91CF910895E091A10DF091A20D80810E
:102510008A3029F082E08093B60D84E0089580919E
:10252000B10D9091B20D9093B00D8093AF0D81E0FD
:102530000895E091A10DF091A20D80818A3029F0DB
:1025400082E08093B60D84E008958FE491E090934B
:10255000B20D8093B10D85E00895CF93DF930E9473
:10256000C90CEC018091B60D81112FC0C830D10586
:1025700010F08CE028C0E091A10DF091A20D8081B7
:102580008C3201F53196F093A20DE093A10D0E94DB
:10259000C90C2091B60D211118C021E030E00C2E9D
:1025A00001C0220F0A94EAF7009731F0019751F425
:1025B00081B1822B81B904C081B12095282321B932
:1025C00082E004C082E08093B60D84E0DF91CF9179
:1025D0000895CF93DF930E94C90CEC018091B60D52
:1025E00081112FC0C830D10510F08CE028C0E091D7
:1025F000A10DF091A20D80818C3201F53196F093FE
:10260000A20DE093A10D0E94C90C2091B60D2111DD
:1026100018C021E030E00C2E01C0220F0A94EAF726
:10262000009731F0019751F482B1822B82B904C036
:1026300082B12095282322B982E004C082E08093F1
:10264000B60D84E0DF91CF9108950E942E1080E0B6
:1026500090E05AE0E091A10DF091A20D408120EDB3
:10266000240F2A30A0F4893929E1920788F4589F71
:102670009001599F300D1124842F90E0C097820F54
:10268000931F3196F093A20DE093A10DE3CF08952F
:102690008FEF9FEF0895CF93DF938FE491E09093B6
:1026A000B20D8093B10D8EE99DE09093A40D8093BF
:1026B000A30D8CE69DE09093AC0D8093AB0D86E36B
:1026C0009DE09093B50D8093B40DCAEBDDE0688179
:1026D000798187EE9BE00E948203688179818EE593
:1026E00093E00E94F0036881798180E098E00E9485
:1026F00082036881798183E593E00E94F0038881F9
:102700009981DF91CF910C94E103CF93DF9300D0B7
:1027100000D0CDB7DEB714E08EE9882E8DE0982E7C
:1027200009E09FE4E92E91E0F92E22E5C22E21E096
:10273000D22E30E1732E41E3242E41E0342E5EE5AB
:10274000A52E143009F050C06091BA0D7091BB0DE8
:1027500081ED90E00E945C176091BA0D7091BB0D05
:1027600083ED90E00E945C171092B00D1092AF0DB7
:102770009092A40D8092A30D6091BA0D7091BB0D43
:1027800088E393E00E94F00310E02EC04C5F40937A
:10279000B70DFC013397F093A20DE093A10D3183A7
:1027A0002083329640830E94161090934E018093AE
:1027B0004D012091B10D3091B20D8217930709F0B0
:1027C0008CC0E091A10DF091A20D83818A3061F05F
:1027D000E0914D01F0914E012091B70D2111A1C062
:1027E000F0934E01E0934D011092B60D8091A00D33
:1027F000982F937061F08C7F8093A00DF092B00DB4
:10280000E092AF0DD092A20DC092A10DDFC00E9448
:10281000B80E0E943E108091B10D9091B20D0296BB
:102820009093A20D8093A10DE091A10DF091A20DC6
:1028300080818A3031F03196F093A20DE093A10DA2
:10284000F3CFE091B40DF091B50D3197A091A10DAA
:10285000B091A20D8C9180832091A10D3091A20D99
:102860008091B10D9091B20D02962817390739F079
:10287000215031093093A20D2093A10DE6CFF093A2
:10288000A20DE093A10D0E94251390939F0D8093BC
:102890009E0D0E942E1020919E0D30919F0D2115AE
:1028A000310509F483C02F3F8FEF380719F40093E7
:1028B000B60D8CC01092B70D8091A10D9091A20D14
:1028C0004091B70DFC01E40FF11D50815A3009F41D
:1028D0005DCF4F5F4093B70DF3CFDC016D917C91DD
:1028E000119740919E0D50919F0D6417750709F047
:1028F00068CF12964C911297FC01E40FF11D2E1B2C
:102900003F0BAF01420F531FE417F50719F0619118
:102910006D93FACF820F931F9093B20D8093B10DF8
:1029200050CF6091B10D7091B20D8091A10D909139
:10293000A20D30E0861B970B2817390708F4C90150
:10294000AB01480F591F9B012E1B3F0B5C834B8330
:102950002115310559F0DB015E90BD01AB81BC81D1
:102960005E92BC83AB8321503109F2CF8E0F9F1F43
:10297000E817F907B1F0A091A10DB091A20D2C912B
:1029800021932091A10D3091A20D2F5F3F4F3093E5
:10299000A20D2093A10D2091B70D21502093B70DCA
:1029A000E7CF5093B20D4093B10D16CF1092B30DF7
:1029B000E091B10DF091B20DCF0102969093A20D6E
:1029C0008093A10D82818A3009F40ECF8091B60DDB
:1029D0008111DFC00E947210882349F06091BA0D06
:1029E0007091BB0D8BE393E00E94F003CFC0109277
:1029F000B60D8DEB95E00E94890B90E08F3291052A
:102A000008F07CC0FC01EA57FF4F0C9494160E941A
:102A1000C90C0E945E1089C00E94991272C00E9467
:102A2000CE0783C00E9468126CC00E94750469C002
:102A30000E94580466C00E94350A63C00E943A0A88
:102A400060C00E943F0A5DC00E946D0A5AC00E9489
:102A5000831257C00E94F91154C00E942B1251C01A
:102A60000E9430064EC00E9443064BC00E947A0569
:102A70009091B60D911145C083E004C00E943805C5
:102A800040C08CE00E949D053CC00E94531239C09A
:102A90000E945A1236C00E948C0433C00E94A310B8
:102AA00030C00E94B9112DC00E94EF062AC00E94BA
:102AB000EA0A27C00E94170B24C08091A00D8260F3
:102AC0008093A00D03C00E94620B1BC00E94420BAA
:102AD00018C00E94080615C00E94860612C00E94F7
:102AE00056060FC00E9424060CC00E94AD1209C0F9
:102AF0000E94E91206C00E945A1103C07092B60DDE
:102B000045C0843009F442C0853009F441C08630A4
:102B100009F460CF833039F50E942E10E091A10DA9
:102B2000F091A20D80818A3371F0E091AF0DF091A8
:102B3000B00D309759F18281E80FF11DF093B00D7F
:102B4000E093AF0D12C0E091A10DF091A20D808134
:102B50008A3331F43196F093A20DE093A10DF3CFB7
:102B60000E942E1037CF823001F38091AF0D9091EB
:102B7000B00D2091B10D3091B20D8217930731F055
:102B800003969093A20D8093A10D24CF14E001C071
:102B900015E08091B60D882309F4D3CD83E00E941F
:102BA000450980E00E945A098091B60D90E0FC0131
:102BB0003197E431F10508F07CC0EB54FF4F609190
:102BC000BA0D7091BB0D0C94941687E193E06FC021
:102BD0008AE093E00E94C9038091AF0D9091B00DFF
:102BE000892B09F13F922F920E948E17E091A10D3F
:102BF000F091A20D50800F900F90BAE05B12A0826E
:102C00008091AF0D9091B00D9A8389836091BA0D38
:102C10007091BB0DCE0101960E94FA03E091A10DC7
:102C2000F091A20D50828091BA0D9091BB0D0E943F
:102C3000E1033FC08BEF92E03AC086EE92E037C0EE
:102C400082E393E002C08BE293E00E94F003609184
:102C5000BA0D7091BB0D82ED92E029C080EC92E03C
:102C600026C08BEA92E023C087E992E020C085E885
:102C700092E01DC084E792E01AC081E692E017C09E
:102C800083E592E014C082E492E011C082E392E016
:102C90000EC08EE192E00BC088E092E008C081EFA8
:102CA00091E005C084EE91E002C08CEC91E00E94BE
:102CB000F0038CE40E94450980E00E945A0941CD4E
:102CC0000E94CC088CE40E94450980E00E945A09C9
:102CD0006091BA0D7091BB0D89E693E00E94F003FC
:102CE0000E94CE071092B00087E08093B10010924E
:102CF00070000E944B130E94851380E090E00895BD
:102D000097FB072E16F4009407D077FD09D00E9498
:102D10009A1607FC05D03EF4909581959F4F089533
:102D2000709561957F4F0895EE0FFF1F0590F49108
:102D3000E02D0994AA1BBB1B51E107C0AA1FBB1FB2
:102D4000A617B70710F0A61BB70B881F991F5A9537
:102D5000A9F780959095BC01CD0108958F929F921F
:102D6000AF92BF92CF92DF92EF92FF92CF93DF9319
:102D7000EC01688179818A819B81611571058105EA
:102D8000910521F464E279ED8BE597E02DE133EFD5
:102D900041E050E00E94021A49015A019B01AC0136
:102DA000A7EAB1E40E94211A6B017C01ACEEB4EFFA
:102DB000A50194010E942F1AC60ED71EE81EF91E07
:102DC000F7FE06C081E0C81AD108E10880E8F80AD9
:102DD000C882D982EA82FB82C6019F77DF91CF91B8
:102DE000FF90EF90DF90CF90BF90AF909F908F902B
:102DF00008950E94AE1608958AE291E00E94AE16F0
:102E00000895A0E0B0E080932A0190932B01A09355
:102E10002C01B0932D010895CF93DF93EC012B810A
:102E200020FF33C026FF0AC02F7B2B838E819F811A
:102E300001969F838E838A8190E029C022FF0FC074
:102E4000E881F9818081992787FD9095009719F491
:102E500020622B831AC03196F983E8830EC0EA857D
:102E6000FB85099597FF09C02B81019611F480E13C
:102E700001C080E2822B8B8308C02E813F812F5FAF
:102E80003F4F3F832E83992702C08FEF9FEFDF9143
:102E9000CF910895A0E0B0E0E0E5F7E10C94441A8A
:102EA000AE01475F5F4F6F8178858D819E810E9463
:102EB000A217E2E00C94601A0F931F93CF93DF9355
:102EC000182F092FEB018B8181FD03C08FEF9FEF3E
:102ED00020C082FF10C04E815F812C813D8142174E
:102EE00053077CF4E881F9819F012F5F3F4F3983BD
:102EF0002883108306C0E885F985812F0995892BE1
:102F000029F72E813F812F5F3F4F3F832E83812FF3
:102F1000902FDF91CF911F910F910895A0E0B0E025
:102F2000E4E9F7E10C94441AFE0135966191719140
:102F3000AF018091BA0D9091BB0D0E94A217E2E003
:102F40000C94601AACE0B0E0E8EAF7E10C94341AB3
:102F50007C016B018A01FC0117821682838181FF4B
:102F6000BDC1CE0101964C01F7019381F60193FD9D
:102F7000859193FF81916F01882309F4ABC185325C
:102F800039F493FD859193FF81916F01853229F486
:102F9000B70190E00E945C17E7CF512C312C20E064
:102FA0002032A0F48B3269F030F4803259F0833251
:102FB00069F420612CC08D3239F0803339F42160FE
:102FC00026C02260246023C0286021C027FD27C0BE
:102FD00030ED380F3A3078F426FF06C0FAE05F9EF5
:102FE000300D1124532E13C08AE0389E300D112469
:102FF000332E20620CC08E3221F426FD6BC120647A
:1030000006C08C3611F4206802C0883641F4F601FF
:1030100093FD859193FF81916F018111C1CF982F0D
:103020009F7D9554933028F40C5F1F4FFFE3F98385
:103030000DC0833631F0833771F0833509F05BC002
:1030400022C0F801808189830E5F1F4F442443947E
:10305000512C540115C03801F2E06F0E711CF801BB
:10306000A080B18026FF03C0652D70E002C06FEF25
:103070007FEFC5012C870E9499192C0183012C85B3
:103080002F77222E17C03801F2E06F0E711CF80165
:10309000A080B18026FF03C0652D70E002C06FEFF5
:1030A0007FEFC5012C870E948E192C012C8520688A
:1030B000222E830123FC1BC0832D90E04816590665
:1030C000B0F4B70180E290E00E945C173A94F4CF2C
:1030D000F50127FC859127FE81915F01B70190E002
:1030E0000E945C1731103A94F1E04F1A51084114D4
:1030F000510471F7E5C0843611F0893639F5F801CD
:1031000027FF07C060817181828193810C5F1F4F0F
:1031100008C060817181882777FD8095982F0E5FA8
:103120001F4F2F76B22E97FF09C09095809570950E
:1031300061957F4F8F4F9F4F2068B22E2AE030E07D
:10314000A4010E94A419A82EA81844C0853729F408
:103150002F7EB22E2AE030E025C0F22FF97FBF2E5D
:103160008F36C1F018F4883579F0B4C0803719F083
:10317000883721F0AFC02F2F2061B22EB4FE0DC0D2
:103180008B2D8460B82E09C024FF0AC09F2F966043
:10319000B92E06C028E030E005C020E130E002C0D2
:1031A00020E132E0F801B7FE07C0608171818281C1
:1031B00093810C5F1F4F06C06081718180E090E0B9
:1031C0000E5F1F4FA4010E94A419A82EA818FB2D62
:1031D000FF77BF2EB6FE0BC02B2D2E7FA51450F40B
:1031E000B4FE0AC0B2FC08C02B2D2E7E05C07A2C7E
:1031F0002B2D03C07A2C01C0752C24FF0DC0FE01BD
:10320000EA0DF11D8081803311F4297E09C022FF6F
:1032100006C07394739404C0822F867809F0739467
:1032200023FD13C020FF06C05A2C731418F4530C4E
:103230005718732C731468F4B70180E290E02C8760
:103240000E945C1773942C85F5CF731410F4371813
:1032500001C0312C24FF12C0B70180E390E02C871D
:103260000E945C172C8522FF17C021FF03C088E550
:1032700090E002C088E790E0B7010CC0822F86780A
:1032800059F021FD02C080E201C08BE227FD8DE2F2
:10329000B70190E00E945C17A51438F4B70180E3F1
:1032A00090E00E945C175A94F7CFAA94F401EA0DBB
:1032B000F11D8081B70190E00E945C17A110F5CF4D
:1032C000332009F451CEB70180E290E00E945C17F0
:1032D0003A94F6CFF7018681978102C08FEF9FEF76
:1032E0002C96E2E10C94501AF999FECF92BD81BD63
:1032F000F89A992780B50895262FF999FECF92BDA7
:1033000081BDF89A019700B4021639F01FBA20BDAA
:103310000FB6F894FA9AF99A0FBE0895FC01059039
:10332000615070400110D8F7809590958E0F9F1FC7
:103330000895FC016150704001900110D8F780950C
:1033400090958E0F9F1F0895FA01AA27283051F1FA
:10335000203181F1E8946F936E7F6E5F7F4F8F4FC6
:103360009F4FAF4FB1E03ED0B4E03CD0670F781F25
:10337000891F9A1FA11D680F791F8A1F911DA11D0A
:103380006A0F711D811D911DA11D20D009F4689443
:103390003F912AE0269F11243019305D3193DEF6EB
:1033A000CF010895462F4770405D4193B3E00FD0A1
:1033B000C9F7F6CF462F4F70405D4A3318F0495D8C
:1033C00031FD4052419302D0A9F7EACFB4E0A6956F
:1033D0009795879577956795BA95C9F70097610591
:1033E000710508959B01AC010A2E069457954795E7
:1033F00037952795BA95C9F7620F731F841F951FDC
:10340000A01D0895052E97FB1EF400940E94191A22
:1034100057FD07D00E946B1A07FC03D04EF40C94A2
:10342000191A50954095309521953F4F4F4F5F4F5A
:10343000089590958095709561957F4F8F4F9F4F20
:1034400008950E948D1AA59F900DB49F900DA49F82
:10345000800D911D11240895B7FF0C94211A0E942C
:10346000211A821B930B08952F923F924F925F92E5
:103470006F927F928F929F92AF92BF92CF92DF9284
:10348000EF92FF920F931F93CF93DF93CDB7DEB7E9
:10349000CA1BDB0B0FB6F894DEBF0FBECDBF09947D
:1034A0002A88398848885F846E847D848C849B84D4
:1034B000AA84B984C884DF80EE80FD800C811B81E2
:1034C000AA81B981CE0FD11D0FB6F894DEBF0FBE11
:1034D000CDBFED010895A1E21A2EAA1BBB1BFD0171
:1034E0000DC0AA1FBB1FEE1FFF1FA217B307E407E3
:1034F000F50720F0A21BB30BE40BF50B661F771F3B
:10350000881F991F1A9469F760957095809590951A
:103510009B01AC01BD01CF010895A29FB001B39FF3
:10352000C001A39F700D811D1124911DB29F700DCC
:0C353000811D1124911D0895F894FFCF17
:10353C000000000300000000720783070000000079
:10354C000003000000003D074E07000000000003D0
:10355C0000000000920756070000010000002564DF
:06356C0000202D2D2000BF
:00000001FF
