:100000000C9411030C9498100C942E030C942E0E47
:100010000C942E030C942E030C942E030C942E039C
:100020000C942E030C942E030C942E030C942E038C
:100030000C942E030C942E030C942E030C942E037C
:100040000C943E0E0C942E030C942E030C942E0351
:100050000C942E030C942E030C942E030C942E035C
:100060000C942E030C942E030C942E030C942E034C
:100070000C942E030C942E030C942E031C0CFE0BDC
:10008000040C280C760C070C0A0C0D0C100C130C2D
:10009000160C320C350C390C3C0C630C6C0C9B0CA4
:1000A0003F0C420C010C660C690C450C480C190CF9
:1000B000190C1F0C220C250C660C9B0C9B0CF90BCD
:1000C0004B0C4E0C510C570C5A0C5D0C600C790CFF
:1000D000790C790C790C790C6F0C730C760CD70CAD
:1000E000DE0C140D1B0D220D290D380D3F0D460D94
:1000F0004D0D540D5B0D620D690D700D770D7E0D6C
:10010000850D8C0D930D9A0D00000000000000007D
:1001100000000000000000000000000000000000DF
:10012000607E607E00000000000000000000000013
:10013000000000000000000000000000090909099B
:10014000607E607E000000000000000000000000F3
:10015000000000000000000000000000715151711B
:1001600031213121000000000000000000000000EB
:100170007A5A5A7A7353537361414161775757776B
:10018000324032400000000000000000634343633F
:10019000785858786444446465454565342434246B
:1001A0003323332300000000000000002020202023
:1001B0007656567666464666745454747252527237
:1001C0003525352500000000000000006E4E4E6E03
:1001D0006242426268484868674747677959597977
:1001E000365E365E00000000000000002C3C2C3C17
:1001F0006D4D4D6D6A4A4A6A7555557537263726D5
:10020000382A382A00000000000000002C3C2C3C5A
:100210006B4B4B6B694949696F4F4F6F30293029E0
:100220003928392800000000000000002E3E2E3E34
:100230002F3F2F3F6C4C4C6C3B3A3B3A7050507008
:100240002D5F2D5F00000000000000000000000096
:1002500027222722000000005B7B5B7B3D2B3D2B90
:10026000000000000000000000000000000000008E
:100270000D0D0D0D5D7D5D7D000000005C7C5C7CE6
:100280000000000000000000000000003C3C3C3C7E
:10029000000000000000000000000000000000005E
:1002A000080808080000000000000000313131316A
:1002B0000000000034343434373737370000000092
:1002C0000000000000000000303030302E2E2E2EB6
:1002D00032323232353535353636363638383838CA
:1002E0001B1B1B1B00000000000000002B2B2B2BF6
:1002F000333333332D2D2D2D2A2A2A2A39393939F2
:1003000000000000000000004C4953D44E45D75275
:1003100055CE4E4558D44C45D449C6474F54CF4D81
:10032000504C41D94D53544FD054454D50CF4D555D
:100330005349C3474F5355C25245545552CE52416B
:100340004E444F4D495AC5524E44534545C45253ED
:10035000D4434CD35245CD464FD2494E5055D4424A
:100360004545D05052494ED44C4F434154C5504F4F
:100370004BC5505345D453544FD0454EC44D45CD35
:100380005045CE50415045D2BFA3A744454C41D91A
:10039000454C4953D445464F524D41D445434841BD
:1003A00049CE45534156C5454C4F41C45353415620
:1003B000C5534C4F41C446494C45D343464F524D1B
:1003C00041D44343484149CE43534156C5434C4F22
:1003D00041C450494E4449D250494E445752495461
:1003E000C500504545CB4142D3524EC450494E44BE
:1003F000524541C450494E41524541C4003EBD3C66
:10040000BEBEBD3CBDBC21BD0054CF00535445D041
:1004100000484947C848C94C4FD74CCF0057656C76
:10042000636F6D6520746F206E737442415349434E
:100430002076302E32002062797465732052414D4F
:100440000020627974657320524F4D0020627974E8
:10045000657320617661696C61626C6500427265EA
:10046000616B21004F4B004C656674200052696738
:10047000687420004E6F742079657420696D706C0B
:10048000656D656E7465640053796E74617820657E
:1004900072726F7200537461636B206F766572665F
:1004A0006C6F7700556E6578706563746564206362
:1004B000686172616374657200706172656E746800
:1004C00065736973206D697373696E670056617235
:1004D0006961626C65206578706563746564004A63
:1004E000756D7020706F696E74206E6F7420666F0A
:1004F000756E6400496E76616C6964206C696E6526
:10050000206E756D626572004F70657261746F72F6
:100510002065787065637465640044697669736901
:100520006F6E206279207A65726F00496E76616C19
:1005300069642070696E205B302E2E375D00506933
:100540006E20492F4F206572726F7200556E6B6E70
:100550006F776E2066756E6374696F6E00556E6B93
:100560006E6F776E20636F6D6D616E6400496E769D
:10057000616C696420636F6F7264696E6174657326
:1005800000496E76616C6964207661726961626CA3
:1005900065206E616D6500457870656374656420E3
:1005A00062797465205B302E2E3235355D004F75D3
:1005B00074206F662072616E6765004578706563B0
:1005C00074656420636F6C6F72205B302E2E313245
:1005D000375D0045787072657373696F6E2065785A
:1005E00070656374656421004B6579626F61726444
:1005F0002073656C662D74657374206661696C6523
:1006000064004B6579626F61726420636F6E6E6522
:1006100063746564207375636365737366756C6C6E
:10062000790011241FBECFEFD0E1DEBFCDBF11E0B6
:10063000A0E0B1E0EAECF7E302C005900D92A6332A
:10064000B107D9F71DE0A6E3B1E001C01D92AD3BB3
:10065000B107E1F70E945B130C94E31B0C940000BC
:100660008EEC0E94260E83E008958FEC0E94260EE9
:1006700083E008950F931F930E9418111092B60DF6
:10068000E091B10DF091B20D1081123231F01732BC
:1006900021F082E08093B60D52C03196F093B20DF6
:1006A000E093B10D04E056C0893551F18A3590F4DC
:1006B000853481F1863438F4833451F1843410F573
:1006C0008134A1F51DC08E34E9F0883509F18D34EF
:1006D00069F520C08536F1F0863638F48336C1F0EE
:1006E000843680F4813611F50BC08E3659F08F3682
:1006F00018F48D36D9F40EC0883751F08937B1F42B
:1007000089EC01C08AEC0E94260E0E94AF1610C030
:100710008BECF9CF8DEC0E94260E0E94AF168091D3
:10072000B60D882329F40E949A1502C00093B60DD5
:100730008091B60D882329F088EC0E94260E84E073
:1007400017C08091B10D9091B20D01969093B20DAA
:100750008093B10DE091B10DF091B20D80818117C0
:1007600009F0A2CF3196F093B20DE093B10D83E082
:100770001F910F9108950E9418110E9448159C0125
:100780008091B60D882311F084E008952837310553
:1007900099F02937310520F42C333105C1F407C015
:1007A0002639310571F0243B310589F412C08CECF7
:1007B0000E94260E80E009C08CEC0E94260E88E084
:1007C00004C08CEC0E94260E80E10E94260E83E07D
:1007D00008958CEC0E94260E88E10E94260E83E08C
:1007E0000895CF93DF931092B00D1092AF0D0E9439
:1007F0000011EC0108C0CE0164E271E00E94A01774
:100800008A81C80FD11D8091A20D9091A30DC817A8
:10081000D90789F780E090E064E271E00E94A418B3
:1008200082E0DF91CF9108951092B00D1092AF0D3C
:1008300084E291E00E944E1880538A3080F4109236
:10084000B00D1092AF0D8FE491E09093A30D8093C3
:10085000A20D8091A40D88608093A40D03C089E04F
:100860008093B60D84E00895CF93DF931092B00D7E
:100870001092AF0DC0E0D0E080E090E064E271E063
:100880000E94A418CE018F7790708034910541F4B6
:100890006091B90D7091BA0D8EE290E00E94A4189B
:1008A000219687E0CF3FD80739F78091B90D909115
:1008B000BA0D0E941B1782E0DF91CF910895CF936C
:1008C000DF931092B00D1092AF0DC0E0D0E084E243
:1008D00091E00E944E18982F882309F180528F359D
:1008E00058F09A3049F09D3039F06091B90D70910F
:1008F000BA0D8FE390E006C06091B90D7091BA0D0A
:10090000892F90E00E94A418219688E0C030D80773
:10091000F1F68091B90D9091BA0D0E941B1782E0FB
:10092000DF91CF910895482F2091A50D3091A60D0C
:10093000E091B10DF091B20D3197D90167C08C9162
:100940008634F9F0873411F084E008954C30B9F41E
:1009500012968D919C91139790939F0D80939E0D6D
:1009600014968D919C9115979093B20D8093B10D33
:100970002A5F3F4F3093A60D2093A50D44C01696D5
:1009800045C0433009F041C0908111968C91119778
:100990009817D9F5892F90E081549040880F991FBE
:1009A000E091A00DF091A10DE80FF91F2081318198
:1009B00014968D919C911597280F391F31832083B0
:1009C00014968D919C911597892BC1F012968D915B
:1009D0009C9113978217930788F018968D919C919C
:1009E00019979093B20D8093B10D16968D919C91AD
:1009F000179790939F0D80939E0D05C01A96B09304
:100A0000A60DA093A50D83E008951A968DE0AD394B
:100A1000B80708F494CF88E08093B60D84E0089579
:100A20000E941811E091B10DF091B20D80818154B6
:100A30008A3110F087E011C03196F093B20DE09347
:100A4000B10D0E941811E091B10DF091B20DE0814D
:100A5000EA3339F0EA3029F082E08093B60D84E081
:100A6000089580E008950E9448159C018091B60D7C
:100A7000882339F4E091B10DF091B20D80818A3074
:100A800021F484E08093B60D0895232B11F482E0C5
:100A9000089586E008951092B60D0E94481590932F
:100AA000B50D8093B40D8091B60D882399F5A09172
:100AB000B10DB091B20D8C918A3061F5E091A50D28
:100AC000F091A60D9F012A5F3F4F8091AD0D90914F
:100AD000AE0D2817390728F483E08093B60D84E023
:100AE00008953697F093A60DE093A50D87E490E066
:100AF00091838083B583A48380919E0D90919F0DF7
:100B0000938382830E94001190939F0D80939E0D8A
:100B100081E0089584E08093B60D08950E94481501
:100B20009093B50D8093B40D8091B60D882339F460
:100B3000E091B10DF091B20D80818A3021F084E016
:100B40008093B60D08950E94001190939F0D80939D
:100B50009E0D81E00895AF92BF92CF92DF92FF92F7
:100B60000F931F93CF93DF930E941811E091B10D63
:100B7000F091B20DF0808F2D81548A3110F087E012
:100B800065C03196F093B20DE093B10D0E9418113B
:100B9000E091B10DF091B20D80818D3311F08AE0BA
:100BA00055C03196F093B20DE093B10D0E9418112B
:100BB0001092B60D0E9448155C018091B60D8823F5
:100BC00009F079C089E094E00E947B13882329F51D
:100BD0000E9448156C018091B60D882309F06BC006
:100BE0008CE094E00E947B13882319F001E010E070
:100BF00009C00E9448159C018091B60D882309F018
:100C00005AC089010E941811C091B10DD091B20D46
:100C100098819A3021F09A3311F082E017C08091C8
:100C2000B60D882309F043C09A3009F040C0A09166
:100C3000A50DB091A60D9D01265F3F4F8091AD0D92
:100C40009091AE0D2817390720F483E08093B60DFC
:100C500032C01A97B093A60DA093A50D8F2D90E0EA
:100C600081549040880F991FE091A00DF091A10D43
:100C7000E80FF91FB182A08286E48C931196FC9252
:100C800011971396DC92CE92129715961C930E93A1
:100C900014971996DC93CE93189780919E0D90919E
:100CA0009F0D17969C938E93169783E005C084E062
:100CB0008093B60D01C084E0DF91CF911F910F9119
:100CC000FF90DF90CF90BF90AF900895E091B10D6D
:100CD000F091B20D80818A3029F082E08093B60DC8
:100CE00084E008958091A20D9091A30D90939F0DA3
:100CF00080939E0D81E00895E091B10DF091B20DC9
:100D000080818A3029F082E08093B60D84E00895D6
:100D10008FE491E09093A30D8093A20D85E0089558
:100D2000EA9A6091B90D7091BA0D80ED90E00E9441
:100D3000A4186091B90D7091BA0D82ED90E00E94F7
:100D4000A4188FE491E090939F0D80939E0D81E015
:100D500008951092B60D0E9448159C018091B60D21
:100D6000882311F084E00895C9010E94431883E0AC
:100D700008958091B20090E00E94431883E00895A6
:100D80008091A00D9091A10D2091A20D3091A30D05
:100D90006091B90D7091BA0D821B930B0E946A1776
:100DA0006091B90D7091BA0D86E394E00E944317EB
:100DB0006091B90D7091BA0D80E098E00E946A17B9
:100DC0006091B90D7091BA0D81E494E00E944317CF
:100DD00083E00895CF93DF930E944F0A9093B50D5F
:100DE0008093B40DE091B10DF091B20D80818A3005
:100DF00021F084E08093B60D15C00E940011EC0133
:100E00000AC06091B90D7091BA0DCE010E94A01771
:100E10008A81C80FD11D8091A20D9091A30DC81792
:100E2000D90779F784E0DF91CF910895CF93DF93CD
:100E30000E944815EC018091B60D8823A9F58CE03D
:100E4000C035D80714F083E127C00E941811E09143
:100E5000B10DF091B20D80818C32E9F43196F093AE
:100E6000B20DE093B10D0E9418110E9448159C012B
:100E70008091B60D8823C1F42F3F310519F010F091
:100E800082E10AC0E091B10DF091B20DE081EA304B
:100E900031F0EA3321F082E08093B60D05C0C15BEA
:100EA000DE4F288383E001C084E0DF91CF91089575
:100EB0001F93CF93DF93E091B10DF091B20D1081AC
:100EC000812F81548A31A8F4C091A00DD091A10D39
:100ED0009F012F5F3F4F3093B20D2093B10D818161
:100EE00081548A3158F42F5F3F4F3093B20D2093D5
:100EF000B10D8FE08093B60D84E02DC00E941811D3
:100F0000E091B10DF091B20D80818D3391F7319662
:100F1000F093B20DE093B10D0E9418110E94481594
:100F20009C018091B60D882339F7E091B10DF091C5
:100F3000B20DE081EA3021F0EA3311F082E0DACF3D
:100F4000812F90E081549040880F991FC80FD91FBE
:100F50003983288383E0DF91CF911F910895CF9249
:100F6000DF92EF92FF920F931F93CF93DF930E9434
:100F70001811E091B10DF091B20DD0808D2D8154FA
:100F80008A3110F087E015C0E090A00DF090A10D1F
:100F90003196F093B20DE093B10D0E941811E091DB
:100FA000B10DF091B20DE081EA3039F0EA3329F069
:100FB00082E08093B60D84E071C01092A70DEA9A8A
:100FC00000E0C7EADDE06AE0C62E8091B70D90919F
:100FD000B80D0E944E18182F8091B30D813009F47E
:100FE0005CC01A30B9F01B3018F4183041F514C049
:100FF0001D3081F01D3219F5002339F76091B90DCC
:101000007091BA0D8DE290E00E94A4181993188295
:1010100001E0DBCFC88227C08DE0C73AD80709F0CE
:1010200018F40E94C40FD1CF6091B90D7091BA0D20
:1010300088E090E00E94A41821970150C6CF812F2C
:1010400080538A3080F4063060F46091B90D70915D
:10105000BA0D812F90E00E94A41819930F5F188297
:1010600002C00E94C40F1A3019F01D3009F0ADCF34
:101070008091B90D9091BA0D0E941B1787EA9DE0EF
:101080000E9466112D2D30E021543040220F331F75
:10109000E20EF31EF7019183808383E0DF91CF910D
:1010A0001F910F91FF90EF90DF90CF900895CF9315
:1010B000DF930E944815EC018091B60D882399F5C5
:1010C000C830D10510F08CE02CC0E091B10DF0914A
:1010D000B20D80818C3221F53196F093B20DE09300
:1010E000B10D0E944815AC018091B60D8823D9F44A
:1010F00021E030E002C0220F331FCA95E2F741150C
:10110000510521F04130510559F405C092B1822FAB
:101110008095892302C082B1822B82B982E004C00B
:1011200082E08093B60D84E0DF91CF910895CF9354
:10113000DF930E944815EC018091B60D882399F544
:10114000C830D10510F08CE02CC0E091B10DF091C9
:10115000B20D80818C3221F53196F093B20DE0937F
:10116000B10D0E944815AC018091B60D8823D9F4C9
:1011700021E030E002C0220F331FCA95E2F741158B
:10118000510521F04130510559F405C091B1822F2C
:101190008095892302C081B1822B81B982E004C08D
:1011A00082E08093B60D84E0DF91CF9108950F9394
:1011B0001F93CF93DF930E944815282F8091B60D7F
:1011C000882309F044C0022F192F0F3F110509F0A1
:1011D000C0F4E091B10DF091B20D80818C32D1F468
:1011E0003196F093B20DE093B10D0E944815282F6F
:1011F0008091B60D882359F5C22FD92FC03FD10554
:1012000010F080E11BC0E091B10DF091B20D808132
:101210008C3211F082E012C03196F093B20DE0935F
:10122000B10D0E944815282F8091B60D882379F4BE
:10123000422F592F4038510520F084E18093B60D9C
:1012400006C0802F6C2F0E944E0E83E001C084E008
:10125000DF91CF911F910F910895E091B10DF09121
:10126000B20DE081EA3381F48091B90D9091BA0D0D
:101270000E941B178091B10D9091B20D0196909331
:10128000B20D8093B10D51C0EA3011F482E008959F
:101290000E9418110E94E2168823F9F4E091B10D22
:1012A000F091B20DE081E23211F0E73221F484E0F6
:1012B0008093B60D08951092B60D0E9448159C01BA
:1012C0008091B60D882311F084E008956091B90DE6
:1012D0007091BA0DC9010E946A170E941811E0911D
:1012E000B10DF091B20D80818C3231F43196F093D2
:1012F000B20DE093B10DCCCF8B3369F49F012F5F1A
:101300003F4F81818A3011F08A3389F43093B20DD6
:101310002093B10D0AC08A3011F08A3341F48091D4
:10132000B90D9091BA0D0E941B1783E0089582E0D9
:101330008093B60D84E00895CF93DF930E94481503
:10134000282F8091B60D882341F5C22FD92FC8319F
:10135000D105D0F4E091B10DF091B20D80818C32C5
:1013600011F082E012C03196F093B20DE093B10D0E
:101370000E944815282F8091B60D882371F4622FA2
:10138000792F6032710520F080E18093B60D05C0A1
:101390008C2F0E94780E83E001C084E0DF91CF9112
:1013A00008950E944815482F8091B60D882341F476
:1013B000242F392F2038310528F084E18093B60D91
:1013C00084E00895842F0E94970E83E008950E9480
:1013D0004815482F8091B60D882341F4242F392FCA
:1013E0002038310528F084E18093B60D84E008951B
:1013F000842F0E94AB0E83E008956091B90D709127
:10140000BA0D89EC90E00E94A4180E94BF0E83E000
:1014100008956091B90D7091BA0D88EC90E00E942A
:10142000A4180E94BF0E6091B90D7091BA0D8DE1A4
:1014300094E00E9443178FE491E09093A30D809372
:10144000A20D85E008958091A40D84608093A40D81
:101450008FE491E09093A30D8093A20D84E0089512
:10146000CF93DF930E940011EC0108C0CE0166E12A
:1014700071E00E94A0178A81C80FD11D8091A20D32
:101480009091A30DC817D90789F780E090E066E135
:1014900071E00E94A41882E0DF91CF9108950E942C
:1014A000181120E030E01CC089E12939380718F014
:1014B0002FEF3FEF1EC0C90163E0880F991F6A95A7
:1014C000E1F7220F331F820F931F242F30E02053A8
:1014D0003040280F391F3196F093B20DE093B10DD3
:1014E000E091B10DF091B20D4081842F80538A308C
:1014F000D8F2C90108958F929F92AF92BF92CF9276
:10150000DF92EF92FF920F931F93CF93DF9304E04C
:10151000AEE9CA2EADE0DA2EFFE4EF2EF1E0FF2EA9
:10152000E3E0AE2EB12CAE0CBF1C70E0872E71E054
:10153000972E043009F56091B90D7091BA0D81EDC7
:1015400090E00E94A4186091B90D7091BA0D83EDDE
:1015500090E00E94A41810929F0D10929E0DD092C0
:10156000A60DC092A50D6091B90D7091BA0D84E6DB
:1015700094E00E94431700E01092B60D2091A40D54
:10158000822F90E083709070892B61F02C7F2093E4
:10159000A40DF0929F0DE0929E0DB092B20DA0921C
:1015A000B10D01C10E94E3110E9428118091A20D8A
:1015B0009091A30D02969093B20D8093B10D05C04A
:1015C0003196F093B20DE093B10DE091B10DF09131
:1015D000B20D80818A30A1F7A091A00DB091A10D2C
:1015E0001197E091B10DF091B20D80818C93209113
:1015F000B10D3091B20D8091A20D9091A30D029684
:101600002817390741F01197215030403093B20D1F
:101610002093B10DE6CFB093B20DA093B10D0E940F
:101620004F0A9093B50D8093B40D0E94181120912C
:10163000B40D3091B50D2115310509F4A4C08FEF1B
:101640002F3F380731F04091B10D5091B20D90E02D
:1016500005C089E08093B60DA6C09F5FFA01E90F2F
:10166000F11D80818A30C9F7192F1C5FFA01339769
:10167000F093B20DE093B10D3183208312830E9469
:101680000011FC0190933701809336014091A20D27
:101690005091A30D84179507F9F020813181809135
:1016A000B40D9091B50D28173907B1F48281DF018F
:1016B000A80FB11D4A1B5B0B9A01EF0104C08D916D
:1016C00089932150304021153105C9F74E0F5F1F16
:1016D0005093A30D4093A20DE091B10DF091B20D86
:1016E00083818A3009F04BC047CFE091A20DF09181
:1016F000A30D8091B10D9091B20D8E1B9F0B412FC8
:1017000050E08417950708F4AC01BF01640F751F02
:1017100080913601909137019F01281B390BDB0125
:1017200004C082918E932150304021153105C9F7B4
:101730001EC0A0913601B0913701E091B10DF0913A
:10174000B20D80818C938091B10D9091B20D019674
:101750009093B20D8093B10D809136019091370135
:10176000019690933701809336012F5F3F4F2417E6
:101770003507F8F2141B7093A30D6093A20D11238B
:1017800009F0B3CFF9CE1092B30DE091A20DF09114
:10179000A30D3296F093B20DE093B10D3297828192
:1017A0008A3009F4E9CE8091B60D882309F0E3C0B0
:1017B0000E945811882349F06091B90D7091BA0DBB
:1017C0008DE594E00E944317D5C01092B60D88E0D5
:1017D00093E00E947B13E82FF0E0E133F10508F07D
:1017E00088C0E25CFF4FEE0FFF1F0590F491E02DE3
:1017F00009940E9448150E9445119DC00E947C06D4
:1018000070C00E94C40F97C00E9490066AC00E94D8
:10181000330567C00E948E0564C00E94350361C015
:101820000E9430035EC00E94BB035BC00E943A036B
:1018300058C00E94660655C00E94EA0652C00E9427
:10184000C0064FC00E94E7094CC00E94D10949C0A0
:101850000E941005982F8091B60D882309F04DC085
:1018600083E004C00E944B053CC08CE00E949304BE
:1018700038C00E94B90635C00E94A90632C00E9435
:10188000AB052FC00E94AF072CC00E94160729C0CD
:101890000E94D70826C00E945F0423C00E9434041F
:1018A00020C08091A40D82608093A40D03C00E948B
:1018B000F10317C00E94140414C00E94300A11C022
:1018C0000E94230A0EC00E94090A0BC00E942D0923
:1018D00008C00E949C0905C00E94FD0902C00E9428
:1018E0009708982F0AC00E945708FBCF0E945807FC
:1018F000F8CF8FE08093B60D3DC09430D9F195308C
:1019000011F405E038C0963009F452CF933089F4D1
:101910000E941811E091B10DF091B20D80818A33CF
:1019200051F43196F093B20DE093B10D0E9418116D
:101930003FCF923069F4E0919E0DF0919F0D30976A
:10194000C9F08281E80FF11DF0939F0DE0939E0D89
:1019500020919E0D30919F0D8091A20D9091A30D2D
:101960002817390739F02D5F3F4F3093B20D209380
:10197000B10D1ECF04E08091B60D882309F4D9CDB6
:1019800083E00E94AB0E80E00E94970E8091B60D1E
:1019900090E0FC013197E531F10508F0D3C0E15941
:1019A000FF4FEE0FFF1F0590F491E02D0994609119
:1019B000B90D7091BA0D84E794E0C2C06091B90D81
:1019C0007091BA0D88E894E00E942B1780919E0DCB
:1019D00090919F0D892B09F100D0EDB7FEB792824F
:1019E00081820E94D018E091B10DF091B20D10816A
:1019F0000F900F901A3011F08EE580836091B90D31
:101A00007091BA0D80919E0D90919F0D0E94A0172C
:101A1000E091B10DF091B20D10838091B90D9091CC
:101A2000BA0D0E941B178EC06091B90D7091BA0D4E
:101A300085E994E085C06091B90D7091BA0D84EA92
:101A400094E07EC06091B90D7091BA0D87E694E084
:101A500006C06091B90D7091BA0D8DE694E00E94B8
:101A600043176091B90D7091BA0D89EB94E068C08D
:101A70006091B90D7091BA0D8DEC94E061C06091E8
:101A8000B90D7091BA0D8FED94E05AC06091B90D07
:101A90007091BA0D84EF94E053C06091B90D7091CC
:101AA000BA0D88E095E04CC06091B90D7091BA0D07
:101AB0008AE195E045C06091B90D7091BA0D8BE255
:101AC00095E03EC06091B90D7091BA0D8EE395E03E
:101AD00037C06091B90D7091BA0D8CE495E030C0BB
:101AE0006091B90D7091BA0D8DE595E029C06091B6
:101AF000B90D7091BA0D8DE695E022C06091B90DD7
:101B00007091BA0D81E895E01BC06091B90D70919C
:101B1000BA0D87E995E014C06091B90D7091BA0DC6
:101B20008EEA95E00DC06091B90D7091BA0D8BEB06
:101B300095E006C06091B90D7091BA0D83ED95E006
:101B40000E9443178CE40E94AB0E80E00E94970E27
:101B5000F0CC8FE491E09093A30D8093A20D8EE9D9
:101B60009DE09093A60D8093A50D8CE69DE090934B
:101B7000AE0D8093AD0D86E39DE09093A10D809313
:101B8000A00D6091B90D7091BA0D87EE9BE00E9497
:101B90006A176091B90D7091BA0D86E394E00E94C6
:101BA00043176091B90D7091BA0D80E098E00E94E2
:101BB0006A176091B90D7091BA0D81E494E00E94AA
:101BC00043178091B90D9091BA0D0E941B1708958B
:101BD00022982A9AEA9A539852985B9A5A9A82E0E3
:101BE00084BD15BC94E697BD80936E001092B30D32
:101BF0009BE090933D018093690010923C01E89A2C
:101C0000789408951F93182F8A3019F48DE00E945C
:101C1000020E8091C00085FFFCCF1093C60080E0CB
:101C200090E01F9108958091C00087FFFCCF8091C4
:101C3000C60090E008954E99FECF88B95F9A4E9BFA
:101C4000FECF5F9818B880E090E0089588B94C996D
:101C5000FECF5D9A4C9BFECF5D9808951F920F9228
:101C60000FB60F9211248F9381E08093B30DEA9801
:101C70008F910F900FBE0F901F9018951F920F928B
:101C80000FB60F9211248F938BE080933D0115BC0A
:101C90008F910F900FBE0F901F901895FF920F938A
:101CA0001F93182F062FF42E6091B90D7091BA0D65
:101CB0008AEC90E00E94A4186091B90D7091BA0D61
:101CC000812F90E00E94A4186091B90D7091BA0D17
:101CD000802F90E00E94A4186091B90D7091BA0D08
:101CE0008F2D90E00E94A4181F910F91FF900895EE
:101CF0000F931F93182F062F6091B90D7091BA0D95
:101D00008DEC90E00E94A4186091B90D7091BA0D0D
:101D1000812F90E00E94A4186091B90D7091BA0DC6
:101D2000802F90E00E94A4181F910F9108951F9397
:101D3000182F6091B90D7091BA0D8FEC90E00E9450
:101D4000A4186091B90D7091BA0D812F90E00E9496
:101D5000A4181F9108951F93182F6091B90D7091C9
:101D6000BA0D8EEC90E00E94A4186091B90D7091AC
:101D7000BA0D812F90E00E94A4181F9108950F932F
:101D80001F9306E111E08BE190E0B8010E94A418D6
:101D90008BE590E0B8010E94A41880E390E0B801C0
:101DA0000E94A4188DE690E0B8010E94A4188BE16F
:101DB00090E0B8010E94A4188BE590E0B8010E9461
:101DC000A41888E490E0B8010E94A4188BE190E088
:101DD000B8010E94A4188BE590E0B8010E94A418F5
:101DE0008AE490E0B8010E94A4181F910F91089511
:101DF0001F9388E091E09093B80D8093B70D909376
:101E0000BA0D8093B90D10927C0087E880937A0018
:101E100080917A00806480937A0080917A0086FDB8
:101E2000FCCF11B81FEF12B9209A28980E94E80D34
:101E300017B95698579A5498559A1092C50085E14B
:101E40008093C40086E08093C20088E18093C10043
:101E50000E94BF0E1F9108958091AF0D9091B00D1B
:101E600001969093B00D8093AF0D01970E94C21A16
:101E700090E00895682F8091AF0D9091B00D01967C
:101E80009093B00D8093AF0D01970E94CA1A80E025
:101E900090E0089504C08FE090E00E944511909179
:101EA0003E019923C1F380913901E82FF0E0E15C14
:101EB000FE4FE0818F5F80933901915090933E01F6
:101EC000803111F4109239018E2F90E00895CF9255
:101ED000DF92EF92FF920F931F93D82EC62E06E14A
:101EE00011E08BE190E0B8010E94A4188BE590E02E
:101EF000B8010E94A41800D000D000D0EDB7FEB702
:101F00003196ADB7BEB712961C930E93119785E02C
:101F1000E82E81E0F82EF382E282D48215820E94BC
:101F200090188DB79EB706960FB6F8949EBF0FBE59
:101F30008DBF8BE390E0B8010E94A41800D000D0C0
:101F400000D0EDB7FEB73196ADB7BEB712961C9371
:101F50000E931197F382E282C48215820E94901838
:101F60008DB79EB706960FB6F8949EBF0FBE8DBF75
:101F700088E490E0B8010E94A4181F910F91FF908F
:101F8000EF90DF90CF9008951F93E89814E6289A79
:101F900088E592E00E944F11289888E592E00E941F
:101FA0004F111150A1F7E89A1F910895282F909191
:101FB0003E01903190F480913A01E82FF0E0E15C2D
:101FC000FE4F20838F5F80933A019F5F90933E0185
:101FD000803129F410923A0108950E94C40F0895A7
:101FE000E82F90913B01292F30E090FD8EC087377C
:101FF00069F1883760F4843161F1853118F48231F8
:1020000061F529C0883501F1893539F524C0803E54
:10201000B1F0813E18F48A3A01F50895803F89F0C5
:102020008C3FD9F46091B90D7091BA0D88EE95E0AE
:102030000E9443170E94C40F0E94C40F089592602B
:1020400070C091609D7F6DC080E201C088E09827DC
:1020500068C0946066C0906164C022FF1AC0E1321B
:1020600021F481E08093B30D0895E43329F49B7F3C
:1020700090933B0187E046C0EB3411F48CE042C002
:10208000EC3111F481E03EC0E43209F050C082E04E
:1020900039C021FF23C0EA3511F48DE017C0E537C0
:1020A00011F484E013C0E23711F485E00FC0EB3681
:1020B00011F480E10BC0E43711F481E107C0EC3684
:1020C00011F481E003C0E93619F482E00E94D60FD2
:1020D00080913B018D7F80933B010895C90134E0DD
:1020E000969587953A95E1F7817025FD8E5FF0E032
:1020F000EE0FFF1FEE0FFF1FE80FF11DE85FFE4F11
:10210000E4918E2F0E94D60F0895892F8E7F8093A1
:102110003B01E43129F0E93539F0E23141F404C002
:102120009A7F90933B0108958F7E80933B010895A1
:102130001F920F920FB60F9211242F933F934F933C
:102140005F936F937F938F939F93AF93BF93EF931F
:10215000FF9329B180913C0190913D018823C1F406
:102160009B3011F485E085BD9350983050F48091F8
:10217000380186958093380123FF03C080688093DF
:10218000380183E08093690081E080933C0112C0B4
:10219000892F815080933D01882339F48091380143
:1021A0000E94F00F8BE080933D0182E080936900F4
:1021B00010923C01FF91EF91BF91AF919F918F9150
:1021C0007F916F915F914F913F912F910F900FBE33
:1021D0000F901F901895E091A50DF091A60D3197E5
:1021E000F093A60DE093A50D80830895E091A50DD1
:1021F000F091A60D8191F093A60DE093A50D0895A1
:102200004091A20D5091A30D2091B40D3091B50DC8
:10221000EFE4F1E0E417F50749F08081918182173E
:10222000930720F48281E80FF11DF4CFCF010895C8
:1022300005C03196F093B20DE093B10DE091B10D70
:10224000F091B20D80818032A1F3893091F308952D
:10225000E091A20DF091A30D90E013C0891711F445
:1022600090E00EC0823259F0873249F0992341F450
:10227000813630F08B3720F48052828301C0982F52
:10228000319682818A3051F7089528E833E104C0FD
:10229000F9013197F1F701970097D1F7089536E0EA
:1022A00004C0232F2A95F1F701970097D1F70895DD
:1022B0008091B30D882331F48091C600833011F0F2
:1022C00080E008951092B30D81E00895FC018081B3
:1022D0008D3211F050E002C0319651E020E030E044
:1022E00011C0C90173E0880F991F7A95E1F7220F99
:1022F000331F820F931F242F30E020533040280FCC
:10230000391F31964081842F80538A3050F35523F2
:1023100019F0309521953F4FC9010895CF92DF9272
:10232000EF92FF920F931F93DF93CF93CDB7DEB75A
:102330002E970FB6F894DEBF0FBECDBFC982DA82EA
:10234000EB82FC820D831E832F83388749875A874F
:102350006B877C878D879E878E010F5F1F4FC8011B
:102360000E944E188A3051F08D3041F0882369F474
:102370008091A40D837F8093A40D16C0E091B10DD0
:10238000F091B20D8AE080830FC0E091B10DF09121
:10239000B20D80838091B10D9091B20D0196909312
:1023A000B20D8093B10DDBCF2E960FB6F894DEBF41
:1023B0000FBECDBFCF91DF911F910F91FF90EF9096
:1023C000DF90CF900895CF92DF92EF92FF920F931C
:1023D0001F93CF93DF93C091A20DD091A30D2296AE
:1023E000D093B20DC093B10D8091A40D83FF1DC099
:1023F000C0902401D0902501E0902601F0902701A3
:10240000009128011091290120912A0130912B017E
:1024100040912C0150912D0160912E0170912F015E
:1024200080913001909131011EC082FF22C0C09086
:102430001601D0901701E0901801F0901901009159
:102440001A0110911B0120911C0130911D01409136
:102450001E0150911F016091200170912101809116
:102460002201909123010E948E111CC1CE01EC012A
:1024700002C0FEEFFF2E8091B70D9091B80D0E9423
:102480004E18182F883009F4C5C0893070F4863092
:1024900040F4843080F78130D9F0823009F0D8C020
:1024A00042C0873009F0D4C0DFC08D3009F4A5C028
:1024B0008E3038F48A3009F4A0C08C3009F0C8C0DE
:1024C000DACF803109F46FC0813109F0C1C07FC01B
:1024D0008091A20D9091A30D02962091B10D3091A3
:1024E000B20D8217930710F66091B90D7091BA0D75
:1024F00081E090E00E94A4188091B10D825020915B
:10250000A20D821B82958695877090E06091B90D2F
:102510007091BA0D01960E94A4188091A20D90911D
:10252000A30D029690C08091B10D9091B20D8C17C1
:102530009D0708F09BCF6091B90D7091BA0D82E0B4
:1025400090E00E94A4189091A20D1F2D191B1C0F42
:10255000012F0295069507708091B10D8250891B5D
:10256000829586958770902F981B892F90E06091B7
:10257000B90D7091BA0D01960E94A418802F90E0B9
:10258000E5E0880F991FEA95E1F76091B90D709128
:10259000BA0D181B812F90E00E94A418D093B20DA1
:1025A000C093B10D63CF8091A20D9091A30D0296BF
:1025B0002091B10D3091B20D8217930708F054C0ED
:1025C0006091B90D7091BA0D80E190E035C08091B5
:1025D000B10D9091B20D8C179D0708F045C0019682
:1025E0009093B20D8093B10D6091B90D7091BA0DB9
:1025F00081E190E00E94A41839CFD093B20DC0932E
:10260000B10D8AE088838091B90D9091BA0D0E9436
:102610001B1748C08091A20D9091A30D02962091A6
:10262000B10D3091B20D82179307F0F46091B90D9E
:102630007091BA0D88E090E00E94A4188091B10DCD
:102640009091B20D01979093B20D8093B10D0ECF82
:102650008091A00D9091A10D02972091B10D309124
:10266000B20D2817390719F40E94C40FFFCE6091EC
:10267000B90D7091BA0D812F90E00E94A418E091DD
:10268000B10DF091B20D10838091B10D9091B20D0A
:1026900001969093B20D8093B10DC817D90708F435
:1026A000E6CEE4CEDF91CF911F910F91FF90EF9096
:1026B000DF90CF9008950E94F80E8CE40E94AB0E3C
:1026C00080E00E94970E6091B90D7091BA0D8DE176
:1026D00094E00E9443170E94C40F1092B00087E05C
:1026E0008093B100109270000E94A90D0E947B0A95
:1026F00080E090E008951F93CF93DF93EC0110E00A
:1027000040E050E0FE012491222359F16091B10D87
:102710007091B20DFB01E40FF51F8081821721F447
:102720004F5F5F4F2196EECF90E080589F4F30E093
:102730008217930761F44F5F5F4F640F751F7093AB
:10274000B20D6093B10D0E9418110BC0EF01FE0194
:102750008491319687FFFACFEF011F5F0E94181115
:10276000CFCF812FDF91CF911F9108951F93CF93EA
:10277000DF930E941811E091B10DF091B20D90819C
:102780009D3261F43196F093B20DE093B10D0E9449
:10279000B61366277727681B790B0AC1903331F48B
:1027A0003196F093B20DE093B10D00C1892F8153A2
:1027B000893010F560E070E0CB01E3E0880F991FED
:1027C000EA95E1F7660F771F860F971FA091B10D6D
:1027D000B091B20DFD012191622F70E06053704005
:1027E000680F791FF093B20DE093B10D11968C91A3
:1027F00080538A3008F3DCC0892F81548A3108F075
:10280000B4C09F012F5F3F4F818181548A3198F07E
:10281000892F90E081549040880F991FE091A00D7E
:10282000F091A10DE80FF91F808191813093B20DD5
:102830002093B10D4FC082EE93E00E947B13182FBE
:10284000853011F48EE0B0C0E091B10DF091B20D81
:102850008081883211F085E0A7C03196F093B20DE7
:10286000E093B10D0E944815EC01E091B10DF0919B
:10287000B20D8081893209F08EC03196F093B20D8D
:10288000E093B10D123009F1133030F4112351F0FF
:10289000113009F06AC012C01330F1F0143009F0A1
:1028A00064C036C08CE0C035D80714F083E17CC02A
:1028B000C15BDE4F8881682F70E07AC0BE01D7FF10
:1028C00077C0709561957F4F73C00E943E18BE011E
:1028D0000E94C617BC016CC0C830D105E0F421E0ED
:1028E00030E002C0220F331FCA95E2F781B190E0B9
:1028F00082239323892B31F580B1682F70E0622306
:1029000073236115710509F453C061E070E050C094
:10291000C830D10510F08CE047C0C0937C0021E0A6
:1029200030E002C0220F331FCA95E2F742B192B1E4
:10293000822F8095892382B981B190E028233923A1
:10294000232B11F08DE030C080917A008064809359
:102950007A0080917A0086FDFCCF42B960917800C0
:10296000709179007695679523C0E091B10DF09153
:10297000B20D80818832B9F43196F093B20DE093B4
:10298000B10D0E944815BC01E091B10DF091B20D5E
:102990008081893211F086E007C03196F093B20D44
:1029A000E093B10D05C085E18093B60D60E070E065
:1029B000CB01DF91CF911F9108951F93CF93DF93A8
:1029C0000E94B613EC010E9418111BE0E091B10DBA
:1029D000F091B20D80818A3281F43196F093B20D7C
:1029E000E093B10D0E94B6139E01289FE001299F3C
:1029F000D00D389FD00D1124E9CF8F3291F431964C
:102A0000F093B20DE093B10D0E94B613BC01009794
:102A100029F0CE010E94C617EB01D8CF1093B60D56
:102A2000D5CFCE01DF91CF911F910895CF93DF9342
:102A3000E091B10DF091B20DE081ED3231F0EB3269
:102A400021F00E94DD14EC0102C0C0E0D0E0E09172
:102A5000B10DF091B20D80818D3251F43196F09329
:102A6000B20DE093B10D0E94DD14C81BD90BEFCF5E
:102A70008B3251F43196F093B20DE093B10D0E9478
:102A8000DD14C80FD91FE3CFCE01DF91CF91089598
:102A9000CF93DF930E941615EC018091B60D882329
:102AA00009F044C08DEF93E00E947B138730F1F171
:102AB000833029F1843028F4813099F08230C0F4D9
:102AC00009C0853051F1853008F1863051F0C0E001
:102AD000D0E02CC00E94161520E0C817D90724F1B9
:102AE00022C00E94161520E0C817D907E1F41CC0C7
:102AF0000E94161520E08C179D07B4F414C00E94A4
:102B0000161520E0C817D90779F40DC00E941615D4
:102B100020E08C179D0744F006C00E94161520E0A7
:102B2000C817D9070CF421E0C22FD0E0CE01DF9105
:102B3000CF910895FF920F931F9304E0FCE0FF2EC6
:102B4000E091B10DF091B20DDF011196B093B20D8D
:102B5000A093B10D9181892F8253863020F4592F93
:102B6000505371F4F8C0923211F0973229F4F09377
:102B7000B20DE093B10DEFC084E08093B60DEBC0D1
:102B8000FD013196F093B20DE093B10D11968C9149
:102B9000803509F48AC08135B0F4843469F1853414
:102BA00048F4823409F470C0833440F5813409F06C
:102BB0007EC020C0863409F445C0863480F1873455
:102BC00009F075C050C08436B9F0853648F48236B5
:102BD00009F45AC0833690F4813609F068C00AC0FF
:102BE000863681F18636D8F08736E9F1803709F0EC
:102BF0005EC05BC03AE062C033E060C03196F093E3
:102C0000B20DE093B10D31978181833211F432E03E
:102C100055C0F093B20DE093B10D31E04FC0319645
:102C2000F093B20DE093B10D31978181823409F4B4
:102C300042C0823609F43FC0F093B20DE093B10D6B
:102C400035E03CC03196F093B20DE093B10D319771
:102C50008181833211F437E031C0F093B20DE093FB
:102C6000B10D36E02BC03196F093B20DE093B10D6B
:102C700031978181833211F439E020C0F093B20D95
:102C8000E093B10D38E01AC03196F093B20DE093A5
:102C9000B10D31978181823481F0823671F0F093E9
:102CA000B20DE093B10D3CE009C03DE007C00093D8
:102CB000B60D30E003C034E001C03BE0E091B10D5F
:102CC000F091B20DDF011196B093B20DA093B10D4A
:102CD0009181892F8153883018F4492F405303C0C4
:102CE0000093B60D40E01196B093B20DA093B10DD4
:102CF000119711968C9111978D3229F08D3329F00F
:102D00008B3239F404C022E009C023E007C021E07F
:102D100005C0B093B20DA093B10D20E0842F832B9A
:102D2000822BC9F03D3011F410E908C05F9DC0014D
:102D300011244997830F911D182F110F415022958F
:102D4000220F220F207C822F840F0E94260E812FBB
:102D50000E94260EF5CE1F910F91FF900895E091ED
:102D6000B10DF091B20D3196F093B20DE093B10D2B
:102D700031979181892F8153843020F48F5F0E9495
:102D8000260E089584E08093B60D08951F93182FA2
:102D90006091B90D7091BA0D83E290E00E94A41881
:102DA0006091B90D7091BA0D812F90E00E94A41826
:102DB0006091B90D7091BA0D80E290E00E94A41864
:102DC0001F9108951F93E091B10DF091B20D108104
:102DD000123211F0173261F53196F093B20DE09393
:102DE000B10D319703C031968A3011F1818181177D
:102DF000D1F710C06091B90D7091BA0D90E00E94AA
:102E0000A4188091B10D9091B20D01969093B20DDE
:102E10008093B10DE091B10DF091B20D80818117D9
:102E200049F73196F093B20DE093B10D81E001C006
:102E300080E01F9108950F931F938C018AE090E02A
:102E4000B8010E94A4188DE090E0B8010E94A41877
:102E50001F910F9108950F931F93CF93DF93EC0170
:102E60008B0107C02196F901849190E0B8010E947E
:102E7000A4189E01FE0184918823A1F7DF91CF91D0
:102E80001F910F9108950F931F938B010E942B1791
:102E9000C8010E941B171F910F910895EF92FF9296
:102EA0001F93CF93DF937C01EB0110E007C09927BC
:102EB00087FD9095BE010E94A4181F5FF701E10FE6
:102EC000F11D8081882399F7DF91CF911F91FF90A9
:102ED000EF900895EF92FF920F931F93CF93DF939C
:102EE000EC017B0197FF07C0D095C195DF4F8DE2C4
:102EF00090E00E94A41800E010E0CE016AE070E0CB
:102F00000E94C617805D0E94EB10CE016AE070E05F
:102F10000E94C617EB010F5F1F4F161617066CF3C2
:102F20000E94F61090E0B7010E94A41801501040D2
:102F3000B9F7DF91CF911F910F91FF90EF90089516
:102F4000EF92FF920F931F93CF93DF938C017B013E
:102F5000FC01808191810E946A1780E290E0B701B4
:102F60000E94A418E80104C090E0B7010E94A418D0
:102F70008B8121968A30C1F7C7010E941B17DF9110
:102F8000CF911F910F91FF90EF90089597FB092E1D
:102F900007260AD077FD04D00CD006D000201AF402
:102FA000709561957F4F0895F6F7909581959F4FA5
:102FB0000895AA1BBB1B51E107C0AA1FBB1FA61780
:102FC000B70710F0A61BB70B881F991F5A95A9F7D2
:102FD00080959095BC01CD010895A0E0B0E0E3EFAD
:102FE000F7E10C94921BEC01A880B980CA80DB80C9
:102FF000A114B104C104D10441F484E2A82E89EDE6
:10300000B82E8BE5C82E87E0D82EC601B5012DE17C
:1030100033EF41E050E00E946F1B27EA31E440E0CB
:1030200050E00E94501B7B018C01C601B5012DE1CF
:1030300033EF41E050E00E946F1BCA01B9012CEE52
:1030400034EF4FEF5FEF0E94501B6E0D7F1D801F0E
:10305000911F97FF04C06150704080409048688382
:1030600079838A839B839B013F77C901CDB7DEB704
:10307000EAE00C94AE1B0E94ED17089582E391E004
:103080000E94ED170895A0E0B0E080933201909384
:103090003301A0933401B09335010895CF93DF93AA
:1030A000EC014B8140FF1AC046FF0AC04F7B4B83A7
:1030B0008E819F8101969F838E838A81282F2BC0CA
:1030C00042FF13C0E881F9818081282F332727FD33
:1030D00030952115310529F440624B832FEF3FEFE6
:1030E0001BC03196F983E88311C0EA85FB85CE01C8
:1030F00009959C0197FF0AC09B812F5F3F4F11F0FC
:1031000080E201C080E1892B8B83E8CF8E819F8193
:1031100001969F838E8330E0C901DF91CF9108959E
:10312000A0E0B0E0E6E9F8E10C949A1B9E01275F6D
:103130003F4F8D819E816F817885A9010E94E5189E
:103140002096E2E00C94B61B0F931F93CF93DF936E
:103150008C01EB018B8181FF1BC082FF0DC02E8192
:103160003F818C819D812817390764F4E881F981BA
:103170000193F983E88306C0E885F985802F0995D6
:10318000892B31F48E819F8101969F838E8302C0AB
:103190000FEF1FEFC801DF91CF911F910F9108959D
:1031A000A0E0B0E0E6EDF8E10C949A1BFE01359644
:1031B000619171918091B90D9091BA0DAF010E940A
:1031C000E5182096E2E00C94B61BABE0B0E0EBEE25
:1031D000F8E10C948A1B3C012B015A01FC01178277
:1031E0001682838181FD03C06FEF7FEFC6C19AE035
:1031F000892E1E010894211C311CF3012381F20148
:1032000023FD859123FF81912F01882309F4B2C109
:10321000853239F423FD859123FF81912F01853279
:1032200029F490E0B3010E94A418E7CF982FFF245F
:10323000EE249924FFE1FF15D0F09B3269F09C3217
:1032400028F4903259F0933291F40EC09D3249F037
:10325000903369F441E024C052E0F52A84E0F82A72
:1032600028C098E0F92A25C0E0E1FE2A22C0F7FC38
:1032700029C0892F80538A3070F4F6FE05C0989CCF
:10328000902C1124980E15C0E89CE02C1124E80E17
:10329000F0E2FF2A0EC09E3229F4F6FC6BC140E436
:1032A000F42A07C09C3619F450E8F52A02C0983673
:1032B00049F4F20123FD959123FF91912F01992368
:1032C00009F0B8CF892F8554833018F080528330AD
:1032D00038F444E050E0A40EB51E5FE359830FC0FC
:1032E000933631F0933779F0933509F056C020C00A
:1032F000F5018081898342E050E0A40EB51E610192
:1033000001E010E012C0F501C080D180F6FC03C0DE
:103310006FEF7FEF02C0692D70E042E050E0A40E35
:10332000B51EC6010E94E71A8C015FE7F52214C0A2
:10333000F501C080D180F6FC03C06FEF7FEF02C0C3
:10334000692D70E042E050E0A40EB51EC6010E9457
:10335000DC1A8C0150E8F52AF3FE07C01AC080E29F
:1033600090E0B3010E94A418EA948E2D90E0081713
:103370001907A8F30EC0F601F7FC8591F7FE8191BD
:103380006F0190E0B3010E94A418E110EA9401508B
:1033900010400115110579F7EAC0943611F09936FD
:1033A00069F5F7FE08C0F501208131814281538122
:1033B00084E090E00AC0F501808191819C0144275E
:1033C00037FD4095542F82E090E0A80EB91E9FE68D
:1033D000F92257FF09C050954095309521953F4FF0
:1033E0004F4F5F4FE0E8FE2ACA01B901A1012AE070
:1033F00030E00E94F21AD82ED21840C0953729F436
:103400001F2D1F7E2AE030E01DC01F2D197F9F3623
:1034100061F0903720F4983509F0ACC00FC09037B8
:1034200039F0983709F0A6C004C028E030E00AC09F
:10343000106114FD146020E130E004C014FD16603A
:1034400020E132E017FF08C0F501608171818281BF
:10345000938144E050E008C0F50180819181BC0176
:1034600080E090E042E050E0A40EB51EA1010E9471
:10347000F21AD82ED2188FE7F82EF122F6FE0BC0E2
:103480005EEFF522D91438F4F4FE07C0F2FC05C053
:103490008FEEF82202C01D2D01C0192DF4FE0DC0C3
:1034A000FE01ED0DF11D8081803319F499EEF922B2
:1034B00008C01F5FF2FE05C003C08F2D867809F09B
:1034C0001F5F0F2DF3FC14C0F0FE0FC01E1510F08F
:1034D0009D2C0BC09D2C9E0C911A1E2D06C080E2C7
:1034E00090E0B3010E94A4181F5F1E15C0F304C032
:1034F0001E1510F4E11A01C0EE2404FF0FC080E392
:1035000090E0B3010E94A41802FF1DC001FD03C09A
:1035100088E790E00EC088E590E00BC0802F8678A9
:1035200091F001FF02C08BE201C080E2F7FC8DE266
:1035300090E0B3010E94A41806C080E390E0B301BC
:103540000E94A4189A94D914C0F3DA94F101ED0DF5
:10355000F11D808190E0B3010E94A418DD20A9F73D
:1035600006C080E290E0B3010E94A418EA94EE2025
:10357000C1F743CEF30166817781CB012B96E2E15F
:103580000C94A61BF999FECF92BD81BDF89A99279C
:1035900080B50895262FF999FECF92BD81BDF89A86
:1035A000019700B4021639F01FBA20BD0FB6F89487
:1035B000FA9AF99A0FBE0895FC0105906150704087
:1035C0000110D8F7809590958E0F9F1F0895FC01EC
:1035D0006150704001900110D8F7809590958E0F42
:1035E0009F1F0895FA01AA27283051F1203181F157
:1035F000E8946F936E7F6E5F7F4F8F4F9F4FAF4FFB
:10360000B1E03ED0B4E03CD0670F781F891F9A1F0D
:10361000A11D680F791F8A1F911DA11D6A0F711DC1
:10362000811D911DA11D20D009F468943F912AE0CD
:10363000269F11243019305D3193DEF6CF010895B5
:10364000462F4770405D4193B3E00FD0C9F7F6CFE6
:10365000462F4F70405D4A3318F0495D31FD4052AE
:10366000419302D0A9F7EACFB4E0A6959795879544
:1036700077956795BA95C9F7009761057105089523
:103680009B01AC010A2E06945795479537952795CF
:10369000BA95C9F7620F731F841F951FA01D089567
:1036A000629FD001739FF001829FE00DF11D649F26
:1036B000E00DF11D929FF00D839FF00D749FF00DB2
:1036C000659FF00D9927729FB00DE11DF91F639F53
:1036D000B00DE11DF91FBD01CF011124089597FB25
:1036E000092E05260ED057FD04D04BD00AD0001C61
:1036F00038F450954095309521953F4F4F4F5F4F8F
:103700000895F6F790958095709561957F4F8F4F4E
:103710009F4F08952F923F924F925F926F927F92A8
:103720008F929F92AF92BF92CF92DF92EF92FF92D1
:103730000F931F93CF93DF93CDB7DEB7CA1BDB0B7D
:103740000FB6F894DEBF0FBECDBF09942A88398822
:1037500048885F846E847D848C849B84AA84B98429
:10376000C884DF80EE80FD800C811B81AA81B98135
:10377000CE0FD11D0FB6F894DEBF0FBECDBFED0149
:103780000895A1E21A2EAA1BBB1BFD010DC0AA1FA2
:10379000BB1FEE1FFF1FA217B307E407F50720F0BA
:1037A000A21BB30BE40BF50B661F771F881F991F35
:1037B0001A9469F760957095809590959B01AC017E
:0A37C000BD01CF010895F894FFCF7A
:1037CA00202D2D20002564000000000300000000C9
:1037DA001B0E4A0F00000000000300000000020E4A
:1037EA00130E000000000003000000003A0F2C0F27
:0637FA00000001000000C8
:00000001FF
