:100000000C9447030C94E8100C9464030C94D903EB
:100010000C9464030C9464030C9464030C946403C4
:100020000C9464030C9464030C9464030C946403B4
:100030000C9464030C9464030C9464030C946403A4
:100040000C94E9030C9464030C9464030C9464030F
:100050000C9464030C9464030C9464030C94640384
:100060000C9464030C9464030C9464030C94640374
:100070000C9464030C9464030C946403D305BB05D3
:100080007805D10589059B05AB05CE05CE05CE05C6
:10009000CE05CE05CE05CE05CE05CC05CE05CE05CA
:1000A000CE05CE05CE05CE05CE05CE05CE05CE05B8
:1000B000CE05CE05CE05CE05CE05CE05D305BB05B6
:1000C0007805D10589059B05AB05CE05CE05CE0586
:1000D000CE05CE05CE05CE05CE05CC05300A380AB4
:1000E000400A480A500A580A380A31126112FC12B2
:1000F0001F121F12FC121D12DD12FC12CA12FC127A
:100100001F12CA12FC12FC121012B012EF15CD15FC
:10011000D515FB154016D815DB15DE15E015E615CF
:10012000E915041607160A160D162E163716D215DF
:1001300010161316D0153116341616161916EC159E
:10014000EC15F215F515F8153116D215D215C415A2
:100150001C161F16221628162B1645164516451670
:10016000451645163A163D164016B216B516E9164E
:10017000EC16EF16F216FD160017031706170917EF
:100180000C170F171217151718171B171E17211703
:100190002417484947C848C94C4FD74CCF0053543F
:1001A00045D00054CF003EBD3CBEBEBD3CBDBC21D1
:1001B000BD00504545CB4142D3524EC450494E44F8
:1001C000524541C450494E41524541C4004C4953E7
:1001D000D44E45D75255CE4E4558D44C45D449C639
:1001E000474F54CF4D504C41D94D53544FD05445A7
:1001F0004D50CF4D555349C3474F5355C2524554A7
:100200005552CE52414E444F4D495AC5524E445319
:100210004545C45253D4434CD35245CD464FD249A1
:100220004E5055D4424545D05052494ED44C4F4380
:100230004154C5504F4BC5505345D453544FD045EE
:100240004EC44D45CD5045CE50415045D2BFA3A7D9
:1002500044454C41D9454C4953D445464F524D41F4
:10026000D44543484149CE45534156C5454C4F417D
:10027000C446494C45D343464F524D41D44343486D
:100280004149CE43534156C5434C4F41C450494E5A
:100290004449D250494E4457524954C5004578709C
:1002A000656374656420636F6C6F72205B302E2E03
:1002B0003132375D004F7574206F662072616E6752
:1002C00065004578706563746564206279746520A3
:1002D0005B302E2E3235355D00496E76616C696477
:1002E000207661726961626C65206E616D6500499E
:1002F0006E76616C696420636F6F7264696E61749D
:10030000657300556E6B6E6F776E20636F6D6D61F8
:100310006E6400556E6B6E6F776E2066756E6374DB
:10032000696F6E0050696E20492F4F206572726FA1
:100330007200496E76616C69642070696E205B3072
:100340002E2E375D004469766973696F6E2062797D
:10035000207A65726F004F70657261746F722065EC
:100360007870656374656400496E76616C696420B9
:100370006C696E65206E756D626572004A756D7090
:1003800020706F696E74206E6F7420666F756E6476
:10039000005661726961626C65206578706563748E
:1003A000656400706172656E746865736973206D51
:1003B000697373696E6700556E65787065637465FF
:1003C0006420636861726163746572005374616371
:1003D0006B206F766572666C6F770053796E74610F
:1003E00078206572726F72004E6F74207965742088
:1003F000696D706C656D656E7465640052696768DF
:100400007420004C65667420004F4B004272656199
:100410006B210020627974657320617661696C617B
:10042000626C650020627974657320524F4D002024
:1004300062797465732052414D0057656C636F6D2E
:100440006520746F206E73744241534943207630A7
:100450002E3200000000000000000000000000003C
:100460000000000000000000000000607E607E00D0
:10047000000000000000000000000000000000007C
:100480000000000000000009090909607E607E008C
:10049000000000000000000000000000000000005C
:1004A0000000000000000071515171312131210024
:1004B00000000000000000000000007A5A5A7A7321
:1004C000535373614141617757577732403240004F
:1004D00000000000000000634343637858587864CC
:1004E0004444646545456534243424332333230070
:1004F000000000000000002020202076565676667E
:10050000464666745454747252527235253525002D
:10051000000000000000006E4E4E6E6242426268B3
:100520004848686747476779595979365E365E00AB
:10053000000000000000002C3C2C3C6D4D4D6D6A0D
:100540004A4A6A7555557537263726382A382A009B
:10055000000000000000002C3C2C3C6B4B4B6B69F6
:100560004949696F4F4F6F302930293928392800A0
:10057000000000000000002E3E2E3E2F3F2F3F6C5B
:100580004C4C6C3B3A3B3A705050702D5F2D5F00E5
:1005900000000000000000000000002722272200C9
:1005A0000000005B7B5B7B3D2B3D2B0000000000CF
:1005B00000000000000000000000000D0D0D0D5DAA
:1005C0007D5D7D000000005C7C5C7C000000000024
:1005D000000000000000003C3C3C3C00000000002B
:1005E00000000000000000000000000808080800EB
:1005F0000000000000000031313131000000003403
:100600003434343737373700000000000000000072
:10061000000000303030302E2E2E2E323232323565
:1006200035353536363636383838381B1B1B1B0007
:10063000000000000000002B2B2B2B333333332D15
:100640002D2D2D2A2A2A2A39393939000000000097
:100650000000004B6579626F61726420636F6E6E9B
:100660006563746564207375636365737366756C25
:100670006C79004B6579626F6172642073656C669A
:100680002D74657374206661696C656400001124C3
:100690001FBECFEFD0E1DEBFCDBF11E0A0E0B1E0E3
:1006A000E4EDF6E302C005900D92A633B107D9F749
:1006B0002DE0A6E3B1E001C01D92A03DB207E1F735
:1006C0000E942F170C94681B0C940000CF93C82F26
:1006D0008A3019F48DE00E9466038091C00085FF86
:1006E000FCCFC093C600CF9108958091C00087FFD2
:1006F000FCCF8091C60090E00895682F8091A00DF6
:100700009091A10D9C012F5F3F4F3093A10D20933D
:10071000A00D0E94481A80E090E008958091A00DFD
:100720009091A10D9C012F5F3F4F3093A10D20931D
:10073000A00D0E94401A90E0089588B94E99FECF0E
:100740005F9A4E9BFECF5F986EE071E0883079F43F
:1007500088E090E00E9428186EE071E080E290E06E
:100760000E9428186EE071E088E090E003C09927AD
:1007700087FD90950E94281880E090E008952298C7
:100780002A9AEA9A539852985B9A5A9A82E084BDC0
:1007900015BC94E697BD80936E001092AA0D9BE065
:1007A00090938D0D809369001092AD0DE89A789426
:1007B00008951F920F920FB60F9211248F9381E02C
:1007C0008093AA0DEA988F910F900FBE0F901F9003
:1007D00018951F920F920FB60F9211248F938BE0F2
:1007E00080938D0D15BC8F910F900FBE0F901F90B1
:1007F00018956EE071E08BE190E00E9428186EE0A1
:1008000071E08BE590E00E9428186EE071E080E3D3
:1008100090E00E9428186EE071E08DE690E00E9462
:1008200028186EE071E08BE190E00E9428186EE0DD
:1008300071E08BE590E00E9428186EE071E088E49A
:1008400090E00E9428186EE071E08BE190E00E9439
:1008500028186EE071E08BE590E00E9428186EE0A9
:1008600071E08AE490E00C942818CF938CE191E039
:100870009093CB0D8093CA0D9093CD0D8093CC0DAA
:1008800010927C0087E880937A0080917A008064DF
:1008900080937A0080917A0086FDFCCF11B8CFEF6B
:1008A000C2B9209A289A0E94BF03C7B95698579A8E
:1008B0005498559A1092C50085E18093C40086E053
:1008C0008093C20088E18093C100CF910C94F9031A
:1008D000FF920F931F93CF93DF93C82FF62E6EE0F6
:1008E00071E08BE190E00E9428186EE071E08BE5EA
:1008F00090E00E9428181F92CF930EE211E01F9300
:100900000F93CEE0D1E0DF93CF930E941618BE0183
:100910008BE390E00E9428181F92FF921F930F9381
:10092000DF93CF930E9416188DB79EB70C960FB623
:10093000F8949EBF0FBE8DBFBE0188E490E0DF91AA
:10094000CF911F910F91FF900C94281888B94C9962
:10095000FECF5D9A4C9BFECF5D9808951F93CF9379
:10096000DF93182FCCECDDE0688179818EEC90E08C
:100970000E94281868817981812F90E0DF91CF91C2
:100980001F910C9428181F93CF93DF93182FCCEC52
:10099000DDE0688179818FEC90E00E942818688101
:1009A0007981812F90E0DF91CF911F910C942818CD
:1009B0000F931F93CF93DF93082F162FCCECDDE01E
:1009C000688179818DEC90E00E9428186881798196
:1009D000802F90E00E94281868817981812F90E013
:1009E000DF91CF911F910F910C942818EF92FF92F5
:1009F0000F931F93CF93DF931F92CDB7DEB7082FCE
:100A0000162F8CECE82E8DE0F82EF70160817181B5
:100A10008AEC90E049830E942818F7016081718177
:100A2000802F90E00E942818F70160817181812F4A
:100A300090E00E942818F701608171814981842F1C
:100A400090E00F90DF91CF911F910F91FF90EF9069
:100A50000C942818E0918E0DF0918F0DCF01019626
:100A600090938F0D80938E0D81819FEC980F943021
:100A700018F480530C94A60484E08093C60D089566
:100A80000F931F93CF93DF93C4E0DCE040918E0D72
:100A900050918F0DCA01019690938F0D80938E0D0A
:100AA000FA0161818EEC860F8630A8F460539A01BA
:100AB0002E5F3F4F30938F0D20938E0D828190E0FB
:100AC000815491098033910508F068C0825C9F4F82
:100AD000FC010C946017623211F0673229F45093D4
:100AE0008F0D40938E0DAEC084E08093C60DAAC0DA
:100AF000CA01039690938F0D80938E0DFA01838126
:100B0000833209F452C030938F0D20938E0D11E083
:100B100055C0CA01039690938F0D80938E0DFA01F4
:100B200083818F7D823409F442C030938F0D2093EE
:100B30008E0D15E043C0CA01039690938F0D8093EC
:100B40008E0DFA0183818332A1F130938F0D2093B2
:100B50008E0D16E033C0CA01039690938F0D8093DB
:100B60008E0DFA018381833231F130938F0D209302
:100B70008E0D18E023C0CA01039690938F0D8093C9
:100B80008E0DFA0183818F7D8234B9F030938F0D01
:100B900020938E0D1CE012C01DE010C0C093C60D46
:100BA0000DC013E00BC01AE009C012E007C014E04A
:100BB00005C017E003C019E001C01BE0E0918E0DF5
:100BC000F0918F0D9F012F5F3F4F30938F0D20933A
:100BD0008E0D81819FEC980F983010F4805303C0E4
:100BE000C093C60D80E0AF014E5F5F4F50938F0DF5
:100BF00040938E0D92819D3271F09D3321F09B3296
:100C000021F491E009C093E007C030938F0D209349
:100C10008E0D90E001C092E01D3041F06250012F36
:100C20006D9F000D11240150000F01C000E981509B
:100C3000F0E49F9F800D11240E94A604802F0E9443
:100C4000A60424CFDF91CF911F910F9108958FECCF
:100C50000E94A60483E008958EEC0E94A60483E01F
:100C600008956091CC0D7091CD0D89EC90E00E94BB
:100C700028180E94F90383E008952091AB0D30916C
:100C8000AC0D3093AF0D2093AE0D9091A40DA091BB
:100C90008E0DB0918F0D1197E091AE0DF091AF0DCB
:100CA0008DE0E938F80708F05AC080818634D1F029
:100CB000873409F057C09C3099F4828193819093D6
:100CC000A30D8093A20D8481958190938F0D8093C5
:100CD0008E0D2A5F3F4F3093AC0D2093AB0D37C084
:100CE000369638C09330A9F58C914181841331C078
:100CF00090E081549048880F991FA091B20DB09157
:100D0000B30DA80FB91F8D919C9111972481358146
:100D1000820F931F8D939C9324813581232B91F017
:100D2000228133812817390768F080859185909357
:100D30008F0D80938E0D868197819093A30D809364
:100D4000A20D05C03A96F093AC0DE093AB0D83E095
:100D500008953A96F093AF0DE093AE0D9DCF88E0E5
:100D60008093C60D84E008951092A10D1092A00DFD
:100D700080E091E00E94D81790939D0D80939C0D88
:100D8000C0970A9790F41092A10D1092A00D809137
:100D9000B00D9091B10D9093A60D8093A50D80910B
:100DA000380188608093380103C089E08093C60DC4
:100DB00084E008958091B20090E00E94CD1783E016
:100DC0000895CF93DF93EA9ACCECDDE068817981D6
:100DD00080ED90E00E9428186881798182ED90E092
:100DE0000E9428188091B00D9091B10D9093A30DA1
:100DF0008093A20D81E0DF91CF910895E0918E0D57
:100E0000F0918F0D80818A3029F082E08093C60DA9
:100E100084E008958091A50D9091A60D9093A30D67
:100E20008093A20D81E00895E0918E0DF0918F0DD9
:100E300080818A3029F082E08093C60D84E0089595
:100E40008091B00D9091B10D9093A60D8093A50D5A
:100E500085E00895FF920F931F93CF93DF93EC01EA
:100E60008B01F12CFE01EF0DF11D8081882341F0F3
:100E7000B801992787FD90950E942818F394F2CF26
:100E8000DF91CF911F910F91FF9008950F931F93C2
:100E9000CF93DF93EC018B01CE01FE01249122233D
:100EA00041F02196FC018491B80190E00E9428183D
:100EB000F3CFDF91CF911F910F910895CF93E091E0
:100EC0008E0DF0918F0DC081C23221F0C73211F02A
:100ED00080E029C03196F0938F0DE0938E0D8191C3
:100EE0008C1719F08A30D9F7F3CFE0918E0DF0917D
:100EF0008F0D80818C1789F06091CC0D7091CD0D94
:100F000090E00E94281880918E0D90918F0D01968F
:100F100090938F0D80938E0DE8CF3196F0938F0DC7
:100F2000E0938E0D81E0CF910895CF93DF93EC0194
:100F3000BC018AE090E00E942818BE018DE090E09C
:100F4000DF91CF910C942818CF93DF931092A10DCD
:100F50001092A00DC0E0D8E080E091E00E94D81788
:100F600090939D0D80939C0D0097E9F06091CC0DBE
:100F70007091CD0D9C01205231092F35310540F083
:100F80008A30910529F08D30910511F08FE390E0C2
:100F90000E94281821972097F9F68091CC0D909106
:100FA000CD0D0E94950782E0DF91CF910895CF93F8
:100FB000DF931092A10D1092A00DC0E0D0E060E090
:100FC00071E080E090E00E942818CE018F77992789
:100FD0008034910541F46091CC0D7091CD0D8EE27D
:100FE00090E00E9428182196CF3F87E0D80739F774
:100FF0008091CC0D9091CD0D0E94950782E0DF91FC
:10100000CF910895CF93DF93EB010E944607CE0165
:10101000DF91CF910C949507CF93DF93CCECDDE07B
:101020006881798188EC90E00E9428180E94F90379
:10103000688179818AE394E00E9402088091B00D72
:101040009091B10D9093A60D8093A50D85E0DF9151
:10105000CF910895E091AB0DF091AC0D3197F093E5
:10106000AC0DE093AB0D80830895E091AB0DF09152
:10107000AC0D8191F093AC0DE093AB0D0895AF9260
:10108000BF92CF92DF92EF92FF920F931F93CF9375
:10109000DF9300D0CDB7DEB75C017B0197FF07C0BF
:1010A000B194A194B1088DE290E00E94281800E06C
:1010B00010E03AE0C32ED12CC501B6010E944C17B6
:1010C000805D69837A830E942A086981A62E7A81CD
:1010D000B72E0F5F1F4FA114B10471F70E9435089E
:1010E000B70190E00E94281801501109011511055F
:1010F000A9F70F900F90DF91CF911F910F91FF9063
:10110000EF90DF90CF90BF90AF900895CF93DF9393
:10111000CCECDDE0688179818091B20D9091B30DC6
:101120002091A50D3091A60D821B930B0E943F08C4
:10113000688179818FE294E00E9402086881798158
:1011400080E098E00E943F086881798184E294E021
:101150000E94020883E0DF91CF910895CF93DF933F
:101160008BE391E09093B10D8093B00D9093A60D19
:101170008093A50D8AE89DE09093AC0D8093AB0D14
:1011800088E59DE090939F0D80939E0D82E29DE007
:101190009093B30D8093B20DCCECDDE06881798142
:1011A00087EE9BE00E943F08688179818FE294E09E
:1011B0000E9402086881798180E098E00E943F08DF
:1011C0006881798184E294E00E9402088881998193
:1011D000DF91CF910C949507CF93DF93EC01E091D1
:1011E000A80DF091A90D808191813396F093A90DFE
:1011F000E093A80DBE010E943F08BE0180E290E08E
:101200000E942818E091A80DF091A90D80818A30E4
:1012100071F0BE0190E00E9428188091A80D909175
:10122000A90D01969093A90D8093A80DEBCF31964F
:10123000F093A90DE093A80DCE01DF91CF910C940E
:1012400095078091B00D9091B10D2091A50D309131
:10125000A60D40918B0D50918C0D8217930751F084
:10126000FC01608171816417750720F46281860F2B
:10127000911DF3CF08951092A10D1092A00D0E9420
:1012800021099093A90D8093A80D2091A80D30916C
:10129000A90D8091A50D9091A60D2817390729F069
:1012A00080E091E00E94EC08F0CF60E071E080E027
:1012B00090E00E94281882E00895E0918E0DF09150
:1012C0008F0D8081803231F43196F0938F0DE09351
:1012D0008E0DF3CF8930C1F30895CF93DF93EC01E6
:1012E0001092A40D80E090E0FE012491222381F170
:1012F00020918E0D30918F0DF901E80FF91F60815B
:10130000FE014491641303C001962196EDCFFE01C6
:10131000449170E060587F4F50E06417750759F4AE
:101320000196820F931F90938F0D80938E0DDF9106
:10133000CF910C945D09FE018491219687FFFBCF2C
:101340008091A40D8F5F8093A40D0E945D09CACF88
:10135000DF91CF9108951F93CF93DF930E946A0A84
:10136000EC010E945D091BE0E0918E0DF0918F0D64
:1013700080818A3281F43196F0938F0DE0938E0D47
:101380000E946A0A9E01289FE001299FD00D389F84
:10139000D00D1124E9CF8F3291F43196F0938F0D57
:1013A000E0938E0D0E946A0ABC01009729F0CE01DD
:1013B0000E944C17EB01D8CF1093C60DD5CFCE01AC
:1013C000DF91CF911F910895CF93DF93E0918E0D20
:1013D000F0918F0D80818D3231F08B3221F00E949F
:1013E000AB09EC0102C0C0E0D0E0E0918E0DF091BD
:1013F0008F0D80818D3251F43196F0938F0DE093F3
:101400008E0D0E94AB09C81BD90BEFCF8B3251F464
:101410003196F0938F0DE0938E0D0E94AB09C80FAB
:10142000D91FE3CFCE01DF91CF910895CF93DF9302
:101430000E94E409EC018091C60D811144C086EA46
:1014400091E00E946D094091A40D4730E1F150E018
:1014500047305105D0F5FA01E259FF4F0C9460175F
:101460000E94E40931E020E0C817D9074CF527C0F5
:101470000E94E40931E020E0C817D90709F51FC030
:101480000E94E40931E020E08C179D07CCF017C0E2
:101490000E94E40931E020E0C817D90781F410C0A8
:1014A0000E94E40931E020E08C179D074CF407C04E
:1014B0000E94E40931E020E0C817D9070CF030E0C1
:1014C000832F922F04C0CE0102C080E090E0DF9114
:1014D000CF9108950F931F93CF93DF9300D0CDB793
:1014E000DEB701E010E00E945D09E0918E0DF09101
:1014F0008F0D80818D3249F43196F0938F0DE093FA
:101500008E0D119501951109EECF803331F431968E
:10151000F0938F0DE0938E0DF2C09FEC980F9930F1
:10152000E8F460E070E09AE0A0918E0DB0918F0D2C
:101530009B01929FB001939F700D1124FD01819139
:10154000680F711D60537109F0938F0DE0938E0D3C
:1015500011968C9180538A3038F3DCC09FEB980F42
:101560009A3108F0B4C0918191549A31A0F090E082
:1015700081549048880F991FA091B20DB091B30D7E
:10158000A80FB91F9C9111968C913196F0938F0DF5
:10159000E0938E0D6EC082EB91E00E946D09209168
:1015A000A40D253011F48EE0A8C0E0918E0DF091CD
:1015B0008F0D8081883211F085E09FC03196F093C5
:1015C0008F0DE0938E0D29830E94160ABC01E091D5
:1015D0008E0DF0918F0D80812981893209F08CC0A8
:1015E0003196F0938F0DE0938E0D2230E9F028F4C0
:1015F000222341F0213091F06AC02330F9F02430E9
:10160000D9F165C060353CE0730714F083E175C023
:10161000655C7E4FDB016C9170E07CC077FF7AC027
:1016200071956195710976C069837A830E94C817A4
:1016300069817A810E944C17BC016CC068307105C9
:1016400010F08CE05AC081E090E002C0880F991F32
:101650006A95E2F721B130E028233923232B21F5C5
:1016600020B130E02823392391E080E0232B09F4D6
:1016700090E0692F782F4EC06830710510F76093A5
:101680007C0081E090E002C0880F991F6A95E2F724
:1016900042B132B1282F2095232322B921B130E065
:1016A00028233923232B11F08DE027C080917A0065
:1016B000806480937A0080917A0086FDFCCF42B9E5
:1016C00060917800709179007695679523C0E091DC
:1016D0008E0DF0918F0D80818832D9F43196F09380
:1016E0008F0DE0938E0D0E94160AE0918E0DF09101
:1016F0008F0D2081293231F086E08093C60D60E0A5
:1017000070E008C03196F0938F0DE0938E0DBC0110
:1017100001C007C0069FC001079F900D169F900D46
:1017200011240F900F90DF91CF911F910F91089589
:101730000E94160A2091C60D21110BC08038910518
:1017400020F084E18093C60D04C00E94AE0482E0C4
:10175000089584E008950E94160A2091C60D211173
:101760000BC08038910520F084E18093C60D04C041
:101770000E94C30482E0089584E00895CF93DF932C
:101780000E94160AEC018091C60D81111DC0C8315E
:10179000D105B8F4E0918E0DF0918F0D80818C32DF
:1017A00011F082E00FC03196F0938F0DE0938E0D13
:1017B0000E94160A2091C60D211106C080329105A3
:1017C00028F080E18093C60D84E005C0682F8C2F3F
:1017D0000E94D80482E0DF91CF9108950F931F9368
:1017E000CF93DF930E94160AEC018091C60D811100
:1017F00036C0CF3FD10509F0B0F4E0918E0DF091E5
:101800008F0D80818C32C1F43196F0938F0DE0936F
:101810008E0D0E94160A8C018091C60D81111FC089
:10182000003F110510F080E118C0E0918E0DF0919D
:101830008F0D80818C3211F082E00FC03196F093D1
:101840008F0DE0938E0D0E94160A2091C60D211176
:1018500006C08038910528F084E18093C60D84E0AD
:1018600006C0482F602F8C2F0E94F60482E0DF9183
:10187000CF911F910F9108950E94160A90938C0D9D
:1018800080938B0D8091C60D811107C0E0918E0D64
:10189000F0918F0D80818A3021F084E08093C60D15
:1018A00008950E9421099093A30D8093A20D81E0D9
:1018B00008950E94160A90939D0D80939C0D20918F
:1018C000C60D211107C0E0918E0DF0918F0D208182
:1018D0002A3021F484E08093C60D0895892B11F0FD
:1018E00086E0089582E008951092C60D0E94160ABF
:1018F00090938C0D80938B0D8091C60D811132C019
:10190000A0918E0DB0918F0D8C918A3059F5E09198
:10191000AB0DF091AC0DCF01069620919E0D30914C
:101920009F0D8217930728F483E08093C60D84E00F
:1019300008953697F093AC0DE093AB0D87E490E0FB
:1019400091838083B583A4838091A20D9091A30D90
:10195000938382830E9421099093A30D8093A20D0B
:1019600081E0089584E08093C60D0895CF93DF93BE
:101970000E94160AEC018091C60D81112FC0C8305B
:10198000D10510F08CE028C0E0918E0DF0918F0D04
:1019900080818C3201F53196F0938F0DE0938E0D9E
:1019A0000E94160A2091C60D211118C021E030E0D6
:1019B0000C2E01C0220F0A94EAF7009731F001972C
:1019C00051F481B1822B81B904C081B120952823C3
:1019D00021B982E004C082E08093C60D84E0DF91EB
:1019E000CF910895CF93DF930E94160AEC01809166
:1019F000C60D81112FC0C830D10510F08CE028C071
:101A0000E0918E0DF0918F0D80818C3201F5319631
:101A1000F0938F0DE0938E0D0E94160A2091C60D53
:101A2000211118C021E030E00C2E01C0220F0A94D1
:101A3000EAF7009731F0019751F482B1822B82B915
:101A400004C082B12095282322B982E004C082E03C
:101A50008093C60D84E0DF91CF9108951092C60D5A
:101A60000E94160A2091C60D211104C00E94CD17B4
:101A700083E0089584E008950E945D090E94160A9B
:101A80002091C60D211122C08837910599F038F4B4
:101A9000CC97F1F48CEC0E94A60480E014C0863947
:101AA000910569F0843B910599F48CEC0E94A604A1
:101AB00088E109C08CEC0E94A60488E004C08CEC8C
:101AC0000E94A60480E10E94A60402C084E008955A
:101AD00083E00895CF93DF930E945D091092C60DB5
:101AE000E0918E0DF0918F0DC081C23231F0C7327E
:101AF00021F082E08093C60D26C03196F0938F0DC1
:101B0000E0938E0DD4E009C080918E0D90918F0DE1
:101B1000019690938F0D80938E0DE0918E0DF09134
:101B20008F0D80818C1709F449C0893571F489ECD7
:101B30000E94A6040E942A058091C60D882321F3E5
:101B400088EC0E94A60484E03FC08A3580F4853486
:101B500031F130F4833409F1F0F4813441F32BC0D6
:101B60008E34C9F08835C9F08D3429F518C0853612
:101B7000B1F030F4833689F070F48136C1F21BC0C5
:101B80008E3649F018F48D3651F015C0883729F09B
:101B9000893769F210C08AECCBCF8BECC9CF8DECC2
:101BA0000E94A6040E942A058091C60D8111C4CF0F
:101BB0000E944005C1CFD093C60DBECF3196F093A1
:101BC0008F0DE0938E0D83E0DF91CF910895E0912A
:101BD0008E0DF0918F0D80818A3381F48091CC0D30
:101BE0009091CD0D0E94950780918E0D90918F0D53
:101BF000019690938F0D80938E0D48C08A3009F422
:101C00004BC00E945D090E945E0781111BC0E091DC
:101C10008E0DF0918F0D8081823211F0873221F488
:101C200084E08093C60D08951092C60D0E94160A96
:101C30002091C60D211132C06091CC0D7091CD0D57
:101C40000E943F08E0918E0DF0918F0D80818C32C3
:101C500031F43196F0938F0DE0938E0DD2CF8B330C
:101C600059F481818A3011F08A3391F43196F093DE
:101C70008F0DE0938E0D0AC08A3011F08A3341F443
:101C80008091CC0D9091CD0D0E94950783E0089531
:101C900082E08093C60D02C082E0089584E008953A
:101CA000BF92CF92DF92EF92FF920F931F93CF9349
:101CB000DF930E945D09E0918E0DF0918F0DD08031
:101CC0008FEB8D0D8A3110F087E00FC03196F093C5
:101CD0008F0DE0938E0D0E945D09E0918E0DF091C5
:101CE0008F0D80818D3329F08AE08093C60D84E0CA
:101CF0007DC03196F0938F0DE0938E0D0E945D09AB
:101D00001092C60D0E94160A7C018091C60D8111A9
:101D1000EECF83EA91E00E946D098091A40D8111BC
:101D200026C00E94160A8C018091C60D8111DFCF5A
:101D30008EE991E00E946D098091A40D811109C086
:101D40000E94160A2091C60D2111D1CFB82EC92E9E
:101D500003C0BB24B394C12C0E945D09C0918E0DB9
:101D6000D0918F0D28812A3021F02A3311F082E0A2
:101D7000BCCF8091C60D811136C02A30A1F5E0910B
:101D8000AB0DF091AC0D9F01265F3F4F40919E0D32
:101D900050919F0D2417350710F483E0A6CF3A9792
:101DA000F093AC0DE093AB0D2D2D30E02154304875
:101DB000220F331FA091B20DB091B30DA20FB31F2C
:101DC000ED92FC9286E48083D18213830283B482F5
:101DD000C582D187C0878091A20D9091A30D978372
:101DE000868383E003C084E08093C60DDF91CF91AA
:101DF0001F910F91FF90EF90DF90CF90BF900895CB
:101E00000E945D09E0918E0DF0918F0D80818154CB
:101E10008A3110F087E011C03196F0938F0DE09376
:101E20008E0D0E945D09E0918E0DF0918F0D8081E5
:101E30008A3339F08A3029F082E08093C60D84E03D
:101E4000089580E008951F93CF93DF93E0918E0D66
:101E5000F0918F0DC0818FEB8C0F8A31F0F51091CE
:101E6000B20DD091B30DCF01019690938F0D809359
:101E70008E0D818181548A3148F48FEF8093C60D95
:101E80003296F0938F0DE0938E0D37C00E945D095E
:101E9000E0918E0DF0918F0D80818D3311F08FE0E8
:101EA0001DC08091C60D8F3F11F481E117C031969E
:101EB000F0938F0DE0938E0D0E945D090E94160A2B
:101EC0002091C60D211119C0E0918E0DF0918F0D5A
:101ED00020812A3031F02A3321F082E08093C60D30
:101EE0000CC0E12FFD2FEC0FF11DEC0FF11DE2589E
:101EF000F1099183808383E001C084E0DF91CF9179
:101F00001F910895CF93DF930E94160AEC018091F0
:101F1000C60D81112EC0C0358CE0D80714F083E1C6
:101F200026C00E945D09E0918E0DF0918F0D808199
:101F30008C32E1F43196F0938F0DE0938E0D0E9478
:101F40005D090E94160A2091C60D211112C08F3F13
:101F5000910519F010F082E10AC0E0918E0DF09128
:101F60008F0D20812A3039F02A3329F082E08093C6
:101F7000C60D84E004C0C55CDE4F888383E0DF913A
:101F8000CF9108950E945D0980E090E05AE0E091D1
:101F90008E0DF0918F0D408120ED240F2A30A0F49A
:101FA000893929E1920788F4589F9001599F300D93
:101FB0001124842F90E0C097820F931F3196F093E5
:101FC0008F0DE0938E0DE3CF08958FEF9FEF08956F
:101FD0000E94C20F90938C0D80938B0DE0918E0D1B
:101FE000F0918F0D80818A3021F084E08093C60DBE
:101FF00018C00E9421099093A90D8093A80D2091EB
:10200000A80D3091A90D8091A50D9091A60D2817CE
:10201000390739F08091CC0D9091CD0D0E94EC08DC
:10202000EECF84E00895E091A50DF091A60D3296D3
:1020300090E080818A30B1F0891769F0823269F0CE
:10204000873269F091110CC02FE9280F2A3140F432
:102050008052808305C090E003C092E201C097E205
:102060003196E7CF089590ED980F9A3090F0982F21
:102070009F7D91549A3168F08F3559F08B3249F039
:102080008E3239F021E090E08E3709F020E0822F87
:10209000089581E090E008950F931F93CF93DF930D
:1020A0001092C60DC0918E0DD0918F0D1881812F89
:1020B0000E943310892B31F42196D0938F0DC09359
:1020C0008E0DF0CF1123F9F0CE01019690938F0D74
:1020D00080938E0D00918E0D10918F0DF8018081EF
:1020E0000E943310892B39F00F5F1F4F10938F0D13
:1020F00000938E0DEFCF0C171D0711F0F801108221
:102100008881811103C081E08093C60DCE01DF91EB
:10211000CF911F910F910895009741F0E7E8F3E107
:102120003197F1F700C000000197F6CF0895209194
:102130008A0D211105C08FE090E00E948C10F7CF2E
:1021400090919A0DE92FF0E0EC54F24F80819F5F5F
:1021500090939A0D215020938A0D903111F4109292
:102160009A0D90E00895009731F026E02A95F1F756
:1021700000C00197F8CF0895CF93E898C4E6289857
:102180008EEE92E00E94B310289A84EF91E00E94B4
:10219000B310C150A1F7E89ACF91089590918A0D9C
:1021A000903198F42091A70DE22FF0E0EC54F24F1B
:1021B000808381E0820F8093A70D9F5F90938A0DAB
:1021C000803129F41092A70D08950C94BC10089545
:1021D0001F920F920FB60F9211242F933F934F939C
:1021E0005F936F937F938F939F93AF93BF93EF937F
:1021F000FF9399B12091AD0D80918D0D21111AC0E1
:102200008B3011F485E085BD80918D0D8350883031
:1022100050F48091370186958093370193FF03C076
:1022200080688093370183E08093690081E0809328
:10223000AD0DA6C0815080938D0D81119CC0E091A1
:1022400037018091360180FD86C0E73759F158F497
:10225000E43169F118F4E23161F12DC0E83501F1A2
:10226000E93539F128C0E03EB1F020F4EA3A09F44A
:102270007FC021C0E03F89F0EC3FE9F46091CC0DD4
:102280007091CD0D83E796E00E9402080E94BC1079
:102290000E94BC106DC0826069C08D7F816066C085
:1022A00090E201C098E098279093360161C0846065
:1022B0005DC080615BC082FF1AC0E13221F481E021
:1022C0008093AA0D55C0E43329F48B7F80933601A7
:1022D00087E03EC0EB3411F48CE03AC0EC3111F4ED
:1022E00081E036C0E43209F043C082E031C081FFB2
:1022F00021C0EA3511F48DE017C0E53711F484E010
:1023000013C0E23711F485E00FC0EB3611F480E121
:102310000BC0E43711F481E107C0EC3611F481E021
:1023200003C0E93619F482E00E94CE108091360194
:102330008D7F1CC084FB992790F985FD9E5F84E00A
:10234000E89FF0011124E90FF11DED5AFB4F849134
:102350000E94CE100DC0E43131F0E93531F0E231A8
:1023600021F08E7F03C08A7F01C08E7E809336016C
:102370008BE080938D0D82E0809369001092AD0D0B
:10238000FF91EF91BF91AF919F918F917F916F914D
:102390005F914F913F912F910F900FBE0F901F9023
:1023A00018950F931F93CF938091A50D9091A60D33
:1023B000029690938F0D80938E0D90933A018093A7
:1023C00039018091380183FD10C0C0EE38C0E09122
:1023D0008E0DF0918F0D808380918E0D90918F0DD9
:1023E000019690938F0D80938E0D80E091E00E9476
:1023F000D8179C0133272A30310559F02D3031058B
:1024000041F0232B21F780913801877F8093380199
:1024100022C1E0918E0DF0918F0D8AE080831BC167
:102420008091A50D9091A60D029620918E0D309170
:102430008F0D8217930708F48CC00E94BC10809106
:10244000CA0D9091CB0D0E94D8178C019927FC01E1
:102450003197E131F10508F0CFC0EB58FF4F0C94F4
:1024600060178091A50D9091A60D029620918E0D7A
:1024700030918F0D8217930710F76091CC0D7091FA
:10248000CD0D81E090E00E9428186091CC0D7091F4
:10249000CD0D80918E0D90918F0D2091A50D3091D5
:1024A000A60D821B930B825082958695877090E0D3
:1024B00001960E9428188091A50D9091A60D029674
:1024C00096C020918E0D30918F0D809139019091A1
:1024D0003A012817390708F0B2CF6091CC0D7091FE
:1024E000CD0D82E090E00E9428184091A50D5091FA
:1024F000A60D8091390190913A01841B950B1EEF36
:10250000180F012F02950695077020918E0D3091BE
:102510008F0D241B350B2250229526952770609134
:10252000CC0D7091CD0D802F821B90E001960E9402
:1025300028186091CC0D7091CD0D812F0C9F800DCE
:10254000112490E00E9428188091390190913A015D
:102550004EC06091CC0D7091CD0D80E190E040C0F7
:1025600080918E0D90918F0D2091390130913A011B
:102570008217930708F061CF019690938F0D809397
:102580008E0D6091CC0D7091CD0D81E190E00E9497
:10259000281855CFE0913901F0913A01F0938F0D51
:1025A000E0938E0D8AE080838091CC0D9091CD0DCB
:1025B000CF911F910F910C9495078091A50D90914B
:1025C000A60D029620918E0D30918F0D82179307E4
:1025D00008F033CF6091CC0D7091CD0D88E090E084
:1025E0000E94281880918E0D90918F0D01979093E5
:1025F0008F0D80938E0D23CF2091B20D3091B30DAE
:102600002250310940918E0D50918F0D4217530782
:1026100009F413CF6091CC0D7091CD0D0E94281854
:10262000E0918E0DF0918F0D008380918E0D909131
:102630008F0D019690938F0D80938E0D209139010F
:1026400030913A012817390708F0F9CE90933A01F2
:1026500080933901F4CECF911F910F91089580910D
:10266000AA0D811104C08091C600833021F410921C
:10267000AA0D81E0089580E00895FC0120812D32AB
:1026800019F4019641E001C040E0FC0180E090E0D7
:102690005AE0219130ED320F3A3060F4BC01569F80
:1026A000C001579F900D112430E020533109820F53
:1026B000931FEFCF442319F09195819591090895C7
:1026C000CF92DF92EF92FF920F931F93CF93DF93FE
:1026D0000E945D09E0918E0DF0918F0D10818FEBBE
:1026E000810F8A3110F087E015C0F090B20D009193
:1026F000B30D3196F0938F0DE0938E0D0E945D091E
:10270000E0918E0DF0918F0D80818A3039F08A33FF
:1027100029F082E08093C60D84E0A8C080E99DE0A6
:102720009093C80D8093C70D1092900DEA9AC12C1A
:102730007AE0D72E8091CA0D9091CB0D0E94D817C8
:10274000EC01E82E8091AA0D813009F48EC0CE01F3
:1027500099278A30910549F124F48830910559F17F
:1027600048C08D30910509F18D32910509F041C0C5
:10277000C11061C06091CC0D7091CD0D8DE290E0E3
:102780000E942818E091C70DF091C80DC083E09118
:10279000C70DF091C80DCF0101969093C80D80939D
:1027A000C70D1182CC24C39446C0E091C70DF091AF
:1027B000C80DD08240C08091C70D9091C80D80593E
:1027C0009D4009F018F40E94BC1035C06091CC0DFA
:1027D0007091CD0D88E090E00E9428188091C70D7F
:1027E0009091C80D01979093C80D8093C70DCA941E
:1027F00022C02C2F20532A30F0F425E02C15C0F0F5
:102800006091CC0D7091CD0D0E942818E091C70DFC
:10281000F091C80DC083C394E091C70DF091C80D2D
:10282000CF0101969093C80D8093C70D118206C009
:102830000E94BC1003C02AE0E21619F08DE0E812F5
:1028400079CF8091CC0D9091CD0D0E94950780E9B4
:102850009DE00E943D13EF2DF02FE10FF11DE10FE0
:10286000F11DE258F1099183808383E0DF91CF91DC
:102870001F910F91FF90EF90DF90CF900895C4E0EB
:102880000AE81DE0D2E0E0E1DE2EF4E0CF2EA3E086
:10289000EA2EB1E38B2EB1E09B2EC43009F5609196
:1028A000CC0D7091CD0D81ED90E00E9428186091C3
:1028B000CC0D7091CD0D83ED90E00E942818109200
:1028C000A30D1092A20D1093AC0D0093AB0D60916F
:1028D000CC0D7091CD0D89E094E00E940208C0E01B
:1028E0001092C60D80913801982F937089F08C7FDB
:1028F000809338018091B00D9091B10D9093A30D0C
:102900008093A20D039690938F0D80938E0D15C129
:102910000E94D1110E9413108091A50D9091A60DD7
:10292000029690938F0D80938E0DE0918E0DF09115
:102930008F0D80818A3031F03196F0938F0DE093C6
:102940008E0DF3CFE091B20DF091B30D3197A091C0
:102950008E0DB0918F0D8C91808320918E0D3091D2
:102960008F0D8091A50D9091A60D0296281739071D
:1029700039F02150310930938F0D20938E0DE6CF21
:10298000F0938F0DE0938E0D0E94C20F90938C0DEB
:1029900080938B0D0E945D0920918B0D30918C0DE1
:1029A0002115310509F4B9C02F3F6FEF360721F427
:1029B00089E08093C60DC1C01092C90D80918E0D23
:1029C00090918F0D4091C90DFC01E40FF11D5081D4
:1029D0005A3021F04F5F4093C90DF4CF4C5F4093C4
:1029E000C90DFC013397F0938F0DE0938E0D318369
:1029F0002083329640830E9421099093C50D8093D5
:102A0000C40D2091A50D3091A60D82179307F9F002
:102A1000FC016081718140918B0D50918C0D641788
:102A20007507A9F44281E40FF11D2E1B3F0BAF0186
:102A3000420F531FDC01E417F50719F061916D9304
:102A4000FACF820F931F9093A60D8093A50DE0916E
:102A50008E0DF0918F0D83818A3009F441CF209142
:102A6000C90D222309F43CCF4091A50D5091A60D2C
:102A700080918E0D90918F0D30E0841B950B28175F
:102A8000390708F4C901FA01E80FF91FF093990D0D
:102A9000E093980D2091C40D3091C50DBA01621BD1
:102AA000730B9B01DA012115310529F04E914293F8
:102AB00021503109F8CF2817390731F1E091C40DC1
:102AC000F091C50DA0918E0DB0918F0D4C9140836A
:102AD00040918E0D50918F0D4F5F5F4F50938F0D32
:102AE00040938E0D4091C40D5091C50D4F5F5F4FC7
:102AF0005093C50D4093C40D4091C90D4150409372
:102B0000C90D2F5F3F4FD7CF8091980D9091990DB0
:102B10009093A60D8093A50DA2CF1092AA0DE091DF
:102B2000A50DF091A60DCF01029690938F0D809385
:102B30008E0D82818A3009F4D3CE8091C60D811129
:102B4000F5C00E942F13882349F06091CC0D70913D
:102B5000CD0D8CE094E00E940208E5C010929B0D20
:102B60001092A40D1092C60D8DEC91E00E946D099B
:102B70008091A40D90E08F32910508F086C0FC0191
:102B8000EA57FF4F0C9460170E94160A90939D0D10
:102B900080939C0D0E948C1005C00E94140772C087
:102BA0000E94BC10D0939B0D74C00E94E1066AC0C5
:102BB0000E94590C67C00E943C0C64C08FEC01C09D
:102BC0008EEC0E94A604E0929B0D63C00E943C0D17
:102BD00059C00E946A0D56C00E94FE0653C00E9452
:102BE000E80F50C00E9486084DC00E94980B4AC052
:102BF0000E94AB0B47C00E94000F80939B0D8091F9
:102C0000C60D811146C003C00E94740C3BC00E94D7
:102C10003D0638C00E94DA0635C00E942E0D32C033
:102C20000E94500E2FC00E9460132CC00E94820F81
:102C300029C00E94EE0B26C00E94A40723C00E9458
:102C4000D70720C08091380182608093380103C08B
:102C50000E943B0917C00E94B40614C00E940C08D1
:102C600011C00E94E70D0EC00E94BE0B0BC00E9457
:102C7000310608C00E94B60C05C00E94F20C02C0CA
:102C80000E94230F80939B0D04C0D092C60DC0926A
:102C90009B0D80919B0D843009F445C0853009F46B
:102CA00044C0863009F44DCF8330D9F40E945D09C9
:102CB000E0918E0DF0918F0D80818A3381F4E09147
:102CC0008E0DF0918F0D80818A3331F43196F0931F
:102CD0008F0DE0938E0DF3CF0E945D0932CFD0931C
:102CE0009B0D80919B0D823069F4E091A20DF091D3
:102CF000A30D3097C1F08281E80FF11DF093A30D71
:102D0000E093A20D8091A20D9091A30D2091A50DAD
:102D10003091A60D8217930731F0039690938F0D93
:102D200080938E0D0ECFC4E001C0C5E08091C60D2A
:102D3000882309F4B2CD83E00E94AE0480E00E94B3
:102D4000C3048091C60D90E0FC013197E431F10598
:102D500008F07EC0EB54FF4F6091CC0D7091CD0D0B
:102D60000C94601788EE93E071C08BED93E00E94A5
:102D700046078091A20D9091A30D892B19F19F9286
:102D80008F920E945A18E0918E0DF0918F0DA080C5
:102D90000F900F907AE0A71611F08EE58083809156
:102DA000A20D9091A30D9093A90D8093A80D8091F1
:102DB000CC0D9091CD0D0E94EC08E0918E0DF0911C
:102DC0008F0DA0828091CC0D9091CD0D0E94950722
:102DD0003FC08CEC93E03AC087EB93E037C083E0D0
:102DE00094E002C08CEF93E00E9402086091CC0D49
:102DF0007091CD0D83EA93E029C081E993E026C06C
:102E00008CE793E023C088E693E020C086E593E05A
:102E10001DC085E493E01AC082E393E017C084E20A
:102E200093E014C083E193E011C083E093E00EC00F
:102E30008FEE92E00BC089ED92E008C082EC92E048
:102E400005C085EB92E002C08DE992E00E94020885
:102E50008CE40E94AE0480E00E94C3041ECD0E9458
:102E600035048CE40E94AE0480E00E94C3046091AB
:102E7000CC0D7091CD0D8AE394E00E9402080E946F
:102E8000BC101092B00087E08093B10010927000E7
:102E90000E94AE080E943F1497FB072E16F4009480
:102EA00007D077FD09D00E94661707FC05D03EF4D5
:102EB000909581959F4F0895709561957F4F0895E6
:102EC000EE0FFF1F0590F491E02D0994AA1BBB1B88
:102ED00051E107C0AA1FBB1FA617B70710F0A61B1A
:102EE000B70B881F991F5A95A9F780959095BC013B
:102EF000CD0108958F929F92AF92BF92CF92DF92B1
:102F0000EF92FF92CF93DF93EC01688179818A8100
:102F10009B81611571058105910521F464E279EDCC
:102F20008BE597E02DE133EF41E050E00E94CE1AAF
:102F300049015A019B01AC01A7EAB1E40E94ED1AD4
:102F40006B017C01ACEEB4EFA50194010E94FB1A69
:102F5000C60ED71EE81EF91EF7FE06C081E0C81A8D
:102F6000D108E10880E8F80AC882D982EA82FB82A7
:102F7000C6019F77DF91CF91FF90EF90DF90CF90C8
:102F8000BF90AF909F908F9008950E947A170895F8
:102F90008AE291E00E947A170895A0E0B0E0809361
:102FA0002A0190932B01A0932C01B0932D01089539
:102FB000CF93DF93EC012B8120FF33C026FF0AC0A3
:102FC0002F7B2B838E819F8101969F838E838A81A5
:102FD00090E029C022FF0FC0E881F9818081992704
:102FE00087FD9095009719F420622B831AC03196C3
:102FF000F983E8830EC0EA85FB85099597FF09C030
:103000002B81019611F480E101C080E2822B8B8339
:1030100008C02E813F812F5F3F4F3F832E8399272A
:1030200002C08FEF9FEFDF91CF910895A0E0B0E055
:10303000ECE1F8E10C94101BAE01475F5F4F6F812C
:1030400078858D819E810E946E18E2E00C942C1B85
:103050000F931F93CF93DF93182F092FEB018B81D1
:1030600081FD03C08FEF9FEF20C082FF10C04E8113
:103070005F812C813D81421753077CF4E881F981FF
:103080009F012F5F3F4F39832883108306C0E88557
:10309000F985812F0995892B29F72E813F812F5F93
:1030A0003F4F3F832E83812F902FDF91CF911F9130
:1030B0000F910895A0E0B0E0E0E6F8E10C94101B59
:1030C000FE01359661917191AF018091CC0D909187
:1030D000CD0D0E946E18E2E00C942C1BACE0B0E029
:1030E000E4E7F8E10C94001B7C016B018A01FC0110
:1030F00017821682838181FFBDC1CE0101964C01EA
:10310000F7019381F60193FD859193FF81916F0102
:10311000882309F4ABC1853239F493FD859193FF7F
:1031200081916F01853229F4B70190E00E9428183F
:10313000E7CF512C312C20E02032A0F48B3269F003
:1031400030F4803259F0833269F420612CC08D3222
:1031500039F0803339F4216026C02260246023C016
:10316000286021C027FD27C030ED380F3A3078F4B1
:1031700026FF06C0FAE05F9E300D1124532E13C0C7
:103180008AE0389E300D1124332E20620CC08E321E
:1031900021F426FD6BC1206406C08C3611F4206832
:1031A00002C0883641F4F60193FD859193FF819129
:1031B0006F018111C1CF982F9F7D9554933028F4D2
:1031C0000C5F1F4FFFE3F9830DC0833631F0833767
:1031D00071F0833509F05BC022C0F80180818983DA
:1031E0000E5F1F4F44244394512C540115C03801E5
:1031F000F2E06F0E711CF801A080B18026FF03C0C1
:10320000652D70E002C06FEF7FEFC5012C870E9433
:10321000651A2C0183012C852F77222E17C03801C7
:10322000F2E06F0E711CF801A080B18026FF03C090
:10323000652D70E002C06FEF7FEFC5012C870E9403
:103240005A1A2C012C852068222E830123FC1BC0D6
:10325000832D90E048165906B0F4B70180E290E063
:103260000E9428183A94F4CFF50127FC859127FE97
:1032700081915F01B70190E00E94281831103A94C3
:10328000F1E04F1A51084114510471F7E5C084363A
:1032900011F0893639F5F80127FF07C06081718187
:1032A000828193810C5F1F4F08C0608171818827E4
:1032B00077FD8095982F0E5F1F4F2F76B22E97FFC8
:1032C00009C090958095709561957F4F8F4F9F4F66
:1032D0002068B22E2AE030E0A4010E94701AA82EC5
:1032E000A81844C0853729F42F7EB22E2AE030E09A
:1032F00025C0F22FF97FBF2E8F36C1F018F4883524
:1033000079F0B4C0803719F0883721F0AFC02F2F83
:103310002061B22EB4FE0DC08B2D8460B82E09C082
:1033200024FF0AC09F2F9660B92E06C028E030E027
:1033300005C020E130E002C020E132E0F801B7FE34
:1033400007C060817181828193810C5F1F4F06C02D
:103350006081718180E090E00E5F1F4FA4010E94A8
:10336000701AA82EA818FB2DFF77BF2EB6FE0BC033
:103370002B2D2E7FA51450F4B4FE0AC0B2FC08C059
:103380002B2D2E7E05C07A2C2B2D03C07A2C01C04C
:10339000752C24FF0DC0FE01EA0DF11D80818033E4
:1033A00011F4297E09C022FF06C07394739404C0EF
:1033B000822F867809F0739423FD13C020FF06C086
:1033C0005A2C731418F4530C5718732C731468F494
:1033D000B70180E290E02C870E94281873942C8516
:1033E000F5CF731410F4371801C0312C24FF12C02C
:1033F000B70180E390E02C870E9428182C8522FFDB
:1034000017C021FF03C088E590E002C088E790E084
:10341000B7010CC0822F867859F021FD02C080E2EE
:1034200001C08BE227FD8DE2B70190E00E942818D1
:10343000A51438F4B70180E390E00E9428185A944C
:10344000F7CFAA94F401EA0DF11D8081B70190E055
:103450000E942818A110F5CF332009F451CEB701EE
:1034600080E290E00E9428183A94F6CFF701868116
:10347000978102C08FEF9FEF2C96E2E10C941C1B0A
:10348000F999FECF92BD81BDF89A992780B508952C
:10349000262FF999FECF92BD81BDF89A019700B40D
:1034A000021639F01FBA20BD0FB6F894FA9AF99AAD
:1034B0000FBE0895FC010590615070400110D8F7CF
:1034C000809590958E0F9F1F0895FC01615070406C
:1034D00001900110D8F7809590958E0F9F1F089549
:1034E000FA01AA27283051F1203181F1E8946F9335
:1034F0006E7F6E5F7F4F8F4F9F4FAF4FB1E03ED0DB
:10350000B4E03CD0670F781F891F9A1FA11D680F78
:10351000791F8A1F911DA11D6A0F711D811D911DAB
:10352000A11D20D009F468943F912AE0269F112420
:103530003019305D3193DEF6CF010895462F477084
:10354000405D4193B3E00FD0C9F7F6CF462F4F70DF
:10355000405D4A3318F0495D31FD4052419302D03D
:10356000A9F7EACFB4E0A6959795879577956795E3
:10357000BA95C9F700976105710508959B01AC01E3
:103580000A2E06945795479537952795BA95C9F70A
:10359000620F731F841F951FA01D0895052E97FBB2
:1035A0001EF400940E94E51A57FD07D00E94371BB5
:1035B00007FC03D04EF40C94E51A509540953095D5
:1035C00021953F4F4F4F5F4F08959095809570958F
:1035D00061957F4F8F4F9F4F08950E94591BA59F64
:1035E000900DB49F900DA49F800D911D11240895FE
:1035F000B7FF0C94ED1A0E94ED1A821B930B0895ED
:103600002F923F924F925F926F927F928F929F92F2
:10361000AF92BF92CF92DF92EF92FF920F931F93E0
:10362000CF93DF93CDB7DEB7CA1BDB0B0FB6F89491
:10363000DEBF0FBECDBF09942A88398848885F84D1
:103640006E847D848C849B84AA84B984C884DF8042
:10365000EE80FD800C811B81AA81B981CE0FD11D26
:103660000FB6F894DEBF0FBECDBFED010895A1E205
:103670001A2EAA1BBB1BFD010DC0AA1FBB1FEE1FEC
:10368000FF1FA217B307E407F50720F0A21BB30B37
:10369000E40BF50B661F771F881F991F1A9469F7B3
:1036A00060957095809590959B01AC01BD01CF010F
:1036B0000895A29FB001B39FC001A39F700D811D0B
:1036C0001124911DB29F700D811D1124911D08952B
:0436D000F894FFCF9C
:1036D40000000003000000007D038E0300000000D2
:1036E40000030000000066037503000000000003EF
:1036F400000000009D0397100000010000002564F5
:0637040000202D2D200025
:0400000500800DC4A6
:00000001FF
